{
	"contracts/Demo.sol": {
		"MyShop": {
			"abi": [
				{
					"inputs": [],
					"stateMutability": "nonpayable",
					"type": "constructor"
				},
				{
					"inputs": [],
					"name": "demo",
					"outputs": [],
					"stateMutability": "nonpayable",
					"type": "function"
				},
				{
					"inputs": [
						{
							"internalType": "uint256",
							"name": "_inputUint",
							"type": "uint256"
						}
					],
					"name": "demo",
					"outputs": [],
					"stateMutability": "nonpayable",
					"type": "function"
				},
				{
					"inputs": [
						{
							"internalType": "string",
							"name": "newValueStr",
							"type": "string"
						}
					],
					"name": "demo",
					"outputs": [],
					"stateMutability": "nonpayable",
					"type": "function"
				},
				{
					"inputs": [
						{
							"internalType": "address",
							"name": "targetAddr",
							"type": "address"
						}
					],
					"name": "getBalance",
					"outputs": [
						{
							"internalType": "uint256",
							"name": "",
							"type": "uint256"
						}
					],
					"stateMutability": "view",
					"type": "function"
				},
				{
					"inputs": [],
					"name": "inc",
					"outputs": [],
					"stateMutability": "nonpayable",
					"type": "function"
				},
				{
					"inputs": [],
					"name": "maximum",
					"outputs": [
						{
							"internalType": "uint256",
							"name": "",
							"type": "uint256"
						}
					],
					"stateMutability": "view",
					"type": "function"
				},
				{
					"inputs": [],
					"name": "minimum",
					"outputs": [
						{
							"internalType": "uint256",
							"name": "",
							"type": "uint256"
						}
					],
					"stateMutability": "view",
					"type": "function"
				},
				{
					"inputs": [],
					"name": "myAddr",
					"outputs": [
						{
							"internalType": "address",
							"name": "",
							"type": "address"
						}
					],
					"stateMutability": "view",
					"type": "function"
				},
				{
					"inputs": [],
					"name": "myBool",
					"outputs": [
						{
							"internalType": "bool",
							"name": "",
							"type": "bool"
						}
					],
					"stateMutability": "view",
					"type": "function"
				},
				{
					"inputs": [
						{
							"internalType": "bool",
							"name": "_inputBool",
							"type": "bool"
						}
					],
					"name": "myFunc",
					"outputs": [],
					"stateMutability": "nonpayable",
					"type": "function"
				},
				{
					"inputs": [],
					"name": "myInt",
					"outputs": [
						{
							"internalType": "int256",
							"name": "",
							"type": "int256"
						}
					],
					"stateMutability": "view",
					"type": "function"
				},
				{
					"inputs": [],
					"name": "mySmaillUint",
					"outputs": [
						{
							"internalType": "uint8",
							"name": "",
							"type": "uint8"
						}
					],
					"stateMutability": "view",
					"type": "function"
				},
				{
					"inputs": [],
					"name": "mySmallInt",
					"outputs": [
						{
							"internalType": "int8",
							"name": "",
							"type": "int8"
						}
					],
					"stateMutability": "view",
					"type": "function"
				},
				{
					"inputs": [],
					"name": "myStr",
					"outputs": [
						{
							"internalType": "string",
							"name": "",
							"type": "string"
						}
					],
					"stateMutability": "view",
					"type": "function"
				},
				{
					"inputs": [],
					"name": "myUint",
					"outputs": [
						{
							"internalType": "uint256",
							"name": "",
							"type": "uint256"
						}
					],
					"stateMutability": "view",
					"type": "function"
				},
				{
					"inputs": [],
					"name": "myVal",
					"outputs": [
						{
							"internalType": "uint8",
							"name": "",
							"type": "uint8"
						}
					],
					"stateMutability": "view",
					"type": "function"
				},
				{
					"inputs": [],
					"name": "owner",
					"outputs": [
						{
							"internalType": "address",
							"name": "",
							"type": "address"
						}
					],
					"stateMutability": "view",
					"type": "function"
				},
				{
					"inputs": [],
					"name": "payForItem",
					"outputs": [],
					"stateMutability": "payable",
					"type": "function"
				},
				{
					"inputs": [
						{
							"internalType": "address",
							"name": "",
							"type": "address"
						}
					],
					"name": "payments",
					"outputs": [
						{
							"internalType": "uint256",
							"name": "",
							"type": "uint256"
						}
					],
					"stateMutability": "view",
					"type": "function"
				},
				{
					"inputs": [
						{
							"internalType": "address payable",
							"name": "targetAddr",
							"type": "address"
						},
						{
							"internalType": "uint256",
							"name": "amount",
							"type": "uint256"
						}
					],
					"name": "transferTo",
					"outputs": [],
					"stateMutability": "nonpayable",
					"type": "function"
				},
				{
					"inputs": [],
					"name": "withdrawAll",
					"outputs": [],
					"stateMutability": "nonpayable",
					"type": "function"
				}
			],
			"devdoc": {
				"kind": "dev",
				"methods": {},
				"version": 1
			},
			"evm": {
				"assembly": "    /* \"contracts/Demo.sol\":62:2833  contract MyShop {\r... */\n  mstore(0x40, 0x80)\n    /* \"contracts/Demo.sol\":111:153  0x5B38Da6a701c568545dCfcB03FcB875f56beddC4 */\n  0x5b38da6a701c568545dcfcb03fcb875f56beddc4\n    /* \"contracts/Demo.sol\":87:153  address public myAddr = 0x5B38Da6a701c568545dCfcB03FcB875f56beddC4 */\n  0x00\n  dup1\n  0x0100\n  exp\n  dup2\n  sload\n  dup2\n  0xffffffffffffffffffffffffffffffffffffffff\n  mul\n  not\n  and\n  swap1\n  dup4\n  0xffffffffffffffffffffffffffffffffffffffff\n  and\n  mul\n  or\n  swap1\n  sstore\n  pop\n    /* \"contracts/Demo.sol\":613:641  string public myStr = \"test\" */\n  mload(0x40)\n  dup1\n  0x40\n  add\n  0x40\n  mstore\n  dup1\n  0x04\n  dup2\n  mstore\n  0x20\n  add\n  0x7465737400000000000000000000000000000000000000000000000000000000\n  dup2\n  mstore\n  pop\n  0x01\n  swap1\n  dup1\n  mload\n  swap1\n  0x20\n  add\n  swap1\n  tag_1\n  swap3\n  swap2\n  swap1\n  tag_2\n  jump\t// in\ntag_1:\n  pop\n    /* \"contracts/Demo.sol\":903:906  254 */\n  0xfe\n    /* \"contracts/Demo.sol\":882:906  uint8 public myVal = 254 */\n  0x02\n  exp(0x0100, 0x00)\n  dup2\n  sload\n  dup2\n  0xff\n  mul\n  not\n  and\n  swap1\n  dup4\n  0xff\n  and\n  mul\n  or\n  swap1\n  sstore\n  pop\n    /* \"contracts/Demo.sol\":1377:1379  42 */\n  0x2a\n    /* \"contracts/Demo.sol\":1356:1379  uint public myUint = 42 */\n  0x05\n  sstore\n    /* \"contracts/Demo.sol\":1433:1434  2 */\n  0x02\n    /* \"contracts/Demo.sol\":1405:1434  uint8 public mySmaillUint = 2 */\n  0x06\n  exp(0x0100, 0x00)\n  dup2\n  sload\n  dup2\n  0xff\n  mul\n  not\n  and\n  swap1\n  dup4\n  0xff\n  and\n  mul\n  or\n  swap1\n  sstore\n  pop\n    /* \"contracts/Demo.sol\":1906:1909  -42 */\n  0xffffffffffffffffffffffffffffffffffffffffffffffffffffffffffffffd6\n    /* \"contracts/Demo.sol\":1884:1909  int256 public myInt = -42 */\n  0x07\n  sstore\n    /* \"contracts/Demo.sol\":1941:1943  -1 */\n  0xffffffffffffffffffffffffffffffffffffffffffffffffffffffffffffffff\n    /* \"contracts/Demo.sol\":1916:1943  int8 public mySmallInt = -1 */\n  0x08\n  exp(0x0100, 0x00)\n  dup2\n  sload\n  dup2\n  0xff\n  mul\n  not\n  and\n  swap1\n  dup4\n  0x00\n  signextend\n  0xff\n  and\n  mul\n  or\n  swap1\n  sstore\n  pop\n    /* \"contracts/Demo.sol\":2022:2026  true */\n  0x01\n    /* \"contracts/Demo.sol\":2001:2026  bool public myBool = true */\n  0x08\n  exp(0x0100, 0x01)\n  dup2\n  sload\n  dup2\n  0xff\n  mul\n  not\n  and\n  swap1\n  dup4\n  iszero\n  iszero\n  mul\n  or\n  swap1\n  sstore\n  pop\n    /* \"contracts/Demo.sol\":2172:2224  constructor () {\r... */\n  callvalue\n  dup1\n  iszero\n  tag_3\n  jumpi\n  0x00\n  dup1\n  revert\ntag_3:\n  pop\n    /* \"contracts/Demo.sol\":2206:2216  msg.sender */\n  caller\n    /* \"contracts/Demo.sol\":2198:2203  owner */\n  0x08\n  0x02\n    /* \"contracts/Demo.sol\":2198:2216  owner = msg.sender */\n  0x0100\n  exp\n  dup2\n  sload\n  dup2\n  0xffffffffffffffffffffffffffffffffffffffff\n  mul\n  not\n  and\n  swap1\n  dup4\n  0xffffffffffffffffffffffffffffffffffffffff\n  and\n  mul\n  or\n  swap1\n  sstore\n  pop\n    /* \"contracts/Demo.sol\":62:2833  contract MyShop {\r... */\n  jump(tag_6)\ntag_2:\n  dup3\n  dup1\n  sload\n  tag_7\n  swap1\n  tag_8\n  jump\t// in\ntag_7:\n  swap1\n  0x00\n  mstore\n  keccak256(0x00, 0x20)\n  swap1\n  0x1f\n  add\n  0x20\n  swap1\n  div\n  dup2\n  add\n  swap3\n  dup3\n  tag_10\n  jumpi\n  0x00\n  dup6\n  sstore\n  jump(tag_9)\ntag_10:\n  dup3\n  0x1f\n  lt\n  tag_11\n  jumpi\n  dup1\n  mload\n  not(0xff)\n  and\n  dup4\n  dup1\n  add\n  or\n  dup6\n  sstore\n  jump(tag_9)\ntag_11:\n  dup3\n  dup1\n  add\n  0x01\n  add\n  dup6\n  sstore\n  dup3\n  iszero\n  tag_9\n  jumpi\n  swap2\n  dup3\n  add\ntag_12:\n  dup3\n  dup2\n  gt\n  iszero\n  tag_13\n  jumpi\n  dup3\n  mload\n  dup3\n  sstore\n  swap2\n  0x20\n  add\n  swap2\n  swap1\n  0x01\n  add\n  swap1\n  jump(tag_12)\ntag_13:\ntag_9:\n  pop\n  swap1\n  pop\n  tag_14\n  swap2\n  swap1\n  tag_15\n  jump\t// in\ntag_14:\n  pop\n  swap1\n  jump\t// out\ntag_15:\ntag_16:\n  dup1\n  dup3\n  gt\n  iszero\n  tag_17\n  jumpi\n  0x00\n  dup2\n  0x00\n  swap1\n  sstore\n  pop\n  0x01\n  add\n  jump(tag_16)\ntag_17:\n  pop\n  swap1\n  jump\t// out\n    /* \"#utility.yul\":7:327   */\ntag_8:\n    /* \"#utility.yul\":51:57   */\n  0x00\n    /* \"#utility.yul\":88:89   */\n  0x02\n    /* \"#utility.yul\":82:86   */\n  dup3\n    /* \"#utility.yul\":78:90   */\n  div\n    /* \"#utility.yul\":68:90   */\n  swap1\n  pop\n    /* \"#utility.yul\":135:136   */\n  0x01\n    /* \"#utility.yul\":129:133   */\n  dup3\n    /* \"#utility.yul\":125:137   */\n  and\n    /* \"#utility.yul\":156:174   */\n  dup1\n    /* \"#utility.yul\":146:227   */\n  tag_20\n  jumpi\n    /* \"#utility.yul\":212:216   */\n  0x7f\n    /* \"#utility.yul\":204:210   */\n  dup3\n    /* \"#utility.yul\":200:217   */\n  and\n    /* \"#utility.yul\":190:217   */\n  swap2\n  pop\n    /* \"#utility.yul\":146:227   */\ntag_20:\n    /* \"#utility.yul\":274:276   */\n  0x20\n    /* \"#utility.yul\":266:272   */\n  dup3\n    /* \"#utility.yul\":263:277   */\n  lt\n    /* \"#utility.yul\":243:261   */\n  dup2\n    /* \"#utility.yul\":240:278   */\n  eq\n    /* \"#utility.yul\":237:321   */\n  iszero\n  tag_21\n  jumpi\n    /* \"#utility.yul\":293:311   */\n  tag_22\n  tag_23\n  jump\t// in\ntag_22:\n    /* \"#utility.yul\":237:321   */\ntag_21:\n    /* \"#utility.yul\":58:327   */\n  pop\n    /* \"#utility.yul\":7:327   */\n  swap2\n  swap1\n  pop\n  jump\t// out\n    /* \"#utility.yul\":333:513   */\ntag_23:\n    /* \"#utility.yul\":381:458   */\n  0x4e487b7100000000000000000000000000000000000000000000000000000000\n    /* \"#utility.yul\":378:379   */\n  0x00\n    /* \"#utility.yul\":371:459   */\n  mstore\n    /* \"#utility.yul\":478:482   */\n  0x22\n    /* \"#utility.yul\":475:476   */\n  0x04\n    /* \"#utility.yul\":468:483   */\n  mstore\n    /* \"#utility.yul\":502:506   */\n  0x24\n    /* \"#utility.yul\":499:500   */\n  0x00\n    /* \"#utility.yul\":492:507   */\n  revert\n    /* \"contracts/Demo.sol\":62:2833  contract MyShop {\r... */\ntag_6:\n  dataSize(sub_0)\n  dup1\n  dataOffset(sub_0)\n  0x00\n  codecopy\n  0x00\n  return\nstop\n\nsub_0: assembly {\n        /* \"contracts/Demo.sol\":62:2833  contract MyShop {\r... */\n      mstore(0x40, 0x80)\n      jumpi(tag_1, lt(calldatasize, 0x04))\n      shr(0xe0, calldataload(0x00))\n      dup1\n      0x5a455c1c\n      gt\n      tag_23\n      jumpi\n      dup1\n      0x8da5cb5b\n      gt\n      tag_24\n      jumpi\n      dup1\n      0x8da5cb5b\n      eq\n      tag_17\n      jumpi\n      dup1\n      0x939a79ac\n      eq\n      tag_18\n      jumpi\n      dup1\n      0xe2982c21\n      eq\n      tag_19\n      jumpi\n      dup1\n      0xe665b266\n      eq\n      tag_20\n      jumpi\n      dup1\n      0xed32ca32\n      eq\n      tag_21\n      jumpi\n      dup1\n      0xf8b2cb4f\n      eq\n      tag_22\n      jumpi\n      jump(tag_1)\n    tag_24:\n      dup1\n      0x5a455c1c\n      eq\n      tag_12\n      jumpi\n      dup1\n      0x6deecdbe\n      eq\n      tag_13\n      jumpi\n      dup1\n      0x7a28a513\n      eq\n      tag_14\n      jumpi\n      dup1\n      0x853828b6\n      eq\n      tag_15\n      jumpi\n      dup1\n      0x8b36687e\n      eq\n      tag_16\n      jumpi\n      jump(tag_1)\n    tag_23:\n      dup1\n      0x2ccb1b30\n      gt\n      tag_25\n      jumpi\n      dup1\n      0x2ccb1b30\n      eq\n      tag_7\n      jumpi\n      dup1\n      0x371303c0\n      eq\n      tag_8\n      jumpi\n      dup1\n      0x3891e899\n      eq\n      tag_9\n      jumpi\n      dup1\n      0x52342f13\n      eq\n      tag_10\n      jumpi\n      dup1\n      0x52d6804d\n      eq\n      tag_11\n      jumpi\n      jump(tag_1)\n    tag_25:\n      dup1\n      0x01725a0b\n      eq\n      tag_2\n      jumpi\n      dup1\n      0x06540f7e\n      eq\n      tag_3\n      jumpi\n      dup1\n      0x071bd079\n      eq\n      tag_4\n      jumpi\n      dup1\n      0x13bea460\n      eq\n      tag_5\n      jumpi\n      dup1\n      0x2cb777a6\n      eq\n      tag_6\n      jumpi\n    tag_1:\n      0x00\n      dup1\n      revert\n        /* \"contracts/Demo.sol\":1195:1298  function demo() public {\r... */\n    tag_2:\n      callvalue\n      dup1\n      iszero\n      tag_26\n      jumpi\n      0x00\n      dup1\n      revert\n    tag_26:\n      pop\n      tag_27\n      tag_28\n      jump\t// in\n    tag_27:\n      stop\n        /* \"contracts/Demo.sol\":1356:1379  uint public myUint = 42 */\n    tag_3:\n      callvalue\n      dup1\n      iszero\n      tag_29\n      jumpi\n      0x00\n      dup1\n      revert\n    tag_29:\n      pop\n      tag_30\n      tag_31\n      jump\t// in\n    tag_30:\n      mload(0x40)\n      tag_32\n      swap2\n      swap1\n      tag_33\n      jump\t// in\n    tag_32:\n      mload(0x40)\n      dup1\n      swap2\n      sub\n      swap1\n      return\n        /* \"contracts/Demo.sol\":1487:1852  function demo(uint _inputUint) public {\r... */\n    tag_4:\n      callvalue\n      dup1\n      iszero\n      tag_34\n      jumpi\n      0x00\n      dup1\n      revert\n    tag_34:\n      pop\n      tag_35\n      0x04\n      dup1\n      calldatasize\n      sub\n      dup2\n      add\n      swap1\n      tag_36\n      swap2\n      swap1\n      tag_37\n      jump\t// in\n    tag_36:\n      tag_38\n      jump\t// in\n    tag_35:\n      stop\n        /* \"contracts/Demo.sol\":2232:2321  function payForItem () public payable {\r... */\n    tag_5:\n      tag_39\n      tag_40\n      jump\t// in\n    tag_39:\n      stop\n        /* \"contracts/Demo.sol\":1884:1909  int256 public myInt = -42 */\n    tag_6:\n      callvalue\n      dup1\n      iszero\n      tag_41\n      jumpi\n      0x00\n      dup1\n      revert\n    tag_41:\n      pop\n      tag_42\n      tag_43\n      jump\t// in\n    tag_42:\n      mload(0x40)\n      tag_44\n      swap2\n      swap1\n      tag_45\n      jump\t// in\n    tag_44:\n      mload(0x40)\n      dup1\n      swap2\n      sub\n      swap1\n      return\n        /* \"contracts/Demo.sol\":162:286  function transferTo(address payable targetAddr, uint amount) public {\r... */\n    tag_7:\n      callvalue\n      dup1\n      iszero\n      tag_46\n      jumpi\n      0x00\n      dup1\n      revert\n    tag_46:\n      pop\n      tag_47\n      0x04\n      dup1\n      calldatasize\n      sub\n      dup2\n      add\n      swap1\n      tag_48\n      swap2\n      swap1\n      tag_49\n      jump\t// in\n    tag_48:\n      tag_50\n      jump\t// in\n    tag_47:\n      stop\n        /* \"contracts/Demo.sol\":915:1133  function inc() public {\r... */\n    tag_8:\n      callvalue\n      dup1\n      iszero\n      tag_51\n      jumpi\n      0x00\n      dup1\n      revert\n    tag_51:\n      pop\n      tag_52\n      tag_53\n      jump\t// in\n    tag_52:\n      stop\n        /* \"contracts/Demo.sol\":1405:1434  uint8 public mySmaillUint = 2 */\n    tag_9:\n      callvalue\n      dup1\n      iszero\n      tag_54\n      jumpi\n      0x00\n      dup1\n      revert\n    tag_54:\n      pop\n      tag_55\n      tag_56\n      jump\t// in\n    tag_55:\n      mload(0x40)\n      tag_57\n      swap2\n      swap1\n      tag_58\n      jump\t// in\n    tag_57:\n      mload(0x40)\n      dup1\n      swap2\n      sub\n      swap1\n      return\n        /* \"contracts/Demo.sol\":1167:1186  uint public maximum */\n    tag_10:\n      callvalue\n      dup1\n      iszero\n      tag_59\n      jumpi\n      0x00\n      dup1\n      revert\n    tag_59:\n      pop\n      tag_60\n      tag_61\n      jump\t// in\n    tag_60:\n      mload(0x40)\n      tag_62\n      swap2\n      swap1\n      tag_33\n      jump\t// in\n    tag_62:\n      mload(0x40)\n      dup1\n      swap2\n      sub\n      swap1\n      return\n        /* \"contracts/Demo.sol\":1141:1160  uint public minimum */\n    tag_11:\n      callvalue\n      dup1\n      iszero\n      tag_63\n      jumpi\n      0x00\n      dup1\n      revert\n    tag_63:\n      pop\n      tag_64\n      tag_65\n      jump\t// in\n    tag_64:\n      mload(0x40)\n      tag_66\n      swap2\n      swap1\n      tag_33\n      jump\t// in\n    tag_66:\n      mload(0x40)\n      dup1\n      swap2\n      sub\n      swap1\n      return\n        /* \"contracts/Demo.sol\":613:641  string public myStr = \"test\" */\n    tag_12:\n      callvalue\n      dup1\n      iszero\n      tag_67\n      jumpi\n      0x00\n      dup1\n      revert\n    tag_67:\n      pop\n      tag_68\n      tag_69\n      jump\t// in\n    tag_68:\n      mload(0x40)\n      tag_70\n      swap2\n      swap1\n      tag_71\n      jump\t// in\n    tag_70:\n      mload(0x40)\n      dup1\n      swap2\n      sub\n      swap1\n      return\n        /* \"contracts/Demo.sol\":2001:2026  bool public myBool = true */\n    tag_13:\n      callvalue\n      dup1\n      iszero\n      tag_72\n      jumpi\n      0x00\n      dup1\n      revert\n    tag_72:\n      pop\n      tag_73\n      tag_74\n      jump\t// in\n    tag_73:\n      mload(0x40)\n      tag_75\n      swap2\n      swap1\n      tag_76\n      jump\t// in\n    tag_75:\n      mload(0x40)\n      dup1\n      swap2\n      sub\n      swap1\n      return\n        /* \"contracts/Demo.sol\":1916:1943  int8 public mySmallInt = -1 */\n    tag_14:\n      callvalue\n      dup1\n      iszero\n      tag_77\n      jumpi\n      0x00\n      dup1\n      revert\n    tag_77:\n      pop\n      tag_78\n      tag_79\n      jump\t// in\n    tag_78:\n      mload(0x40)\n      tag_80\n      swap2\n      swap1\n      tag_81\n      jump\t// in\n    tag_80:\n      mload(0x40)\n      dup1\n      swap2\n      sub\n      swap1\n      return\n        /* \"contracts/Demo.sol\":2329:2509  function withdrawAll () public {\r... */\n    tag_15:\n      callvalue\n      dup1\n      iszero\n      tag_82\n      jumpi\n      0x00\n      dup1\n      revert\n    tag_82:\n      pop\n      tag_83\n      tag_84\n      jump\t// in\n    tag_83:\n      stop\n        /* \"contracts/Demo.sol\":2517:2828  function myFunc (bool _inputBool) public {\r... */\n    tag_16:\n      callvalue\n      dup1\n      iszero\n      tag_85\n      jumpi\n      0x00\n      dup1\n      revert\n    tag_85:\n      pop\n      tag_86\n      0x04\n      dup1\n      calldatasize\n      sub\n      dup2\n      add\n      swap1\n      tag_87\n      swap2\n      swap1\n      tag_88\n      jump\t// in\n    tag_87:\n      tag_89\n      jump\t// in\n    tag_86:\n      stop\n        /* \"contracts/Demo.sol\":2095:2115  address public owner */\n    tag_17:\n      callvalue\n      dup1\n      iszero\n      tag_90\n      jumpi\n      0x00\n      dup1\n      revert\n    tag_90:\n      pop\n      tag_91\n      tag_92\n      jump\t// in\n    tag_91:\n      mload(0x40)\n      tag_93\n      swap2\n      swap1\n      tag_94\n      jump\t// in\n    tag_93:\n      mload(0x40)\n      dup1\n      swap2\n      sub\n      swap1\n      return\n        /* \"contracts/Demo.sol\":692:874  function demo(string memory newValueStr) public {\r... */\n    tag_18:\n      callvalue\n      dup1\n      iszero\n      tag_95\n      jumpi\n      0x00\n      dup1\n      revert\n    tag_95:\n      pop\n      tag_96\n      0x04\n      dup1\n      calldatasize\n      sub\n      dup2\n      add\n      swap1\n      tag_97\n      swap2\n      swap1\n      tag_98\n      jump\t// in\n    tag_97:\n      tag_99\n      jump\t// in\n    tag_96:\n      stop\n        /* \"contracts/Demo.sol\":2122:2163  mapping (address => uint) public payments */\n    tag_19:\n      callvalue\n      dup1\n      iszero\n      tag_100\n      jumpi\n      0x00\n      dup1\n      revert\n    tag_100:\n      pop\n      tag_101\n      0x04\n      dup1\n      calldatasize\n      sub\n      dup2\n      add\n      swap1\n      tag_102\n      swap2\n      swap1\n      tag_103\n      jump\t// in\n    tag_102:\n      tag_104\n      jump\t// in\n    tag_101:\n      mload(0x40)\n      tag_105\n      swap2\n      swap1\n      tag_33\n      jump\t// in\n    tag_105:\n      mload(0x40)\n      dup1\n      swap2\n      sub\n      swap1\n      return\n        /* \"contracts/Demo.sol\":87:153  address public myAddr = 0x5B38Da6a701c568545dCfcB03FcB875f56beddC4 */\n    tag_20:\n      callvalue\n      dup1\n      iszero\n      tag_106\n      jumpi\n      0x00\n      dup1\n      revert\n    tag_106:\n      pop\n      tag_107\n      tag_108\n      jump\t// in\n    tag_107:\n      mload(0x40)\n      tag_109\n      swap2\n      swap1\n      tag_94\n      jump\t// in\n    tag_109:\n      mload(0x40)\n      dup1\n      swap2\n      sub\n      swap1\n      return\n        /* \"contracts/Demo.sol\":882:906  uint8 public myVal = 254 */\n    tag_21:\n      callvalue\n      dup1\n      iszero\n      tag_110\n      jumpi\n      0x00\n      dup1\n      revert\n    tag_110:\n      pop\n      tag_111\n      tag_112\n      jump\t// in\n    tag_111:\n      mload(0x40)\n      tag_113\n      swap2\n      swap1\n      tag_58\n      jump\t// in\n    tag_113:\n      mload(0x40)\n      dup1\n      swap2\n      sub\n      swap1\n      return\n        /* \"contracts/Demo.sol\":362:472  function getBalance(address targetAddr) public view returns(uint) {\r... */\n    tag_22:\n      callvalue\n      dup1\n      iszero\n      tag_114\n      jumpi\n      0x00\n      dup1\n      revert\n    tag_114:\n      pop\n      tag_115\n      0x04\n      dup1\n      calldatasize\n      sub\n      dup2\n      add\n      swap1\n      tag_116\n      swap2\n      swap1\n      tag_103\n      jump\t// in\n    tag_116:\n      tag_117\n      jump\t// in\n    tag_115:\n      mload(0x40)\n      tag_118\n      swap2\n      swap1\n      tag_33\n      jump\t// in\n    tag_118:\n      mload(0x40)\n      dup1\n      swap2\n      sub\n      swap1\n      return\n        /* \"contracts/Demo.sol\":1195:1298  function demo() public {\r... */\n    tag_28:\n        /* \"contracts/Demo.sol\":1239:1254  type(uint8).min */\n      0x00\n        /* \"contracts/Demo.sol\":1229:1254  minimum = type(uint8).min */\n      0xff\n      and\n        /* \"contracts/Demo.sol\":1229:1236  minimum */\n      0x03\n        /* \"contracts/Demo.sol\":1229:1254  minimum = type(uint8).min */\n      dup2\n      swap1\n      sstore\n      pop\n        /* \"contracts/Demo.sol\":1275:1290  type(uint8).max */\n      0xff\n        /* \"contracts/Demo.sol\":1265:1290  maximum = type(uint8).max */\n      dup1\n      and\n        /* \"contracts/Demo.sol\":1265:1272  maximum */\n      0x04\n        /* \"contracts/Demo.sol\":1265:1290  maximum = type(uint8).max */\n      dup2\n      swap1\n      sstore\n      pop\n        /* \"contracts/Demo.sol\":1195:1298  function demo() public {\r... */\n      jump\t// out\n        /* \"contracts/Demo.sol\":1356:1379  uint public myUint = 42 */\n    tag_31:\n      sload(0x05)\n      dup2\n      jump\t// out\n        /* \"contracts/Demo.sol\":1487:1852  function demo(uint _inputUint) public {\r... */\n    tag_38:\n        /* \"contracts/Demo.sol\":1536:1550  uint localUint */\n      0x00\n        /* \"contracts/Demo.sol\":1553:1555  42 */\n      0x2a\n        /* \"contracts/Demo.sol\":1536:1555  uint localUint = 42 */\n      swap1\n      pop\n        /* \"contracts/Demo.sol\":1578:1579  1 */\n      0x01\n        /* \"contracts/Demo.sol\":1566:1575  localUint */\n      dup2\n        /* \"contracts/Demo.sol\":1566:1579  localUint + 1 */\n      tag_121\n      swap2\n      swap1\n      tag_122\n      jump\t// in\n    tag_121:\n      pop\n        /* \"contracts/Demo.sol\":1602:1603  1 */\n      0x01\n        /* \"contracts/Demo.sol\":1590:1599  localUint */\n      dup2\n        /* \"contracts/Demo.sol\":1590:1603  localUint - 1 */\n      tag_123\n      swap2\n      swap1\n      tag_124\n      jump\t// in\n    tag_123:\n      pop\n        /* \"contracts/Demo.sol\":1626:1627  2 */\n      0x02\n        /* \"contracts/Demo.sol\":1614:1623  localUint */\n      dup2\n        /* \"contracts/Demo.sol\":1614:1627  localUint * 2 */\n      tag_125\n      swap2\n      swap1\n      tag_126\n      jump\t// in\n    tag_125:\n      pop\n        /* \"contracts/Demo.sol\":1650:1651  2 */\n      0x02\n        /* \"contracts/Demo.sol\":1638:1647  localUint */\n      dup2\n        /* \"contracts/Demo.sol\":1638:1651  localUint / 2 */\n      tag_127\n      swap2\n      swap1\n      tag_128\n      jump\t// in\n    tag_127:\n      pop\n        /* \"contracts/Demo.sol\":1682:1683  3 */\n      0x03\n        /* \"contracts/Demo.sol\":1669:1678  localUint */\n      dup2\n        /* \"contracts/Demo.sol\":1669:1683  localUint ** 3 */\n      tag_129\n      swap2\n      swap1\n      tag_130\n      jump\t// in\n    tag_129:\n      pop\n        /* \"contracts/Demo.sol\":1706:1707  3 */\n      0x03\n        /* \"contracts/Demo.sol\":1694:1703  localUint */\n      dup2\n        /* \"contracts/Demo.sol\":1694:1707  localUint % 3 */\n      tag_131\n      swap2\n      swap1\n      tag_132\n      jump\t// in\n    tag_131:\n      pop\n        /* \"contracts/Demo.sol\":1719:1724  myInt */\n      sload(0x07)\n        /* \"contracts/Demo.sol\":1718:1724  -myInt */\n      tag_133\n      swap1\n      tag_134\n      jump\t// in\n    tag_133:\n      pop\n        /* \"contracts/Demo.sol\":1525:1852  {\r... */\n      pop\n        /* \"contracts/Demo.sol\":1487:1852  function demo(uint _inputUint) public {\r... */\n      pop\n      jump\t// out\n        /* \"contracts/Demo.sol\":2232:2321  function payForItem () public payable {\r... */\n    tag_40:\n        /* \"contracts/Demo.sol\":2304:2313  msg.value */\n      callvalue\n        /* \"contracts/Demo.sol\":2281:2289  payments */\n      0x09\n        /* \"contracts/Demo.sol\":2281:2301  payments[msg.sender] */\n      0x00\n        /* \"contracts/Demo.sol\":2290:2300  msg.sender */\n      caller\n        /* \"contracts/Demo.sol\":2281:2301  payments[msg.sender] */\n      0xffffffffffffffffffffffffffffffffffffffff\n      and\n      0xffffffffffffffffffffffffffffffffffffffff\n      and\n      dup2\n      mstore\n      0x20\n      add\n      swap1\n      dup2\n      mstore\n      0x20\n      add\n      0x00\n      keccak256\n        /* \"contracts/Demo.sol\":2281:2313  payments[msg.sender] = msg.value */\n      dup2\n      swap1\n      sstore\n      pop\n        /* \"contracts/Demo.sol\":2232:2321  function payForItem () public payable {\r... */\n      jump\t// out\n        /* \"contracts/Demo.sol\":1884:1909  int256 public myInt = -42 */\n    tag_43:\n      sload(0x07)\n      dup2\n      jump\t// out\n        /* \"contracts/Demo.sol\":162:286  function transferTo(address payable targetAddr, uint amount) public {\r... */\n    tag_50:\n        /* \"contracts/Demo.sol\":251:261  targetAddr */\n      dup2\n        /* \"contracts/Demo.sol\":251:270  targetAddr.transfer */\n      0xffffffffffffffffffffffffffffffffffffffff\n      and\n        /* \"contracts/Demo.sol\":251:278  targetAddr.transfer(amount) */\n      0x08fc\n        /* \"contracts/Demo.sol\":271:277  amount */\n      dup3\n        /* \"contracts/Demo.sol\":251:278  targetAddr.transfer(amount) */\n      swap1\n      dup2\n      iszero\n      mul\n      swap1\n      mload(0x40)\n      0x00\n      mload(0x40)\n      dup1\n      dup4\n      sub\n      dup2\n      dup6\n      dup9\n      dup9\n      call\n      swap4\n      pop\n      pop\n      pop\n      pop\n      iszero\n      dup1\n      iszero\n      tag_138\n      jumpi\n      returndatasize\n      0x00\n      dup1\n      returndatacopy\n      revert(0x00, returndatasize)\n    tag_138:\n      pop\n        /* \"contracts/Demo.sol\":162:286  function transferTo(address payable targetAddr, uint amount) public {\r... */\n      pop\n      pop\n      jump\t// out\n        /* \"contracts/Demo.sol\":915:1133  function inc() public {\r... */\n    tag_53:\n        /* \"contracts/Demo.sol\":1061:1066  myVal */\n      0x02\n      0x00\n        /* \"contracts/Demo.sol\":1061:1068  myVal++ */\n      dup2\n      dup2\n      swap1\n      sload\n      swap1\n      0x0100\n      exp\n      swap1\n      div\n      0xff\n      and\n      dup1\n      swap3\n      swap2\n      swap1\n      0x01\n      add\n      swap2\n      swap1\n      0x0100\n      exp\n      dup2\n      sload\n      dup2\n      0xff\n      mul\n      not\n      and\n      swap1\n      dup4\n      0xff\n      and\n      mul\n      or\n      swap1\n      sstore\n      pop\n      pop\n        /* \"contracts/Demo.sol\":915:1133  function inc() public {\r... */\n      jump\t// out\n        /* \"contracts/Demo.sol\":1405:1434  uint8 public mySmaillUint = 2 */\n    tag_56:\n      0x06\n      0x00\n      swap1\n      sload\n      swap1\n      0x0100\n      exp\n      swap1\n      div\n      0xff\n      and\n      dup2\n      jump\t// out\n        /* \"contracts/Demo.sol\":1167:1186  uint public maximum */\n    tag_61:\n      sload(0x04)\n      dup2\n      jump\t// out\n        /* \"contracts/Demo.sol\":1141:1160  uint public minimum */\n    tag_65:\n      sload(0x03)\n      dup2\n      jump\t// out\n        /* \"contracts/Demo.sol\":613:641  string public myStr = \"test\" */\n    tag_69:\n      0x01\n      dup1\n      sload\n      tag_140\n      swap1\n      tag_141\n      jump\t// in\n    tag_140:\n      dup1\n      0x1f\n      add\n      0x20\n      dup1\n      swap2\n      div\n      mul\n      0x20\n      add\n      mload(0x40)\n      swap1\n      dup2\n      add\n      0x40\n      mstore\n      dup1\n      swap3\n      swap2\n      swap1\n      dup2\n      dup2\n      mstore\n      0x20\n      add\n      dup3\n      dup1\n      sload\n      tag_142\n      swap1\n      tag_141\n      jump\t// in\n    tag_142:\n      dup1\n      iszero\n      tag_143\n      jumpi\n      dup1\n      0x1f\n      lt\n      tag_144\n      jumpi\n      0x0100\n      dup1\n      dup4\n      sload\n      div\n      mul\n      dup4\n      mstore\n      swap2\n      0x20\n      add\n      swap2\n      jump(tag_143)\n    tag_144:\n      dup3\n      add\n      swap2\n      swap1\n      0x00\n      mstore\n      keccak256(0x00, 0x20)\n      swap1\n    tag_145:\n      dup2\n      sload\n      dup2\n      mstore\n      swap1\n      0x01\n      add\n      swap1\n      0x20\n      add\n      dup1\n      dup4\n      gt\n      tag_145\n      jumpi\n      dup3\n      swap1\n      sub\n      0x1f\n      and\n      dup3\n      add\n      swap2\n    tag_143:\n      pop\n      pop\n      pop\n      pop\n      pop\n      dup2\n      jump\t// out\n        /* \"contracts/Demo.sol\":2001:2026  bool public myBool = true */\n    tag_74:\n      0x08\n      0x01\n      swap1\n      sload\n      swap1\n      0x0100\n      exp\n      swap1\n      div\n      0xff\n      and\n      dup2\n      jump\t// out\n        /* \"contracts/Demo.sol\":1916:1943  int8 public mySmallInt = -1 */\n    tag_79:\n      0x08\n      0x00\n      swap1\n      sload\n      swap1\n      0x0100\n      exp\n      swap1\n      div\n      0x00\n      signextend\n      dup2\n      jump\t// out\n        /* \"contracts/Demo.sol\":2329:2509  function withdrawAll () public {\r... */\n    tag_84:\n        /* \"contracts/Demo.sol\":2371:2390  address payable _to */\n      0x00\n        /* \"contracts/Demo.sol\":2401:2406  owner */\n      0x08\n      0x02\n      swap1\n      sload\n      swap1\n      0x0100\n      exp\n      swap1\n      div\n      0xffffffffffffffffffffffffffffffffffffffff\n      and\n        /* \"contracts/Demo.sol\":2371:2407  address payable _to = payable(owner) */\n      swap1\n      pop\n        /* \"contracts/Demo.sol\":2418:2439  address _thisContract */\n      0x00\n        /* \"contracts/Demo.sol\":2450:2454  this */\n      address\n        /* \"contracts/Demo.sol\":2418:2455  address _thisContract = address(this) */\n      swap1\n      pop\n        /* \"contracts/Demo.sol\":2466:2469  _to */\n      dup2\n        /* \"contracts/Demo.sol\":2466:2478  _to.transfer */\n      0xffffffffffffffffffffffffffffffffffffffff\n      and\n        /* \"contracts/Demo.sol\":2466:2501  _to.transfer(_thisContract.balance) */\n      0x08fc\n        /* \"contracts/Demo.sol\":2479:2492  _thisContract */\n      dup3\n        /* \"contracts/Demo.sol\":2479:2500  _thisContract.balance */\n      0xffffffffffffffffffffffffffffffffffffffff\n      and\n      balance\n        /* \"contracts/Demo.sol\":2466:2501  _to.transfer(_thisContract.balance) */\n      swap1\n      dup2\n      iszero\n      mul\n      swap1\n      mload(0x40)\n      0x00\n      mload(0x40)\n      dup1\n      dup4\n      sub\n      dup2\n      dup6\n      dup9\n      dup9\n      call\n      swap4\n      pop\n      pop\n      pop\n      pop\n      iszero\n      dup1\n      iszero\n      tag_148\n      jumpi\n      returndatasize\n      0x00\n      dup1\n      returndatacopy\n      revert(0x00, returndatasize)\n    tag_148:\n      pop\n        /* \"contracts/Demo.sol\":2360:2509  {\r... */\n      pop\n      pop\n        /* \"contracts/Demo.sol\":2329:2509  function withdrawAll () public {\r... */\n      jump\t// out\n        /* \"contracts/Demo.sol\":2517:2828  function myFunc (bool _inputBool) public {\r... */\n    tag_89:\n        /* \"contracts/Demo.sol\":2569:2583  bool localBool */\n      0x00\n        /* \"contracts/Demo.sol\":2782:2792  _inputBool */\n      dup2\n        /* \"contracts/Demo.sol\":2782:2805  _inputBool || localBool */\n      dup1\n      tag_150\n      jumpi\n      pop\n        /* \"contracts/Demo.sol\":2796:2805  localBool */\n      dup1\n        /* \"contracts/Demo.sol\":2782:2805  _inputBool || localBool */\n    tag_150:\n        /* \"contracts/Demo.sol\":2778:2821  if (_inputBool || localBool) {\r... */\n      pop\n        /* \"contracts/Demo.sol\":2558:2828  {\r... */\n      pop\n        /* \"contracts/Demo.sol\":2517:2828  function myFunc (bool _inputBool) public {\r... */\n      pop\n      jump\t// out\n        /* \"contracts/Demo.sol\":2095:2115  address public owner */\n    tag_92:\n      0x08\n      0x02\n      swap1\n      sload\n      swap1\n      0x0100\n      exp\n      swap1\n      div\n      0xffffffffffffffffffffffffffffffffffffffff\n      and\n      dup2\n      jump\t// out\n        /* \"contracts/Demo.sol\":692:874  function demo(string memory newValueStr) public {\r... */\n    tag_99:\n        /* \"contracts/Demo.sol\":802:825  string memory myTempStr */\n      0x00\n        /* \"contracts/Demo.sol\":802:834  string memory myTempStr = \"temp\" */\n      mload(0x40)\n      dup1\n      0x40\n      add\n      0x40\n      mstore\n      dup1\n      0x04\n      dup2\n      mstore\n      0x20\n      add\n      0x74656d7000000000000000000000000000000000000000000000000000000000\n      dup2\n      mstore\n      pop\n      swap1\n      pop\n        /* \"contracts/Demo.sol\":853:864  newValueStr */\n      dup2\n        /* \"contracts/Demo.sol\":845:850  myStr */\n      0x01\n        /* \"contracts/Demo.sol\":845:864  myStr = newValueStr */\n      swap1\n      dup1\n      mload\n      swap1\n      0x20\n      add\n      swap1\n      tag_153\n      swap3\n      swap2\n      swap1\n      tag_154\n      jump\t// in\n    tag_153:\n      pop\n        /* \"contracts/Demo.sol\":740:874  {\r... */\n      pop\n        /* \"contracts/Demo.sol\":692:874  function demo(string memory newValueStr) public {\r... */\n      pop\n      jump\t// out\n        /* \"contracts/Demo.sol\":2122:2163  mapping (address => uint) public payments */\n    tag_104:\n      mstore(0x20, 0x09)\n      dup1\n      0x00\n      mstore\n      keccak256(0x00, 0x40)\n      0x00\n      swap2\n      pop\n      swap1\n      pop\n      sload\n      dup2\n      jump\t// out\n        /* \"contracts/Demo.sol\":87:153  address public myAddr = 0x5B38Da6a701c568545dCfcB03FcB875f56beddC4 */\n    tag_108:\n      0x00\n      dup1\n      sload\n      swap1\n      0x0100\n      exp\n      swap1\n      div\n      0xffffffffffffffffffffffffffffffffffffffff\n      and\n      dup2\n      jump\t// out\n        /* \"contracts/Demo.sol\":882:906  uint8 public myVal = 254 */\n    tag_112:\n      0x02\n      0x00\n      swap1\n      sload\n      swap1\n      0x0100\n      exp\n      swap1\n      div\n      0xff\n      and\n      dup2\n      jump\t// out\n        /* \"contracts/Demo.sol\":362:472  function getBalance(address targetAddr) public view returns(uint) {\r... */\n    tag_117:\n        /* \"contracts/Demo.sol\":422:426  uint */\n      0x00\n        /* \"contracts/Demo.sol\":446:456  targetAddr */\n      dup2\n        /* \"contracts/Demo.sol\":446:464  targetAddr.balance */\n      0xffffffffffffffffffffffffffffffffffffffff\n      and\n      balance\n        /* \"contracts/Demo.sol\":439:464  return targetAddr.balance */\n      swap1\n      pop\n        /* \"contracts/Demo.sol\":362:472  function getBalance(address targetAddr) public view returns(uint) {\r... */\n      swap2\n      swap1\n      pop\n      jump\t// out\n    tag_154:\n      dup3\n      dup1\n      sload\n      tag_156\n      swap1\n      tag_141\n      jump\t// in\n    tag_156:\n      swap1\n      0x00\n      mstore\n      keccak256(0x00, 0x20)\n      swap1\n      0x1f\n      add\n      0x20\n      swap1\n      div\n      dup2\n      add\n      swap3\n      dup3\n      tag_158\n      jumpi\n      0x00\n      dup6\n      sstore\n      jump(tag_157)\n    tag_158:\n      dup3\n      0x1f\n      lt\n      tag_159\n      jumpi\n      dup1\n      mload\n      not(0xff)\n      and\n      dup4\n      dup1\n      add\n      or\n      dup6\n      sstore\n      jump(tag_157)\n    tag_159:\n      dup3\n      dup1\n      add\n      0x01\n      add\n      dup6\n      sstore\n      dup3\n      iszero\n      tag_157\n      jumpi\n      swap2\n      dup3\n      add\n    tag_160:\n      dup3\n      dup2\n      gt\n      iszero\n      tag_161\n      jumpi\n      dup3\n      mload\n      dup3\n      sstore\n      swap2\n      0x20\n      add\n      swap2\n      swap1\n      0x01\n      add\n      swap1\n      jump(tag_160)\n    tag_161:\n    tag_157:\n      pop\n      swap1\n      pop\n      tag_162\n      swap2\n      swap1\n      tag_163\n      jump\t// in\n    tag_162:\n      pop\n      swap1\n      jump\t// out\n    tag_163:\n    tag_164:\n      dup1\n      dup3\n      gt\n      iszero\n      tag_165\n      jumpi\n      0x00\n      dup2\n      0x00\n      swap1\n      sstore\n      pop\n      0x01\n      add\n      jump(tag_164)\n    tag_165:\n      pop\n      swap1\n      jump\t// out\n        /* \"#utility.yul\":7:419   */\n    tag_167:\n        /* \"#utility.yul\":85:90   */\n      0x00\n        /* \"#utility.yul\":110:176   */\n      tag_169\n        /* \"#utility.yul\":126:175   */\n      tag_170\n        /* \"#utility.yul\":168:174   */\n      dup5\n        /* \"#utility.yul\":126:175   */\n      tag_171\n      jump\t// in\n    tag_170:\n        /* \"#utility.yul\":110:176   */\n      tag_172\n      jump\t// in\n    tag_169:\n        /* \"#utility.yul\":101:176   */\n      swap1\n      pop\n        /* \"#utility.yul\":199:205   */\n      dup3\n        /* \"#utility.yul\":192:197   */\n      dup2\n        /* \"#utility.yul\":185:206   */\n      mstore\n        /* \"#utility.yul\":237:241   */\n      0x20\n        /* \"#utility.yul\":230:235   */\n      dup2\n        /* \"#utility.yul\":226:242   */\n      add\n        /* \"#utility.yul\":275:278   */\n      dup5\n        /* \"#utility.yul\":266:272   */\n      dup5\n        /* \"#utility.yul\":261:264   */\n      dup5\n        /* \"#utility.yul\":257:273   */\n      add\n        /* \"#utility.yul\":254:279   */\n      gt\n        /* \"#utility.yul\":251:363   */\n      iszero\n      tag_173\n      jumpi\n        /* \"#utility.yul\":282:361   */\n      tag_174\n      tag_175\n      jump\t// in\n    tag_174:\n        /* \"#utility.yul\":251:363   */\n    tag_173:\n        /* \"#utility.yul\":372:413   */\n      tag_176\n        /* \"#utility.yul\":406:412   */\n      dup5\n        /* \"#utility.yul\":401:404   */\n      dup3\n        /* \"#utility.yul\":396:399   */\n      dup6\n        /* \"#utility.yul\":372:413   */\n      tag_177\n      jump\t// in\n    tag_176:\n        /* \"#utility.yul\":91:419   */\n      pop\n        /* \"#utility.yul\":7:419   */\n      swap4\n      swap3\n      pop\n      pop\n      pop\n      jump\t// out\n        /* \"#utility.yul\":425:564   */\n    tag_178:\n        /* \"#utility.yul\":471:476   */\n      0x00\n        /* \"#utility.yul\":509:515   */\n      dup2\n        /* \"#utility.yul\":496:516   */\n      calldataload\n        /* \"#utility.yul\":487:516   */\n      swap1\n      pop\n        /* \"#utility.yul\":525:558   */\n      tag_180\n        /* \"#utility.yul\":552:557   */\n      dup2\n        /* \"#utility.yul\":525:558   */\n      tag_181\n      jump\t// in\n    tag_180:\n        /* \"#utility.yul\":425:564   */\n      swap3\n      swap2\n      pop\n      pop\n      jump\t// out\n        /* \"#utility.yul\":570:725   */\n    tag_182:\n        /* \"#utility.yul\":624:629   */\n      0x00\n        /* \"#utility.yul\":662:668   */\n      dup2\n        /* \"#utility.yul\":649:669   */\n      calldataload\n        /* \"#utility.yul\":640:669   */\n      swap1\n      pop\n        /* \"#utility.yul\":678:719   */\n      tag_184\n        /* \"#utility.yul\":713:718   */\n      dup2\n        /* \"#utility.yul\":678:719   */\n      tag_185\n      jump\t// in\n    tag_184:\n        /* \"#utility.yul\":570:725   */\n      swap3\n      swap2\n      pop\n      pop\n      jump\t// out\n        /* \"#utility.yul\":731:864   */\n    tag_186:\n        /* \"#utility.yul\":774:779   */\n      0x00\n        /* \"#utility.yul\":812:818   */\n      dup2\n        /* \"#utility.yul\":799:819   */\n      calldataload\n        /* \"#utility.yul\":790:819   */\n      swap1\n      pop\n        /* \"#utility.yul\":828:858   */\n      tag_188\n        /* \"#utility.yul\":852:857   */\n      dup2\n        /* \"#utility.yul\":828:858   */\n      tag_189\n      jump\t// in\n    tag_188:\n        /* \"#utility.yul\":731:864   */\n      swap3\n      swap2\n      pop\n      pop\n      jump\t// out\n        /* \"#utility.yul\":884:1224   */\n    tag_190:\n        /* \"#utility.yul\":940:945   */\n      0x00\n        /* \"#utility.yul\":989:992   */\n      dup3\n        /* \"#utility.yul\":982:986   */\n      0x1f\n        /* \"#utility.yul\":974:980   */\n      dup4\n        /* \"#utility.yul\":970:987   */\n      add\n        /* \"#utility.yul\":966:993   */\n      slt\n        /* \"#utility.yul\":956:1078   */\n      tag_192\n      jumpi\n        /* \"#utility.yul\":997:1076   */\n      tag_193\n      tag_194\n      jump\t// in\n    tag_193:\n        /* \"#utility.yul\":956:1078   */\n    tag_192:\n        /* \"#utility.yul\":1114:1120   */\n      dup2\n        /* \"#utility.yul\":1101:1121   */\n      calldataload\n        /* \"#utility.yul\":1139:1218   */\n      tag_195\n        /* \"#utility.yul\":1214:1217   */\n      dup5\n        /* \"#utility.yul\":1206:1212   */\n      dup3\n        /* \"#utility.yul\":1199:1203   */\n      0x20\n        /* \"#utility.yul\":1191:1197   */\n      dup7\n        /* \"#utility.yul\":1187:1204   */\n      add\n        /* \"#utility.yul\":1139:1218   */\n      tag_167\n      jump\t// in\n    tag_195:\n        /* \"#utility.yul\":1130:1218   */\n      swap2\n      pop\n        /* \"#utility.yul\":946:1224   */\n      pop\n        /* \"#utility.yul\":884:1224   */\n      swap3\n      swap2\n      pop\n      pop\n      jump\t// out\n        /* \"#utility.yul\":1230:1369   */\n    tag_196:\n        /* \"#utility.yul\":1276:1281   */\n      0x00\n        /* \"#utility.yul\":1314:1320   */\n      dup2\n        /* \"#utility.yul\":1301:1321   */\n      calldataload\n        /* \"#utility.yul\":1292:1321   */\n      swap1\n      pop\n        /* \"#utility.yul\":1330:1363   */\n      tag_198\n        /* \"#utility.yul\":1357:1362   */\n      dup2\n        /* \"#utility.yul\":1330:1363   */\n      tag_199\n      jump\t// in\n    tag_198:\n        /* \"#utility.yul\":1230:1369   */\n      swap3\n      swap2\n      pop\n      pop\n      jump\t// out\n        /* \"#utility.yul\":1375:1704   */\n    tag_103:\n        /* \"#utility.yul\":1434:1440   */\n      0x00\n        /* \"#utility.yul\":1483:1485   */\n      0x20\n        /* \"#utility.yul\":1471:1480   */\n      dup3\n        /* \"#utility.yul\":1462:1469   */\n      dup5\n        /* \"#utility.yul\":1458:1481   */\n      sub\n        /* \"#utility.yul\":1454:1486   */\n      slt\n        /* \"#utility.yul\":1451:1570   */\n      iszero\n      tag_201\n      jumpi\n        /* \"#utility.yul\":1489:1568   */\n      tag_202\n      tag_203\n      jump\t// in\n    tag_202:\n        /* \"#utility.yul\":1451:1570   */\n    tag_201:\n        /* \"#utility.yul\":1609:1610   */\n      0x00\n        /* \"#utility.yul\":1634:1687   */\n      tag_204\n        /* \"#utility.yul\":1679:1686   */\n      dup5\n        /* \"#utility.yul\":1670:1676   */\n      dup3\n        /* \"#utility.yul\":1659:1668   */\n      dup6\n        /* \"#utility.yul\":1655:1677   */\n      add\n        /* \"#utility.yul\":1634:1687   */\n      tag_178\n      jump\t// in\n    tag_204:\n        /* \"#utility.yul\":1624:1687   */\n      swap2\n      pop\n        /* \"#utility.yul\":1580:1697   */\n      pop\n        /* \"#utility.yul\":1375:1704   */\n      swap3\n      swap2\n      pop\n      pop\n      jump\t// out\n        /* \"#utility.yul\":1710:2200   */\n    tag_49:\n        /* \"#utility.yul\":1786:1792   */\n      0x00\n        /* \"#utility.yul\":1794:1800   */\n      dup1\n        /* \"#utility.yul\":1843:1845   */\n      0x40\n        /* \"#utility.yul\":1831:1840   */\n      dup4\n        /* \"#utility.yul\":1822:1829   */\n      dup6\n        /* \"#utility.yul\":1818:1841   */\n      sub\n        /* \"#utility.yul\":1814:1846   */\n      slt\n        /* \"#utility.yul\":1811:1930   */\n      iszero\n      tag_206\n      jumpi\n        /* \"#utility.yul\":1849:1928   */\n      tag_207\n      tag_203\n      jump\t// in\n    tag_207:\n        /* \"#utility.yul\":1811:1930   */\n    tag_206:\n        /* \"#utility.yul\":1969:1970   */\n      0x00\n        /* \"#utility.yul\":1994:2055   */\n      tag_208\n        /* \"#utility.yul\":2047:2054   */\n      dup6\n        /* \"#utility.yul\":2038:2044   */\n      dup3\n        /* \"#utility.yul\":2027:2036   */\n      dup7\n        /* \"#utility.yul\":2023:2045   */\n      add\n        /* \"#utility.yul\":1994:2055   */\n      tag_182\n      jump\t// in\n    tag_208:\n        /* \"#utility.yul\":1984:2055   */\n      swap3\n      pop\n        /* \"#utility.yul\":1940:2065   */\n      pop\n        /* \"#utility.yul\":2104:2106   */\n      0x20\n        /* \"#utility.yul\":2130:2183   */\n      tag_209\n        /* \"#utility.yul\":2175:2182   */\n      dup6\n        /* \"#utility.yul\":2166:2172   */\n      dup3\n        /* \"#utility.yul\":2155:2164   */\n      dup7\n        /* \"#utility.yul\":2151:2173   */\n      add\n        /* \"#utility.yul\":2130:2183   */\n      tag_196\n      jump\t// in\n    tag_209:\n        /* \"#utility.yul\":2120:2183   */\n      swap2\n      pop\n        /* \"#utility.yul\":2075:2193   */\n      pop\n        /* \"#utility.yul\":1710:2200   */\n      swap3\n      pop\n      swap3\n      swap1\n      pop\n      jump\t// out\n        /* \"#utility.yul\":2206:2529   */\n    tag_88:\n        /* \"#utility.yul\":2262:2268   */\n      0x00\n        /* \"#utility.yul\":2311:2313   */\n      0x20\n        /* \"#utility.yul\":2299:2308   */\n      dup3\n        /* \"#utility.yul\":2290:2297   */\n      dup5\n        /* \"#utility.yul\":2286:2309   */\n      sub\n        /* \"#utility.yul\":2282:2314   */\n      slt\n        /* \"#utility.yul\":2279:2398   */\n      iszero\n      tag_211\n      jumpi\n        /* \"#utility.yul\":2317:2396   */\n      tag_212\n      tag_203\n      jump\t// in\n    tag_212:\n        /* \"#utility.yul\":2279:2398   */\n    tag_211:\n        /* \"#utility.yul\":2437:2438   */\n      0x00\n        /* \"#utility.yul\":2462:2512   */\n      tag_213\n        /* \"#utility.yul\":2504:2511   */\n      dup5\n        /* \"#utility.yul\":2495:2501   */\n      dup3\n        /* \"#utility.yul\":2484:2493   */\n      dup6\n        /* \"#utility.yul\":2480:2502   */\n      add\n        /* \"#utility.yul\":2462:2512   */\n      tag_186\n      jump\t// in\n    tag_213:\n        /* \"#utility.yul\":2452:2512   */\n      swap2\n      pop\n        /* \"#utility.yul\":2408:2522   */\n      pop\n        /* \"#utility.yul\":2206:2529   */\n      swap3\n      swap2\n      pop\n      pop\n      jump\t// out\n        /* \"#utility.yul\":2535:3044   */\n    tag_98:\n        /* \"#utility.yul\":2604:2610   */\n      0x00\n        /* \"#utility.yul\":2653:2655   */\n      0x20\n        /* \"#utility.yul\":2641:2650   */\n      dup3\n        /* \"#utility.yul\":2632:2639   */\n      dup5\n        /* \"#utility.yul\":2628:2651   */\n      sub\n        /* \"#utility.yul\":2624:2656   */\n      slt\n        /* \"#utility.yul\":2621:2740   */\n      iszero\n      tag_215\n      jumpi\n        /* \"#utility.yul\":2659:2738   */\n      tag_216\n      tag_203\n      jump\t// in\n    tag_216:\n        /* \"#utility.yul\":2621:2740   */\n    tag_215:\n        /* \"#utility.yul\":2807:2808   */\n      0x00\n        /* \"#utility.yul\":2796:2805   */\n      dup3\n        /* \"#utility.yul\":2792:2809   */\n      add\n        /* \"#utility.yul\":2779:2810   */\n      calldataload\n        /* \"#utility.yul\":2837:2855   */\n      0xffffffffffffffff\n        /* \"#utility.yul\":2829:2835   */\n      dup2\n        /* \"#utility.yul\":2826:2856   */\n      gt\n        /* \"#utility.yul\":2823:2940   */\n      iszero\n      tag_217\n      jumpi\n        /* \"#utility.yul\":2859:2938   */\n      tag_218\n      tag_219\n      jump\t// in\n    tag_218:\n        /* \"#utility.yul\":2823:2940   */\n    tag_217:\n        /* \"#utility.yul\":2964:3027   */\n      tag_220\n        /* \"#utility.yul\":3019:3026   */\n      dup5\n        /* \"#utility.yul\":3010:3016   */\n      dup3\n        /* \"#utility.yul\":2999:3008   */\n      dup6\n        /* \"#utility.yul\":2995:3017   */\n      add\n        /* \"#utility.yul\":2964:3027   */\n      tag_190\n      jump\t// in\n    tag_220:\n        /* \"#utility.yul\":2954:3027   */\n      swap2\n      pop\n        /* \"#utility.yul\":2750:3037   */\n      pop\n        /* \"#utility.yul\":2535:3044   */\n      swap3\n      swap2\n      pop\n      pop\n      jump\t// out\n        /* \"#utility.yul\":3050:3379   */\n    tag_37:\n        /* \"#utility.yul\":3109:3115   */\n      0x00\n        /* \"#utility.yul\":3158:3160   */\n      0x20\n        /* \"#utility.yul\":3146:3155   */\n      dup3\n        /* \"#utility.yul\":3137:3144   */\n      dup5\n        /* \"#utility.yul\":3133:3156   */\n      sub\n        /* \"#utility.yul\":3129:3161   */\n      slt\n        /* \"#utility.yul\":3126:3245   */\n      iszero\n      tag_222\n      jumpi\n        /* \"#utility.yul\":3164:3243   */\n      tag_223\n      tag_203\n      jump\t// in\n    tag_223:\n        /* \"#utility.yul\":3126:3245   */\n    tag_222:\n        /* \"#utility.yul\":3284:3285   */\n      0x00\n        /* \"#utility.yul\":3309:3362   */\n      tag_224\n        /* \"#utility.yul\":3354:3361   */\n      dup5\n        /* \"#utility.yul\":3345:3351   */\n      dup3\n        /* \"#utility.yul\":3334:3343   */\n      dup6\n        /* \"#utility.yul\":3330:3352   */\n      add\n        /* \"#utility.yul\":3309:3362   */\n      tag_196\n      jump\t// in\n    tag_224:\n        /* \"#utility.yul\":3299:3362   */\n      swap2\n      pop\n        /* \"#utility.yul\":3255:3372   */\n      pop\n        /* \"#utility.yul\":3050:3379   */\n      swap3\n      swap2\n      pop\n      pop\n      jump\t// out\n        /* \"#utility.yul\":3385:3503   */\n    tag_225:\n        /* \"#utility.yul\":3472:3496   */\n      tag_227\n        /* \"#utility.yul\":3490:3495   */\n      dup2\n        /* \"#utility.yul\":3472:3496   */\n      tag_228\n      jump\t// in\n    tag_227:\n        /* \"#utility.yul\":3467:3470   */\n      dup3\n        /* \"#utility.yul\":3460:3497   */\n      mstore\n        /* \"#utility.yul\":3385:3503   */\n      pop\n      pop\n      jump\t// out\n        /* \"#utility.yul\":3509:3618   */\n    tag_229:\n        /* \"#utility.yul\":3590:3611   */\n      tag_231\n        /* \"#utility.yul\":3605:3610   */\n      dup2\n        /* \"#utility.yul\":3590:3611   */\n      tag_232\n      jump\t// in\n    tag_231:\n        /* \"#utility.yul\":3585:3588   */\n      dup3\n        /* \"#utility.yul\":3578:3612   */\n      mstore\n        /* \"#utility.yul\":3509:3618   */\n      pop\n      pop\n      jump\t// out\n        /* \"#utility.yul\":3624:3739   */\n    tag_233:\n        /* \"#utility.yul\":3709:3732   */\n      tag_235\n        /* \"#utility.yul\":3726:3731   */\n      dup2\n        /* \"#utility.yul\":3709:3732   */\n      tag_236\n      jump\t// in\n    tag_235:\n        /* \"#utility.yul\":3704:3707   */\n      dup3\n        /* \"#utility.yul\":3697:3733   */\n      mstore\n        /* \"#utility.yul\":3624:3739   */\n      pop\n      pop\n      jump\t// out\n        /* \"#utility.yul\":3745:3854   */\n    tag_237:\n        /* \"#utility.yul\":3826:3847   */\n      tag_239\n        /* \"#utility.yul\":3841:3846   */\n      dup2\n        /* \"#utility.yul\":3826:3847   */\n      tag_240\n      jump\t// in\n    tag_239:\n        /* \"#utility.yul\":3821:3824   */\n      dup3\n        /* \"#utility.yul\":3814:3848   */\n      mstore\n        /* \"#utility.yul\":3745:3854   */\n      pop\n      pop\n      jump\t// out\n        /* \"#utility.yul\":3860:4224   */\n    tag_241:\n        /* \"#utility.yul\":3948:3951   */\n      0x00\n        /* \"#utility.yul\":3976:4015   */\n      tag_243\n        /* \"#utility.yul\":4009:4014   */\n      dup3\n        /* \"#utility.yul\":3976:4015   */\n      tag_244\n      jump\t// in\n    tag_243:\n        /* \"#utility.yul\":4031:4102   */\n      tag_245\n        /* \"#utility.yul\":4095:4101   */\n      dup2\n        /* \"#utility.yul\":4090:4093   */\n      dup6\n        /* \"#utility.yul\":4031:4102   */\n      tag_246\n      jump\t// in\n    tag_245:\n        /* \"#utility.yul\":4024:4102   */\n      swap4\n      pop\n        /* \"#utility.yul\":4111:4163   */\n      tag_247\n        /* \"#utility.yul\":4156:4162   */\n      dup2\n        /* \"#utility.yul\":4151:4154   */\n      dup6\n        /* \"#utility.yul\":4144:4148   */\n      0x20\n        /* \"#utility.yul\":4137:4142   */\n      dup7\n        /* \"#utility.yul\":4133:4149   */\n      add\n        /* \"#utility.yul\":4111:4163   */\n      tag_248\n      jump\t// in\n    tag_247:\n        /* \"#utility.yul\":4188:4217   */\n      tag_249\n        /* \"#utility.yul\":4210:4216   */\n      dup2\n        /* \"#utility.yul\":4188:4217   */\n      tag_250\n      jump\t// in\n    tag_249:\n        /* \"#utility.yul\":4183:4186   */\n      dup5\n        /* \"#utility.yul\":4179:4218   */\n      add\n        /* \"#utility.yul\":4172:4218   */\n      swap2\n      pop\n        /* \"#utility.yul\":3952:4224   */\n      pop\n        /* \"#utility.yul\":3860:4224   */\n      swap3\n      swap2\n      pop\n      pop\n      jump\t// out\n        /* \"#utility.yul\":4230:4348   */\n    tag_251:\n        /* \"#utility.yul\":4317:4341   */\n      tag_253\n        /* \"#utility.yul\":4335:4340   */\n      dup2\n        /* \"#utility.yul\":4317:4341   */\n      tag_254\n      jump\t// in\n    tag_253:\n        /* \"#utility.yul\":4312:4315   */\n      dup3\n        /* \"#utility.yul\":4305:4342   */\n      mstore\n        /* \"#utility.yul\":4230:4348   */\n      pop\n      pop\n      jump\t// out\n        /* \"#utility.yul\":4354:4466   */\n    tag_255:\n        /* \"#utility.yul\":4437:4459   */\n      tag_257\n        /* \"#utility.yul\":4453:4458   */\n      dup2\n        /* \"#utility.yul\":4437:4459   */\n      tag_258\n      jump\t// in\n    tag_257:\n        /* \"#utility.yul\":4432:4435   */\n      dup3\n        /* \"#utility.yul\":4425:4460   */\n      mstore\n        /* \"#utility.yul\":4354:4466   */\n      pop\n      pop\n      jump\t// out\n        /* \"#utility.yul\":4472:4694   */\n    tag_94:\n        /* \"#utility.yul\":4565:4569   */\n      0x00\n        /* \"#utility.yul\":4603:4605   */\n      0x20\n        /* \"#utility.yul\":4592:4601   */\n      dup3\n        /* \"#utility.yul\":4588:4606   */\n      add\n        /* \"#utility.yul\":4580:4606   */\n      swap1\n      pop\n        /* \"#utility.yul\":4616:4687   */\n      tag_260\n        /* \"#utility.yul\":4684:4685   */\n      0x00\n        /* \"#utility.yul\":4673:4682   */\n      dup4\n        /* \"#utility.yul\":4669:4686   */\n      add\n        /* \"#utility.yul\":4660:4666   */\n      dup5\n        /* \"#utility.yul\":4616:4687   */\n      tag_225\n      jump\t// in\n    tag_260:\n        /* \"#utility.yul\":4472:4694   */\n      swap3\n      swap2\n      pop\n      pop\n      jump\t// out\n        /* \"#utility.yul\":4700:4910   */\n    tag_76:\n        /* \"#utility.yul\":4787:4791   */\n      0x00\n        /* \"#utility.yul\":4825:4827   */\n      0x20\n        /* \"#utility.yul\":4814:4823   */\n      dup3\n        /* \"#utility.yul\":4810:4828   */\n      add\n        /* \"#utility.yul\":4802:4828   */\n      swap1\n      pop\n        /* \"#utility.yul\":4838:4903   */\n      tag_262\n        /* \"#utility.yul\":4900:4901   */\n      0x00\n        /* \"#utility.yul\":4889:4898   */\n      dup4\n        /* \"#utility.yul\":4885:4902   */\n      add\n        /* \"#utility.yul\":4876:4882   */\n      dup5\n        /* \"#utility.yul\":4838:4903   */\n      tag_229\n      jump\t// in\n    tag_262:\n        /* \"#utility.yul\":4700:4910   */\n      swap3\n      swap2\n      pop\n      pop\n      jump\t// out\n        /* \"#utility.yul\":4916:5134   */\n    tag_45:\n        /* \"#utility.yul\":5007:5011   */\n      0x00\n        /* \"#utility.yul\":5045:5047   */\n      0x20\n        /* \"#utility.yul\":5034:5043   */\n      dup3\n        /* \"#utility.yul\":5030:5048   */\n      add\n        /* \"#utility.yul\":5022:5048   */\n      swap1\n      pop\n        /* \"#utility.yul\":5058:5127   */\n      tag_264\n        /* \"#utility.yul\":5124:5125   */\n      0x00\n        /* \"#utility.yul\":5113:5122   */\n      dup4\n        /* \"#utility.yul\":5109:5126   */\n      add\n        /* \"#utility.yul\":5100:5106   */\n      dup5\n        /* \"#utility.yul\":5058:5127   */\n      tag_233\n      jump\t// in\n    tag_264:\n        /* \"#utility.yul\":4916:5134   */\n      swap3\n      swap2\n      pop\n      pop\n      jump\t// out\n        /* \"#utility.yul\":5140:5350   */\n    tag_81:\n        /* \"#utility.yul\":5227:5231   */\n      0x00\n        /* \"#utility.yul\":5265:5267   */\n      0x20\n        /* \"#utility.yul\":5254:5263   */\n      dup3\n        /* \"#utility.yul\":5250:5268   */\n      add\n        /* \"#utility.yul\":5242:5268   */\n      swap1\n      pop\n        /* \"#utility.yul\":5278:5343   */\n      tag_266\n        /* \"#utility.yul\":5340:5341   */\n      0x00\n        /* \"#utility.yul\":5329:5338   */\n      dup4\n        /* \"#utility.yul\":5325:5342   */\n      add\n        /* \"#utility.yul\":5316:5322   */\n      dup5\n        /* \"#utility.yul\":5278:5343   */\n      tag_237\n      jump\t// in\n    tag_266:\n        /* \"#utility.yul\":5140:5350   */\n      swap3\n      swap2\n      pop\n      pop\n      jump\t// out\n        /* \"#utility.yul\":5356:5669   */\n    tag_71:\n        /* \"#utility.yul\":5469:5473   */\n      0x00\n        /* \"#utility.yul\":5507:5509   */\n      0x20\n        /* \"#utility.yul\":5496:5505   */\n      dup3\n        /* \"#utility.yul\":5492:5510   */\n      add\n        /* \"#utility.yul\":5484:5510   */\n      swap1\n      pop\n        /* \"#utility.yul\":5556:5565   */\n      dup2\n        /* \"#utility.yul\":5550:5554   */\n      dup2\n        /* \"#utility.yul\":5546:5566   */\n      sub\n        /* \"#utility.yul\":5542:5543   */\n      0x00\n        /* \"#utility.yul\":5531:5540   */\n      dup4\n        /* \"#utility.yul\":5527:5544   */\n      add\n        /* \"#utility.yul\":5520:5567   */\n      mstore\n        /* \"#utility.yul\":5584:5662   */\n      tag_268\n        /* \"#utility.yul\":5657:5661   */\n      dup2\n        /* \"#utility.yul\":5648:5654   */\n      dup5\n        /* \"#utility.yul\":5584:5662   */\n      tag_241\n      jump\t// in\n    tag_268:\n        /* \"#utility.yul\":5576:5662   */\n      swap1\n      pop\n        /* \"#utility.yul\":5356:5669   */\n      swap3\n      swap2\n      pop\n      pop\n      jump\t// out\n        /* \"#utility.yul\":5675:5897   */\n    tag_33:\n        /* \"#utility.yul\":5768:5772   */\n      0x00\n        /* \"#utility.yul\":5806:5808   */\n      0x20\n        /* \"#utility.yul\":5795:5804   */\n      dup3\n        /* \"#utility.yul\":5791:5809   */\n      add\n        /* \"#utility.yul\":5783:5809   */\n      swap1\n      pop\n        /* \"#utility.yul\":5819:5890   */\n      tag_270\n        /* \"#utility.yul\":5887:5888   */\n      0x00\n        /* \"#utility.yul\":5876:5885   */\n      dup4\n        /* \"#utility.yul\":5872:5889   */\n      add\n        /* \"#utility.yul\":5863:5869   */\n      dup5\n        /* \"#utility.yul\":5819:5890   */\n      tag_251\n      jump\t// in\n    tag_270:\n        /* \"#utility.yul\":5675:5897   */\n      swap3\n      swap2\n      pop\n      pop\n      jump\t// out\n        /* \"#utility.yul\":5903:6117   */\n    tag_58:\n        /* \"#utility.yul\":5992:5996   */\n      0x00\n        /* \"#utility.yul\":6030:6032   */\n      0x20\n        /* \"#utility.yul\":6019:6028   */\n      dup3\n        /* \"#utility.yul\":6015:6033   */\n      add\n        /* \"#utility.yul\":6007:6033   */\n      swap1\n      pop\n        /* \"#utility.yul\":6043:6110   */\n      tag_272\n        /* \"#utility.yul\":6107:6108   */\n      0x00\n        /* \"#utility.yul\":6096:6105   */\n      dup4\n        /* \"#utility.yul\":6092:6109   */\n      add\n        /* \"#utility.yul\":6083:6089   */\n      dup5\n        /* \"#utility.yul\":6043:6110   */\n      tag_255\n      jump\t// in\n    tag_272:\n        /* \"#utility.yul\":5903:6117   */\n      swap3\n      swap2\n      pop\n      pop\n      jump\t// out\n        /* \"#utility.yul\":6123:6252   */\n    tag_172:\n        /* \"#utility.yul\":6157:6163   */\n      0x00\n        /* \"#utility.yul\":6184:6204   */\n      tag_274\n      tag_275\n      jump\t// in\n    tag_274:\n        /* \"#utility.yul\":6174:6204   */\n      swap1\n      pop\n        /* \"#utility.yul\":6213:6246   */\n      tag_276\n        /* \"#utility.yul\":6241:6245   */\n      dup3\n        /* \"#utility.yul\":6233:6239   */\n      dup3\n        /* \"#utility.yul\":6213:6246   */\n      tag_277\n      jump\t// in\n    tag_276:\n        /* \"#utility.yul\":6123:6252   */\n      swap2\n      swap1\n      pop\n      jump\t// out\n        /* \"#utility.yul\":6258:6333   */\n    tag_275:\n        /* \"#utility.yul\":6291:6297   */\n      0x00\n        /* \"#utility.yul\":6324:6326   */\n      0x40\n        /* \"#utility.yul\":6318:6327   */\n      mload\n        /* \"#utility.yul\":6308:6327   */\n      swap1\n      pop\n        /* \"#utility.yul\":6258:6333   */\n      swap1\n      jump\t// out\n        /* \"#utility.yul\":6339:6647   */\n    tag_171:\n        /* \"#utility.yul\":6401:6405   */\n      0x00\n        /* \"#utility.yul\":6491:6509   */\n      0xffffffffffffffff\n        /* \"#utility.yul\":6483:6489   */\n      dup3\n        /* \"#utility.yul\":6480:6510   */\n      gt\n        /* \"#utility.yul\":6477:6533   */\n      iszero\n      tag_280\n      jumpi\n        /* \"#utility.yul\":6513:6531   */\n      tag_281\n      tag_282\n      jump\t// in\n    tag_281:\n        /* \"#utility.yul\":6477:6533   */\n    tag_280:\n        /* \"#utility.yul\":6551:6580   */\n      tag_283\n        /* \"#utility.yul\":6573:6579   */\n      dup3\n        /* \"#utility.yul\":6551:6580   */\n      tag_250\n      jump\t// in\n    tag_283:\n        /* \"#utility.yul\":6543:6580   */\n      swap1\n      pop\n        /* \"#utility.yul\":6635:6639   */\n      0x20\n        /* \"#utility.yul\":6629:6633   */\n      dup2\n        /* \"#utility.yul\":6625:6640   */\n      add\n        /* \"#utility.yul\":6617:6640   */\n      swap1\n      pop\n        /* \"#utility.yul\":6339:6647   */\n      swap2\n      swap1\n      pop\n      jump\t// out\n        /* \"#utility.yul\":6653:6752   */\n    tag_244:\n        /* \"#utility.yul\":6705:6711   */\n      0x00\n        /* \"#utility.yul\":6739:6744   */\n      dup2\n        /* \"#utility.yul\":6733:6745   */\n      mload\n        /* \"#utility.yul\":6723:6745   */\n      swap1\n      pop\n        /* \"#utility.yul\":6653:6752   */\n      swap2\n      swap1\n      pop\n      jump\t// out\n        /* \"#utility.yul\":6758:6927   */\n    tag_246:\n        /* \"#utility.yul\":6842:6853   */\n      0x00\n        /* \"#utility.yul\":6876:6882   */\n      dup3\n        /* \"#utility.yul\":6871:6874   */\n      dup3\n        /* \"#utility.yul\":6864:6883   */\n      mstore\n        /* \"#utility.yul\":6916:6920   */\n      0x20\n        /* \"#utility.yul\":6911:6914   */\n      dup3\n        /* \"#utility.yul\":6907:6921   */\n      add\n        /* \"#utility.yul\":6892:6921   */\n      swap1\n      pop\n        /* \"#utility.yul\":6758:6927   */\n      swap3\n      swap2\n      pop\n      pop\n      jump\t// out\n        /* \"#utility.yul\":6933:7238   */\n    tag_122:\n        /* \"#utility.yul\":6973:6976   */\n      0x00\n        /* \"#utility.yul\":6992:7012   */\n      tag_287\n        /* \"#utility.yul\":7010:7011   */\n      dup3\n        /* \"#utility.yul\":6992:7012   */\n      tag_254\n      jump\t// in\n    tag_287:\n        /* \"#utility.yul\":6987:7012   */\n      swap2\n      pop\n        /* \"#utility.yul\":7026:7046   */\n      tag_288\n        /* \"#utility.yul\":7044:7045   */\n      dup4\n        /* \"#utility.yul\":7026:7046   */\n      tag_254\n      jump\t// in\n    tag_288:\n        /* \"#utility.yul\":7021:7046   */\n      swap3\n      pop\n        /* \"#utility.yul\":7180:7181   */\n      dup3\n        /* \"#utility.yul\":7112:7178   */\n      0xffffffffffffffffffffffffffffffffffffffffffffffffffffffffffffffff\n        /* \"#utility.yul\":7108:7182   */\n      sub\n        /* \"#utility.yul\":7105:7106   */\n      dup3\n        /* \"#utility.yul\":7102:7183   */\n      gt\n        /* \"#utility.yul\":7099:7206   */\n      iszero\n      tag_289\n      jumpi\n        /* \"#utility.yul\":7186:7204   */\n      tag_290\n      tag_291\n      jump\t// in\n    tag_290:\n        /* \"#utility.yul\":7099:7206   */\n    tag_289:\n        /* \"#utility.yul\":7230:7231   */\n      dup3\n        /* \"#utility.yul\":7227:7228   */\n      dup3\n        /* \"#utility.yul\":7223:7232   */\n      add\n        /* \"#utility.yul\":7216:7232   */\n      swap1\n      pop\n        /* \"#utility.yul\":6933:7238   */\n      swap3\n      swap2\n      pop\n      pop\n      jump\t// out\n        /* \"#utility.yul\":7244:7429   */\n    tag_128:\n        /* \"#utility.yul\":7284:7285   */\n      0x00\n        /* \"#utility.yul\":7301:7321   */\n      tag_293\n        /* \"#utility.yul\":7319:7320   */\n      dup3\n        /* \"#utility.yul\":7301:7321   */\n      tag_254\n      jump\t// in\n    tag_293:\n        /* \"#utility.yul\":7296:7321   */\n      swap2\n      pop\n        /* \"#utility.yul\":7335:7355   */\n      tag_294\n        /* \"#utility.yul\":7353:7354   */\n      dup4\n        /* \"#utility.yul\":7335:7355   */\n      tag_254\n      jump\t// in\n    tag_294:\n        /* \"#utility.yul\":7330:7355   */\n      swap3\n      pop\n        /* \"#utility.yul\":7374:7375   */\n      dup3\n        /* \"#utility.yul\":7364:7399   */\n      tag_295\n      jumpi\n        /* \"#utility.yul\":7379:7397   */\n      tag_296\n      tag_297\n      jump\t// in\n    tag_296:\n        /* \"#utility.yul\":7364:7399   */\n    tag_295:\n        /* \"#utility.yul\":7421:7422   */\n      dup3\n        /* \"#utility.yul\":7418:7419   */\n      dup3\n        /* \"#utility.yul\":7414:7423   */\n      div\n        /* \"#utility.yul\":7409:7423   */\n      swap1\n      pop\n        /* \"#utility.yul\":7244:7429   */\n      swap3\n      swap2\n      pop\n      pop\n      jump\t// out\n        /* \"#utility.yul\":7435:8283   */\n    tag_298:\n        /* \"#utility.yul\":7496:7501   */\n      0x00\n        /* \"#utility.yul\":7503:7507   */\n      dup1\n        /* \"#utility.yul\":7527:7533   */\n      dup3\n        /* \"#utility.yul\":7518:7533   */\n      swap2\n      pop\n        /* \"#utility.yul\":7551:7556   */\n      dup4\n        /* \"#utility.yul\":7542:7556   */\n      swap1\n      pop\n        /* \"#utility.yul\":7565:8277   */\n    tag_300:\n        /* \"#utility.yul\":7586:7587   */\n      0x01\n        /* \"#utility.yul\":7576:7584   */\n      dup6\n        /* \"#utility.yul\":7573:7588   */\n      gt\n        /* \"#utility.yul\":7565:8277   */\n      iszero\n      tag_302\n      jumpi\n        /* \"#utility.yul\":7681:7685   */\n      dup1\n        /* \"#utility.yul\":7676:7679   */\n      dup7\n        /* \"#utility.yul\":7672:7686   */\n      div\n        /* \"#utility.yul\":7666:7670   */\n      dup2\n        /* \"#utility.yul\":7663:7687   */\n      gt\n        /* \"#utility.yul\":7660:7710   */\n      iszero\n      tag_303\n      jumpi\n        /* \"#utility.yul\":7690:7708   */\n      tag_304\n      tag_291\n      jump\t// in\n    tag_304:\n        /* \"#utility.yul\":7660:7710   */\n    tag_303:\n        /* \"#utility.yul\":7740:7741   */\n      0x01\n        /* \"#utility.yul\":7730:7738   */\n      dup6\n        /* \"#utility.yul\":7726:7742   */\n      and\n        /* \"#utility.yul\":7723:8174   */\n      iszero\n      tag_305\n      jumpi\n        /* \"#utility.yul\":8155:8159   */\n      dup1\n        /* \"#utility.yul\":8148:8153   */\n      dup3\n        /* \"#utility.yul\":8144:8160   */\n      mul\n        /* \"#utility.yul\":8135:8160   */\n      swap2\n      pop\n        /* \"#utility.yul\":7723:8174   */\n    tag_305:\n        /* \"#utility.yul\":8205:8209   */\n      dup1\n        /* \"#utility.yul\":8199:8203   */\n      dup2\n        /* \"#utility.yul\":8195:8210   */\n      mul\n        /* \"#utility.yul\":8187:8210   */\n      swap1\n      pop\n        /* \"#utility.yul\":8235:8267   */\n      tag_306\n        /* \"#utility.yul\":8258:8266   */\n      dup6\n        /* \"#utility.yul\":8235:8267   */\n      tag_307\n      jump\t// in\n    tag_306:\n        /* \"#utility.yul\":8223:8267   */\n      swap5\n      pop\n        /* \"#utility.yul\":7565:8277   */\n      jump(tag_300)\n    tag_302:\n        /* \"#utility.yul\":7435:8283   */\n      swap5\n      pop\n      swap5\n      swap3\n      pop\n      pop\n      pop\n      jump\t// out\n        /* \"#utility.yul\":8289:8570   */\n    tag_130:\n        /* \"#utility.yul\":8347:8352   */\n      0x00\n        /* \"#utility.yul\":8371:8394   */\n      tag_309\n        /* \"#utility.yul\":8389:8393   */\n      dup3\n        /* \"#utility.yul\":8371:8394   */\n      tag_254\n      jump\t// in\n    tag_309:\n        /* \"#utility.yul\":8363:8394   */\n      swap2\n      pop\n        /* \"#utility.yul\":8415:8440   */\n      tag_310\n        /* \"#utility.yul\":8431:8439   */\n      dup4\n        /* \"#utility.yul\":8415:8440   */\n      tag_258\n      jump\t// in\n    tag_310:\n        /* \"#utility.yul\":8403:8440   */\n      swap3\n      pop\n        /* \"#utility.yul\":8459:8563   */\n      tag_311\n        /* \"#utility.yul\":8496:8562   */\n      0xffffffffffffffffffffffffffffffffffffffffffffffffffffffffffffffff\n        /* \"#utility.yul\":8486:8494   */\n      dup5\n        /* \"#utility.yul\":8480:8484   */\n      dup5\n        /* \"#utility.yul\":8459:8563   */\n      tag_312\n      jump\t// in\n    tag_311:\n        /* \"#utility.yul\":8450:8563   */\n      swap1\n      pop\n        /* \"#utility.yul\":8289:8570   */\n      swap3\n      swap2\n      pop\n      pop\n      jump\t// out\n        /* \"#utility.yul\":8576:9649   */\n    tag_312:\n        /* \"#utility.yul\":8630:8635   */\n      0x00\n        /* \"#utility.yul\":8821:8829   */\n      dup3\n        /* \"#utility.yul\":8811:8851   */\n      tag_314\n      jumpi\n        /* \"#utility.yul\":8842:8843   */\n      0x01\n        /* \"#utility.yul\":8833:8843   */\n      swap1\n      pop\n        /* \"#utility.yul\":8844:8849   */\n      jump(tag_313)\n        /* \"#utility.yul\":8811:8851   */\n    tag_314:\n        /* \"#utility.yul\":8870:8874   */\n      dup2\n        /* \"#utility.yul\":8860:8896   */\n      tag_315\n      jumpi\n        /* \"#utility.yul\":8887:8888   */\n      0x00\n        /* \"#utility.yul\":8878:8888   */\n      swap1\n      pop\n        /* \"#utility.yul\":8889:8894   */\n      jump(tag_313)\n        /* \"#utility.yul\":8860:8896   */\n    tag_315:\n        /* \"#utility.yul\":8956:8960   */\n      dup2\n        /* \"#utility.yul\":9004:9005   */\n      0x01\n        /* \"#utility.yul\":8999:9026   */\n      dup2\n      eq\n      tag_317\n      jumpi\n        /* \"#utility.yul\":9040:9041   */\n      0x02\n        /* \"#utility.yul\":9035:9226   */\n      dup2\n      eq\n      tag_318\n      jumpi\n        /* \"#utility.yul\":8949:9226   */\n      jump(tag_316)\n        /* \"#utility.yul\":8999:9026   */\n    tag_317:\n        /* \"#utility.yul\":9017:9018   */\n      0x01\n        /* \"#utility.yul\":9008:9018   */\n      swap2\n      pop\n        /* \"#utility.yul\":9019:9024   */\n      pop\n      jump(tag_313)\n        /* \"#utility.yul\":9035:9226   */\n    tag_318:\n        /* \"#utility.yul\":9080:9083   */\n      0xff\n        /* \"#utility.yul\":9070:9078   */\n      dup5\n        /* \"#utility.yul\":9067:9084   */\n      gt\n        /* \"#utility.yul\":9064:9107   */\n      iszero\n      tag_319\n      jumpi\n        /* \"#utility.yul\":9087:9105   */\n      tag_320\n      tag_291\n      jump\t// in\n    tag_320:\n        /* \"#utility.yul\":9064:9107   */\n    tag_319:\n        /* \"#utility.yul\":9136:9144   */\n      dup4\n        /* \"#utility.yul\":9133:9134   */\n      0x02\n        /* \"#utility.yul\":9129:9145   */\n      exp\n        /* \"#utility.yul\":9120:9145   */\n      swap2\n      pop\n        /* \"#utility.yul\":9171:9174   */\n      dup5\n        /* \"#utility.yul\":9164:9169   */\n      dup3\n        /* \"#utility.yul\":9161:9175   */\n      gt\n        /* \"#utility.yul\":9158:9198   */\n      iszero\n      tag_321\n      jumpi\n        /* \"#utility.yul\":9178:9196   */\n      tag_322\n      tag_291\n      jump\t// in\n    tag_322:\n        /* \"#utility.yul\":9158:9198   */\n    tag_321:\n        /* \"#utility.yul\":9211:9216   */\n      pop\n      jump(tag_313)\n        /* \"#utility.yul\":8949:9226   */\n    tag_316:\n      pop\n        /* \"#utility.yul\":9335:9337   */\n      0x20\n        /* \"#utility.yul\":9325:9333   */\n      dup4\n        /* \"#utility.yul\":9322:9338   */\n      lt\n        /* \"#utility.yul\":9316:9319   */\n      0x0133\n        /* \"#utility.yul\":9310:9314   */\n      dup4\n        /* \"#utility.yul\":9307:9320   */\n      lt\n        /* \"#utility.yul\":9303:9339   */\n      and\n        /* \"#utility.yul\":9285:9287   */\n      0x4e\n        /* \"#utility.yul\":9275:9283   */\n      dup5\n        /* \"#utility.yul\":9272:9288   */\n      lt\n        /* \"#utility.yul\":9267:9269   */\n      0x0b\n        /* \"#utility.yul\":9261:9265   */\n      dup5\n        /* \"#utility.yul\":9258:9270   */\n      lt\n        /* \"#utility.yul\":9254:9289   */\n      and\n        /* \"#utility.yul\":9238:9349   */\n      or\n        /* \"#utility.yul\":9235:9481   */\n      iszero\n      tag_323\n      jumpi\n        /* \"#utility.yul\":9391:9399   */\n      dup3\n        /* \"#utility.yul\":9385:9389   */\n      dup3\n        /* \"#utility.yul\":9381:9400   */\n      exp\n        /* \"#utility.yul\":9372:9400   */\n      swap1\n      pop\n        /* \"#utility.yul\":9426:9429   */\n      dup4\n        /* \"#utility.yul\":9419:9424   */\n      dup2\n        /* \"#utility.yul\":9416:9430   */\n      gt\n        /* \"#utility.yul\":9413:9453   */\n      iszero\n      tag_324\n      jumpi\n        /* \"#utility.yul\":9433:9451   */\n      tag_325\n      tag_291\n      jump\t// in\n    tag_325:\n        /* \"#utility.yul\":9413:9453   */\n    tag_324:\n        /* \"#utility.yul\":9466:9471   */\n      jump(tag_313)\n        /* \"#utility.yul\":9235:9481   */\n    tag_323:\n        /* \"#utility.yul\":9506:9548   */\n      tag_326\n        /* \"#utility.yul\":9544:9547   */\n      dup5\n        /* \"#utility.yul\":9534:9542   */\n      dup5\n        /* \"#utility.yul\":9528:9532   */\n      dup5\n        /* \"#utility.yul\":9525:9526   */\n      0x01\n        /* \"#utility.yul\":9506:9548   */\n      tag_298\n      jump\t// in\n    tag_326:\n        /* \"#utility.yul\":9491:9548   */\n      swap3\n      pop\n      swap1\n      pop\n        /* \"#utility.yul\":9580:9584   */\n      dup2\n        /* \"#utility.yul\":9575:9578   */\n      dup5\n        /* \"#utility.yul\":9571:9585   */\n      div\n        /* \"#utility.yul\":9564:9569   */\n      dup2\n        /* \"#utility.yul\":9561:9586   */\n      gt\n        /* \"#utility.yul\":9558:9609   */\n      iszero\n      tag_327\n      jumpi\n        /* \"#utility.yul\":9589:9607   */\n      tag_328\n      tag_291\n      jump\t// in\n    tag_328:\n        /* \"#utility.yul\":9558:9609   */\n    tag_327:\n        /* \"#utility.yul\":9638:9642   */\n      dup2\n        /* \"#utility.yul\":9631:9636   */\n      dup2\n        /* \"#utility.yul\":9627:9643   */\n      mul\n        /* \"#utility.yul\":9618:9643   */\n      swap1\n      pop\n        /* \"#utility.yul\":8576:9649   */\n    tag_313:\n      swap4\n      swap3\n      pop\n      pop\n      pop\n      jump\t// out\n        /* \"#utility.yul\":9655:10003   */\n    tag_126:\n        /* \"#utility.yul\":9695:9702   */\n      0x00\n        /* \"#utility.yul\":9718:9738   */\n      tag_330\n        /* \"#utility.yul\":9736:9737   */\n      dup3\n        /* \"#utility.yul\":9718:9738   */\n      tag_254\n      jump\t// in\n    tag_330:\n        /* \"#utility.yul\":9713:9738   */\n      swap2\n      pop\n        /* \"#utility.yul\":9752:9772   */\n      tag_331\n        /* \"#utility.yul\":9770:9771   */\n      dup4\n        /* \"#utility.yul\":9752:9772   */\n      tag_254\n      jump\t// in\n    tag_331:\n        /* \"#utility.yul\":9747:9772   */\n      swap3\n      pop\n        /* \"#utility.yul\":9940:9941   */\n      dup2\n        /* \"#utility.yul\":9872:9938   */\n      0xffffffffffffffffffffffffffffffffffffffffffffffffffffffffffffffff\n        /* \"#utility.yul\":9868:9942   */\n      div\n        /* \"#utility.yul\":9865:9866   */\n      dup4\n        /* \"#utility.yul\":9862:9943   */\n      gt\n        /* \"#utility.yul\":9857:9858   */\n      dup3\n        /* \"#utility.yul\":9850:9859   */\n      iszero\n        /* \"#utility.yul\":9843:9860   */\n      iszero\n        /* \"#utility.yul\":9839:9944   */\n      and\n        /* \"#utility.yul\":9836:9967   */\n      iszero\n      tag_332\n      jumpi\n        /* \"#utility.yul\":9947:9965   */\n      tag_333\n      tag_291\n      jump\t// in\n    tag_333:\n        /* \"#utility.yul\":9836:9967   */\n    tag_332:\n        /* \"#utility.yul\":9995:9996   */\n      dup3\n        /* \"#utility.yul\":9992:9993   */\n      dup3\n        /* \"#utility.yul\":9988:9997   */\n      mul\n        /* \"#utility.yul\":9977:9997   */\n      swap1\n      pop\n        /* \"#utility.yul\":9655:10003   */\n      swap3\n      swap2\n      pop\n      pop\n      jump\t// out\n        /* \"#utility.yul\":10009:10200   */\n    tag_124:\n        /* \"#utility.yul\":10049:10053   */\n      0x00\n        /* \"#utility.yul\":10069:10089   */\n      tag_335\n        /* \"#utility.yul\":10087:10088   */\n      dup3\n        /* \"#utility.yul\":10069:10089   */\n      tag_254\n      jump\t// in\n    tag_335:\n        /* \"#utility.yul\":10064:10089   */\n      swap2\n      pop\n        /* \"#utility.yul\":10103:10123   */\n      tag_336\n        /* \"#utility.yul\":10121:10122   */\n      dup4\n        /* \"#utility.yul\":10103:10123   */\n      tag_254\n      jump\t// in\n    tag_336:\n        /* \"#utility.yul\":10098:10123   */\n      swap3\n      pop\n        /* \"#utility.yul\":10142:10143   */\n      dup3\n        /* \"#utility.yul\":10139:10140   */\n      dup3\n        /* \"#utility.yul\":10136:10144   */\n      lt\n        /* \"#utility.yul\":10133:10167   */\n      iszero\n      tag_337\n      jumpi\n        /* \"#utility.yul\":10147:10165   */\n      tag_338\n      tag_291\n      jump\t// in\n    tag_338:\n        /* \"#utility.yul\":10133:10167   */\n    tag_337:\n        /* \"#utility.yul\":10192:10193   */\n      dup3\n        /* \"#utility.yul\":10189:10190   */\n      dup3\n        /* \"#utility.yul\":10185:10194   */\n      sub\n        /* \"#utility.yul\":10177:10194   */\n      swap1\n      pop\n        /* \"#utility.yul\":10009:10200   */\n      swap3\n      swap2\n      pop\n      pop\n      jump\t// out\n        /* \"#utility.yul\":10206:10302   */\n    tag_228:\n        /* \"#utility.yul\":10243:10250   */\n      0x00\n        /* \"#utility.yul\":10272:10296   */\n      tag_340\n        /* \"#utility.yul\":10290:10295   */\n      dup3\n        /* \"#utility.yul\":10272:10296   */\n      tag_341\n      jump\t// in\n    tag_340:\n        /* \"#utility.yul\":10261:10296   */\n      swap1\n      pop\n        /* \"#utility.yul\":10206:10302   */\n      swap2\n      swap1\n      pop\n      jump\t// out\n        /* \"#utility.yul\":10308:10412   */\n    tag_342:\n        /* \"#utility.yul\":10353:10360   */\n      0x00\n        /* \"#utility.yul\":10382:10406   */\n      tag_344\n        /* \"#utility.yul\":10400:10405   */\n      dup3\n        /* \"#utility.yul\":10382:10406   */\n      tag_341\n      jump\t// in\n    tag_344:\n        /* \"#utility.yul\":10371:10406   */\n      swap1\n      pop\n        /* \"#utility.yul\":10308:10412   */\n      swap2\n      swap1\n      pop\n      jump\t// out\n        /* \"#utility.yul\":10418:10508   */\n    tag_232:\n        /* \"#utility.yul\":10452:10459   */\n      0x00\n        /* \"#utility.yul\":10495:10500   */\n      dup2\n        /* \"#utility.yul\":10488:10501   */\n      iszero\n        /* \"#utility.yul\":10481:10502   */\n      iszero\n        /* \"#utility.yul\":10470:10502   */\n      swap1\n      pop\n        /* \"#utility.yul\":10418:10508   */\n      swap2\n      swap1\n      pop\n      jump\t// out\n        /* \"#utility.yul\":10514:10590   */\n    tag_236:\n        /* \"#utility.yul\":10550:10557   */\n      0x00\n        /* \"#utility.yul\":10579:10584   */\n      dup2\n        /* \"#utility.yul\":10568:10584   */\n      swap1\n      pop\n        /* \"#utility.yul\":10514:10590   */\n      swap2\n      swap1\n      pop\n      jump\t// out\n        /* \"#utility.yul\":10596:10685   */\n    tag_240:\n        /* \"#utility.yul\":10630:10637   */\n      0x00\n        /* \"#utility.yul\":10673:10678   */\n      dup2\n        /* \"#utility.yul\":10670:10671   */\n      0x00\n        /* \"#utility.yul\":10659:10679   */\n      signextend\n        /* \"#utility.yul\":10648:10679   */\n      swap1\n      pop\n        /* \"#utility.yul\":10596:10685   */\n      swap2\n      swap1\n      pop\n      jump\t// out\n        /* \"#utility.yul\":10691:10817   */\n    tag_341:\n        /* \"#utility.yul\":10728:10735   */\n      0x00\n        /* \"#utility.yul\":10768:10810   */\n      0xffffffffffffffffffffffffffffffffffffffff\n        /* \"#utility.yul\":10761:10766   */\n      dup3\n        /* \"#utility.yul\":10757:10811   */\n      and\n        /* \"#utility.yul\":10746:10811   */\n      swap1\n      pop\n        /* \"#utility.yul\":10691:10817   */\n      swap2\n      swap1\n      pop\n      jump\t// out\n        /* \"#utility.yul\":10823:10900   */\n    tag_254:\n        /* \"#utility.yul\":10860:10867   */\n      0x00\n        /* \"#utility.yul\":10889:10894   */\n      dup2\n        /* \"#utility.yul\":10878:10894   */\n      swap1\n      pop\n        /* \"#utility.yul\":10823:10900   */\n      swap2\n      swap1\n      pop\n      jump\t// out\n        /* \"#utility.yul\":10906:10992   */\n    tag_258:\n        /* \"#utility.yul\":10941:10948   */\n      0x00\n        /* \"#utility.yul\":10981:10985   */\n      0xff\n        /* \"#utility.yul\":10974:10979   */\n      dup3\n        /* \"#utility.yul\":10970:10986   */\n      and\n        /* \"#utility.yul\":10959:10986   */\n      swap1\n      pop\n        /* \"#utility.yul\":10906:10992   */\n      swap2\n      swap1\n      pop\n      jump\t// out\n        /* \"#utility.yul\":10998:11152   */\n    tag_177:\n        /* \"#utility.yul\":11082:11088   */\n      dup3\n        /* \"#utility.yul\":11077:11080   */\n      dup2\n        /* \"#utility.yul\":11072:11075   */\n      dup4\n        /* \"#utility.yul\":11059:11089   */\n      calldatacopy\n        /* \"#utility.yul\":11144:11145   */\n      0x00\n        /* \"#utility.yul\":11135:11141   */\n      dup4\n        /* \"#utility.yul\":11130:11133   */\n      dup4\n        /* \"#utility.yul\":11126:11142   */\n      add\n        /* \"#utility.yul\":11119:11146   */\n      mstore\n        /* \"#utility.yul\":10998:11152   */\n      pop\n      pop\n      pop\n      jump\t// out\n        /* \"#utility.yul\":11158:11465   */\n    tag_248:\n        /* \"#utility.yul\":11226:11227   */\n      0x00\n        /* \"#utility.yul\":11236:11349   */\n    tag_353:\n        /* \"#utility.yul\":11250:11256   */\n      dup4\n        /* \"#utility.yul\":11247:11248   */\n      dup2\n        /* \"#utility.yul\":11244:11257   */\n      lt\n        /* \"#utility.yul\":11236:11349   */\n      iszero\n      tag_355\n      jumpi\n        /* \"#utility.yul\":11335:11336   */\n      dup1\n        /* \"#utility.yul\":11330:11333   */\n      dup3\n        /* \"#utility.yul\":11326:11337   */\n      add\n        /* \"#utility.yul\":11320:11338   */\n      mload\n        /* \"#utility.yul\":11316:11317   */\n      dup2\n        /* \"#utility.yul\":11311:11314   */\n      dup5\n        /* \"#utility.yul\":11307:11318   */\n      add\n        /* \"#utility.yul\":11300:11339   */\n      mstore\n        /* \"#utility.yul\":11272:11274   */\n      0x20\n        /* \"#utility.yul\":11269:11270   */\n      dup2\n        /* \"#utility.yul\":11265:11275   */\n      add\n        /* \"#utility.yul\":11260:11275   */\n      swap1\n      pop\n        /* \"#utility.yul\":11236:11349   */\n      jump(tag_353)\n    tag_355:\n        /* \"#utility.yul\":11367:11373   */\n      dup4\n        /* \"#utility.yul\":11364:11365   */\n      dup2\n        /* \"#utility.yul\":11361:11374   */\n      gt\n        /* \"#utility.yul\":11358:11459   */\n      iszero\n      tag_356\n      jumpi\n        /* \"#utility.yul\":11447:11448   */\n      0x00\n        /* \"#utility.yul\":11438:11444   */\n      dup5\n        /* \"#utility.yul\":11433:11436   */\n      dup5\n        /* \"#utility.yul\":11429:11445   */\n      add\n        /* \"#utility.yul\":11422:11449   */\n      mstore\n        /* \"#utility.yul\":11358:11459   */\n    tag_356:\n        /* \"#utility.yul\":11207:11465   */\n      pop\n        /* \"#utility.yul\":11158:11465   */\n      pop\n      pop\n      pop\n      jump\t// out\n        /* \"#utility.yul\":11471:11791   */\n    tag_141:\n        /* \"#utility.yul\":11515:11521   */\n      0x00\n        /* \"#utility.yul\":11552:11553   */\n      0x02\n        /* \"#utility.yul\":11546:11550   */\n      dup3\n        /* \"#utility.yul\":11542:11554   */\n      div\n        /* \"#utility.yul\":11532:11554   */\n      swap1\n      pop\n        /* \"#utility.yul\":11599:11600   */\n      0x01\n        /* \"#utility.yul\":11593:11597   */\n      dup3\n        /* \"#utility.yul\":11589:11601   */\n      and\n        /* \"#utility.yul\":11620:11638   */\n      dup1\n        /* \"#utility.yul\":11610:11691   */\n      tag_358\n      jumpi\n        /* \"#utility.yul\":11676:11680   */\n      0x7f\n        /* \"#utility.yul\":11668:11674   */\n      dup3\n        /* \"#utility.yul\":11664:11681   */\n      and\n        /* \"#utility.yul\":11654:11681   */\n      swap2\n      pop\n        /* \"#utility.yul\":11610:11691   */\n    tag_358:\n        /* \"#utility.yul\":11738:11740   */\n      0x20\n        /* \"#utility.yul\":11730:11736   */\n      dup3\n        /* \"#utility.yul\":11727:11741   */\n      lt\n        /* \"#utility.yul\":11707:11725   */\n      dup2\n        /* \"#utility.yul\":11704:11742   */\n      eq\n        /* \"#utility.yul\":11701:11785   */\n      iszero\n      tag_359\n      jumpi\n        /* \"#utility.yul\":11757:11775   */\n      tag_360\n      tag_361\n      jump\t// in\n    tag_360:\n        /* \"#utility.yul\":11701:11785   */\n    tag_359:\n        /* \"#utility.yul\":11522:11791   */\n      pop\n        /* \"#utility.yul\":11471:11791   */\n      swap2\n      swap1\n      pop\n      jump\t// out\n        /* \"#utility.yul\":11797:12078   */\n    tag_277:\n        /* \"#utility.yul\":11880:11907   */\n      tag_363\n        /* \"#utility.yul\":11902:11906   */\n      dup3\n        /* \"#utility.yul\":11880:11907   */\n      tag_250\n      jump\t// in\n    tag_363:\n        /* \"#utility.yul\":11872:11878   */\n      dup2\n        /* \"#utility.yul\":11868:11908   */\n      add\n        /* \"#utility.yul\":12010:12016   */\n      dup2\n        /* \"#utility.yul\":11998:12008   */\n      dup2\n        /* \"#utility.yul\":11995:12017   */\n      lt\n        /* \"#utility.yul\":11974:11992   */\n      0xffffffffffffffff\n        /* \"#utility.yul\":11962:11972   */\n      dup3\n        /* \"#utility.yul\":11959:11993   */\n      gt\n        /* \"#utility.yul\":11956:12018   */\n      or\n        /* \"#utility.yul\":11953:12041   */\n      iszero\n      tag_364\n      jumpi\n        /* \"#utility.yul\":12021:12039   */\n      tag_365\n      tag_282\n      jump\t// in\n    tag_365:\n        /* \"#utility.yul\":11953:12041   */\n    tag_364:\n        /* \"#utility.yul\":12061:12071   */\n      dup1\n        /* \"#utility.yul\":12057:12059   */\n      0x40\n        /* \"#utility.yul\":12050:12072   */\n      mstore\n        /* \"#utility.yul\":11840:12078   */\n      pop\n        /* \"#utility.yul\":11797:12078   */\n      pop\n      pop\n      jump\t// out\n        /* \"#utility.yul\":12084:12260   */\n    tag_132:\n        /* \"#utility.yul\":12116:12117   */\n      0x00\n        /* \"#utility.yul\":12133:12153   */\n      tag_367\n        /* \"#utility.yul\":12151:12152   */\n      dup3\n        /* \"#utility.yul\":12133:12153   */\n      tag_254\n      jump\t// in\n    tag_367:\n        /* \"#utility.yul\":12128:12153   */\n      swap2\n      pop\n        /* \"#utility.yul\":12167:12187   */\n      tag_368\n        /* \"#utility.yul\":12185:12186   */\n      dup4\n        /* \"#utility.yul\":12167:12187   */\n      tag_254\n      jump\t// in\n    tag_368:\n        /* \"#utility.yul\":12162:12187   */\n      swap3\n      pop\n        /* \"#utility.yul\":12206:12207   */\n      dup3\n        /* \"#utility.yul\":12196:12231   */\n      tag_369\n      jumpi\n        /* \"#utility.yul\":12211:12229   */\n      tag_370\n      tag_297\n      jump\t// in\n    tag_370:\n        /* \"#utility.yul\":12196:12231   */\n    tag_369:\n        /* \"#utility.yul\":12252:12253   */\n      dup3\n        /* \"#utility.yul\":12249:12250   */\n      dup3\n        /* \"#utility.yul\":12245:12254   */\n      mod\n        /* \"#utility.yul\":12240:12254   */\n      swap1\n      pop\n        /* \"#utility.yul\":12084:12260   */\n      swap3\n      swap2\n      pop\n      pop\n      jump\t// out\n        /* \"#utility.yul\":12266:12494   */\n    tag_134:\n        /* \"#utility.yul\":12301:12304   */\n      0x00\n        /* \"#utility.yul\":12324:12347   */\n      tag_372\n        /* \"#utility.yul\":12341:12346   */\n      dup3\n        /* \"#utility.yul\":12324:12347   */\n      tag_236\n      jump\t// in\n    tag_372:\n        /* \"#utility.yul\":12315:12347   */\n      swap2\n      pop\n        /* \"#utility.yul\":12369:12435   */\n      0x8000000000000000000000000000000000000000000000000000000000000000\n        /* \"#utility.yul\":12362:12367   */\n      dup3\n        /* \"#utility.yul\":12359:12436   */\n      eq\n        /* \"#utility.yul\":12356:12459   */\n      iszero\n      tag_373\n      jumpi\n        /* \"#utility.yul\":12439:12457   */\n      tag_374\n      tag_291\n      jump\t// in\n    tag_374:\n        /* \"#utility.yul\":12356:12459   */\n    tag_373:\n        /* \"#utility.yul\":12482:12487   */\n      dup2\n        /* \"#utility.yul\":12479:12480   */\n      0x00\n        /* \"#utility.yul\":12475:12488   */\n      sub\n        /* \"#utility.yul\":12468:12488   */\n      swap1\n      pop\n        /* \"#utility.yul\":12266:12494   */\n      swap2\n      swap1\n      pop\n      jump\t// out\n        /* \"#utility.yul\":12500:12680   */\n    tag_291:\n        /* \"#utility.yul\":12548:12625   */\n      0x4e487b7100000000000000000000000000000000000000000000000000000000\n        /* \"#utility.yul\":12545:12546   */\n      0x00\n        /* \"#utility.yul\":12538:12626   */\n      mstore\n        /* \"#utility.yul\":12645:12649   */\n      0x11\n        /* \"#utility.yul\":12642:12643   */\n      0x04\n        /* \"#utility.yul\":12635:12650   */\n      mstore\n        /* \"#utility.yul\":12669:12673   */\n      0x24\n        /* \"#utility.yul\":12666:12667   */\n      0x00\n        /* \"#utility.yul\":12659:12674   */\n      revert\n        /* \"#utility.yul\":12686:12866   */\n    tag_297:\n        /* \"#utility.yul\":12734:12811   */\n      0x4e487b7100000000000000000000000000000000000000000000000000000000\n        /* \"#utility.yul\":12731:12732   */\n      0x00\n        /* \"#utility.yul\":12724:12812   */\n      mstore\n        /* \"#utility.yul\":12831:12835   */\n      0x12\n        /* \"#utility.yul\":12828:12829   */\n      0x04\n        /* \"#utility.yul\":12821:12836   */\n      mstore\n        /* \"#utility.yul\":12855:12859   */\n      0x24\n        /* \"#utility.yul\":12852:12853   */\n      0x00\n        /* \"#utility.yul\":12845:12860   */\n      revert\n        /* \"#utility.yul\":12872:13052   */\n    tag_361:\n        /* \"#utility.yul\":12920:12997   */\n      0x4e487b7100000000000000000000000000000000000000000000000000000000\n        /* \"#utility.yul\":12917:12918   */\n      0x00\n        /* \"#utility.yul\":12910:12998   */\n      mstore\n        /* \"#utility.yul\":13017:13021   */\n      0x22\n        /* \"#utility.yul\":13014:13015   */\n      0x04\n        /* \"#utility.yul\":13007:13022   */\n      mstore\n        /* \"#utility.yul\":13041:13045   */\n      0x24\n        /* \"#utility.yul\":13038:13039   */\n      0x00\n        /* \"#utility.yul\":13031:13046   */\n      revert\n        /* \"#utility.yul\":13058:13238   */\n    tag_282:\n        /* \"#utility.yul\":13106:13183   */\n      0x4e487b7100000000000000000000000000000000000000000000000000000000\n        /* \"#utility.yul\":13103:13104   */\n      0x00\n        /* \"#utility.yul\":13096:13184   */\n      mstore\n        /* \"#utility.yul\":13203:13207   */\n      0x41\n        /* \"#utility.yul\":13200:13201   */\n      0x04\n        /* \"#utility.yul\":13193:13208   */\n      mstore\n        /* \"#utility.yul\":13227:13231   */\n      0x24\n        /* \"#utility.yul\":13224:13225   */\n      0x00\n        /* \"#utility.yul\":13217:13232   */\n      revert\n        /* \"#utility.yul\":13244:13361   */\n    tag_194:\n        /* \"#utility.yul\":13353:13354   */\n      0x00\n        /* \"#utility.yul\":13350:13351   */\n      dup1\n        /* \"#utility.yul\":13343:13355   */\n      revert\n        /* \"#utility.yul\":13367:13484   */\n    tag_175:\n        /* \"#utility.yul\":13476:13477   */\n      0x00\n        /* \"#utility.yul\":13473:13474   */\n      dup1\n        /* \"#utility.yul\":13466:13478   */\n      revert\n        /* \"#utility.yul\":13490:13607   */\n    tag_219:\n        /* \"#utility.yul\":13599:13600   */\n      0x00\n        /* \"#utility.yul\":13596:13597   */\n      dup1\n        /* \"#utility.yul\":13589:13601   */\n      revert\n        /* \"#utility.yul\":13613:13730   */\n    tag_203:\n        /* \"#utility.yul\":13722:13723   */\n      0x00\n        /* \"#utility.yul\":13719:13720   */\n      dup1\n        /* \"#utility.yul\":13712:13724   */\n      revert\n        /* \"#utility.yul\":13736:13838   */\n    tag_250:\n        /* \"#utility.yul\":13777:13783   */\n      0x00\n        /* \"#utility.yul\":13828:13830   */\n      0x1f\n        /* \"#utility.yul\":13824:13831   */\n      not\n        /* \"#utility.yul\":13819:13821   */\n      0x1f\n        /* \"#utility.yul\":13812:13817   */\n      dup4\n        /* \"#utility.yul\":13808:13822   */\n      add\n        /* \"#utility.yul\":13804:13832   */\n      and\n        /* \"#utility.yul\":13794:13832   */\n      swap1\n      pop\n        /* \"#utility.yul\":13736:13838   */\n      swap2\n      swap1\n      pop\n      jump\t// out\n        /* \"#utility.yul\":13844:13946   */\n    tag_307:\n        /* \"#utility.yul\":13886:13894   */\n      0x00\n        /* \"#utility.yul\":13933:13938   */\n      dup2\n        /* \"#utility.yul\":13930:13931   */\n      0x01\n        /* \"#utility.yul\":13926:13939   */\n      shr\n        /* \"#utility.yul\":13905:13939   */\n      swap1\n      pop\n        /* \"#utility.yul\":13844:13946   */\n      swap2\n      swap1\n      pop\n      jump\t// out\n        /* \"#utility.yul\":13952:14074   */\n    tag_181:\n        /* \"#utility.yul\":14025:14049   */\n      tag_386\n        /* \"#utility.yul\":14043:14048   */\n      dup2\n        /* \"#utility.yul\":14025:14049   */\n      tag_228\n      jump\t// in\n    tag_386:\n        /* \"#utility.yul\":14018:14023   */\n      dup2\n        /* \"#utility.yul\":14015:14050   */\n      eq\n        /* \"#utility.yul\":14005:14068   */\n      tag_387\n      jumpi\n        /* \"#utility.yul\":14064:14065   */\n      0x00\n        /* \"#utility.yul\":14061:14062   */\n      dup1\n        /* \"#utility.yul\":14054:14066   */\n      revert\n        /* \"#utility.yul\":14005:14068   */\n    tag_387:\n        /* \"#utility.yul\":13952:14074   */\n      pop\n      jump\t// out\n        /* \"#utility.yul\":14080:14218   */\n    tag_185:\n        /* \"#utility.yul\":14161:14193   */\n      tag_389\n        /* \"#utility.yul\":14187:14192   */\n      dup2\n        /* \"#utility.yul\":14161:14193   */\n      tag_342\n      jump\t// in\n    tag_389:\n        /* \"#utility.yul\":14154:14159   */\n      dup2\n        /* \"#utility.yul\":14151:14194   */\n      eq\n        /* \"#utility.yul\":14141:14212   */\n      tag_390\n      jumpi\n        /* \"#utility.yul\":14208:14209   */\n      0x00\n        /* \"#utility.yul\":14205:14206   */\n      dup1\n        /* \"#utility.yul\":14198:14210   */\n      revert\n        /* \"#utility.yul\":14141:14212   */\n    tag_390:\n        /* \"#utility.yul\":14080:14218   */\n      pop\n      jump\t// out\n        /* \"#utility.yul\":14224:14340   */\n    tag_189:\n        /* \"#utility.yul\":14294:14315   */\n      tag_392\n        /* \"#utility.yul\":14309:14314   */\n      dup2\n        /* \"#utility.yul\":14294:14315   */\n      tag_232\n      jump\t// in\n    tag_392:\n        /* \"#utility.yul\":14287:14292   */\n      dup2\n        /* \"#utility.yul\":14284:14316   */\n      eq\n        /* \"#utility.yul\":14274:14334   */\n      tag_393\n      jumpi\n        /* \"#utility.yul\":14330:14331   */\n      0x00\n        /* \"#utility.yul\":14327:14328   */\n      dup1\n        /* \"#utility.yul\":14320:14332   */\n      revert\n        /* \"#utility.yul\":14274:14334   */\n    tag_393:\n        /* \"#utility.yul\":14224:14340   */\n      pop\n      jump\t// out\n        /* \"#utility.yul\":14346:14468   */\n    tag_199:\n        /* \"#utility.yul\":14419:14443   */\n      tag_395\n        /* \"#utility.yul\":14437:14442   */\n      dup2\n        /* \"#utility.yul\":14419:14443   */\n      tag_254\n      jump\t// in\n    tag_395:\n        /* \"#utility.yul\":14412:14417   */\n      dup2\n        /* \"#utility.yul\":14409:14444   */\n      eq\n        /* \"#utility.yul\":14399:14462   */\n      tag_396\n      jumpi\n        /* \"#utility.yul\":14458:14459   */\n      0x00\n        /* \"#utility.yul\":14455:14456   */\n      dup1\n        /* \"#utility.yul\":14448:14460   */\n      revert\n        /* \"#utility.yul\":14399:14462   */\n    tag_396:\n        /* \"#utility.yul\":14346:14468   */\n      pop\n      jump\t// out\n\n    auxdata: 0xa26469706673582212209d9c9418f7b35a35160b3e64a8782ae28a275fbbd3ecd815c4e8e1b45a37f77264736f6c63430008070033\n}\n",
				"bytecode": {
					"linkReferences": {},
					"object": "6080604052735b38da6a701c568545dcfcb03fcb875f56beddc46000806101000a81548173ffffffffffffffffffffffffffffffffffffffff021916908373ffffffffffffffffffffffffffffffffffffffff1602179055506040518060400160405280600481526020017f746573740000000000000000000000000000000000000000000000000000000081525060019080519060200190620000a5929190620001b5565b5060fe600260006101000a81548160ff021916908360ff160217905550602a6005556002600660006101000a81548160ff021916908360ff1602179055507fffffffffffffffffffffffffffffffffffffffffffffffffffffffffffffffd66007557fffffffffffffffffffffffffffffffffffffffffffffffffffffffffffffffff600860006101000a81548160ff021916908360000b60ff1602179055506001600860016101000a81548160ff0219169083151502179055503480156200016d57600080fd5b5033600860026101000a81548173ffffffffffffffffffffffffffffffffffffffff021916908373ffffffffffffffffffffffffffffffffffffffff160217905550620002ca565b828054620001c39062000265565b90600052602060002090601f016020900481019282620001e7576000855562000233565b82601f106200020257805160ff191683800117855562000233565b8280016001018555821562000233579182015b828111156200023257825182559160200191906001019062000215565b5b50905062000242919062000246565b5090565b5b808211156200026157600081600090555060010162000247565b5090565b600060028204905060018216806200027e57607f821691505b602082108114156200029557620002946200029b565b5b50919050565b7f4e487b7100000000000000000000000000000000000000000000000000000000600052602260045260246000fd5b61120780620002da6000396000f3fe60806040526004361061012a5760003560e01c80635a455c1c116100ab5780638da5cb5b1161006f5780638da5cb5b14610351578063939a79ac1461037c578063e2982c21146103a5578063e665b266146103e2578063ed32ca321461040d578063f8b2cb4f146104385761012a565b80635a455c1c146102905780636deecdbe146102bb5780637a28a513146102e6578063853828b6146103115780638b36687e146103285761012a565b80632ccb1b30116100f25780632ccb1b30146101cf578063371303c0146101f85780633891e8991461020f57806352342f131461023a57806352d6804d146102655761012a565b806301725a0b1461012f57806306540f7e14610146578063071bd0791461017157806313bea4601461019a5780632cb777a6146101a4575b600080fd5b34801561013b57600080fd5b50610144610475565b005b34801561015257600080fd5b5061015b61048c565b6040516101689190610bbc565b60405180910390f35b34801561017d57600080fd5b5061019860048036038101906101939190610a6e565b610492565b005b6101a26104fd565b005b3480156101b057600080fd5b506101b9610543565b6040516101c69190610b64565b60405180910390f35b3480156101db57600080fd5b506101f660048036038101906101f191906109b8565b610549565b005b34801561020457600080fd5b5061020d610594565b005b34801561021b57600080fd5b506102246105c8565b6040516102319190610bd7565b60405180910390f35b34801561024657600080fd5b5061024f6105db565b60405161025c9190610bbc565b60405180910390f35b34801561027157600080fd5b5061027a6105e1565b6040516102879190610bbc565b60405180910390f35b34801561029c57600080fd5b506102a56105e7565b6040516102b29190610b9a565b60405180910390f35b3480156102c757600080fd5b506102d0610675565b6040516102dd9190610b49565b60405180910390f35b3480156102f257600080fd5b506102fb610688565b6040516103089190610b7f565b60405180910390f35b34801561031d57600080fd5b5061032661069b565b005b34801561033457600080fd5b5061034f600480360381019061034a91906109f8565b610729565b005b34801561035d57600080fd5b50610366610739565b6040516103739190610b2e565b60405180910390f35b34801561038857600080fd5b506103a3600480360381019061039e9190610a25565b61075f565b005b3480156103b157600080fd5b506103cc60048036038101906103c7919061098b565b6107b4565b6040516103d99190610bbc565b60405180910390f35b3480156103ee57600080fd5b506103f76107cc565b6040516104049190610b2e565b60405180910390f35b34801561041957600080fd5b506104226107f0565b60405161042f9190610bd7565b60405180910390f35b34801561044457600080fd5b5061045f600480360381019061045a919061098b565b610803565b60405161046c9190610bbc565b60405180910390f35b600060ff1660038190555060ff8016600481905550565b60055481565b6000602a90506001816104a59190610c64565b506001816104b39190610eb6565b506002816104c19190610e5c565b506002816104cf9190610cba565b506003816104dd9190610d3e565b506003816104eb919061100d565b506007546104f89061103e565b505050565b34600960003373ffffffffffffffffffffffffffffffffffffffff1673ffffffffffffffffffffffffffffffffffffffff16815260200190815260200160002081905550565b60075481565b8173ffffffffffffffffffffffffffffffffffffffff166108fc829081150290604051600060405180830381858888f1935050505015801561058f573d6000803e3d6000fd5b505050565b6002600081819054906101000a900460ff168092919060010191906101000a81548160ff021916908360ff16021790555050565b600660009054906101000a900460ff1681565b60045481565b60035481565b600180546105f490610faa565b80601f016020809104026020016040519081016040528092919081815260200182805461062090610faa565b801561066d5780601f106106425761010080835404028352916020019161066d565b820191906000526020600020905b81548152906001019060200180831161065057829003601f168201915b505050505081565b600860019054906101000a900460ff1681565b600860009054906101000a900460000b81565b6000600860029054906101000a900473ffffffffffffffffffffffffffffffffffffffff16905060003090508173ffffffffffffffffffffffffffffffffffffffff166108fc8273ffffffffffffffffffffffffffffffffffffffff16319081150290604051600060405180830381858888f19350505050158015610724573d6000803e3d6000fd5b505050565b600081806107345750805b505050565b600860029054906101000a900473ffffffffffffffffffffffffffffffffffffffff1681565b60006040518060400160405280600481526020017f74656d7000000000000000000000000000000000000000000000000000000000815250905081600190805190602001906107af929190610824565b505050565b60096020528060005260406000206000915090505481565b60008054906101000a900473ffffffffffffffffffffffffffffffffffffffff1681565b600260009054906101000a900460ff1681565b60008173ffffffffffffffffffffffffffffffffffffffff16319050919050565b82805461083090610faa565b90600052602060002090601f0160209004810192826108525760008555610899565b82601f1061086b57805160ff1916838001178555610899565b82800160010185558215610899579182015b8281111561089857825182559160200191906001019061087d565b5b5090506108a691906108aa565b5090565b5b808211156108c35760008160009055506001016108ab565b5090565b60006108da6108d584610c17565b610bf2565b9050828152602081018484840111156108f6576108f5611148565b5b610901848285610f68565b509392505050565b60008135905061091881611175565b92915050565b60008135905061092d8161118c565b92915050565b600081359050610942816111a3565b92915050565b600082601f83011261095d5761095c611143565b5b813561096d8482602086016108c7565b91505092915050565b600081359050610985816111ba565b92915050565b6000602082840312156109a1576109a0611152565b5b60006109af84828501610909565b91505092915050565b600080604083850312156109cf576109ce611152565b5b60006109dd8582860161091e565b92505060206109ee85828601610976565b9150509250929050565b600060208284031215610a0e57610a0d611152565b5b6000610a1c84828501610933565b91505092915050565b600060208284031215610a3b57610a3a611152565b5b600082013567ffffffffffffffff811115610a5957610a5861114d565b5b610a6584828501610948565b91505092915050565b600060208284031215610a8457610a83611152565b5b6000610a9284828501610976565b91505092915050565b610aa481610eea565b82525050565b610ab381610f0e565b82525050565b610ac281610f1a565b82525050565b610ad181610f24565b82525050565b6000610ae282610c48565b610aec8185610c53565b9350610afc818560208601610f77565b610b0581611157565b840191505092915050565b610b1981610f51565b82525050565b610b2881610f5b565b82525050565b6000602082019050610b436000830184610a9b565b92915050565b6000602082019050610b5e6000830184610aaa565b92915050565b6000602082019050610b796000830184610ab9565b92915050565b6000602082019050610b946000830184610ac8565b92915050565b60006020820190508181036000830152610bb48184610ad7565b905092915050565b6000602082019050610bd16000830184610b10565b92915050565b6000602082019050610bec6000830184610b1f565b92915050565b6000610bfc610c0d565b9050610c088282610fdc565b919050565b6000604051905090565b600067ffffffffffffffff821115610c3257610c31611114565b5b610c3b82611157565b9050602081019050919050565b600081519050919050565b600082825260208201905092915050565b6000610c6f82610f51565b9150610c7a83610f51565b9250827fffffffffffffffffffffffffffffffffffffffffffffffffffffffffffffffff03821115610caf57610cae611087565b5b828201905092915050565b6000610cc582610f51565b9150610cd083610f51565b925082610ce057610cdf6110b6565b5b828204905092915050565b6000808291508390505b6001851115610d3557808604811115610d1157610d10611087565b5b6001851615610d205780820291505b8081029050610d2e85611168565b9450610cf5565b94509492505050565b6000610d4982610f51565b9150610d5483610f5b565b9250610d817fffffffffffffffffffffffffffffffffffffffffffffffffffffffffffffffff8484610d89565b905092915050565b600082610d995760019050610e55565b81610da75760009050610e55565b8160018114610dbd5760028114610dc757610df6565b6001915050610e55565b60ff841115610dd957610dd8611087565b5b8360020a915084821115610df057610def611087565b5b50610e55565b5060208310610133831016604e8410600b8410161715610e2b5782820a905083811115610e2657610e25611087565b5b610e55565b610e388484846001610ceb565b92509050818404811115610e4f57610e4e611087565b5b81810290505b9392505050565b6000610e6782610f51565b9150610e7283610f51565b9250817fffffffffffffffffffffffffffffffffffffffffffffffffffffffffffffffff0483118215151615610eab57610eaa611087565b5b828202905092915050565b6000610ec182610f51565b9150610ecc83610f51565b925082821015610edf57610ede611087565b5b828203905092915050565b6000610ef582610f31565b9050919050565b6000610f0782610f31565b9050919050565b60008115159050919050565b6000819050919050565b60008160000b9050919050565b600073ffffffffffffffffffffffffffffffffffffffff82169050919050565b6000819050919050565b600060ff82169050919050565b82818337600083830152505050565b60005b83811015610f95578082015181840152602081019050610f7a565b83811115610fa4576000848401525b50505050565b60006002820490506001821680610fc257607f821691505b60208210811415610fd657610fd56110e5565b5b50919050565b610fe582611157565b810181811067ffffffffffffffff8211171561100457611003611114565b5b80604052505050565b600061101882610f51565b915061102383610f51565b925082611033576110326110b6565b5b828206905092915050565b600061104982610f1a565b91507f800000000000000000000000000000000000000000000000000000000000000082141561107c5761107b611087565b5b816000039050919050565b7f4e487b7100000000000000000000000000000000000000000000000000000000600052601160045260246000fd5b7f4e487b7100000000000000000000000000000000000000000000000000000000600052601260045260246000fd5b7f4e487b7100000000000000000000000000000000000000000000000000000000600052602260045260246000fd5b7f4e487b7100000000000000000000000000000000000000000000000000000000600052604160045260246000fd5b600080fd5b600080fd5b600080fd5b600080fd5b6000601f19601f8301169050919050565b60008160011c9050919050565b61117e81610eea565b811461118957600080fd5b50565b61119581610efc565b81146111a057600080fd5b50565b6111ac81610f0e565b81146111b757600080fd5b50565b6111c381610f51565b81146111ce57600080fd5b5056fea26469706673582212209d9c9418f7b35a35160b3e64a8782ae28a275fbbd3ecd815c4e8e1b45a37f77264736f6c63430008070033",
					"opcodes": "PUSH1 0x80 PUSH1 0x40 MSTORE PUSH20 0x5B38DA6A701C568545DCFCB03FCB875F56BEDDC4 PUSH1 0x0 DUP1 PUSH2 0x100 EXP DUP2 SLOAD DUP2 PUSH20 0xFFFFFFFFFFFFFFFFFFFFFFFFFFFFFFFFFFFFFFFF MUL NOT AND SWAP1 DUP4 PUSH20 0xFFFFFFFFFFFFFFFFFFFFFFFFFFFFFFFFFFFFFFFF AND MUL OR SWAP1 SSTORE POP PUSH1 0x40 MLOAD DUP1 PUSH1 0x40 ADD PUSH1 0x40 MSTORE DUP1 PUSH1 0x4 DUP2 MSTORE PUSH1 0x20 ADD PUSH32 0x7465737400000000000000000000000000000000000000000000000000000000 DUP2 MSTORE POP PUSH1 0x1 SWAP1 DUP1 MLOAD SWAP1 PUSH1 0x20 ADD SWAP1 PUSH3 0xA5 SWAP3 SWAP2 SWAP1 PUSH3 0x1B5 JUMP JUMPDEST POP PUSH1 0xFE PUSH1 0x2 PUSH1 0x0 PUSH2 0x100 EXP DUP2 SLOAD DUP2 PUSH1 0xFF MUL NOT AND SWAP1 DUP4 PUSH1 0xFF AND MUL OR SWAP1 SSTORE POP PUSH1 0x2A PUSH1 0x5 SSTORE PUSH1 0x2 PUSH1 0x6 PUSH1 0x0 PUSH2 0x100 EXP DUP2 SLOAD DUP2 PUSH1 0xFF MUL NOT AND SWAP1 DUP4 PUSH1 0xFF AND MUL OR SWAP1 SSTORE POP PUSH32 0xFFFFFFFFFFFFFFFFFFFFFFFFFFFFFFFFFFFFFFFFFFFFFFFFFFFFFFFFFFFFFFD6 PUSH1 0x7 SSTORE PUSH32 0xFFFFFFFFFFFFFFFFFFFFFFFFFFFFFFFFFFFFFFFFFFFFFFFFFFFFFFFFFFFFFFFF PUSH1 0x8 PUSH1 0x0 PUSH2 0x100 EXP DUP2 SLOAD DUP2 PUSH1 0xFF MUL NOT AND SWAP1 DUP4 PUSH1 0x0 SIGNEXTEND PUSH1 0xFF AND MUL OR SWAP1 SSTORE POP PUSH1 0x1 PUSH1 0x8 PUSH1 0x1 PUSH2 0x100 EXP DUP2 SLOAD DUP2 PUSH1 0xFF MUL NOT AND SWAP1 DUP4 ISZERO ISZERO MUL OR SWAP1 SSTORE POP CALLVALUE DUP1 ISZERO PUSH3 0x16D JUMPI PUSH1 0x0 DUP1 REVERT JUMPDEST POP CALLER PUSH1 0x8 PUSH1 0x2 PUSH2 0x100 EXP DUP2 SLOAD DUP2 PUSH20 0xFFFFFFFFFFFFFFFFFFFFFFFFFFFFFFFFFFFFFFFF MUL NOT AND SWAP1 DUP4 PUSH20 0xFFFFFFFFFFFFFFFFFFFFFFFFFFFFFFFFFFFFFFFF AND MUL OR SWAP1 SSTORE POP PUSH3 0x2CA JUMP JUMPDEST DUP3 DUP1 SLOAD PUSH3 0x1C3 SWAP1 PUSH3 0x265 JUMP JUMPDEST SWAP1 PUSH1 0x0 MSTORE PUSH1 0x20 PUSH1 0x0 KECCAK256 SWAP1 PUSH1 0x1F ADD PUSH1 0x20 SWAP1 DIV DUP2 ADD SWAP3 DUP3 PUSH3 0x1E7 JUMPI PUSH1 0x0 DUP6 SSTORE PUSH3 0x233 JUMP JUMPDEST DUP3 PUSH1 0x1F LT PUSH3 0x202 JUMPI DUP1 MLOAD PUSH1 0xFF NOT AND DUP4 DUP1 ADD OR DUP6 SSTORE PUSH3 0x233 JUMP JUMPDEST DUP3 DUP1 ADD PUSH1 0x1 ADD DUP6 SSTORE DUP3 ISZERO PUSH3 0x233 JUMPI SWAP2 DUP3 ADD JUMPDEST DUP3 DUP2 GT ISZERO PUSH3 0x232 JUMPI DUP3 MLOAD DUP3 SSTORE SWAP2 PUSH1 0x20 ADD SWAP2 SWAP1 PUSH1 0x1 ADD SWAP1 PUSH3 0x215 JUMP JUMPDEST JUMPDEST POP SWAP1 POP PUSH3 0x242 SWAP2 SWAP1 PUSH3 0x246 JUMP JUMPDEST POP SWAP1 JUMP JUMPDEST JUMPDEST DUP1 DUP3 GT ISZERO PUSH3 0x261 JUMPI PUSH1 0x0 DUP2 PUSH1 0x0 SWAP1 SSTORE POP PUSH1 0x1 ADD PUSH3 0x247 JUMP JUMPDEST POP SWAP1 JUMP JUMPDEST PUSH1 0x0 PUSH1 0x2 DUP3 DIV SWAP1 POP PUSH1 0x1 DUP3 AND DUP1 PUSH3 0x27E JUMPI PUSH1 0x7F DUP3 AND SWAP2 POP JUMPDEST PUSH1 0x20 DUP3 LT DUP2 EQ ISZERO PUSH3 0x295 JUMPI PUSH3 0x294 PUSH3 0x29B JUMP JUMPDEST JUMPDEST POP SWAP2 SWAP1 POP JUMP JUMPDEST PUSH32 0x4E487B7100000000000000000000000000000000000000000000000000000000 PUSH1 0x0 MSTORE PUSH1 0x22 PUSH1 0x4 MSTORE PUSH1 0x24 PUSH1 0x0 REVERT JUMPDEST PUSH2 0x1207 DUP1 PUSH3 0x2DA PUSH1 0x0 CODECOPY PUSH1 0x0 RETURN INVALID PUSH1 0x80 PUSH1 0x40 MSTORE PUSH1 0x4 CALLDATASIZE LT PUSH2 0x12A JUMPI PUSH1 0x0 CALLDATALOAD PUSH1 0xE0 SHR DUP1 PUSH4 0x5A455C1C GT PUSH2 0xAB JUMPI DUP1 PUSH4 0x8DA5CB5B GT PUSH2 0x6F JUMPI DUP1 PUSH4 0x8DA5CB5B EQ PUSH2 0x351 JUMPI DUP1 PUSH4 0x939A79AC EQ PUSH2 0x37C JUMPI DUP1 PUSH4 0xE2982C21 EQ PUSH2 0x3A5 JUMPI DUP1 PUSH4 0xE665B266 EQ PUSH2 0x3E2 JUMPI DUP1 PUSH4 0xED32CA32 EQ PUSH2 0x40D JUMPI DUP1 PUSH4 0xF8B2CB4F EQ PUSH2 0x438 JUMPI PUSH2 0x12A JUMP JUMPDEST DUP1 PUSH4 0x5A455C1C EQ PUSH2 0x290 JUMPI DUP1 PUSH4 0x6DEECDBE EQ PUSH2 0x2BB JUMPI DUP1 PUSH4 0x7A28A513 EQ PUSH2 0x2E6 JUMPI DUP1 PUSH4 0x853828B6 EQ PUSH2 0x311 JUMPI DUP1 PUSH4 0x8B36687E EQ PUSH2 0x328 JUMPI PUSH2 0x12A JUMP JUMPDEST DUP1 PUSH4 0x2CCB1B30 GT PUSH2 0xF2 JUMPI DUP1 PUSH4 0x2CCB1B30 EQ PUSH2 0x1CF JUMPI DUP1 PUSH4 0x371303C0 EQ PUSH2 0x1F8 JUMPI DUP1 PUSH4 0x3891E899 EQ PUSH2 0x20F JUMPI DUP1 PUSH4 0x52342F13 EQ PUSH2 0x23A JUMPI DUP1 PUSH4 0x52D6804D EQ PUSH2 0x265 JUMPI PUSH2 0x12A JUMP JUMPDEST DUP1 PUSH4 0x1725A0B EQ PUSH2 0x12F JUMPI DUP1 PUSH4 0x6540F7E EQ PUSH2 0x146 JUMPI DUP1 PUSH4 0x71BD079 EQ PUSH2 0x171 JUMPI DUP1 PUSH4 0x13BEA460 EQ PUSH2 0x19A JUMPI DUP1 PUSH4 0x2CB777A6 EQ PUSH2 0x1A4 JUMPI JUMPDEST PUSH1 0x0 DUP1 REVERT JUMPDEST CALLVALUE DUP1 ISZERO PUSH2 0x13B JUMPI PUSH1 0x0 DUP1 REVERT JUMPDEST POP PUSH2 0x144 PUSH2 0x475 JUMP JUMPDEST STOP JUMPDEST CALLVALUE DUP1 ISZERO PUSH2 0x152 JUMPI PUSH1 0x0 DUP1 REVERT JUMPDEST POP PUSH2 0x15B PUSH2 0x48C JUMP JUMPDEST PUSH1 0x40 MLOAD PUSH2 0x168 SWAP2 SWAP1 PUSH2 0xBBC JUMP JUMPDEST PUSH1 0x40 MLOAD DUP1 SWAP2 SUB SWAP1 RETURN JUMPDEST CALLVALUE DUP1 ISZERO PUSH2 0x17D JUMPI PUSH1 0x0 DUP1 REVERT JUMPDEST POP PUSH2 0x198 PUSH1 0x4 DUP1 CALLDATASIZE SUB DUP2 ADD SWAP1 PUSH2 0x193 SWAP2 SWAP1 PUSH2 0xA6E JUMP JUMPDEST PUSH2 0x492 JUMP JUMPDEST STOP JUMPDEST PUSH2 0x1A2 PUSH2 0x4FD JUMP JUMPDEST STOP JUMPDEST CALLVALUE DUP1 ISZERO PUSH2 0x1B0 JUMPI PUSH1 0x0 DUP1 REVERT JUMPDEST POP PUSH2 0x1B9 PUSH2 0x543 JUMP JUMPDEST PUSH1 0x40 MLOAD PUSH2 0x1C6 SWAP2 SWAP1 PUSH2 0xB64 JUMP JUMPDEST PUSH1 0x40 MLOAD DUP1 SWAP2 SUB SWAP1 RETURN JUMPDEST CALLVALUE DUP1 ISZERO PUSH2 0x1DB JUMPI PUSH1 0x0 DUP1 REVERT JUMPDEST POP PUSH2 0x1F6 PUSH1 0x4 DUP1 CALLDATASIZE SUB DUP2 ADD SWAP1 PUSH2 0x1F1 SWAP2 SWAP1 PUSH2 0x9B8 JUMP JUMPDEST PUSH2 0x549 JUMP JUMPDEST STOP JUMPDEST CALLVALUE DUP1 ISZERO PUSH2 0x204 JUMPI PUSH1 0x0 DUP1 REVERT JUMPDEST POP PUSH2 0x20D PUSH2 0x594 JUMP JUMPDEST STOP JUMPDEST CALLVALUE DUP1 ISZERO PUSH2 0x21B JUMPI PUSH1 0x0 DUP1 REVERT JUMPDEST POP PUSH2 0x224 PUSH2 0x5C8 JUMP JUMPDEST PUSH1 0x40 MLOAD PUSH2 0x231 SWAP2 SWAP1 PUSH2 0xBD7 JUMP JUMPDEST PUSH1 0x40 MLOAD DUP1 SWAP2 SUB SWAP1 RETURN JUMPDEST CALLVALUE DUP1 ISZERO PUSH2 0x246 JUMPI PUSH1 0x0 DUP1 REVERT JUMPDEST POP PUSH2 0x24F PUSH2 0x5DB JUMP JUMPDEST PUSH1 0x40 MLOAD PUSH2 0x25C SWAP2 SWAP1 PUSH2 0xBBC JUMP JUMPDEST PUSH1 0x40 MLOAD DUP1 SWAP2 SUB SWAP1 RETURN JUMPDEST CALLVALUE DUP1 ISZERO PUSH2 0x271 JUMPI PUSH1 0x0 DUP1 REVERT JUMPDEST POP PUSH2 0x27A PUSH2 0x5E1 JUMP JUMPDEST PUSH1 0x40 MLOAD PUSH2 0x287 SWAP2 SWAP1 PUSH2 0xBBC JUMP JUMPDEST PUSH1 0x40 MLOAD DUP1 SWAP2 SUB SWAP1 RETURN JUMPDEST CALLVALUE DUP1 ISZERO PUSH2 0x29C JUMPI PUSH1 0x0 DUP1 REVERT JUMPDEST POP PUSH2 0x2A5 PUSH2 0x5E7 JUMP JUMPDEST PUSH1 0x40 MLOAD PUSH2 0x2B2 SWAP2 SWAP1 PUSH2 0xB9A JUMP JUMPDEST PUSH1 0x40 MLOAD DUP1 SWAP2 SUB SWAP1 RETURN JUMPDEST CALLVALUE DUP1 ISZERO PUSH2 0x2C7 JUMPI PUSH1 0x0 DUP1 REVERT JUMPDEST POP PUSH2 0x2D0 PUSH2 0x675 JUMP JUMPDEST PUSH1 0x40 MLOAD PUSH2 0x2DD SWAP2 SWAP1 PUSH2 0xB49 JUMP JUMPDEST PUSH1 0x40 MLOAD DUP1 SWAP2 SUB SWAP1 RETURN JUMPDEST CALLVALUE DUP1 ISZERO PUSH2 0x2F2 JUMPI PUSH1 0x0 DUP1 REVERT JUMPDEST POP PUSH2 0x2FB PUSH2 0x688 JUMP JUMPDEST PUSH1 0x40 MLOAD PUSH2 0x308 SWAP2 SWAP1 PUSH2 0xB7F JUMP JUMPDEST PUSH1 0x40 MLOAD DUP1 SWAP2 SUB SWAP1 RETURN JUMPDEST CALLVALUE DUP1 ISZERO PUSH2 0x31D JUMPI PUSH1 0x0 DUP1 REVERT JUMPDEST POP PUSH2 0x326 PUSH2 0x69B JUMP JUMPDEST STOP JUMPDEST CALLVALUE DUP1 ISZERO PUSH2 0x334 JUMPI PUSH1 0x0 DUP1 REVERT JUMPDEST POP PUSH2 0x34F PUSH1 0x4 DUP1 CALLDATASIZE SUB DUP2 ADD SWAP1 PUSH2 0x34A SWAP2 SWAP1 PUSH2 0x9F8 JUMP JUMPDEST PUSH2 0x729 JUMP JUMPDEST STOP JUMPDEST CALLVALUE DUP1 ISZERO PUSH2 0x35D JUMPI PUSH1 0x0 DUP1 REVERT JUMPDEST POP PUSH2 0x366 PUSH2 0x739 JUMP JUMPDEST PUSH1 0x40 MLOAD PUSH2 0x373 SWAP2 SWAP1 PUSH2 0xB2E JUMP JUMPDEST PUSH1 0x40 MLOAD DUP1 SWAP2 SUB SWAP1 RETURN JUMPDEST CALLVALUE DUP1 ISZERO PUSH2 0x388 JUMPI PUSH1 0x0 DUP1 REVERT JUMPDEST POP PUSH2 0x3A3 PUSH1 0x4 DUP1 CALLDATASIZE SUB DUP2 ADD SWAP1 PUSH2 0x39E SWAP2 SWAP1 PUSH2 0xA25 JUMP JUMPDEST PUSH2 0x75F JUMP JUMPDEST STOP JUMPDEST CALLVALUE DUP1 ISZERO PUSH2 0x3B1 JUMPI PUSH1 0x0 DUP1 REVERT JUMPDEST POP PUSH2 0x3CC PUSH1 0x4 DUP1 CALLDATASIZE SUB DUP2 ADD SWAP1 PUSH2 0x3C7 SWAP2 SWAP1 PUSH2 0x98B JUMP JUMPDEST PUSH2 0x7B4 JUMP JUMPDEST PUSH1 0x40 MLOAD PUSH2 0x3D9 SWAP2 SWAP1 PUSH2 0xBBC JUMP JUMPDEST PUSH1 0x40 MLOAD DUP1 SWAP2 SUB SWAP1 RETURN JUMPDEST CALLVALUE DUP1 ISZERO PUSH2 0x3EE JUMPI PUSH1 0x0 DUP1 REVERT JUMPDEST POP PUSH2 0x3F7 PUSH2 0x7CC JUMP JUMPDEST PUSH1 0x40 MLOAD PUSH2 0x404 SWAP2 SWAP1 PUSH2 0xB2E JUMP JUMPDEST PUSH1 0x40 MLOAD DUP1 SWAP2 SUB SWAP1 RETURN JUMPDEST CALLVALUE DUP1 ISZERO PUSH2 0x419 JUMPI PUSH1 0x0 DUP1 REVERT JUMPDEST POP PUSH2 0x422 PUSH2 0x7F0 JUMP JUMPDEST PUSH1 0x40 MLOAD PUSH2 0x42F SWAP2 SWAP1 PUSH2 0xBD7 JUMP JUMPDEST PUSH1 0x40 MLOAD DUP1 SWAP2 SUB SWAP1 RETURN JUMPDEST CALLVALUE DUP1 ISZERO PUSH2 0x444 JUMPI PUSH1 0x0 DUP1 REVERT JUMPDEST POP PUSH2 0x45F PUSH1 0x4 DUP1 CALLDATASIZE SUB DUP2 ADD SWAP1 PUSH2 0x45A SWAP2 SWAP1 PUSH2 0x98B JUMP JUMPDEST PUSH2 0x803 JUMP JUMPDEST PUSH1 0x40 MLOAD PUSH2 0x46C SWAP2 SWAP1 PUSH2 0xBBC JUMP JUMPDEST PUSH1 0x40 MLOAD DUP1 SWAP2 SUB SWAP1 RETURN JUMPDEST PUSH1 0x0 PUSH1 0xFF AND PUSH1 0x3 DUP2 SWAP1 SSTORE POP PUSH1 0xFF DUP1 AND PUSH1 0x4 DUP2 SWAP1 SSTORE POP JUMP JUMPDEST PUSH1 0x5 SLOAD DUP2 JUMP JUMPDEST PUSH1 0x0 PUSH1 0x2A SWAP1 POP PUSH1 0x1 DUP2 PUSH2 0x4A5 SWAP2 SWAP1 PUSH2 0xC64 JUMP JUMPDEST POP PUSH1 0x1 DUP2 PUSH2 0x4B3 SWAP2 SWAP1 PUSH2 0xEB6 JUMP JUMPDEST POP PUSH1 0x2 DUP2 PUSH2 0x4C1 SWAP2 SWAP1 PUSH2 0xE5C JUMP JUMPDEST POP PUSH1 0x2 DUP2 PUSH2 0x4CF SWAP2 SWAP1 PUSH2 0xCBA JUMP JUMPDEST POP PUSH1 0x3 DUP2 PUSH2 0x4DD SWAP2 SWAP1 PUSH2 0xD3E JUMP JUMPDEST POP PUSH1 0x3 DUP2 PUSH2 0x4EB SWAP2 SWAP1 PUSH2 0x100D JUMP JUMPDEST POP PUSH1 0x7 SLOAD PUSH2 0x4F8 SWAP1 PUSH2 0x103E JUMP JUMPDEST POP POP POP JUMP JUMPDEST CALLVALUE PUSH1 0x9 PUSH1 0x0 CALLER PUSH20 0xFFFFFFFFFFFFFFFFFFFFFFFFFFFFFFFFFFFFFFFF AND PUSH20 0xFFFFFFFFFFFFFFFFFFFFFFFFFFFFFFFFFFFFFFFF AND DUP2 MSTORE PUSH1 0x20 ADD SWAP1 DUP2 MSTORE PUSH1 0x20 ADD PUSH1 0x0 KECCAK256 DUP2 SWAP1 SSTORE POP JUMP JUMPDEST PUSH1 0x7 SLOAD DUP2 JUMP JUMPDEST DUP2 PUSH20 0xFFFFFFFFFFFFFFFFFFFFFFFFFFFFFFFFFFFFFFFF AND PUSH2 0x8FC DUP3 SWAP1 DUP2 ISZERO MUL SWAP1 PUSH1 0x40 MLOAD PUSH1 0x0 PUSH1 0x40 MLOAD DUP1 DUP4 SUB DUP2 DUP6 DUP9 DUP9 CALL SWAP4 POP POP POP POP ISZERO DUP1 ISZERO PUSH2 0x58F JUMPI RETURNDATASIZE PUSH1 0x0 DUP1 RETURNDATACOPY RETURNDATASIZE PUSH1 0x0 REVERT JUMPDEST POP POP POP JUMP JUMPDEST PUSH1 0x2 PUSH1 0x0 DUP2 DUP2 SWAP1 SLOAD SWAP1 PUSH2 0x100 EXP SWAP1 DIV PUSH1 0xFF AND DUP1 SWAP3 SWAP2 SWAP1 PUSH1 0x1 ADD SWAP2 SWAP1 PUSH2 0x100 EXP DUP2 SLOAD DUP2 PUSH1 0xFF MUL NOT AND SWAP1 DUP4 PUSH1 0xFF AND MUL OR SWAP1 SSTORE POP POP JUMP JUMPDEST PUSH1 0x6 PUSH1 0x0 SWAP1 SLOAD SWAP1 PUSH2 0x100 EXP SWAP1 DIV PUSH1 0xFF AND DUP2 JUMP JUMPDEST PUSH1 0x4 SLOAD DUP2 JUMP JUMPDEST PUSH1 0x3 SLOAD DUP2 JUMP JUMPDEST PUSH1 0x1 DUP1 SLOAD PUSH2 0x5F4 SWAP1 PUSH2 0xFAA JUMP JUMPDEST DUP1 PUSH1 0x1F ADD PUSH1 0x20 DUP1 SWAP2 DIV MUL PUSH1 0x20 ADD PUSH1 0x40 MLOAD SWAP1 DUP2 ADD PUSH1 0x40 MSTORE DUP1 SWAP3 SWAP2 SWAP1 DUP2 DUP2 MSTORE PUSH1 0x20 ADD DUP3 DUP1 SLOAD PUSH2 0x620 SWAP1 PUSH2 0xFAA JUMP JUMPDEST DUP1 ISZERO PUSH2 0x66D JUMPI DUP1 PUSH1 0x1F LT PUSH2 0x642 JUMPI PUSH2 0x100 DUP1 DUP4 SLOAD DIV MUL DUP4 MSTORE SWAP2 PUSH1 0x20 ADD SWAP2 PUSH2 0x66D JUMP JUMPDEST DUP3 ADD SWAP2 SWAP1 PUSH1 0x0 MSTORE PUSH1 0x20 PUSH1 0x0 KECCAK256 SWAP1 JUMPDEST DUP2 SLOAD DUP2 MSTORE SWAP1 PUSH1 0x1 ADD SWAP1 PUSH1 0x20 ADD DUP1 DUP4 GT PUSH2 0x650 JUMPI DUP3 SWAP1 SUB PUSH1 0x1F AND DUP3 ADD SWAP2 JUMPDEST POP POP POP POP POP DUP2 JUMP JUMPDEST PUSH1 0x8 PUSH1 0x1 SWAP1 SLOAD SWAP1 PUSH2 0x100 EXP SWAP1 DIV PUSH1 0xFF AND DUP2 JUMP JUMPDEST PUSH1 0x8 PUSH1 0x0 SWAP1 SLOAD SWAP1 PUSH2 0x100 EXP SWAP1 DIV PUSH1 0x0 SIGNEXTEND DUP2 JUMP JUMPDEST PUSH1 0x0 PUSH1 0x8 PUSH1 0x2 SWAP1 SLOAD SWAP1 PUSH2 0x100 EXP SWAP1 DIV PUSH20 0xFFFFFFFFFFFFFFFFFFFFFFFFFFFFFFFFFFFFFFFF AND SWAP1 POP PUSH1 0x0 ADDRESS SWAP1 POP DUP2 PUSH20 0xFFFFFFFFFFFFFFFFFFFFFFFFFFFFFFFFFFFFFFFF AND PUSH2 0x8FC DUP3 PUSH20 0xFFFFFFFFFFFFFFFFFFFFFFFFFFFFFFFFFFFFFFFF AND BALANCE SWAP1 DUP2 ISZERO MUL SWAP1 PUSH1 0x40 MLOAD PUSH1 0x0 PUSH1 0x40 MLOAD DUP1 DUP4 SUB DUP2 DUP6 DUP9 DUP9 CALL SWAP4 POP POP POP POP ISZERO DUP1 ISZERO PUSH2 0x724 JUMPI RETURNDATASIZE PUSH1 0x0 DUP1 RETURNDATACOPY RETURNDATASIZE PUSH1 0x0 REVERT JUMPDEST POP POP POP JUMP JUMPDEST PUSH1 0x0 DUP2 DUP1 PUSH2 0x734 JUMPI POP DUP1 JUMPDEST POP POP POP JUMP JUMPDEST PUSH1 0x8 PUSH1 0x2 SWAP1 SLOAD SWAP1 PUSH2 0x100 EXP SWAP1 DIV PUSH20 0xFFFFFFFFFFFFFFFFFFFFFFFFFFFFFFFFFFFFFFFF AND DUP2 JUMP JUMPDEST PUSH1 0x0 PUSH1 0x40 MLOAD DUP1 PUSH1 0x40 ADD PUSH1 0x40 MSTORE DUP1 PUSH1 0x4 DUP2 MSTORE PUSH1 0x20 ADD PUSH32 0x74656D7000000000000000000000000000000000000000000000000000000000 DUP2 MSTORE POP SWAP1 POP DUP2 PUSH1 0x1 SWAP1 DUP1 MLOAD SWAP1 PUSH1 0x20 ADD SWAP1 PUSH2 0x7AF SWAP3 SWAP2 SWAP1 PUSH2 0x824 JUMP JUMPDEST POP POP POP JUMP JUMPDEST PUSH1 0x9 PUSH1 0x20 MSTORE DUP1 PUSH1 0x0 MSTORE PUSH1 0x40 PUSH1 0x0 KECCAK256 PUSH1 0x0 SWAP2 POP SWAP1 POP SLOAD DUP2 JUMP JUMPDEST PUSH1 0x0 DUP1 SLOAD SWAP1 PUSH2 0x100 EXP SWAP1 DIV PUSH20 0xFFFFFFFFFFFFFFFFFFFFFFFFFFFFFFFFFFFFFFFF AND DUP2 JUMP JUMPDEST PUSH1 0x2 PUSH1 0x0 SWAP1 SLOAD SWAP1 PUSH2 0x100 EXP SWAP1 DIV PUSH1 0xFF AND DUP2 JUMP JUMPDEST PUSH1 0x0 DUP2 PUSH20 0xFFFFFFFFFFFFFFFFFFFFFFFFFFFFFFFFFFFFFFFF AND BALANCE SWAP1 POP SWAP2 SWAP1 POP JUMP JUMPDEST DUP3 DUP1 SLOAD PUSH2 0x830 SWAP1 PUSH2 0xFAA JUMP JUMPDEST SWAP1 PUSH1 0x0 MSTORE PUSH1 0x20 PUSH1 0x0 KECCAK256 SWAP1 PUSH1 0x1F ADD PUSH1 0x20 SWAP1 DIV DUP2 ADD SWAP3 DUP3 PUSH2 0x852 JUMPI PUSH1 0x0 DUP6 SSTORE PUSH2 0x899 JUMP JUMPDEST DUP3 PUSH1 0x1F LT PUSH2 0x86B JUMPI DUP1 MLOAD PUSH1 0xFF NOT AND DUP4 DUP1 ADD OR DUP6 SSTORE PUSH2 0x899 JUMP JUMPDEST DUP3 DUP1 ADD PUSH1 0x1 ADD DUP6 SSTORE DUP3 ISZERO PUSH2 0x899 JUMPI SWAP2 DUP3 ADD JUMPDEST DUP3 DUP2 GT ISZERO PUSH2 0x898 JUMPI DUP3 MLOAD DUP3 SSTORE SWAP2 PUSH1 0x20 ADD SWAP2 SWAP1 PUSH1 0x1 ADD SWAP1 PUSH2 0x87D JUMP JUMPDEST JUMPDEST POP SWAP1 POP PUSH2 0x8A6 SWAP2 SWAP1 PUSH2 0x8AA JUMP JUMPDEST POP SWAP1 JUMP JUMPDEST JUMPDEST DUP1 DUP3 GT ISZERO PUSH2 0x8C3 JUMPI PUSH1 0x0 DUP2 PUSH1 0x0 SWAP1 SSTORE POP PUSH1 0x1 ADD PUSH2 0x8AB JUMP JUMPDEST POP SWAP1 JUMP JUMPDEST PUSH1 0x0 PUSH2 0x8DA PUSH2 0x8D5 DUP5 PUSH2 0xC17 JUMP JUMPDEST PUSH2 0xBF2 JUMP JUMPDEST SWAP1 POP DUP3 DUP2 MSTORE PUSH1 0x20 DUP2 ADD DUP5 DUP5 DUP5 ADD GT ISZERO PUSH2 0x8F6 JUMPI PUSH2 0x8F5 PUSH2 0x1148 JUMP JUMPDEST JUMPDEST PUSH2 0x901 DUP5 DUP3 DUP6 PUSH2 0xF68 JUMP JUMPDEST POP SWAP4 SWAP3 POP POP POP JUMP JUMPDEST PUSH1 0x0 DUP2 CALLDATALOAD SWAP1 POP PUSH2 0x918 DUP2 PUSH2 0x1175 JUMP JUMPDEST SWAP3 SWAP2 POP POP JUMP JUMPDEST PUSH1 0x0 DUP2 CALLDATALOAD SWAP1 POP PUSH2 0x92D DUP2 PUSH2 0x118C JUMP JUMPDEST SWAP3 SWAP2 POP POP JUMP JUMPDEST PUSH1 0x0 DUP2 CALLDATALOAD SWAP1 POP PUSH2 0x942 DUP2 PUSH2 0x11A3 JUMP JUMPDEST SWAP3 SWAP2 POP POP JUMP JUMPDEST PUSH1 0x0 DUP3 PUSH1 0x1F DUP4 ADD SLT PUSH2 0x95D JUMPI PUSH2 0x95C PUSH2 0x1143 JUMP JUMPDEST JUMPDEST DUP2 CALLDATALOAD PUSH2 0x96D DUP5 DUP3 PUSH1 0x20 DUP7 ADD PUSH2 0x8C7 JUMP JUMPDEST SWAP2 POP POP SWAP3 SWAP2 POP POP JUMP JUMPDEST PUSH1 0x0 DUP2 CALLDATALOAD SWAP1 POP PUSH2 0x985 DUP2 PUSH2 0x11BA JUMP JUMPDEST SWAP3 SWAP2 POP POP JUMP JUMPDEST PUSH1 0x0 PUSH1 0x20 DUP3 DUP5 SUB SLT ISZERO PUSH2 0x9A1 JUMPI PUSH2 0x9A0 PUSH2 0x1152 JUMP JUMPDEST JUMPDEST PUSH1 0x0 PUSH2 0x9AF DUP5 DUP3 DUP6 ADD PUSH2 0x909 JUMP JUMPDEST SWAP2 POP POP SWAP3 SWAP2 POP POP JUMP JUMPDEST PUSH1 0x0 DUP1 PUSH1 0x40 DUP4 DUP6 SUB SLT ISZERO PUSH2 0x9CF JUMPI PUSH2 0x9CE PUSH2 0x1152 JUMP JUMPDEST JUMPDEST PUSH1 0x0 PUSH2 0x9DD DUP6 DUP3 DUP7 ADD PUSH2 0x91E JUMP JUMPDEST SWAP3 POP POP PUSH1 0x20 PUSH2 0x9EE DUP6 DUP3 DUP7 ADD PUSH2 0x976 JUMP JUMPDEST SWAP2 POP POP SWAP3 POP SWAP3 SWAP1 POP JUMP JUMPDEST PUSH1 0x0 PUSH1 0x20 DUP3 DUP5 SUB SLT ISZERO PUSH2 0xA0E JUMPI PUSH2 0xA0D PUSH2 0x1152 JUMP JUMPDEST JUMPDEST PUSH1 0x0 PUSH2 0xA1C DUP5 DUP3 DUP6 ADD PUSH2 0x933 JUMP JUMPDEST SWAP2 POP POP SWAP3 SWAP2 POP POP JUMP JUMPDEST PUSH1 0x0 PUSH1 0x20 DUP3 DUP5 SUB SLT ISZERO PUSH2 0xA3B JUMPI PUSH2 0xA3A PUSH2 0x1152 JUMP JUMPDEST JUMPDEST PUSH1 0x0 DUP3 ADD CALLDATALOAD PUSH8 0xFFFFFFFFFFFFFFFF DUP2 GT ISZERO PUSH2 0xA59 JUMPI PUSH2 0xA58 PUSH2 0x114D JUMP JUMPDEST JUMPDEST PUSH2 0xA65 DUP5 DUP3 DUP6 ADD PUSH2 0x948 JUMP JUMPDEST SWAP2 POP POP SWAP3 SWAP2 POP POP JUMP JUMPDEST PUSH1 0x0 PUSH1 0x20 DUP3 DUP5 SUB SLT ISZERO PUSH2 0xA84 JUMPI PUSH2 0xA83 PUSH2 0x1152 JUMP JUMPDEST JUMPDEST PUSH1 0x0 PUSH2 0xA92 DUP5 DUP3 DUP6 ADD PUSH2 0x976 JUMP JUMPDEST SWAP2 POP POP SWAP3 SWAP2 POP POP JUMP JUMPDEST PUSH2 0xAA4 DUP2 PUSH2 0xEEA JUMP JUMPDEST DUP3 MSTORE POP POP JUMP JUMPDEST PUSH2 0xAB3 DUP2 PUSH2 0xF0E JUMP JUMPDEST DUP3 MSTORE POP POP JUMP JUMPDEST PUSH2 0xAC2 DUP2 PUSH2 0xF1A JUMP JUMPDEST DUP3 MSTORE POP POP JUMP JUMPDEST PUSH2 0xAD1 DUP2 PUSH2 0xF24 JUMP JUMPDEST DUP3 MSTORE POP POP JUMP JUMPDEST PUSH1 0x0 PUSH2 0xAE2 DUP3 PUSH2 0xC48 JUMP JUMPDEST PUSH2 0xAEC DUP2 DUP6 PUSH2 0xC53 JUMP JUMPDEST SWAP4 POP PUSH2 0xAFC DUP2 DUP6 PUSH1 0x20 DUP7 ADD PUSH2 0xF77 JUMP JUMPDEST PUSH2 0xB05 DUP2 PUSH2 0x1157 JUMP JUMPDEST DUP5 ADD SWAP2 POP POP SWAP3 SWAP2 POP POP JUMP JUMPDEST PUSH2 0xB19 DUP2 PUSH2 0xF51 JUMP JUMPDEST DUP3 MSTORE POP POP JUMP JUMPDEST PUSH2 0xB28 DUP2 PUSH2 0xF5B JUMP JUMPDEST DUP3 MSTORE POP POP JUMP JUMPDEST PUSH1 0x0 PUSH1 0x20 DUP3 ADD SWAP1 POP PUSH2 0xB43 PUSH1 0x0 DUP4 ADD DUP5 PUSH2 0xA9B JUMP JUMPDEST SWAP3 SWAP2 POP POP JUMP JUMPDEST PUSH1 0x0 PUSH1 0x20 DUP3 ADD SWAP1 POP PUSH2 0xB5E PUSH1 0x0 DUP4 ADD DUP5 PUSH2 0xAAA JUMP JUMPDEST SWAP3 SWAP2 POP POP JUMP JUMPDEST PUSH1 0x0 PUSH1 0x20 DUP3 ADD SWAP1 POP PUSH2 0xB79 PUSH1 0x0 DUP4 ADD DUP5 PUSH2 0xAB9 JUMP JUMPDEST SWAP3 SWAP2 POP POP JUMP JUMPDEST PUSH1 0x0 PUSH1 0x20 DUP3 ADD SWAP1 POP PUSH2 0xB94 PUSH1 0x0 DUP4 ADD DUP5 PUSH2 0xAC8 JUMP JUMPDEST SWAP3 SWAP2 POP POP JUMP JUMPDEST PUSH1 0x0 PUSH1 0x20 DUP3 ADD SWAP1 POP DUP2 DUP2 SUB PUSH1 0x0 DUP4 ADD MSTORE PUSH2 0xBB4 DUP2 DUP5 PUSH2 0xAD7 JUMP JUMPDEST SWAP1 POP SWAP3 SWAP2 POP POP JUMP JUMPDEST PUSH1 0x0 PUSH1 0x20 DUP3 ADD SWAP1 POP PUSH2 0xBD1 PUSH1 0x0 DUP4 ADD DUP5 PUSH2 0xB10 JUMP JUMPDEST SWAP3 SWAP2 POP POP JUMP JUMPDEST PUSH1 0x0 PUSH1 0x20 DUP3 ADD SWAP1 POP PUSH2 0xBEC PUSH1 0x0 DUP4 ADD DUP5 PUSH2 0xB1F JUMP JUMPDEST SWAP3 SWAP2 POP POP JUMP JUMPDEST PUSH1 0x0 PUSH2 0xBFC PUSH2 0xC0D JUMP JUMPDEST SWAP1 POP PUSH2 0xC08 DUP3 DUP3 PUSH2 0xFDC JUMP JUMPDEST SWAP2 SWAP1 POP JUMP JUMPDEST PUSH1 0x0 PUSH1 0x40 MLOAD SWAP1 POP SWAP1 JUMP JUMPDEST PUSH1 0x0 PUSH8 0xFFFFFFFFFFFFFFFF DUP3 GT ISZERO PUSH2 0xC32 JUMPI PUSH2 0xC31 PUSH2 0x1114 JUMP JUMPDEST JUMPDEST PUSH2 0xC3B DUP3 PUSH2 0x1157 JUMP JUMPDEST SWAP1 POP PUSH1 0x20 DUP2 ADD SWAP1 POP SWAP2 SWAP1 POP JUMP JUMPDEST PUSH1 0x0 DUP2 MLOAD SWAP1 POP SWAP2 SWAP1 POP JUMP JUMPDEST PUSH1 0x0 DUP3 DUP3 MSTORE PUSH1 0x20 DUP3 ADD SWAP1 POP SWAP3 SWAP2 POP POP JUMP JUMPDEST PUSH1 0x0 PUSH2 0xC6F DUP3 PUSH2 0xF51 JUMP JUMPDEST SWAP2 POP PUSH2 0xC7A DUP4 PUSH2 0xF51 JUMP JUMPDEST SWAP3 POP DUP3 PUSH32 0xFFFFFFFFFFFFFFFFFFFFFFFFFFFFFFFFFFFFFFFFFFFFFFFFFFFFFFFFFFFFFFFF SUB DUP3 GT ISZERO PUSH2 0xCAF JUMPI PUSH2 0xCAE PUSH2 0x1087 JUMP JUMPDEST JUMPDEST DUP3 DUP3 ADD SWAP1 POP SWAP3 SWAP2 POP POP JUMP JUMPDEST PUSH1 0x0 PUSH2 0xCC5 DUP3 PUSH2 0xF51 JUMP JUMPDEST SWAP2 POP PUSH2 0xCD0 DUP4 PUSH2 0xF51 JUMP JUMPDEST SWAP3 POP DUP3 PUSH2 0xCE0 JUMPI PUSH2 0xCDF PUSH2 0x10B6 JUMP JUMPDEST JUMPDEST DUP3 DUP3 DIV SWAP1 POP SWAP3 SWAP2 POP POP JUMP JUMPDEST PUSH1 0x0 DUP1 DUP3 SWAP2 POP DUP4 SWAP1 POP JUMPDEST PUSH1 0x1 DUP6 GT ISZERO PUSH2 0xD35 JUMPI DUP1 DUP7 DIV DUP2 GT ISZERO PUSH2 0xD11 JUMPI PUSH2 0xD10 PUSH2 0x1087 JUMP JUMPDEST JUMPDEST PUSH1 0x1 DUP6 AND ISZERO PUSH2 0xD20 JUMPI DUP1 DUP3 MUL SWAP2 POP JUMPDEST DUP1 DUP2 MUL SWAP1 POP PUSH2 0xD2E DUP6 PUSH2 0x1168 JUMP JUMPDEST SWAP5 POP PUSH2 0xCF5 JUMP JUMPDEST SWAP5 POP SWAP5 SWAP3 POP POP POP JUMP JUMPDEST PUSH1 0x0 PUSH2 0xD49 DUP3 PUSH2 0xF51 JUMP JUMPDEST SWAP2 POP PUSH2 0xD54 DUP4 PUSH2 0xF5B JUMP JUMPDEST SWAP3 POP PUSH2 0xD81 PUSH32 0xFFFFFFFFFFFFFFFFFFFFFFFFFFFFFFFFFFFFFFFFFFFFFFFFFFFFFFFFFFFFFFFF DUP5 DUP5 PUSH2 0xD89 JUMP JUMPDEST SWAP1 POP SWAP3 SWAP2 POP POP JUMP JUMPDEST PUSH1 0x0 DUP3 PUSH2 0xD99 JUMPI PUSH1 0x1 SWAP1 POP PUSH2 0xE55 JUMP JUMPDEST DUP2 PUSH2 0xDA7 JUMPI PUSH1 0x0 SWAP1 POP PUSH2 0xE55 JUMP JUMPDEST DUP2 PUSH1 0x1 DUP2 EQ PUSH2 0xDBD JUMPI PUSH1 0x2 DUP2 EQ PUSH2 0xDC7 JUMPI PUSH2 0xDF6 JUMP JUMPDEST PUSH1 0x1 SWAP2 POP POP PUSH2 0xE55 JUMP JUMPDEST PUSH1 0xFF DUP5 GT ISZERO PUSH2 0xDD9 JUMPI PUSH2 0xDD8 PUSH2 0x1087 JUMP JUMPDEST JUMPDEST DUP4 PUSH1 0x2 EXP SWAP2 POP DUP5 DUP3 GT ISZERO PUSH2 0xDF0 JUMPI PUSH2 0xDEF PUSH2 0x1087 JUMP JUMPDEST JUMPDEST POP PUSH2 0xE55 JUMP JUMPDEST POP PUSH1 0x20 DUP4 LT PUSH2 0x133 DUP4 LT AND PUSH1 0x4E DUP5 LT PUSH1 0xB DUP5 LT AND OR ISZERO PUSH2 0xE2B JUMPI DUP3 DUP3 EXP SWAP1 POP DUP4 DUP2 GT ISZERO PUSH2 0xE26 JUMPI PUSH2 0xE25 PUSH2 0x1087 JUMP JUMPDEST JUMPDEST PUSH2 0xE55 JUMP JUMPDEST PUSH2 0xE38 DUP5 DUP5 DUP5 PUSH1 0x1 PUSH2 0xCEB JUMP JUMPDEST SWAP3 POP SWAP1 POP DUP2 DUP5 DIV DUP2 GT ISZERO PUSH2 0xE4F JUMPI PUSH2 0xE4E PUSH2 0x1087 JUMP JUMPDEST JUMPDEST DUP2 DUP2 MUL SWAP1 POP JUMPDEST SWAP4 SWAP3 POP POP POP JUMP JUMPDEST PUSH1 0x0 PUSH2 0xE67 DUP3 PUSH2 0xF51 JUMP JUMPDEST SWAP2 POP PUSH2 0xE72 DUP4 PUSH2 0xF51 JUMP JUMPDEST SWAP3 POP DUP2 PUSH32 0xFFFFFFFFFFFFFFFFFFFFFFFFFFFFFFFFFFFFFFFFFFFFFFFFFFFFFFFFFFFFFFFF DIV DUP4 GT DUP3 ISZERO ISZERO AND ISZERO PUSH2 0xEAB JUMPI PUSH2 0xEAA PUSH2 0x1087 JUMP JUMPDEST JUMPDEST DUP3 DUP3 MUL SWAP1 POP SWAP3 SWAP2 POP POP JUMP JUMPDEST PUSH1 0x0 PUSH2 0xEC1 DUP3 PUSH2 0xF51 JUMP JUMPDEST SWAP2 POP PUSH2 0xECC DUP4 PUSH2 0xF51 JUMP JUMPDEST SWAP3 POP DUP3 DUP3 LT ISZERO PUSH2 0xEDF JUMPI PUSH2 0xEDE PUSH2 0x1087 JUMP JUMPDEST JUMPDEST DUP3 DUP3 SUB SWAP1 POP SWAP3 SWAP2 POP POP JUMP JUMPDEST PUSH1 0x0 PUSH2 0xEF5 DUP3 PUSH2 0xF31 JUMP JUMPDEST SWAP1 POP SWAP2 SWAP1 POP JUMP JUMPDEST PUSH1 0x0 PUSH2 0xF07 DUP3 PUSH2 0xF31 JUMP JUMPDEST SWAP1 POP SWAP2 SWAP1 POP JUMP JUMPDEST PUSH1 0x0 DUP2 ISZERO ISZERO SWAP1 POP SWAP2 SWAP1 POP JUMP JUMPDEST PUSH1 0x0 DUP2 SWAP1 POP SWAP2 SWAP1 POP JUMP JUMPDEST PUSH1 0x0 DUP2 PUSH1 0x0 SIGNEXTEND SWAP1 POP SWAP2 SWAP1 POP JUMP JUMPDEST PUSH1 0x0 PUSH20 0xFFFFFFFFFFFFFFFFFFFFFFFFFFFFFFFFFFFFFFFF DUP3 AND SWAP1 POP SWAP2 SWAP1 POP JUMP JUMPDEST PUSH1 0x0 DUP2 SWAP1 POP SWAP2 SWAP1 POP JUMP JUMPDEST PUSH1 0x0 PUSH1 0xFF DUP3 AND SWAP1 POP SWAP2 SWAP1 POP JUMP JUMPDEST DUP3 DUP2 DUP4 CALLDATACOPY PUSH1 0x0 DUP4 DUP4 ADD MSTORE POP POP POP JUMP JUMPDEST PUSH1 0x0 JUMPDEST DUP4 DUP2 LT ISZERO PUSH2 0xF95 JUMPI DUP1 DUP3 ADD MLOAD DUP2 DUP5 ADD MSTORE PUSH1 0x20 DUP2 ADD SWAP1 POP PUSH2 0xF7A JUMP JUMPDEST DUP4 DUP2 GT ISZERO PUSH2 0xFA4 JUMPI PUSH1 0x0 DUP5 DUP5 ADD MSTORE JUMPDEST POP POP POP POP JUMP JUMPDEST PUSH1 0x0 PUSH1 0x2 DUP3 DIV SWAP1 POP PUSH1 0x1 DUP3 AND DUP1 PUSH2 0xFC2 JUMPI PUSH1 0x7F DUP3 AND SWAP2 POP JUMPDEST PUSH1 0x20 DUP3 LT DUP2 EQ ISZERO PUSH2 0xFD6 JUMPI PUSH2 0xFD5 PUSH2 0x10E5 JUMP JUMPDEST JUMPDEST POP SWAP2 SWAP1 POP JUMP JUMPDEST PUSH2 0xFE5 DUP3 PUSH2 0x1157 JUMP JUMPDEST DUP2 ADD DUP2 DUP2 LT PUSH8 0xFFFFFFFFFFFFFFFF DUP3 GT OR ISZERO PUSH2 0x1004 JUMPI PUSH2 0x1003 PUSH2 0x1114 JUMP JUMPDEST JUMPDEST DUP1 PUSH1 0x40 MSTORE POP POP POP JUMP JUMPDEST PUSH1 0x0 PUSH2 0x1018 DUP3 PUSH2 0xF51 JUMP JUMPDEST SWAP2 POP PUSH2 0x1023 DUP4 PUSH2 0xF51 JUMP JUMPDEST SWAP3 POP DUP3 PUSH2 0x1033 JUMPI PUSH2 0x1032 PUSH2 0x10B6 JUMP JUMPDEST JUMPDEST DUP3 DUP3 MOD SWAP1 POP SWAP3 SWAP2 POP POP JUMP JUMPDEST PUSH1 0x0 PUSH2 0x1049 DUP3 PUSH2 0xF1A JUMP JUMPDEST SWAP2 POP PUSH32 0x8000000000000000000000000000000000000000000000000000000000000000 DUP3 EQ ISZERO PUSH2 0x107C JUMPI PUSH2 0x107B PUSH2 0x1087 JUMP JUMPDEST JUMPDEST DUP2 PUSH1 0x0 SUB SWAP1 POP SWAP2 SWAP1 POP JUMP JUMPDEST PUSH32 0x4E487B7100000000000000000000000000000000000000000000000000000000 PUSH1 0x0 MSTORE PUSH1 0x11 PUSH1 0x4 MSTORE PUSH1 0x24 PUSH1 0x0 REVERT JUMPDEST PUSH32 0x4E487B7100000000000000000000000000000000000000000000000000000000 PUSH1 0x0 MSTORE PUSH1 0x12 PUSH1 0x4 MSTORE PUSH1 0x24 PUSH1 0x0 REVERT JUMPDEST PUSH32 0x4E487B7100000000000000000000000000000000000000000000000000000000 PUSH1 0x0 MSTORE PUSH1 0x22 PUSH1 0x4 MSTORE PUSH1 0x24 PUSH1 0x0 REVERT JUMPDEST PUSH32 0x4E487B7100000000000000000000000000000000000000000000000000000000 PUSH1 0x0 MSTORE PUSH1 0x41 PUSH1 0x4 MSTORE PUSH1 0x24 PUSH1 0x0 REVERT JUMPDEST PUSH1 0x0 DUP1 REVERT JUMPDEST PUSH1 0x0 DUP1 REVERT JUMPDEST PUSH1 0x0 DUP1 REVERT JUMPDEST PUSH1 0x0 DUP1 REVERT JUMPDEST PUSH1 0x0 PUSH1 0x1F NOT PUSH1 0x1F DUP4 ADD AND SWAP1 POP SWAP2 SWAP1 POP JUMP JUMPDEST PUSH1 0x0 DUP2 PUSH1 0x1 SHR SWAP1 POP SWAP2 SWAP1 POP JUMP JUMPDEST PUSH2 0x117E DUP2 PUSH2 0xEEA JUMP JUMPDEST DUP2 EQ PUSH2 0x1189 JUMPI PUSH1 0x0 DUP1 REVERT JUMPDEST POP JUMP JUMPDEST PUSH2 0x1195 DUP2 PUSH2 0xEFC JUMP JUMPDEST DUP2 EQ PUSH2 0x11A0 JUMPI PUSH1 0x0 DUP1 REVERT JUMPDEST POP JUMP JUMPDEST PUSH2 0x11AC DUP2 PUSH2 0xF0E JUMP JUMPDEST DUP2 EQ PUSH2 0x11B7 JUMPI PUSH1 0x0 DUP1 REVERT JUMPDEST POP JUMP JUMPDEST PUSH2 0x11C3 DUP2 PUSH2 0xF51 JUMP JUMPDEST DUP2 EQ PUSH2 0x11CE JUMPI PUSH1 0x0 DUP1 REVERT JUMPDEST POP JUMP INVALID LOG2 PUSH5 0x6970667358 0x22 SLT KECCAK256 SWAP14 SWAP13 SWAP5 XOR 0xF7 0xB3 GAS CALLDATALOAD AND SIGNEXTEND RETURNDATACOPY PUSH5 0xA8782AE28A 0x27 0x5F 0xBB 0xD3 0xEC 0xD8 ISZERO 0xC4 0xE8 0xE1 0xB4 GAS CALLDATACOPY 0xF7 PUSH19 0x64736F6C634300080700330000000000000000 "
				},
				"gasEstimates": {
					"creation": {
						"codeDepositCost": "923000",
						"executionCost": "infinite",
						"totalCost": "infinite"
					},
					"external": {
						"demo()": "27308",
						"demo(string)": "infinite",
						"demo(uint256)": "infinite",
						"getBalance(address)": "3389",
						"inc()": "26618",
						"maximum()": "2518",
						"minimum()": "2540",
						"myAddr()": "2599",
						"myBool()": "2566",
						"myFunc(bool)": "555",
						"myInt()": "2541",
						"mySmaillUint()": "2538",
						"mySmallInt()": "2542",
						"myStr()": "infinite",
						"myUint()": "2475",
						"myVal()": "2581",
						"owner()": "2586",
						"payForItem()": "22412",
						"payments(address)": "2880",
						"transferTo(address,uint256)": "infinite",
						"withdrawAll()": "infinite"
					}
				},
				"methodIdentifiers": {
					"demo()": "01725a0b",
					"demo(string)": "939a79ac",
					"demo(uint256)": "071bd079",
					"getBalance(address)": "f8b2cb4f",
					"inc()": "371303c0",
					"maximum()": "52342f13",
					"minimum()": "52d6804d",
					"myAddr()": "e665b266",
					"myBool()": "6deecdbe",
					"myFunc(bool)": "8b36687e",
					"myInt()": "2cb777a6",
					"mySmaillUint()": "3891e899",
					"mySmallInt()": "7a28a513",
					"myStr()": "5a455c1c",
					"myUint()": "06540f7e",
					"myVal()": "ed32ca32",
					"owner()": "8da5cb5b",
					"payForItem()": "13bea460",
					"payments(address)": "e2982c21",
					"transferTo(address,uint256)": "2ccb1b30",
					"withdrawAll()": "853828b6"
				}
			},
			"storageLayout": {
				"storage": [
					{
						"astId": 4,
						"contract": "contracts/Demo.sol:MyShop",
						"label": "myAddr",
						"offset": 0,
						"slot": "0",
						"type": "t_address"
					},
					{
						"astId": 32,
						"contract": "contracts/Demo.sol:MyShop",
						"label": "myStr",
						"offset": 0,
						"slot": "1",
						"type": "t_string_storage"
					},
					{
						"astId": 49,
						"contract": "contracts/Demo.sol:MyShop",
						"label": "myVal",
						"offset": 0,
						"slot": "2",
						"type": "t_uint8"
					},
					{
						"astId": 59,
						"contract": "contracts/Demo.sol:MyShop",
						"label": "minimum",
						"offset": 0,
						"slot": "3",
						"type": "t_uint256"
					},
					{
						"astId": 61,
						"contract": "contracts/Demo.sol:MyShop",
						"label": "maximum",
						"offset": 0,
						"slot": "4",
						"type": "t_uint256"
					},
					{
						"astId": 84,
						"contract": "contracts/Demo.sol:MyShop",
						"label": "myUint",
						"offset": 0,
						"slot": "5",
						"type": "t_uint256"
					},
					{
						"astId": 87,
						"contract": "contracts/Demo.sol:MyShop",
						"label": "mySmaillUint",
						"offset": 0,
						"slot": "6",
						"type": "t_uint8"
					},
					{
						"astId": 144,
						"contract": "contracts/Demo.sol:MyShop",
						"label": "myInt",
						"offset": 0,
						"slot": "7",
						"type": "t_int256"
					},
					{
						"astId": 148,
						"contract": "contracts/Demo.sol:MyShop",
						"label": "mySmallInt",
						"offset": 0,
						"slot": "8",
						"type": "t_int8"
					},
					{
						"astId": 151,
						"contract": "contracts/Demo.sol:MyShop",
						"label": "myBool",
						"offset": 1,
						"slot": "8",
						"type": "t_bool"
					},
					{
						"astId": 153,
						"contract": "contracts/Demo.sol:MyShop",
						"label": "owner",
						"offset": 2,
						"slot": "8",
						"type": "t_address"
					},
					{
						"astId": 157,
						"contract": "contracts/Demo.sol:MyShop",
						"label": "payments",
						"offset": 0,
						"slot": "9",
						"type": "t_mapping(t_address,t_uint256)"
					}
				],
				"types": {
					"t_address": {
						"encoding": "inplace",
						"label": "address",
						"numberOfBytes": "20"
					},
					"t_bool": {
						"encoding": "inplace",
						"label": "bool",
						"numberOfBytes": "1"
					},
					"t_int256": {
						"encoding": "inplace",
						"label": "int256",
						"numberOfBytes": "32"
					},
					"t_int8": {
						"encoding": "inplace",
						"label": "int8",
						"numberOfBytes": "1"
					},
					"t_mapping(t_address,t_uint256)": {
						"encoding": "mapping",
						"key": "t_address",
						"label": "mapping(address => uint256)",
						"numberOfBytes": "32",
						"value": "t_uint256"
					},
					"t_string_storage": {
						"encoding": "bytes",
						"label": "string",
						"numberOfBytes": "32"
					},
					"t_uint256": {
						"encoding": "inplace",
						"label": "uint256",
						"numberOfBytes": "32"
					},
					"t_uint8": {
						"encoding": "inplace",
						"label": "uint8",
						"numberOfBytes": "1"
					}
				}
			},
			"userdoc": {
				"kind": "user",
				"methods": {},
				"version": 1
			}
		}
	}
}