{
	"contracts/Demo.sol": {
		"MyShop": {
			"abi": [
				{
					"inputs": [],
					"stateMutability": "nonpayable",
					"type": "constructor"
				},
				{
					"inputs": [],
					"name": "demo",
					"outputs": [],
					"stateMutability": "nonpayable",
					"type": "function"
				},
				{
					"inputs": [
						{
							"internalType": "uint256",
							"name": "_inputUint",
							"type": "uint256"
						}
					],
					"name": "demo",
					"outputs": [],
					"stateMutability": "nonpayable",
					"type": "function"
				},
				{
					"inputs": [
						{
							"internalType": "string",
							"name": "newValueStr",
							"type": "string"
						}
					],
					"name": "demo",
					"outputs": [],
					"stateMutability": "nonpayable",
					"type": "function"
				},
				{
					"inputs": [],
					"name": "getBalance",
					"outputs": [
						{
							"internalType": "uint256",
							"name": "",
							"type": "uint256"
						}
					],
					"stateMutability": "view",
					"type": "function"
				},
				{
					"inputs": [],
					"name": "inc",
					"outputs": [],
					"stateMutability": "nonpayable",
					"type": "function"
				},
				{
					"inputs": [],
					"name": "maximum",
					"outputs": [
						{
							"internalType": "uint256",
							"name": "",
							"type": "uint256"
						}
					],
					"stateMutability": "view",
					"type": "function"
				},
				{
					"inputs": [],
					"name": "minimum",
					"outputs": [
						{
							"internalType": "uint256",
							"name": "",
							"type": "uint256"
						}
					],
					"stateMutability": "view",
					"type": "function"
				},
				{
					"inputs": [],
					"name": "myAddr",
					"outputs": [
						{
							"internalType": "address",
							"name": "",
							"type": "address"
						}
					],
					"stateMutability": "view",
					"type": "function"
				},
				{
					"inputs": [],
					"name": "myBool",
					"outputs": [
						{
							"internalType": "bool",
							"name": "",
							"type": "bool"
						}
					],
					"stateMutability": "view",
					"type": "function"
				},
				{
					"inputs": [
						{
							"internalType": "bool",
							"name": "_inputBool",
							"type": "bool"
						}
					],
					"name": "myFunc",
					"outputs": [],
					"stateMutability": "nonpayable",
					"type": "function"
				},
				{
					"inputs": [],
					"name": "myInt",
					"outputs": [
						{
							"internalType": "int256",
							"name": "",
							"type": "int256"
						}
					],
					"stateMutability": "view",
					"type": "function"
				},
				{
					"inputs": [],
					"name": "mySmaillUint",
					"outputs": [
						{
							"internalType": "uint8",
							"name": "",
							"type": "uint8"
						}
					],
					"stateMutability": "view",
					"type": "function"
				},
				{
					"inputs": [],
					"name": "mySmallInt",
					"outputs": [
						{
							"internalType": "int8",
							"name": "",
							"type": "int8"
						}
					],
					"stateMutability": "view",
					"type": "function"
				},
				{
					"inputs": [],
					"name": "myStr",
					"outputs": [
						{
							"internalType": "string",
							"name": "",
							"type": "string"
						}
					],
					"stateMutability": "view",
					"type": "function"
				},
				{
					"inputs": [],
					"name": "myUint",
					"outputs": [
						{
							"internalType": "uint256",
							"name": "",
							"type": "uint256"
						}
					],
					"stateMutability": "view",
					"type": "function"
				},
				{
					"inputs": [],
					"name": "myVal",
					"outputs": [
						{
							"internalType": "uint8",
							"name": "",
							"type": "uint8"
						}
					],
					"stateMutability": "view",
					"type": "function"
				},
				{
					"inputs": [],
					"name": "owner",
					"outputs": [
						{
							"internalType": "address",
							"name": "",
							"type": "address"
						}
					],
					"stateMutability": "view",
					"type": "function"
				},
				{
					"inputs": [],
					"name": "payForItem",
					"outputs": [],
					"stateMutability": "payable",
					"type": "function"
				},
				{
					"inputs": [
						{
							"internalType": "address",
							"name": "",
							"type": "address"
						}
					],
					"name": "payments",
					"outputs": [
						{
							"internalType": "uint256",
							"name": "",
							"type": "uint256"
						}
					],
					"stateMutability": "view",
					"type": "function"
				},
				{
					"inputs": [],
					"name": "withdrawAll",
					"outputs": [],
					"stateMutability": "nonpayable",
					"type": "function"
				}
			],
			"devdoc": {
				"kind": "dev",
				"methods": {},
				"version": 1
			},
			"evm": {
				"assembly": "    /* \"contracts/Demo.sol\":62:2646  contract MyShop {\r... */\n  mstore(0x40, 0x80)\n    /* \"contracts/Demo.sol\":111:153  0x5B38Da6a701c568545dCfcB03FcB875f56beddC4 */\n  0x5b38da6a701c568545dcfcb03fcb875f56beddc4\n    /* \"contracts/Demo.sol\":87:153  address public myAddr = 0x5B38Da6a701c568545dCfcB03FcB875f56beddC4 */\n  0x00\n  dup1\n  0x0100\n  exp\n  dup2\n  sload\n  dup2\n  0xffffffffffffffffffffffffffffffffffffffff\n  mul\n  not\n  and\n  swap1\n  dup4\n  0xffffffffffffffffffffffffffffffffffffffff\n  and\n  mul\n  or\n  swap1\n  sstore\n  pop\n    /* \"contracts/Demo.sol\":426:454  string public myStr = \"test\" */\n  mload(0x40)\n  dup1\n  0x40\n  add\n  0x40\n  mstore\n  dup1\n  0x04\n  dup2\n  mstore\n  0x20\n  add\n  0x7465737400000000000000000000000000000000000000000000000000000000\n  dup2\n  mstore\n  pop\n  0x01\n  swap1\n  dup1\n  mload\n  swap1\n  0x20\n  add\n  swap1\n  tag_1\n  swap3\n  swap2\n  swap1\n  tag_2\n  jump\t// in\ntag_1:\n  pop\n    /* \"contracts/Demo.sol\":716:719  254 */\n  0xfe\n    /* \"contracts/Demo.sol\":695:719  uint8 public myVal = 254 */\n  0x02\n  exp(0x0100, 0x00)\n  dup2\n  sload\n  dup2\n  0xff\n  mul\n  not\n  and\n  swap1\n  dup4\n  0xff\n  and\n  mul\n  or\n  swap1\n  sstore\n  pop\n    /* \"contracts/Demo.sol\":1190:1192  42 */\n  0x2a\n    /* \"contracts/Demo.sol\":1169:1192  uint public myUint = 42 */\n  0x05\n  sstore\n    /* \"contracts/Demo.sol\":1246:1247  2 */\n  0x02\n    /* \"contracts/Demo.sol\":1218:1247  uint8 public mySmaillUint = 2 */\n  0x06\n  exp(0x0100, 0x00)\n  dup2\n  sload\n  dup2\n  0xff\n  mul\n  not\n  and\n  swap1\n  dup4\n  0xff\n  and\n  mul\n  or\n  swap1\n  sstore\n  pop\n    /* \"contracts/Demo.sol\":1719:1722  -42 */\n  0xffffffffffffffffffffffffffffffffffffffffffffffffffffffffffffffd6\n    /* \"contracts/Demo.sol\":1697:1722  int256 public myInt = -42 */\n  0x07\n  sstore\n    /* \"contracts/Demo.sol\":1754:1756  -1 */\n  0xffffffffffffffffffffffffffffffffffffffffffffffffffffffffffffffff\n    /* \"contracts/Demo.sol\":1729:1756  int8 public mySmallInt = -1 */\n  0x08\n  exp(0x0100, 0x00)\n  dup2\n  sload\n  dup2\n  0xff\n  mul\n  not\n  and\n  swap1\n  dup4\n  0x00\n  signextend\n  0xff\n  and\n  mul\n  or\n  swap1\n  sstore\n  pop\n    /* \"contracts/Demo.sol\":1835:1839  true */\n  0x01\n    /* \"contracts/Demo.sol\":1814:1839  bool public myBool = true */\n  0x08\n  exp(0x0100, 0x01)\n  dup2\n  sload\n  dup2\n  0xff\n  mul\n  not\n  and\n  swap1\n  dup4\n  iszero\n  iszero\n  mul\n  or\n  swap1\n  sstore\n  pop\n    /* \"contracts/Demo.sol\":1985:2037  constructor () {\r... */\n  callvalue\n  dup1\n  iszero\n  tag_3\n  jumpi\n  0x00\n  dup1\n  revert\ntag_3:\n  pop\n    /* \"contracts/Demo.sol\":2019:2029  msg.sender */\n  caller\n    /* \"contracts/Demo.sol\":2011:2016  owner */\n  0x08\n  0x02\n    /* \"contracts/Demo.sol\":2011:2029  owner = msg.sender */\n  0x0100\n  exp\n  dup2\n  sload\n  dup2\n  0xffffffffffffffffffffffffffffffffffffffff\n  mul\n  not\n  and\n  swap1\n  dup4\n  0xffffffffffffffffffffffffffffffffffffffff\n  and\n  mul\n  or\n  swap1\n  sstore\n  pop\n    /* \"contracts/Demo.sol\":62:2646  contract MyShop {\r... */\n  jump(tag_6)\ntag_2:\n  dup3\n  dup1\n  sload\n  tag_7\n  swap1\n  tag_8\n  jump\t// in\ntag_7:\n  swap1\n  0x00\n  mstore\n  keccak256(0x00, 0x20)\n  swap1\n  0x1f\n  add\n  0x20\n  swap1\n  div\n  dup2\n  add\n  swap3\n  dup3\n  tag_10\n  jumpi\n  0x00\n  dup6\n  sstore\n  jump(tag_9)\ntag_10:\n  dup3\n  0x1f\n  lt\n  tag_11\n  jumpi\n  dup1\n  mload\n  not(0xff)\n  and\n  dup4\n  dup1\n  add\n  or\n  dup6\n  sstore\n  jump(tag_9)\ntag_11:\n  dup3\n  dup1\n  add\n  0x01\n  add\n  dup6\n  sstore\n  dup3\n  iszero\n  tag_9\n  jumpi\n  swap2\n  dup3\n  add\ntag_12:\n  dup3\n  dup2\n  gt\n  iszero\n  tag_13\n  jumpi\n  dup3\n  mload\n  dup3\n  sstore\n  swap2\n  0x20\n  add\n  swap2\n  swap1\n  0x01\n  add\n  swap1\n  jump(tag_12)\ntag_13:\ntag_9:\n  pop\n  swap1\n  pop\n  tag_14\n  swap2\n  swap1\n  tag_15\n  jump\t// in\ntag_14:\n  pop\n  swap1\n  jump\t// out\ntag_15:\ntag_16:\n  dup1\n  dup3\n  gt\n  iszero\n  tag_17\n  jumpi\n  0x00\n  dup2\n  0x00\n  swap1\n  sstore\n  pop\n  0x01\n  add\n  jump(tag_16)\ntag_17:\n  pop\n  swap1\n  jump\t// out\n    /* \"#utility.yul\":7:327   */\ntag_8:\n    /* \"#utility.yul\":51:57   */\n  0x00\n    /* \"#utility.yul\":88:89   */\n  0x02\n    /* \"#utility.yul\":82:86   */\n  dup3\n    /* \"#utility.yul\":78:90   */\n  div\n    /* \"#utility.yul\":68:90   */\n  swap1\n  pop\n    /* \"#utility.yul\":135:136   */\n  0x01\n    /* \"#utility.yul\":129:133   */\n  dup3\n    /* \"#utility.yul\":125:137   */\n  and\n    /* \"#utility.yul\":156:174   */\n  dup1\n    /* \"#utility.yul\":146:227   */\n  tag_20\n  jumpi\n    /* \"#utility.yul\":212:216   */\n  0x7f\n    /* \"#utility.yul\":204:210   */\n  dup3\n    /* \"#utility.yul\":200:217   */\n  and\n    /* \"#utility.yul\":190:217   */\n  swap2\n  pop\n    /* \"#utility.yul\":146:227   */\ntag_20:\n    /* \"#utility.yul\":274:276   */\n  0x20\n    /* \"#utility.yul\":266:272   */\n  dup3\n    /* \"#utility.yul\":263:277   */\n  lt\n    /* \"#utility.yul\":243:261   */\n  dup2\n    /* \"#utility.yul\":240:278   */\n  eq\n    /* \"#utility.yul\":237:321   */\n  iszero\n  tag_21\n  jumpi\n    /* \"#utility.yul\":293:311   */\n  tag_22\n  tag_23\n  jump\t// in\ntag_22:\n    /* \"#utility.yul\":237:321   */\ntag_21:\n    /* \"#utility.yul\":58:327   */\n  pop\n    /* \"#utility.yul\":7:327   */\n  swap2\n  swap1\n  pop\n  jump\t// out\n    /* \"#utility.yul\":333:513   */\ntag_23:\n    /* \"#utility.yul\":381:458   */\n  0x4e487b7100000000000000000000000000000000000000000000000000000000\n    /* \"#utility.yul\":378:379   */\n  0x00\n    /* \"#utility.yul\":371:459   */\n  mstore\n    /* \"#utility.yul\":478:482   */\n  0x22\n    /* \"#utility.yul\":475:476   */\n  0x04\n    /* \"#utility.yul\":468:483   */\n  mstore\n    /* \"#utility.yul\":502:506   */\n  0x24\n    /* \"#utility.yul\":499:500   */\n  0x00\n    /* \"#utility.yul\":492:507   */\n  revert\n    /* \"contracts/Demo.sol\":62:2646  contract MyShop {\r... */\ntag_6:\n  dataSize(sub_0)\n  dup1\n  dataOffset(sub_0)\n  0x00\n  codecopy\n  0x00\n  return\nstop\n\nsub_0: assembly {\n        /* \"contracts/Demo.sol\":62:2646  contract MyShop {\r... */\n      mstore(0x40, 0x80)\n      jumpi(tag_1, lt(calldatasize, 0x04))\n      shr(0xe0, calldataload(0x00))\n      dup1\n      0x5a455c1c\n      gt\n      tag_22\n      jumpi\n      dup1\n      0x8da5cb5b\n      gt\n      tag_23\n      jumpi\n      dup1\n      0x8da5cb5b\n      eq\n      tag_17\n      jumpi\n      dup1\n      0x939a79ac\n      eq\n      tag_18\n      jumpi\n      dup1\n      0xe2982c21\n      eq\n      tag_19\n      jumpi\n      dup1\n      0xe665b266\n      eq\n      tag_20\n      jumpi\n      dup1\n      0xed32ca32\n      eq\n      tag_21\n      jumpi\n      jump(tag_1)\n    tag_23:\n      dup1\n      0x5a455c1c\n      eq\n      tag_12\n      jumpi\n      dup1\n      0x6deecdbe\n      eq\n      tag_13\n      jumpi\n      dup1\n      0x7a28a513\n      eq\n      tag_14\n      jumpi\n      dup1\n      0x853828b6\n      eq\n      tag_15\n      jumpi\n      dup1\n      0x8b36687e\n      eq\n      tag_16\n      jumpi\n      jump(tag_1)\n    tag_22:\n      dup1\n      0x2cb777a6\n      gt\n      tag_24\n      jumpi\n      dup1\n      0x2cb777a6\n      eq\n      tag_7\n      jumpi\n      dup1\n      0x371303c0\n      eq\n      tag_8\n      jumpi\n      dup1\n      0x3891e899\n      eq\n      tag_9\n      jumpi\n      dup1\n      0x52342f13\n      eq\n      tag_10\n      jumpi\n      dup1\n      0x52d6804d\n      eq\n      tag_11\n      jumpi\n      jump(tag_1)\n    tag_24:\n      dup1\n      0x01725a0b\n      eq\n      tag_2\n      jumpi\n      dup1\n      0x06540f7e\n      eq\n      tag_3\n      jumpi\n      dup1\n      0x071bd079\n      eq\n      tag_4\n      jumpi\n      dup1\n      0x12065fe0\n      eq\n      tag_5\n      jumpi\n      dup1\n      0x13bea460\n      eq\n      tag_6\n      jumpi\n    tag_1:\n      0x00\n      dup1\n      revert\n        /* \"contracts/Demo.sol\":1008:1111  function demo() public {\r... */\n    tag_2:\n      callvalue\n      dup1\n      iszero\n      tag_25\n      jumpi\n      0x00\n      dup1\n      revert\n    tag_25:\n      pop\n      tag_26\n      tag_27\n      jump\t// in\n    tag_26:\n      stop\n        /* \"contracts/Demo.sol\":1169:1192  uint public myUint = 42 */\n    tag_3:\n      callvalue\n      dup1\n      iszero\n      tag_28\n      jumpi\n      0x00\n      dup1\n      revert\n    tag_28:\n      pop\n      tag_29\n      tag_30\n      jump\t// in\n    tag_29:\n      mload(0x40)\n      tag_31\n      swap2\n      swap1\n      tag_32\n      jump\t// in\n    tag_31:\n      mload(0x40)\n      dup1\n      swap2\n      sub\n      swap1\n      return\n        /* \"contracts/Demo.sol\":1300:1665  function demo(uint _inputUint) public {\r... */\n    tag_4:\n      callvalue\n      dup1\n      iszero\n      tag_33\n      jumpi\n      0x00\n      dup1\n      revert\n    tag_33:\n      pop\n      tag_34\n      0x04\n      dup1\n      calldatasize\n      sub\n      dup2\n      add\n      swap1\n      tag_35\n      swap2\n      swap1\n      tag_36\n      jump\t// in\n    tag_35:\n      tag_37\n      jump\t// in\n    tag_34:\n      stop\n        /* \"contracts/Demo.sol\":197:285  function getBalance() public view returns(uint) {\r... */\n    tag_5:\n      callvalue\n      dup1\n      iszero\n      tag_38\n      jumpi\n      0x00\n      dup1\n      revert\n    tag_38:\n      pop\n      tag_39\n      tag_40\n      jump\t// in\n    tag_39:\n      mload(0x40)\n      tag_41\n      swap2\n      swap1\n      tag_32\n      jump\t// in\n    tag_41:\n      mload(0x40)\n      dup1\n      swap2\n      sub\n      swap1\n      return\n        /* \"contracts/Demo.sol\":2045:2134  function payForItem () public payable {\r... */\n    tag_6:\n      tag_42\n      tag_43\n      jump\t// in\n    tag_42:\n      stop\n        /* \"contracts/Demo.sol\":1697:1722  int256 public myInt = -42 */\n    tag_7:\n      callvalue\n      dup1\n      iszero\n      tag_44\n      jumpi\n      0x00\n      dup1\n      revert\n    tag_44:\n      pop\n      tag_45\n      tag_46\n      jump\t// in\n    tag_45:\n      mload(0x40)\n      tag_47\n      swap2\n      swap1\n      tag_48\n      jump\t// in\n    tag_47:\n      mload(0x40)\n      dup1\n      swap2\n      sub\n      swap1\n      return\n        /* \"contracts/Demo.sol\":728:946  function inc() public {\r... */\n    tag_8:\n      callvalue\n      dup1\n      iszero\n      tag_49\n      jumpi\n      0x00\n      dup1\n      revert\n    tag_49:\n      pop\n      tag_50\n      tag_51\n      jump\t// in\n    tag_50:\n      stop\n        /* \"contracts/Demo.sol\":1218:1247  uint8 public mySmaillUint = 2 */\n    tag_9:\n      callvalue\n      dup1\n      iszero\n      tag_52\n      jumpi\n      0x00\n      dup1\n      revert\n    tag_52:\n      pop\n      tag_53\n      tag_54\n      jump\t// in\n    tag_53:\n      mload(0x40)\n      tag_55\n      swap2\n      swap1\n      tag_56\n      jump\t// in\n    tag_55:\n      mload(0x40)\n      dup1\n      swap2\n      sub\n      swap1\n      return\n        /* \"contracts/Demo.sol\":980:999  uint public maximum */\n    tag_10:\n      callvalue\n      dup1\n      iszero\n      tag_57\n      jumpi\n      0x00\n      dup1\n      revert\n    tag_57:\n      pop\n      tag_58\n      tag_59\n      jump\t// in\n    tag_58:\n      mload(0x40)\n      tag_60\n      swap2\n      swap1\n      tag_32\n      jump\t// in\n    tag_60:\n      mload(0x40)\n      dup1\n      swap2\n      sub\n      swap1\n      return\n        /* \"contracts/Demo.sol\":954:973  uint public minimum */\n    tag_11:\n      callvalue\n      dup1\n      iszero\n      tag_61\n      jumpi\n      0x00\n      dup1\n      revert\n    tag_61:\n      pop\n      tag_62\n      tag_63\n      jump\t// in\n    tag_62:\n      mload(0x40)\n      tag_64\n      swap2\n      swap1\n      tag_32\n      jump\t// in\n    tag_64:\n      mload(0x40)\n      dup1\n      swap2\n      sub\n      swap1\n      return\n        /* \"contracts/Demo.sol\":426:454  string public myStr = \"test\" */\n    tag_12:\n      callvalue\n      dup1\n      iszero\n      tag_65\n      jumpi\n      0x00\n      dup1\n      revert\n    tag_65:\n      pop\n      tag_66\n      tag_67\n      jump\t// in\n    tag_66:\n      mload(0x40)\n      tag_68\n      swap2\n      swap1\n      tag_69\n      jump\t// in\n    tag_68:\n      mload(0x40)\n      dup1\n      swap2\n      sub\n      swap1\n      return\n        /* \"contracts/Demo.sol\":1814:1839  bool public myBool = true */\n    tag_13:\n      callvalue\n      dup1\n      iszero\n      tag_70\n      jumpi\n      0x00\n      dup1\n      revert\n    tag_70:\n      pop\n      tag_71\n      tag_72\n      jump\t// in\n    tag_71:\n      mload(0x40)\n      tag_73\n      swap2\n      swap1\n      tag_74\n      jump\t// in\n    tag_73:\n      mload(0x40)\n      dup1\n      swap2\n      sub\n      swap1\n      return\n        /* \"contracts/Demo.sol\":1729:1756  int8 public mySmallInt = -1 */\n    tag_14:\n      callvalue\n      dup1\n      iszero\n      tag_75\n      jumpi\n      0x00\n      dup1\n      revert\n    tag_75:\n      pop\n      tag_76\n      tag_77\n      jump\t// in\n    tag_76:\n      mload(0x40)\n      tag_78\n      swap2\n      swap1\n      tag_79\n      jump\t// in\n    tag_78:\n      mload(0x40)\n      dup1\n      swap2\n      sub\n      swap1\n      return\n        /* \"contracts/Demo.sol\":2142:2322  function withdrawAll () public {\r... */\n    tag_15:\n      callvalue\n      dup1\n      iszero\n      tag_80\n      jumpi\n      0x00\n      dup1\n      revert\n    tag_80:\n      pop\n      tag_81\n      tag_82\n      jump\t// in\n    tag_81:\n      stop\n        /* \"contracts/Demo.sol\":2330:2641  function myFunc (bool _inputBool) public {\r... */\n    tag_16:\n      callvalue\n      dup1\n      iszero\n      tag_83\n      jumpi\n      0x00\n      dup1\n      revert\n    tag_83:\n      pop\n      tag_84\n      0x04\n      dup1\n      calldatasize\n      sub\n      dup2\n      add\n      swap1\n      tag_85\n      swap2\n      swap1\n      tag_86\n      jump\t// in\n    tag_85:\n      tag_87\n      jump\t// in\n    tag_84:\n      stop\n        /* \"contracts/Demo.sol\":1908:1928  address public owner */\n    tag_17:\n      callvalue\n      dup1\n      iszero\n      tag_88\n      jumpi\n      0x00\n      dup1\n      revert\n    tag_88:\n      pop\n      tag_89\n      tag_90\n      jump\t// in\n    tag_89:\n      mload(0x40)\n      tag_91\n      swap2\n      swap1\n      tag_92\n      jump\t// in\n    tag_91:\n      mload(0x40)\n      dup1\n      swap2\n      sub\n      swap1\n      return\n        /* \"contracts/Demo.sol\":505:687  function demo(string memory newValueStr) public {\r... */\n    tag_18:\n      callvalue\n      dup1\n      iszero\n      tag_93\n      jumpi\n      0x00\n      dup1\n      revert\n    tag_93:\n      pop\n      tag_94\n      0x04\n      dup1\n      calldatasize\n      sub\n      dup2\n      add\n      swap1\n      tag_95\n      swap2\n      swap1\n      tag_96\n      jump\t// in\n    tag_95:\n      tag_97\n      jump\t// in\n    tag_94:\n      stop\n        /* \"contracts/Demo.sol\":1935:1976  mapping (address => uint) public payments */\n    tag_19:\n      callvalue\n      dup1\n      iszero\n      tag_98\n      jumpi\n      0x00\n      dup1\n      revert\n    tag_98:\n      pop\n      tag_99\n      0x04\n      dup1\n      calldatasize\n      sub\n      dup2\n      add\n      swap1\n      tag_100\n      swap2\n      swap1\n      tag_101\n      jump\t// in\n    tag_100:\n      tag_102\n      jump\t// in\n    tag_99:\n      mload(0x40)\n      tag_103\n      swap2\n      swap1\n      tag_32\n      jump\t// in\n    tag_103:\n      mload(0x40)\n      dup1\n      swap2\n      sub\n      swap1\n      return\n        /* \"contracts/Demo.sol\":87:153  address public myAddr = 0x5B38Da6a701c568545dCfcB03FcB875f56beddC4 */\n    tag_20:\n      callvalue\n      dup1\n      iszero\n      tag_104\n      jumpi\n      0x00\n      dup1\n      revert\n    tag_104:\n      pop\n      tag_105\n      tag_106\n      jump\t// in\n    tag_105:\n      mload(0x40)\n      tag_107\n      swap2\n      swap1\n      tag_92\n      jump\t// in\n    tag_107:\n      mload(0x40)\n      dup1\n      swap2\n      sub\n      swap1\n      return\n        /* \"contracts/Demo.sol\":695:719  uint8 public myVal = 254 */\n    tag_21:\n      callvalue\n      dup1\n      iszero\n      tag_108\n      jumpi\n      0x00\n      dup1\n      revert\n    tag_108:\n      pop\n      tag_109\n      tag_110\n      jump\t// in\n    tag_109:\n      mload(0x40)\n      tag_111\n      swap2\n      swap1\n      tag_56\n      jump\t// in\n    tag_111:\n      mload(0x40)\n      dup1\n      swap2\n      sub\n      swap1\n      return\n        /* \"contracts/Demo.sol\":1008:1111  function demo() public {\r... */\n    tag_27:\n        /* \"contracts/Demo.sol\":1052:1067  type(uint8).min */\n      0x00\n        /* \"contracts/Demo.sol\":1042:1067  minimum = type(uint8).min */\n      0xff\n      and\n        /* \"contracts/Demo.sol\":1042:1049  minimum */\n      0x03\n        /* \"contracts/Demo.sol\":1042:1067  minimum = type(uint8).min */\n      dup2\n      swap1\n      sstore\n      pop\n        /* \"contracts/Demo.sol\":1088:1103  type(uint8).max */\n      0xff\n        /* \"contracts/Demo.sol\":1078:1103  maximum = type(uint8).max */\n      dup1\n      and\n        /* \"contracts/Demo.sol\":1078:1085  maximum */\n      0x04\n        /* \"contracts/Demo.sol\":1078:1103  maximum = type(uint8).max */\n      dup2\n      swap1\n      sstore\n      pop\n        /* \"contracts/Demo.sol\":1008:1111  function demo() public {\r... */\n      jump\t// out\n        /* \"contracts/Demo.sol\":1169:1192  uint public myUint = 42 */\n    tag_30:\n      sload(0x05)\n      dup2\n      jump\t// out\n        /* \"contracts/Demo.sol\":1300:1665  function demo(uint _inputUint) public {\r... */\n    tag_37:\n        /* \"contracts/Demo.sol\":1349:1363  uint localUint */\n      0x00\n        /* \"contracts/Demo.sol\":1366:1368  42 */\n      0x2a\n        /* \"contracts/Demo.sol\":1349:1368  uint localUint = 42 */\n      swap1\n      pop\n        /* \"contracts/Demo.sol\":1391:1392  1 */\n      0x01\n        /* \"contracts/Demo.sol\":1379:1388  localUint */\n      dup2\n        /* \"contracts/Demo.sol\":1379:1392  localUint + 1 */\n      tag_114\n      swap2\n      swap1\n      tag_115\n      jump\t// in\n    tag_114:\n      pop\n        /* \"contracts/Demo.sol\":1415:1416  1 */\n      0x01\n        /* \"contracts/Demo.sol\":1403:1412  localUint */\n      dup2\n        /* \"contracts/Demo.sol\":1403:1416  localUint - 1 */\n      tag_116\n      swap2\n      swap1\n      tag_117\n      jump\t// in\n    tag_116:\n      pop\n        /* \"contracts/Demo.sol\":1439:1440  2 */\n      0x02\n        /* \"contracts/Demo.sol\":1427:1436  localUint */\n      dup2\n        /* \"contracts/Demo.sol\":1427:1440  localUint * 2 */\n      tag_118\n      swap2\n      swap1\n      tag_119\n      jump\t// in\n    tag_118:\n      pop\n        /* \"contracts/Demo.sol\":1463:1464  2 */\n      0x02\n        /* \"contracts/Demo.sol\":1451:1460  localUint */\n      dup2\n        /* \"contracts/Demo.sol\":1451:1464  localUint / 2 */\n      tag_120\n      swap2\n      swap1\n      tag_121\n      jump\t// in\n    tag_120:\n      pop\n        /* \"contracts/Demo.sol\":1495:1496  3 */\n      0x03\n        /* \"contracts/Demo.sol\":1482:1491  localUint */\n      dup2\n        /* \"contracts/Demo.sol\":1482:1496  localUint ** 3 */\n      tag_122\n      swap2\n      swap1\n      tag_123\n      jump\t// in\n    tag_122:\n      pop\n        /* \"contracts/Demo.sol\":1519:1520  3 */\n      0x03\n        /* \"contracts/Demo.sol\":1507:1516  localUint */\n      dup2\n        /* \"contracts/Demo.sol\":1507:1520  localUint % 3 */\n      tag_124\n      swap2\n      swap1\n      tag_125\n      jump\t// in\n    tag_124:\n      pop\n        /* \"contracts/Demo.sol\":1532:1537  myInt */\n      sload(0x07)\n        /* \"contracts/Demo.sol\":1531:1537  -myInt */\n      tag_126\n      swap1\n      tag_127\n      jump\t// in\n    tag_126:\n      pop\n        /* \"contracts/Demo.sol\":1338:1665  {\r... */\n      pop\n        /* \"contracts/Demo.sol\":1300:1665  function demo(uint _inputUint) public {\r... */\n      pop\n      jump\t// out\n        /* \"contracts/Demo.sol\":197:285  function getBalance() public view returns(uint) {\r... */\n    tag_40:\n        /* \"contracts/Demo.sol\":239:243  uint */\n      0x00\n        /* \"contracts/Demo.sol\":263:269  myAddr */\n      dup1\n      0x00\n      swap1\n      sload\n      swap1\n      0x0100\n      exp\n      swap1\n      div\n      0xffffffffffffffffffffffffffffffffffffffff\n      and\n        /* \"contracts/Demo.sol\":263:277  myAddr.balance */\n      0xffffffffffffffffffffffffffffffffffffffff\n      and\n      balance\n        /* \"contracts/Demo.sol\":256:277  return myAddr.balance */\n      swap1\n      pop\n        /* \"contracts/Demo.sol\":197:285  function getBalance() public view returns(uint) {\r... */\n      swap1\n      jump\t// out\n        /* \"contracts/Demo.sol\":2045:2134  function payForItem () public payable {\r... */\n    tag_43:\n        /* \"contracts/Demo.sol\":2117:2126  msg.value */\n      callvalue\n        /* \"contracts/Demo.sol\":2094:2102  payments */\n      0x09\n        /* \"contracts/Demo.sol\":2094:2114  payments[msg.sender] */\n      0x00\n        /* \"contracts/Demo.sol\":2103:2113  msg.sender */\n      caller\n        /* \"contracts/Demo.sol\":2094:2114  payments[msg.sender] */\n      0xffffffffffffffffffffffffffffffffffffffff\n      and\n      0xffffffffffffffffffffffffffffffffffffffff\n      and\n      dup2\n      mstore\n      0x20\n      add\n      swap1\n      dup2\n      mstore\n      0x20\n      add\n      0x00\n      keccak256\n        /* \"contracts/Demo.sol\":2094:2126  payments[msg.sender] = msg.value */\n      dup2\n      swap1\n      sstore\n      pop\n        /* \"contracts/Demo.sol\":2045:2134  function payForItem () public payable {\r... */\n      jump\t// out\n        /* \"contracts/Demo.sol\":1697:1722  int256 public myInt = -42 */\n    tag_46:\n      sload(0x07)\n      dup2\n      jump\t// out\n        /* \"contracts/Demo.sol\":728:946  function inc() public {\r... */\n    tag_51:\n        /* \"contracts/Demo.sol\":874:879  myVal */\n      0x02\n      0x00\n        /* \"contracts/Demo.sol\":874:881  myVal++ */\n      dup2\n      dup2\n      swap1\n      sload\n      swap1\n      0x0100\n      exp\n      swap1\n      div\n      0xff\n      and\n      dup1\n      swap3\n      swap2\n      swap1\n      0x01\n      add\n      swap2\n      swap1\n      0x0100\n      exp\n      dup2\n      sload\n      dup2\n      0xff\n      mul\n      not\n      and\n      swap1\n      dup4\n      0xff\n      and\n      mul\n      or\n      swap1\n      sstore\n      pop\n      pop\n        /* \"contracts/Demo.sol\":728:946  function inc() public {\r... */\n      jump\t// out\n        /* \"contracts/Demo.sol\":1218:1247  uint8 public mySmaillUint = 2 */\n    tag_54:\n      0x06\n      0x00\n      swap1\n      sload\n      swap1\n      0x0100\n      exp\n      swap1\n      div\n      0xff\n      and\n      dup2\n      jump\t// out\n        /* \"contracts/Demo.sol\":980:999  uint public maximum */\n    tag_59:\n      sload(0x04)\n      dup2\n      jump\t// out\n        /* \"contracts/Demo.sol\":954:973  uint public minimum */\n    tag_63:\n      sload(0x03)\n      dup2\n      jump\t// out\n        /* \"contracts/Demo.sol\":426:454  string public myStr = \"test\" */\n    tag_67:\n      0x01\n      dup1\n      sload\n      tag_131\n      swap1\n      tag_132\n      jump\t// in\n    tag_131:\n      dup1\n      0x1f\n      add\n      0x20\n      dup1\n      swap2\n      div\n      mul\n      0x20\n      add\n      mload(0x40)\n      swap1\n      dup2\n      add\n      0x40\n      mstore\n      dup1\n      swap3\n      swap2\n      swap1\n      dup2\n      dup2\n      mstore\n      0x20\n      add\n      dup3\n      dup1\n      sload\n      tag_133\n      swap1\n      tag_132\n      jump\t// in\n    tag_133:\n      dup1\n      iszero\n      tag_134\n      jumpi\n      dup1\n      0x1f\n      lt\n      tag_135\n      jumpi\n      0x0100\n      dup1\n      dup4\n      sload\n      div\n      mul\n      dup4\n      mstore\n      swap2\n      0x20\n      add\n      swap2\n      jump(tag_134)\n    tag_135:\n      dup3\n      add\n      swap2\n      swap1\n      0x00\n      mstore\n      keccak256(0x00, 0x20)\n      swap1\n    tag_136:\n      dup2\n      sload\n      dup2\n      mstore\n      swap1\n      0x01\n      add\n      swap1\n      0x20\n      add\n      dup1\n      dup4\n      gt\n      tag_136\n      jumpi\n      dup3\n      swap1\n      sub\n      0x1f\n      and\n      dup3\n      add\n      swap2\n    tag_134:\n      pop\n      pop\n      pop\n      pop\n      pop\n      dup2\n      jump\t// out\n        /* \"contracts/Demo.sol\":1814:1839  bool public myBool = true */\n    tag_72:\n      0x08\n      0x01\n      swap1\n      sload\n      swap1\n      0x0100\n      exp\n      swap1\n      div\n      0xff\n      and\n      dup2\n      jump\t// out\n        /* \"contracts/Demo.sol\":1729:1756  int8 public mySmallInt = -1 */\n    tag_77:\n      0x08\n      0x00\n      swap1\n      sload\n      swap1\n      0x0100\n      exp\n      swap1\n      div\n      0x00\n      signextend\n      dup2\n      jump\t// out\n        /* \"contracts/Demo.sol\":2142:2322  function withdrawAll () public {\r... */\n    tag_82:\n        /* \"contracts/Demo.sol\":2184:2203  address payable _to */\n      0x00\n        /* \"contracts/Demo.sol\":2214:2219  owner */\n      0x08\n      0x02\n      swap1\n      sload\n      swap1\n      0x0100\n      exp\n      swap1\n      div\n      0xffffffffffffffffffffffffffffffffffffffff\n      and\n        /* \"contracts/Demo.sol\":2184:2220  address payable _to = payable(owner) */\n      swap1\n      pop\n        /* \"contracts/Demo.sol\":2231:2252  address _thisContract */\n      0x00\n        /* \"contracts/Demo.sol\":2263:2267  this */\n      address\n        /* \"contracts/Demo.sol\":2231:2268  address _thisContract = address(this) */\n      swap1\n      pop\n        /* \"contracts/Demo.sol\":2279:2282  _to */\n      dup2\n        /* \"contracts/Demo.sol\":2279:2291  _to.transfer */\n      0xffffffffffffffffffffffffffffffffffffffff\n      and\n        /* \"contracts/Demo.sol\":2279:2314  _to.transfer(_thisContract.balance) */\n      0x08fc\n        /* \"contracts/Demo.sol\":2292:2305  _thisContract */\n      dup3\n        /* \"contracts/Demo.sol\":2292:2313  _thisContract.balance */\n      0xffffffffffffffffffffffffffffffffffffffff\n      and\n      balance\n        /* \"contracts/Demo.sol\":2279:2314  _to.transfer(_thisContract.balance) */\n      swap1\n      dup2\n      iszero\n      mul\n      swap1\n      mload(0x40)\n      0x00\n      mload(0x40)\n      dup1\n      dup4\n      sub\n      dup2\n      dup6\n      dup9\n      dup9\n      call\n      swap4\n      pop\n      pop\n      pop\n      pop\n      iszero\n      dup1\n      iszero\n      tag_139\n      jumpi\n      returndatasize\n      0x00\n      dup1\n      returndatacopy\n      revert(0x00, returndatasize)\n    tag_139:\n      pop\n        /* \"contracts/Demo.sol\":2173:2322  {\r... */\n      pop\n      pop\n        /* \"contracts/Demo.sol\":2142:2322  function withdrawAll () public {\r... */\n      jump\t// out\n        /* \"contracts/Demo.sol\":2330:2641  function myFunc (bool _inputBool) public {\r... */\n    tag_87:\n        /* \"contracts/Demo.sol\":2382:2396  bool localBool */\n      0x00\n        /* \"contracts/Demo.sol\":2595:2605  _inputBool */\n      dup2\n        /* \"contracts/Demo.sol\":2595:2618  _inputBool || localBool */\n      dup1\n      tag_141\n      jumpi\n      pop\n        /* \"contracts/Demo.sol\":2609:2618  localBool */\n      dup1\n        /* \"contracts/Demo.sol\":2595:2618  _inputBool || localBool */\n    tag_141:\n        /* \"contracts/Demo.sol\":2591:2634  if (_inputBool || localBool) {\r... */\n      pop\n        /* \"contracts/Demo.sol\":2371:2641  {\r... */\n      pop\n        /* \"contracts/Demo.sol\":2330:2641  function myFunc (bool _inputBool) public {\r... */\n      pop\n      jump\t// out\n        /* \"contracts/Demo.sol\":1908:1928  address public owner */\n    tag_90:\n      0x08\n      0x02\n      swap1\n      sload\n      swap1\n      0x0100\n      exp\n      swap1\n      div\n      0xffffffffffffffffffffffffffffffffffffffff\n      and\n      dup2\n      jump\t// out\n        /* \"contracts/Demo.sol\":505:687  function demo(string memory newValueStr) public {\r... */\n    tag_97:\n        /* \"contracts/Demo.sol\":615:638  string memory myTempStr */\n      0x00\n        /* \"contracts/Demo.sol\":615:647  string memory myTempStr = \"temp\" */\n      mload(0x40)\n      dup1\n      0x40\n      add\n      0x40\n      mstore\n      dup1\n      0x04\n      dup2\n      mstore\n      0x20\n      add\n      0x74656d7000000000000000000000000000000000000000000000000000000000\n      dup2\n      mstore\n      pop\n      swap1\n      pop\n        /* \"contracts/Demo.sol\":666:677  newValueStr */\n      dup2\n        /* \"contracts/Demo.sol\":658:663  myStr */\n      0x01\n        /* \"contracts/Demo.sol\":658:677  myStr = newValueStr */\n      swap1\n      dup1\n      mload\n      swap1\n      0x20\n      add\n      swap1\n      tag_144\n      swap3\n      swap2\n      swap1\n      tag_145\n      jump\t// in\n    tag_144:\n      pop\n        /* \"contracts/Demo.sol\":553:687  {\r... */\n      pop\n        /* \"contracts/Demo.sol\":505:687  function demo(string memory newValueStr) public {\r... */\n      pop\n      jump\t// out\n        /* \"contracts/Demo.sol\":1935:1976  mapping (address => uint) public payments */\n    tag_102:\n      mstore(0x20, 0x09)\n      dup1\n      0x00\n      mstore\n      keccak256(0x00, 0x40)\n      0x00\n      swap2\n      pop\n      swap1\n      pop\n      sload\n      dup2\n      jump\t// out\n        /* \"contracts/Demo.sol\":87:153  address public myAddr = 0x5B38Da6a701c568545dCfcB03FcB875f56beddC4 */\n    tag_106:\n      0x00\n      dup1\n      sload\n      swap1\n      0x0100\n      exp\n      swap1\n      div\n      0xffffffffffffffffffffffffffffffffffffffff\n      and\n      dup2\n      jump\t// out\n        /* \"contracts/Demo.sol\":695:719  uint8 public myVal = 254 */\n    tag_110:\n      0x02\n      0x00\n      swap1\n      sload\n      swap1\n      0x0100\n      exp\n      swap1\n      div\n      0xff\n      and\n      dup2\n      jump\t// out\n    tag_145:\n      dup3\n      dup1\n      sload\n      tag_146\n      swap1\n      tag_132\n      jump\t// in\n    tag_146:\n      swap1\n      0x00\n      mstore\n      keccak256(0x00, 0x20)\n      swap1\n      0x1f\n      add\n      0x20\n      swap1\n      div\n      dup2\n      add\n      swap3\n      dup3\n      tag_148\n      jumpi\n      0x00\n      dup6\n      sstore\n      jump(tag_147)\n    tag_148:\n      dup3\n      0x1f\n      lt\n      tag_149\n      jumpi\n      dup1\n      mload\n      not(0xff)\n      and\n      dup4\n      dup1\n      add\n      or\n      dup6\n      sstore\n      jump(tag_147)\n    tag_149:\n      dup3\n      dup1\n      add\n      0x01\n      add\n      dup6\n      sstore\n      dup3\n      iszero\n      tag_147\n      jumpi\n      swap2\n      dup3\n      add\n    tag_150:\n      dup3\n      dup2\n      gt\n      iszero\n      tag_151\n      jumpi\n      dup3\n      mload\n      dup3\n      sstore\n      swap2\n      0x20\n      add\n      swap2\n      swap1\n      0x01\n      add\n      swap1\n      jump(tag_150)\n    tag_151:\n    tag_147:\n      pop\n      swap1\n      pop\n      tag_152\n      swap2\n      swap1\n      tag_153\n      jump\t// in\n    tag_152:\n      pop\n      swap1\n      jump\t// out\n    tag_153:\n    tag_154:\n      dup1\n      dup3\n      gt\n      iszero\n      tag_155\n      jumpi\n      0x00\n      dup2\n      0x00\n      swap1\n      sstore\n      pop\n      0x01\n      add\n      jump(tag_154)\n    tag_155:\n      pop\n      swap1\n      jump\t// out\n        /* \"#utility.yul\":7:419   */\n    tag_157:\n        /* \"#utility.yul\":85:90   */\n      0x00\n        /* \"#utility.yul\":110:176   */\n      tag_159\n        /* \"#utility.yul\":126:175   */\n      tag_160\n        /* \"#utility.yul\":168:174   */\n      dup5\n        /* \"#utility.yul\":126:175   */\n      tag_161\n      jump\t// in\n    tag_160:\n        /* \"#utility.yul\":110:176   */\n      tag_162\n      jump\t// in\n    tag_159:\n        /* \"#utility.yul\":101:176   */\n      swap1\n      pop\n        /* \"#utility.yul\":199:205   */\n      dup3\n        /* \"#utility.yul\":192:197   */\n      dup2\n        /* \"#utility.yul\":185:206   */\n      mstore\n        /* \"#utility.yul\":237:241   */\n      0x20\n        /* \"#utility.yul\":230:235   */\n      dup2\n        /* \"#utility.yul\":226:242   */\n      add\n        /* \"#utility.yul\":275:278   */\n      dup5\n        /* \"#utility.yul\":266:272   */\n      dup5\n        /* \"#utility.yul\":261:264   */\n      dup5\n        /* \"#utility.yul\":257:273   */\n      add\n        /* \"#utility.yul\":254:279   */\n      gt\n        /* \"#utility.yul\":251:363   */\n      iszero\n      tag_163\n      jumpi\n        /* \"#utility.yul\":282:361   */\n      tag_164\n      tag_165\n      jump\t// in\n    tag_164:\n        /* \"#utility.yul\":251:363   */\n    tag_163:\n        /* \"#utility.yul\":372:413   */\n      tag_166\n        /* \"#utility.yul\":406:412   */\n      dup5\n        /* \"#utility.yul\":401:404   */\n      dup3\n        /* \"#utility.yul\":396:399   */\n      dup6\n        /* \"#utility.yul\":372:413   */\n      tag_167\n      jump\t// in\n    tag_166:\n        /* \"#utility.yul\":91:419   */\n      pop\n        /* \"#utility.yul\":7:419   */\n      swap4\n      swap3\n      pop\n      pop\n      pop\n      jump\t// out\n        /* \"#utility.yul\":425:564   */\n    tag_168:\n        /* \"#utility.yul\":471:476   */\n      0x00\n        /* \"#utility.yul\":509:515   */\n      dup2\n        /* \"#utility.yul\":496:516   */\n      calldataload\n        /* \"#utility.yul\":487:516   */\n      swap1\n      pop\n        /* \"#utility.yul\":525:558   */\n      tag_170\n        /* \"#utility.yul\":552:557   */\n      dup2\n        /* \"#utility.yul\":525:558   */\n      tag_171\n      jump\t// in\n    tag_170:\n        /* \"#utility.yul\":425:564   */\n      swap3\n      swap2\n      pop\n      pop\n      jump\t// out\n        /* \"#utility.yul\":570:703   */\n    tag_172:\n        /* \"#utility.yul\":613:618   */\n      0x00\n        /* \"#utility.yul\":651:657   */\n      dup2\n        /* \"#utility.yul\":638:658   */\n      calldataload\n        /* \"#utility.yul\":629:658   */\n      swap1\n      pop\n        /* \"#utility.yul\":667:697   */\n      tag_174\n        /* \"#utility.yul\":691:696   */\n      dup2\n        /* \"#utility.yul\":667:697   */\n      tag_175\n      jump\t// in\n    tag_174:\n        /* \"#utility.yul\":570:703   */\n      swap3\n      swap2\n      pop\n      pop\n      jump\t// out\n        /* \"#utility.yul\":723:1063   */\n    tag_176:\n        /* \"#utility.yul\":779:784   */\n      0x00\n        /* \"#utility.yul\":828:831   */\n      dup3\n        /* \"#utility.yul\":821:825   */\n      0x1f\n        /* \"#utility.yul\":813:819   */\n      dup4\n        /* \"#utility.yul\":809:826   */\n      add\n        /* \"#utility.yul\":805:832   */\n      slt\n        /* \"#utility.yul\":795:917   */\n      tag_178\n      jumpi\n        /* \"#utility.yul\":836:915   */\n      tag_179\n      tag_180\n      jump\t// in\n    tag_179:\n        /* \"#utility.yul\":795:917   */\n    tag_178:\n        /* \"#utility.yul\":953:959   */\n      dup2\n        /* \"#utility.yul\":940:960   */\n      calldataload\n        /* \"#utility.yul\":978:1057   */\n      tag_181\n        /* \"#utility.yul\":1053:1056   */\n      dup5\n        /* \"#utility.yul\":1045:1051   */\n      dup3\n        /* \"#utility.yul\":1038:1042   */\n      0x20\n        /* \"#utility.yul\":1030:1036   */\n      dup7\n        /* \"#utility.yul\":1026:1043   */\n      add\n        /* \"#utility.yul\":978:1057   */\n      tag_157\n      jump\t// in\n    tag_181:\n        /* \"#utility.yul\":969:1057   */\n      swap2\n      pop\n        /* \"#utility.yul\":785:1063   */\n      pop\n        /* \"#utility.yul\":723:1063   */\n      swap3\n      swap2\n      pop\n      pop\n      jump\t// out\n        /* \"#utility.yul\":1069:1208   */\n    tag_182:\n        /* \"#utility.yul\":1115:1120   */\n      0x00\n        /* \"#utility.yul\":1153:1159   */\n      dup2\n        /* \"#utility.yul\":1140:1160   */\n      calldataload\n        /* \"#utility.yul\":1131:1160   */\n      swap1\n      pop\n        /* \"#utility.yul\":1169:1202   */\n      tag_184\n        /* \"#utility.yul\":1196:1201   */\n      dup2\n        /* \"#utility.yul\":1169:1202   */\n      tag_185\n      jump\t// in\n    tag_184:\n        /* \"#utility.yul\":1069:1208   */\n      swap3\n      swap2\n      pop\n      pop\n      jump\t// out\n        /* \"#utility.yul\":1214:1543   */\n    tag_101:\n        /* \"#utility.yul\":1273:1279   */\n      0x00\n        /* \"#utility.yul\":1322:1324   */\n      0x20\n        /* \"#utility.yul\":1310:1319   */\n      dup3\n        /* \"#utility.yul\":1301:1308   */\n      dup5\n        /* \"#utility.yul\":1297:1320   */\n      sub\n        /* \"#utility.yul\":1293:1325   */\n      slt\n        /* \"#utility.yul\":1290:1409   */\n      iszero\n      tag_187\n      jumpi\n        /* \"#utility.yul\":1328:1407   */\n      tag_188\n      tag_189\n      jump\t// in\n    tag_188:\n        /* \"#utility.yul\":1290:1409   */\n    tag_187:\n        /* \"#utility.yul\":1448:1449   */\n      0x00\n        /* \"#utility.yul\":1473:1526   */\n      tag_190\n        /* \"#utility.yul\":1518:1525   */\n      dup5\n        /* \"#utility.yul\":1509:1515   */\n      dup3\n        /* \"#utility.yul\":1498:1507   */\n      dup6\n        /* \"#utility.yul\":1494:1516   */\n      add\n        /* \"#utility.yul\":1473:1526   */\n      tag_168\n      jump\t// in\n    tag_190:\n        /* \"#utility.yul\":1463:1526   */\n      swap2\n      pop\n        /* \"#utility.yul\":1419:1536   */\n      pop\n        /* \"#utility.yul\":1214:1543   */\n      swap3\n      swap2\n      pop\n      pop\n      jump\t// out\n        /* \"#utility.yul\":1549:1872   */\n    tag_86:\n        /* \"#utility.yul\":1605:1611   */\n      0x00\n        /* \"#utility.yul\":1654:1656   */\n      0x20\n        /* \"#utility.yul\":1642:1651   */\n      dup3\n        /* \"#utility.yul\":1633:1640   */\n      dup5\n        /* \"#utility.yul\":1629:1652   */\n      sub\n        /* \"#utility.yul\":1625:1657   */\n      slt\n        /* \"#utility.yul\":1622:1741   */\n      iszero\n      tag_192\n      jumpi\n        /* \"#utility.yul\":1660:1739   */\n      tag_193\n      tag_189\n      jump\t// in\n    tag_193:\n        /* \"#utility.yul\":1622:1741   */\n    tag_192:\n        /* \"#utility.yul\":1780:1781   */\n      0x00\n        /* \"#utility.yul\":1805:1855   */\n      tag_194\n        /* \"#utility.yul\":1847:1854   */\n      dup5\n        /* \"#utility.yul\":1838:1844   */\n      dup3\n        /* \"#utility.yul\":1827:1836   */\n      dup6\n        /* \"#utility.yul\":1823:1845   */\n      add\n        /* \"#utility.yul\":1805:1855   */\n      tag_172\n      jump\t// in\n    tag_194:\n        /* \"#utility.yul\":1795:1855   */\n      swap2\n      pop\n        /* \"#utility.yul\":1751:1865   */\n      pop\n        /* \"#utility.yul\":1549:1872   */\n      swap3\n      swap2\n      pop\n      pop\n      jump\t// out\n        /* \"#utility.yul\":1878:2387   */\n    tag_96:\n        /* \"#utility.yul\":1947:1953   */\n      0x00\n        /* \"#utility.yul\":1996:1998   */\n      0x20\n        /* \"#utility.yul\":1984:1993   */\n      dup3\n        /* \"#utility.yul\":1975:1982   */\n      dup5\n        /* \"#utility.yul\":1971:1994   */\n      sub\n        /* \"#utility.yul\":1967:1999   */\n      slt\n        /* \"#utility.yul\":1964:2083   */\n      iszero\n      tag_196\n      jumpi\n        /* \"#utility.yul\":2002:2081   */\n      tag_197\n      tag_189\n      jump\t// in\n    tag_197:\n        /* \"#utility.yul\":1964:2083   */\n    tag_196:\n        /* \"#utility.yul\":2150:2151   */\n      0x00\n        /* \"#utility.yul\":2139:2148   */\n      dup3\n        /* \"#utility.yul\":2135:2152   */\n      add\n        /* \"#utility.yul\":2122:2153   */\n      calldataload\n        /* \"#utility.yul\":2180:2198   */\n      0xffffffffffffffff\n        /* \"#utility.yul\":2172:2178   */\n      dup2\n        /* \"#utility.yul\":2169:2199   */\n      gt\n        /* \"#utility.yul\":2166:2283   */\n      iszero\n      tag_198\n      jumpi\n        /* \"#utility.yul\":2202:2281   */\n      tag_199\n      tag_200\n      jump\t// in\n    tag_199:\n        /* \"#utility.yul\":2166:2283   */\n    tag_198:\n        /* \"#utility.yul\":2307:2370   */\n      tag_201\n        /* \"#utility.yul\":2362:2369   */\n      dup5\n        /* \"#utility.yul\":2353:2359   */\n      dup3\n        /* \"#utility.yul\":2342:2351   */\n      dup6\n        /* \"#utility.yul\":2338:2360   */\n      add\n        /* \"#utility.yul\":2307:2370   */\n      tag_176\n      jump\t// in\n    tag_201:\n        /* \"#utility.yul\":2297:2370   */\n      swap2\n      pop\n        /* \"#utility.yul\":2093:2380   */\n      pop\n        /* \"#utility.yul\":1878:2387   */\n      swap3\n      swap2\n      pop\n      pop\n      jump\t// out\n        /* \"#utility.yul\":2393:2722   */\n    tag_36:\n        /* \"#utility.yul\":2452:2458   */\n      0x00\n        /* \"#utility.yul\":2501:2503   */\n      0x20\n        /* \"#utility.yul\":2489:2498   */\n      dup3\n        /* \"#utility.yul\":2480:2487   */\n      dup5\n        /* \"#utility.yul\":2476:2499   */\n      sub\n        /* \"#utility.yul\":2472:2504   */\n      slt\n        /* \"#utility.yul\":2469:2588   */\n      iszero\n      tag_203\n      jumpi\n        /* \"#utility.yul\":2507:2586   */\n      tag_204\n      tag_189\n      jump\t// in\n    tag_204:\n        /* \"#utility.yul\":2469:2588   */\n    tag_203:\n        /* \"#utility.yul\":2627:2628   */\n      0x00\n        /* \"#utility.yul\":2652:2705   */\n      tag_205\n        /* \"#utility.yul\":2697:2704   */\n      dup5\n        /* \"#utility.yul\":2688:2694   */\n      dup3\n        /* \"#utility.yul\":2677:2686   */\n      dup6\n        /* \"#utility.yul\":2673:2695   */\n      add\n        /* \"#utility.yul\":2652:2705   */\n      tag_182\n      jump\t// in\n    tag_205:\n        /* \"#utility.yul\":2642:2705   */\n      swap2\n      pop\n        /* \"#utility.yul\":2598:2715   */\n      pop\n        /* \"#utility.yul\":2393:2722   */\n      swap3\n      swap2\n      pop\n      pop\n      jump\t// out\n        /* \"#utility.yul\":2728:2846   */\n    tag_206:\n        /* \"#utility.yul\":2815:2839   */\n      tag_208\n        /* \"#utility.yul\":2833:2838   */\n      dup2\n        /* \"#utility.yul\":2815:2839   */\n      tag_209\n      jump\t// in\n    tag_208:\n        /* \"#utility.yul\":2810:2813   */\n      dup3\n        /* \"#utility.yul\":2803:2840   */\n      mstore\n        /* \"#utility.yul\":2728:2846   */\n      pop\n      pop\n      jump\t// out\n        /* \"#utility.yul\":2852:2961   */\n    tag_210:\n        /* \"#utility.yul\":2933:2954   */\n      tag_212\n        /* \"#utility.yul\":2948:2953   */\n      dup2\n        /* \"#utility.yul\":2933:2954   */\n      tag_213\n      jump\t// in\n    tag_212:\n        /* \"#utility.yul\":2928:2931   */\n      dup3\n        /* \"#utility.yul\":2921:2955   */\n      mstore\n        /* \"#utility.yul\":2852:2961   */\n      pop\n      pop\n      jump\t// out\n        /* \"#utility.yul\":2967:3082   */\n    tag_214:\n        /* \"#utility.yul\":3052:3075   */\n      tag_216\n        /* \"#utility.yul\":3069:3074   */\n      dup2\n        /* \"#utility.yul\":3052:3075   */\n      tag_217\n      jump\t// in\n    tag_216:\n        /* \"#utility.yul\":3047:3050   */\n      dup3\n        /* \"#utility.yul\":3040:3076   */\n      mstore\n        /* \"#utility.yul\":2967:3082   */\n      pop\n      pop\n      jump\t// out\n        /* \"#utility.yul\":3088:3197   */\n    tag_218:\n        /* \"#utility.yul\":3169:3190   */\n      tag_220\n        /* \"#utility.yul\":3184:3189   */\n      dup2\n        /* \"#utility.yul\":3169:3190   */\n      tag_221\n      jump\t// in\n    tag_220:\n        /* \"#utility.yul\":3164:3167   */\n      dup3\n        /* \"#utility.yul\":3157:3191   */\n      mstore\n        /* \"#utility.yul\":3088:3197   */\n      pop\n      pop\n      jump\t// out\n        /* \"#utility.yul\":3203:3567   */\n    tag_222:\n        /* \"#utility.yul\":3291:3294   */\n      0x00\n        /* \"#utility.yul\":3319:3358   */\n      tag_224\n        /* \"#utility.yul\":3352:3357   */\n      dup3\n        /* \"#utility.yul\":3319:3358   */\n      tag_225\n      jump\t// in\n    tag_224:\n        /* \"#utility.yul\":3374:3445   */\n      tag_226\n        /* \"#utility.yul\":3438:3444   */\n      dup2\n        /* \"#utility.yul\":3433:3436   */\n      dup6\n        /* \"#utility.yul\":3374:3445   */\n      tag_227\n      jump\t// in\n    tag_226:\n        /* \"#utility.yul\":3367:3445   */\n      swap4\n      pop\n        /* \"#utility.yul\":3454:3506   */\n      tag_228\n        /* \"#utility.yul\":3499:3505   */\n      dup2\n        /* \"#utility.yul\":3494:3497   */\n      dup6\n        /* \"#utility.yul\":3487:3491   */\n      0x20\n        /* \"#utility.yul\":3480:3485   */\n      dup7\n        /* \"#utility.yul\":3476:3492   */\n      add\n        /* \"#utility.yul\":3454:3506   */\n      tag_229\n      jump\t// in\n    tag_228:\n        /* \"#utility.yul\":3531:3560   */\n      tag_230\n        /* \"#utility.yul\":3553:3559   */\n      dup2\n        /* \"#utility.yul\":3531:3560   */\n      tag_231\n      jump\t// in\n    tag_230:\n        /* \"#utility.yul\":3526:3529   */\n      dup5\n        /* \"#utility.yul\":3522:3561   */\n      add\n        /* \"#utility.yul\":3515:3561   */\n      swap2\n      pop\n        /* \"#utility.yul\":3295:3567   */\n      pop\n        /* \"#utility.yul\":3203:3567   */\n      swap3\n      swap2\n      pop\n      pop\n      jump\t// out\n        /* \"#utility.yul\":3573:3691   */\n    tag_232:\n        /* \"#utility.yul\":3660:3684   */\n      tag_234\n        /* \"#utility.yul\":3678:3683   */\n      dup2\n        /* \"#utility.yul\":3660:3684   */\n      tag_235\n      jump\t// in\n    tag_234:\n        /* \"#utility.yul\":3655:3658   */\n      dup3\n        /* \"#utility.yul\":3648:3685   */\n      mstore\n        /* \"#utility.yul\":3573:3691   */\n      pop\n      pop\n      jump\t// out\n        /* \"#utility.yul\":3697:3809   */\n    tag_236:\n        /* \"#utility.yul\":3780:3802   */\n      tag_238\n        /* \"#utility.yul\":3796:3801   */\n      dup2\n        /* \"#utility.yul\":3780:3802   */\n      tag_239\n      jump\t// in\n    tag_238:\n        /* \"#utility.yul\":3775:3778   */\n      dup3\n        /* \"#utility.yul\":3768:3803   */\n      mstore\n        /* \"#utility.yul\":3697:3809   */\n      pop\n      pop\n      jump\t// out\n        /* \"#utility.yul\":3815:4037   */\n    tag_92:\n        /* \"#utility.yul\":3908:3912   */\n      0x00\n        /* \"#utility.yul\":3946:3948   */\n      0x20\n        /* \"#utility.yul\":3935:3944   */\n      dup3\n        /* \"#utility.yul\":3931:3949   */\n      add\n        /* \"#utility.yul\":3923:3949   */\n      swap1\n      pop\n        /* \"#utility.yul\":3959:4030   */\n      tag_241\n        /* \"#utility.yul\":4027:4028   */\n      0x00\n        /* \"#utility.yul\":4016:4025   */\n      dup4\n        /* \"#utility.yul\":4012:4029   */\n      add\n        /* \"#utility.yul\":4003:4009   */\n      dup5\n        /* \"#utility.yul\":3959:4030   */\n      tag_206\n      jump\t// in\n    tag_241:\n        /* \"#utility.yul\":3815:4037   */\n      swap3\n      swap2\n      pop\n      pop\n      jump\t// out\n        /* \"#utility.yul\":4043:4253   */\n    tag_74:\n        /* \"#utility.yul\":4130:4134   */\n      0x00\n        /* \"#utility.yul\":4168:4170   */\n      0x20\n        /* \"#utility.yul\":4157:4166   */\n      dup3\n        /* \"#utility.yul\":4153:4171   */\n      add\n        /* \"#utility.yul\":4145:4171   */\n      swap1\n      pop\n        /* \"#utility.yul\":4181:4246   */\n      tag_243\n        /* \"#utility.yul\":4243:4244   */\n      0x00\n        /* \"#utility.yul\":4232:4241   */\n      dup4\n        /* \"#utility.yul\":4228:4245   */\n      add\n        /* \"#utility.yul\":4219:4225   */\n      dup5\n        /* \"#utility.yul\":4181:4246   */\n      tag_210\n      jump\t// in\n    tag_243:\n        /* \"#utility.yul\":4043:4253   */\n      swap3\n      swap2\n      pop\n      pop\n      jump\t// out\n        /* \"#utility.yul\":4259:4477   */\n    tag_48:\n        /* \"#utility.yul\":4350:4354   */\n      0x00\n        /* \"#utility.yul\":4388:4390   */\n      0x20\n        /* \"#utility.yul\":4377:4386   */\n      dup3\n        /* \"#utility.yul\":4373:4391   */\n      add\n        /* \"#utility.yul\":4365:4391   */\n      swap1\n      pop\n        /* \"#utility.yul\":4401:4470   */\n      tag_245\n        /* \"#utility.yul\":4467:4468   */\n      0x00\n        /* \"#utility.yul\":4456:4465   */\n      dup4\n        /* \"#utility.yul\":4452:4469   */\n      add\n        /* \"#utility.yul\":4443:4449   */\n      dup5\n        /* \"#utility.yul\":4401:4470   */\n      tag_214\n      jump\t// in\n    tag_245:\n        /* \"#utility.yul\":4259:4477   */\n      swap3\n      swap2\n      pop\n      pop\n      jump\t// out\n        /* \"#utility.yul\":4483:4693   */\n    tag_79:\n        /* \"#utility.yul\":4570:4574   */\n      0x00\n        /* \"#utility.yul\":4608:4610   */\n      0x20\n        /* \"#utility.yul\":4597:4606   */\n      dup3\n        /* \"#utility.yul\":4593:4611   */\n      add\n        /* \"#utility.yul\":4585:4611   */\n      swap1\n      pop\n        /* \"#utility.yul\":4621:4686   */\n      tag_247\n        /* \"#utility.yul\":4683:4684   */\n      0x00\n        /* \"#utility.yul\":4672:4681   */\n      dup4\n        /* \"#utility.yul\":4668:4685   */\n      add\n        /* \"#utility.yul\":4659:4665   */\n      dup5\n        /* \"#utility.yul\":4621:4686   */\n      tag_218\n      jump\t// in\n    tag_247:\n        /* \"#utility.yul\":4483:4693   */\n      swap3\n      swap2\n      pop\n      pop\n      jump\t// out\n        /* \"#utility.yul\":4699:5012   */\n    tag_69:\n        /* \"#utility.yul\":4812:4816   */\n      0x00\n        /* \"#utility.yul\":4850:4852   */\n      0x20\n        /* \"#utility.yul\":4839:4848   */\n      dup3\n        /* \"#utility.yul\":4835:4853   */\n      add\n        /* \"#utility.yul\":4827:4853   */\n      swap1\n      pop\n        /* \"#utility.yul\":4899:4908   */\n      dup2\n        /* \"#utility.yul\":4893:4897   */\n      dup2\n        /* \"#utility.yul\":4889:4909   */\n      sub\n        /* \"#utility.yul\":4885:4886   */\n      0x00\n        /* \"#utility.yul\":4874:4883   */\n      dup4\n        /* \"#utility.yul\":4870:4887   */\n      add\n        /* \"#utility.yul\":4863:4910   */\n      mstore\n        /* \"#utility.yul\":4927:5005   */\n      tag_249\n        /* \"#utility.yul\":5000:5004   */\n      dup2\n        /* \"#utility.yul\":4991:4997   */\n      dup5\n        /* \"#utility.yul\":4927:5005   */\n      tag_222\n      jump\t// in\n    tag_249:\n        /* \"#utility.yul\":4919:5005   */\n      swap1\n      pop\n        /* \"#utility.yul\":4699:5012   */\n      swap3\n      swap2\n      pop\n      pop\n      jump\t// out\n        /* \"#utility.yul\":5018:5240   */\n    tag_32:\n        /* \"#utility.yul\":5111:5115   */\n      0x00\n        /* \"#utility.yul\":5149:5151   */\n      0x20\n        /* \"#utility.yul\":5138:5147   */\n      dup3\n        /* \"#utility.yul\":5134:5152   */\n      add\n        /* \"#utility.yul\":5126:5152   */\n      swap1\n      pop\n        /* \"#utility.yul\":5162:5233   */\n      tag_251\n        /* \"#utility.yul\":5230:5231   */\n      0x00\n        /* \"#utility.yul\":5219:5228   */\n      dup4\n        /* \"#utility.yul\":5215:5232   */\n      add\n        /* \"#utility.yul\":5206:5212   */\n      dup5\n        /* \"#utility.yul\":5162:5233   */\n      tag_232\n      jump\t// in\n    tag_251:\n        /* \"#utility.yul\":5018:5240   */\n      swap3\n      swap2\n      pop\n      pop\n      jump\t// out\n        /* \"#utility.yul\":5246:5460   */\n    tag_56:\n        /* \"#utility.yul\":5335:5339   */\n      0x00\n        /* \"#utility.yul\":5373:5375   */\n      0x20\n        /* \"#utility.yul\":5362:5371   */\n      dup3\n        /* \"#utility.yul\":5358:5376   */\n      add\n        /* \"#utility.yul\":5350:5376   */\n      swap1\n      pop\n        /* \"#utility.yul\":5386:5453   */\n      tag_253\n        /* \"#utility.yul\":5450:5451   */\n      0x00\n        /* \"#utility.yul\":5439:5448   */\n      dup4\n        /* \"#utility.yul\":5435:5452   */\n      add\n        /* \"#utility.yul\":5426:5432   */\n      dup5\n        /* \"#utility.yul\":5386:5453   */\n      tag_236\n      jump\t// in\n    tag_253:\n        /* \"#utility.yul\":5246:5460   */\n      swap3\n      swap2\n      pop\n      pop\n      jump\t// out\n        /* \"#utility.yul\":5466:5595   */\n    tag_162:\n        /* \"#utility.yul\":5500:5506   */\n      0x00\n        /* \"#utility.yul\":5527:5547   */\n      tag_255\n      tag_256\n      jump\t// in\n    tag_255:\n        /* \"#utility.yul\":5517:5547   */\n      swap1\n      pop\n        /* \"#utility.yul\":5556:5589   */\n      tag_257\n        /* \"#utility.yul\":5584:5588   */\n      dup3\n        /* \"#utility.yul\":5576:5582   */\n      dup3\n        /* \"#utility.yul\":5556:5589   */\n      tag_258\n      jump\t// in\n    tag_257:\n        /* \"#utility.yul\":5466:5595   */\n      swap2\n      swap1\n      pop\n      jump\t// out\n        /* \"#utility.yul\":5601:5676   */\n    tag_256:\n        /* \"#utility.yul\":5634:5640   */\n      0x00\n        /* \"#utility.yul\":5667:5669   */\n      0x40\n        /* \"#utility.yul\":5661:5670   */\n      mload\n        /* \"#utility.yul\":5651:5670   */\n      swap1\n      pop\n        /* \"#utility.yul\":5601:5676   */\n      swap1\n      jump\t// out\n        /* \"#utility.yul\":5682:5990   */\n    tag_161:\n        /* \"#utility.yul\":5744:5748   */\n      0x00\n        /* \"#utility.yul\":5834:5852   */\n      0xffffffffffffffff\n        /* \"#utility.yul\":5826:5832   */\n      dup3\n        /* \"#utility.yul\":5823:5853   */\n      gt\n        /* \"#utility.yul\":5820:5876   */\n      iszero\n      tag_261\n      jumpi\n        /* \"#utility.yul\":5856:5874   */\n      tag_262\n      tag_263\n      jump\t// in\n    tag_262:\n        /* \"#utility.yul\":5820:5876   */\n    tag_261:\n        /* \"#utility.yul\":5894:5923   */\n      tag_264\n        /* \"#utility.yul\":5916:5922   */\n      dup3\n        /* \"#utility.yul\":5894:5923   */\n      tag_231\n      jump\t// in\n    tag_264:\n        /* \"#utility.yul\":5886:5923   */\n      swap1\n      pop\n        /* \"#utility.yul\":5978:5982   */\n      0x20\n        /* \"#utility.yul\":5972:5976   */\n      dup2\n        /* \"#utility.yul\":5968:5983   */\n      add\n        /* \"#utility.yul\":5960:5983   */\n      swap1\n      pop\n        /* \"#utility.yul\":5682:5990   */\n      swap2\n      swap1\n      pop\n      jump\t// out\n        /* \"#utility.yul\":5996:6095   */\n    tag_225:\n        /* \"#utility.yul\":6048:6054   */\n      0x00\n        /* \"#utility.yul\":6082:6087   */\n      dup2\n        /* \"#utility.yul\":6076:6088   */\n      mload\n        /* \"#utility.yul\":6066:6088   */\n      swap1\n      pop\n        /* \"#utility.yul\":5996:6095   */\n      swap2\n      swap1\n      pop\n      jump\t// out\n        /* \"#utility.yul\":6101:6270   */\n    tag_227:\n        /* \"#utility.yul\":6185:6196   */\n      0x00\n        /* \"#utility.yul\":6219:6225   */\n      dup3\n        /* \"#utility.yul\":6214:6217   */\n      dup3\n        /* \"#utility.yul\":6207:6226   */\n      mstore\n        /* \"#utility.yul\":6259:6263   */\n      0x20\n        /* \"#utility.yul\":6254:6257   */\n      dup3\n        /* \"#utility.yul\":6250:6264   */\n      add\n        /* \"#utility.yul\":6235:6264   */\n      swap1\n      pop\n        /* \"#utility.yul\":6101:6270   */\n      swap3\n      swap2\n      pop\n      pop\n      jump\t// out\n        /* \"#utility.yul\":6276:6581   */\n    tag_115:\n        /* \"#utility.yul\":6316:6319   */\n      0x00\n        /* \"#utility.yul\":6335:6355   */\n      tag_268\n        /* \"#utility.yul\":6353:6354   */\n      dup3\n        /* \"#utility.yul\":6335:6355   */\n      tag_235\n      jump\t// in\n    tag_268:\n        /* \"#utility.yul\":6330:6355   */\n      swap2\n      pop\n        /* \"#utility.yul\":6369:6389   */\n      tag_269\n        /* \"#utility.yul\":6387:6388   */\n      dup4\n        /* \"#utility.yul\":6369:6389   */\n      tag_235\n      jump\t// in\n    tag_269:\n        /* \"#utility.yul\":6364:6389   */\n      swap3\n      pop\n        /* \"#utility.yul\":6523:6524   */\n      dup3\n        /* \"#utility.yul\":6455:6521   */\n      0xffffffffffffffffffffffffffffffffffffffffffffffffffffffffffffffff\n        /* \"#utility.yul\":6451:6525   */\n      sub\n        /* \"#utility.yul\":6448:6449   */\n      dup3\n        /* \"#utility.yul\":6445:6526   */\n      gt\n        /* \"#utility.yul\":6442:6549   */\n      iszero\n      tag_270\n      jumpi\n        /* \"#utility.yul\":6529:6547   */\n      tag_271\n      tag_272\n      jump\t// in\n    tag_271:\n        /* \"#utility.yul\":6442:6549   */\n    tag_270:\n        /* \"#utility.yul\":6573:6574   */\n      dup3\n        /* \"#utility.yul\":6570:6571   */\n      dup3\n        /* \"#utility.yul\":6566:6575   */\n      add\n        /* \"#utility.yul\":6559:6575   */\n      swap1\n      pop\n        /* \"#utility.yul\":6276:6581   */\n      swap3\n      swap2\n      pop\n      pop\n      jump\t// out\n        /* \"#utility.yul\":6587:6772   */\n    tag_121:\n        /* \"#utility.yul\":6627:6628   */\n      0x00\n        /* \"#utility.yul\":6644:6664   */\n      tag_274\n        /* \"#utility.yul\":6662:6663   */\n      dup3\n        /* \"#utility.yul\":6644:6664   */\n      tag_235\n      jump\t// in\n    tag_274:\n        /* \"#utility.yul\":6639:6664   */\n      swap2\n      pop\n        /* \"#utility.yul\":6678:6698   */\n      tag_275\n        /* \"#utility.yul\":6696:6697   */\n      dup4\n        /* \"#utility.yul\":6678:6698   */\n      tag_235\n      jump\t// in\n    tag_275:\n        /* \"#utility.yul\":6673:6698   */\n      swap3\n      pop\n        /* \"#utility.yul\":6717:6718   */\n      dup3\n        /* \"#utility.yul\":6707:6742   */\n      tag_276\n      jumpi\n        /* \"#utility.yul\":6722:6740   */\n      tag_277\n      tag_278\n      jump\t// in\n    tag_277:\n        /* \"#utility.yul\":6707:6742   */\n    tag_276:\n        /* \"#utility.yul\":6764:6765   */\n      dup3\n        /* \"#utility.yul\":6761:6762   */\n      dup3\n        /* \"#utility.yul\":6757:6766   */\n      div\n        /* \"#utility.yul\":6752:6766   */\n      swap1\n      pop\n        /* \"#utility.yul\":6587:6772   */\n      swap3\n      swap2\n      pop\n      pop\n      jump\t// out\n        /* \"#utility.yul\":6778:7626   */\n    tag_279:\n        /* \"#utility.yul\":6839:6844   */\n      0x00\n        /* \"#utility.yul\":6846:6850   */\n      dup1\n        /* \"#utility.yul\":6870:6876   */\n      dup3\n        /* \"#utility.yul\":6861:6876   */\n      swap2\n      pop\n        /* \"#utility.yul\":6894:6899   */\n      dup4\n        /* \"#utility.yul\":6885:6899   */\n      swap1\n      pop\n        /* \"#utility.yul\":6908:7620   */\n    tag_281:\n        /* \"#utility.yul\":6929:6930   */\n      0x01\n        /* \"#utility.yul\":6919:6927   */\n      dup6\n        /* \"#utility.yul\":6916:6931   */\n      gt\n        /* \"#utility.yul\":6908:7620   */\n      iszero\n      tag_283\n      jumpi\n        /* \"#utility.yul\":7024:7028   */\n      dup1\n        /* \"#utility.yul\":7019:7022   */\n      dup7\n        /* \"#utility.yul\":7015:7029   */\n      div\n        /* \"#utility.yul\":7009:7013   */\n      dup2\n        /* \"#utility.yul\":7006:7030   */\n      gt\n        /* \"#utility.yul\":7003:7053   */\n      iszero\n      tag_284\n      jumpi\n        /* \"#utility.yul\":7033:7051   */\n      tag_285\n      tag_272\n      jump\t// in\n    tag_285:\n        /* \"#utility.yul\":7003:7053   */\n    tag_284:\n        /* \"#utility.yul\":7083:7084   */\n      0x01\n        /* \"#utility.yul\":7073:7081   */\n      dup6\n        /* \"#utility.yul\":7069:7085   */\n      and\n        /* \"#utility.yul\":7066:7517   */\n      iszero\n      tag_286\n      jumpi\n        /* \"#utility.yul\":7498:7502   */\n      dup1\n        /* \"#utility.yul\":7491:7496   */\n      dup3\n        /* \"#utility.yul\":7487:7503   */\n      mul\n        /* \"#utility.yul\":7478:7503   */\n      swap2\n      pop\n        /* \"#utility.yul\":7066:7517   */\n    tag_286:\n        /* \"#utility.yul\":7548:7552   */\n      dup1\n        /* \"#utility.yul\":7542:7546   */\n      dup2\n        /* \"#utility.yul\":7538:7553   */\n      mul\n        /* \"#utility.yul\":7530:7553   */\n      swap1\n      pop\n        /* \"#utility.yul\":7578:7610   */\n      tag_287\n        /* \"#utility.yul\":7601:7609   */\n      dup6\n        /* \"#utility.yul\":7578:7610   */\n      tag_288\n      jump\t// in\n    tag_287:\n        /* \"#utility.yul\":7566:7610   */\n      swap5\n      pop\n        /* \"#utility.yul\":6908:7620   */\n      jump(tag_281)\n    tag_283:\n        /* \"#utility.yul\":6778:7626   */\n      swap5\n      pop\n      swap5\n      swap3\n      pop\n      pop\n      pop\n      jump\t// out\n        /* \"#utility.yul\":7632:7913   */\n    tag_123:\n        /* \"#utility.yul\":7690:7695   */\n      0x00\n        /* \"#utility.yul\":7714:7737   */\n      tag_290\n        /* \"#utility.yul\":7732:7736   */\n      dup3\n        /* \"#utility.yul\":7714:7737   */\n      tag_235\n      jump\t// in\n    tag_290:\n        /* \"#utility.yul\":7706:7737   */\n      swap2\n      pop\n        /* \"#utility.yul\":7758:7783   */\n      tag_291\n        /* \"#utility.yul\":7774:7782   */\n      dup4\n        /* \"#utility.yul\":7758:7783   */\n      tag_239\n      jump\t// in\n    tag_291:\n        /* \"#utility.yul\":7746:7783   */\n      swap3\n      pop\n        /* \"#utility.yul\":7802:7906   */\n      tag_292\n        /* \"#utility.yul\":7839:7905   */\n      0xffffffffffffffffffffffffffffffffffffffffffffffffffffffffffffffff\n        /* \"#utility.yul\":7829:7837   */\n      dup5\n        /* \"#utility.yul\":7823:7827   */\n      dup5\n        /* \"#utility.yul\":7802:7906   */\n      tag_293\n      jump\t// in\n    tag_292:\n        /* \"#utility.yul\":7793:7906   */\n      swap1\n      pop\n        /* \"#utility.yul\":7632:7913   */\n      swap3\n      swap2\n      pop\n      pop\n      jump\t// out\n        /* \"#utility.yul\":7919:8992   */\n    tag_293:\n        /* \"#utility.yul\":7973:7978   */\n      0x00\n        /* \"#utility.yul\":8164:8172   */\n      dup3\n        /* \"#utility.yul\":8154:8194   */\n      tag_295\n      jumpi\n        /* \"#utility.yul\":8185:8186   */\n      0x01\n        /* \"#utility.yul\":8176:8186   */\n      swap1\n      pop\n        /* \"#utility.yul\":8187:8192   */\n      jump(tag_294)\n        /* \"#utility.yul\":8154:8194   */\n    tag_295:\n        /* \"#utility.yul\":8213:8217   */\n      dup2\n        /* \"#utility.yul\":8203:8239   */\n      tag_296\n      jumpi\n        /* \"#utility.yul\":8230:8231   */\n      0x00\n        /* \"#utility.yul\":8221:8231   */\n      swap1\n      pop\n        /* \"#utility.yul\":8232:8237   */\n      jump(tag_294)\n        /* \"#utility.yul\":8203:8239   */\n    tag_296:\n        /* \"#utility.yul\":8299:8303   */\n      dup2\n        /* \"#utility.yul\":8347:8348   */\n      0x01\n        /* \"#utility.yul\":8342:8369   */\n      dup2\n      eq\n      tag_298\n      jumpi\n        /* \"#utility.yul\":8383:8384   */\n      0x02\n        /* \"#utility.yul\":8378:8569   */\n      dup2\n      eq\n      tag_299\n      jumpi\n        /* \"#utility.yul\":8292:8569   */\n      jump(tag_297)\n        /* \"#utility.yul\":8342:8369   */\n    tag_298:\n        /* \"#utility.yul\":8360:8361   */\n      0x01\n        /* \"#utility.yul\":8351:8361   */\n      swap2\n      pop\n        /* \"#utility.yul\":8362:8367   */\n      pop\n      jump(tag_294)\n        /* \"#utility.yul\":8378:8569   */\n    tag_299:\n        /* \"#utility.yul\":8423:8426   */\n      0xff\n        /* \"#utility.yul\":8413:8421   */\n      dup5\n        /* \"#utility.yul\":8410:8427   */\n      gt\n        /* \"#utility.yul\":8407:8450   */\n      iszero\n      tag_300\n      jumpi\n        /* \"#utility.yul\":8430:8448   */\n      tag_301\n      tag_272\n      jump\t// in\n    tag_301:\n        /* \"#utility.yul\":8407:8450   */\n    tag_300:\n        /* \"#utility.yul\":8479:8487   */\n      dup4\n        /* \"#utility.yul\":8476:8477   */\n      0x02\n        /* \"#utility.yul\":8472:8488   */\n      exp\n        /* \"#utility.yul\":8463:8488   */\n      swap2\n      pop\n        /* \"#utility.yul\":8514:8517   */\n      dup5\n        /* \"#utility.yul\":8507:8512   */\n      dup3\n        /* \"#utility.yul\":8504:8518   */\n      gt\n        /* \"#utility.yul\":8501:8541   */\n      iszero\n      tag_302\n      jumpi\n        /* \"#utility.yul\":8521:8539   */\n      tag_303\n      tag_272\n      jump\t// in\n    tag_303:\n        /* \"#utility.yul\":8501:8541   */\n    tag_302:\n        /* \"#utility.yul\":8554:8559   */\n      pop\n      jump(tag_294)\n        /* \"#utility.yul\":8292:8569   */\n    tag_297:\n      pop\n        /* \"#utility.yul\":8678:8680   */\n      0x20\n        /* \"#utility.yul\":8668:8676   */\n      dup4\n        /* \"#utility.yul\":8665:8681   */\n      lt\n        /* \"#utility.yul\":8659:8662   */\n      0x0133\n        /* \"#utility.yul\":8653:8657   */\n      dup4\n        /* \"#utility.yul\":8650:8663   */\n      lt\n        /* \"#utility.yul\":8646:8682   */\n      and\n        /* \"#utility.yul\":8628:8630   */\n      0x4e\n        /* \"#utility.yul\":8618:8626   */\n      dup5\n        /* \"#utility.yul\":8615:8631   */\n      lt\n        /* \"#utility.yul\":8610:8612   */\n      0x0b\n        /* \"#utility.yul\":8604:8608   */\n      dup5\n        /* \"#utility.yul\":8601:8613   */\n      lt\n        /* \"#utility.yul\":8597:8632   */\n      and\n        /* \"#utility.yul\":8581:8692   */\n      or\n        /* \"#utility.yul\":8578:8824   */\n      iszero\n      tag_304\n      jumpi\n        /* \"#utility.yul\":8734:8742   */\n      dup3\n        /* \"#utility.yul\":8728:8732   */\n      dup3\n        /* \"#utility.yul\":8724:8743   */\n      exp\n        /* \"#utility.yul\":8715:8743   */\n      swap1\n      pop\n        /* \"#utility.yul\":8769:8772   */\n      dup4\n        /* \"#utility.yul\":8762:8767   */\n      dup2\n        /* \"#utility.yul\":8759:8773   */\n      gt\n        /* \"#utility.yul\":8756:8796   */\n      iszero\n      tag_305\n      jumpi\n        /* \"#utility.yul\":8776:8794   */\n      tag_306\n      tag_272\n      jump\t// in\n    tag_306:\n        /* \"#utility.yul\":8756:8796   */\n    tag_305:\n        /* \"#utility.yul\":8809:8814   */\n      jump(tag_294)\n        /* \"#utility.yul\":8578:8824   */\n    tag_304:\n        /* \"#utility.yul\":8849:8891   */\n      tag_307\n        /* \"#utility.yul\":8887:8890   */\n      dup5\n        /* \"#utility.yul\":8877:8885   */\n      dup5\n        /* \"#utility.yul\":8871:8875   */\n      dup5\n        /* \"#utility.yul\":8868:8869   */\n      0x01\n        /* \"#utility.yul\":8849:8891   */\n      tag_279\n      jump\t// in\n    tag_307:\n        /* \"#utility.yul\":8834:8891   */\n      swap3\n      pop\n      swap1\n      pop\n        /* \"#utility.yul\":8923:8927   */\n      dup2\n        /* \"#utility.yul\":8918:8921   */\n      dup5\n        /* \"#utility.yul\":8914:8928   */\n      div\n        /* \"#utility.yul\":8907:8912   */\n      dup2\n        /* \"#utility.yul\":8904:8929   */\n      gt\n        /* \"#utility.yul\":8901:8952   */\n      iszero\n      tag_308\n      jumpi\n        /* \"#utility.yul\":8932:8950   */\n      tag_309\n      tag_272\n      jump\t// in\n    tag_309:\n        /* \"#utility.yul\":8901:8952   */\n    tag_308:\n        /* \"#utility.yul\":8981:8985   */\n      dup2\n        /* \"#utility.yul\":8974:8979   */\n      dup2\n        /* \"#utility.yul\":8970:8986   */\n      mul\n        /* \"#utility.yul\":8961:8986   */\n      swap1\n      pop\n        /* \"#utility.yul\":7919:8992   */\n    tag_294:\n      swap4\n      swap3\n      pop\n      pop\n      pop\n      jump\t// out\n        /* \"#utility.yul\":8998:9346   */\n    tag_119:\n        /* \"#utility.yul\":9038:9045   */\n      0x00\n        /* \"#utility.yul\":9061:9081   */\n      tag_311\n        /* \"#utility.yul\":9079:9080   */\n      dup3\n        /* \"#utility.yul\":9061:9081   */\n      tag_235\n      jump\t// in\n    tag_311:\n        /* \"#utility.yul\":9056:9081   */\n      swap2\n      pop\n        /* \"#utility.yul\":9095:9115   */\n      tag_312\n        /* \"#utility.yul\":9113:9114   */\n      dup4\n        /* \"#utility.yul\":9095:9115   */\n      tag_235\n      jump\t// in\n    tag_312:\n        /* \"#utility.yul\":9090:9115   */\n      swap3\n      pop\n        /* \"#utility.yul\":9283:9284   */\n      dup2\n        /* \"#utility.yul\":9215:9281   */\n      0xffffffffffffffffffffffffffffffffffffffffffffffffffffffffffffffff\n        /* \"#utility.yul\":9211:9285   */\n      div\n        /* \"#utility.yul\":9208:9209   */\n      dup4\n        /* \"#utility.yul\":9205:9286   */\n      gt\n        /* \"#utility.yul\":9200:9201   */\n      dup3\n        /* \"#utility.yul\":9193:9202   */\n      iszero\n        /* \"#utility.yul\":9186:9203   */\n      iszero\n        /* \"#utility.yul\":9182:9287   */\n      and\n        /* \"#utility.yul\":9179:9310   */\n      iszero\n      tag_313\n      jumpi\n        /* \"#utility.yul\":9290:9308   */\n      tag_314\n      tag_272\n      jump\t// in\n    tag_314:\n        /* \"#utility.yul\":9179:9310   */\n    tag_313:\n        /* \"#utility.yul\":9338:9339   */\n      dup3\n        /* \"#utility.yul\":9335:9336   */\n      dup3\n        /* \"#utility.yul\":9331:9340   */\n      mul\n        /* \"#utility.yul\":9320:9340   */\n      swap1\n      pop\n        /* \"#utility.yul\":8998:9346   */\n      swap3\n      swap2\n      pop\n      pop\n      jump\t// out\n        /* \"#utility.yul\":9352:9543   */\n    tag_117:\n        /* \"#utility.yul\":9392:9396   */\n      0x00\n        /* \"#utility.yul\":9412:9432   */\n      tag_316\n        /* \"#utility.yul\":9430:9431   */\n      dup3\n        /* \"#utility.yul\":9412:9432   */\n      tag_235\n      jump\t// in\n    tag_316:\n        /* \"#utility.yul\":9407:9432   */\n      swap2\n      pop\n        /* \"#utility.yul\":9446:9466   */\n      tag_317\n        /* \"#utility.yul\":9464:9465   */\n      dup4\n        /* \"#utility.yul\":9446:9466   */\n      tag_235\n      jump\t// in\n    tag_317:\n        /* \"#utility.yul\":9441:9466   */\n      swap3\n      pop\n        /* \"#utility.yul\":9485:9486   */\n      dup3\n        /* \"#utility.yul\":9482:9483   */\n      dup3\n        /* \"#utility.yul\":9479:9487   */\n      lt\n        /* \"#utility.yul\":9476:9510   */\n      iszero\n      tag_318\n      jumpi\n        /* \"#utility.yul\":9490:9508   */\n      tag_319\n      tag_272\n      jump\t// in\n    tag_319:\n        /* \"#utility.yul\":9476:9510   */\n    tag_318:\n        /* \"#utility.yul\":9535:9536   */\n      dup3\n        /* \"#utility.yul\":9532:9533   */\n      dup3\n        /* \"#utility.yul\":9528:9537   */\n      sub\n        /* \"#utility.yul\":9520:9537   */\n      swap1\n      pop\n        /* \"#utility.yul\":9352:9543   */\n      swap3\n      swap2\n      pop\n      pop\n      jump\t// out\n        /* \"#utility.yul\":9549:9645   */\n    tag_209:\n        /* \"#utility.yul\":9586:9593   */\n      0x00\n        /* \"#utility.yul\":9615:9639   */\n      tag_321\n        /* \"#utility.yul\":9633:9638   */\n      dup3\n        /* \"#utility.yul\":9615:9639   */\n      tag_322\n      jump\t// in\n    tag_321:\n        /* \"#utility.yul\":9604:9639   */\n      swap1\n      pop\n        /* \"#utility.yul\":9549:9645   */\n      swap2\n      swap1\n      pop\n      jump\t// out\n        /* \"#utility.yul\":9651:9741   */\n    tag_213:\n        /* \"#utility.yul\":9685:9692   */\n      0x00\n        /* \"#utility.yul\":9728:9733   */\n      dup2\n        /* \"#utility.yul\":9721:9734   */\n      iszero\n        /* \"#utility.yul\":9714:9735   */\n      iszero\n        /* \"#utility.yul\":9703:9735   */\n      swap1\n      pop\n        /* \"#utility.yul\":9651:9741   */\n      swap2\n      swap1\n      pop\n      jump\t// out\n        /* \"#utility.yul\":9747:9823   */\n    tag_217:\n        /* \"#utility.yul\":9783:9790   */\n      0x00\n        /* \"#utility.yul\":9812:9817   */\n      dup2\n        /* \"#utility.yul\":9801:9817   */\n      swap1\n      pop\n        /* \"#utility.yul\":9747:9823   */\n      swap2\n      swap1\n      pop\n      jump\t// out\n        /* \"#utility.yul\":9829:9918   */\n    tag_221:\n        /* \"#utility.yul\":9863:9870   */\n      0x00\n        /* \"#utility.yul\":9906:9911   */\n      dup2\n        /* \"#utility.yul\":9903:9904   */\n      0x00\n        /* \"#utility.yul\":9892:9912   */\n      signextend\n        /* \"#utility.yul\":9881:9912   */\n      swap1\n      pop\n        /* \"#utility.yul\":9829:9918   */\n      swap2\n      swap1\n      pop\n      jump\t// out\n        /* \"#utility.yul\":9924:10050   */\n    tag_322:\n        /* \"#utility.yul\":9961:9968   */\n      0x00\n        /* \"#utility.yul\":10001:10043   */\n      0xffffffffffffffffffffffffffffffffffffffff\n        /* \"#utility.yul\":9994:9999   */\n      dup3\n        /* \"#utility.yul\":9990:10044   */\n      and\n        /* \"#utility.yul\":9979:10044   */\n      swap1\n      pop\n        /* \"#utility.yul\":9924:10050   */\n      swap2\n      swap1\n      pop\n      jump\t// out\n        /* \"#utility.yul\":10056:10133   */\n    tag_235:\n        /* \"#utility.yul\":10093:10100   */\n      0x00\n        /* \"#utility.yul\":10122:10127   */\n      dup2\n        /* \"#utility.yul\":10111:10127   */\n      swap1\n      pop\n        /* \"#utility.yul\":10056:10133   */\n      swap2\n      swap1\n      pop\n      jump\t// out\n        /* \"#utility.yul\":10139:10225   */\n    tag_239:\n        /* \"#utility.yul\":10174:10181   */\n      0x00\n        /* \"#utility.yul\":10214:10218   */\n      0xff\n        /* \"#utility.yul\":10207:10212   */\n      dup3\n        /* \"#utility.yul\":10203:10219   */\n      and\n        /* \"#utility.yul\":10192:10219   */\n      swap1\n      pop\n        /* \"#utility.yul\":10139:10225   */\n      swap2\n      swap1\n      pop\n      jump\t// out\n        /* \"#utility.yul\":10231:10385   */\n    tag_167:\n        /* \"#utility.yul\":10315:10321   */\n      dup3\n        /* \"#utility.yul\":10310:10313   */\n      dup2\n        /* \"#utility.yul\":10305:10308   */\n      dup4\n        /* \"#utility.yul\":10292:10322   */\n      calldatacopy\n        /* \"#utility.yul\":10377:10378   */\n      0x00\n        /* \"#utility.yul\":10368:10374   */\n      dup4\n        /* \"#utility.yul\":10363:10366   */\n      dup4\n        /* \"#utility.yul\":10359:10375   */\n      add\n        /* \"#utility.yul\":10352:10379   */\n      mstore\n        /* \"#utility.yul\":10231:10385   */\n      pop\n      pop\n      pop\n      jump\t// out\n        /* \"#utility.yul\":10391:10698   */\n    tag_229:\n        /* \"#utility.yul\":10459:10460   */\n      0x00\n        /* \"#utility.yul\":10469:10582   */\n    tag_331:\n        /* \"#utility.yul\":10483:10489   */\n      dup4\n        /* \"#utility.yul\":10480:10481   */\n      dup2\n        /* \"#utility.yul\":10477:10490   */\n      lt\n        /* \"#utility.yul\":10469:10582   */\n      iszero\n      tag_333\n      jumpi\n        /* \"#utility.yul\":10568:10569   */\n      dup1\n        /* \"#utility.yul\":10563:10566   */\n      dup3\n        /* \"#utility.yul\":10559:10570   */\n      add\n        /* \"#utility.yul\":10553:10571   */\n      mload\n        /* \"#utility.yul\":10549:10550   */\n      dup2\n        /* \"#utility.yul\":10544:10547   */\n      dup5\n        /* \"#utility.yul\":10540:10551   */\n      add\n        /* \"#utility.yul\":10533:10572   */\n      mstore\n        /* \"#utility.yul\":10505:10507   */\n      0x20\n        /* \"#utility.yul\":10502:10503   */\n      dup2\n        /* \"#utility.yul\":10498:10508   */\n      add\n        /* \"#utility.yul\":10493:10508   */\n      swap1\n      pop\n        /* \"#utility.yul\":10469:10582   */\n      jump(tag_331)\n    tag_333:\n        /* \"#utility.yul\":10600:10606   */\n      dup4\n        /* \"#utility.yul\":10597:10598   */\n      dup2\n        /* \"#utility.yul\":10594:10607   */\n      gt\n        /* \"#utility.yul\":10591:10692   */\n      iszero\n      tag_334\n      jumpi\n        /* \"#utility.yul\":10680:10681   */\n      0x00\n        /* \"#utility.yul\":10671:10677   */\n      dup5\n        /* \"#utility.yul\":10666:10669   */\n      dup5\n        /* \"#utility.yul\":10662:10678   */\n      add\n        /* \"#utility.yul\":10655:10682   */\n      mstore\n        /* \"#utility.yul\":10591:10692   */\n    tag_334:\n        /* \"#utility.yul\":10440:10698   */\n      pop\n        /* \"#utility.yul\":10391:10698   */\n      pop\n      pop\n      pop\n      jump\t// out\n        /* \"#utility.yul\":10704:11024   */\n    tag_132:\n        /* \"#utility.yul\":10748:10754   */\n      0x00\n        /* \"#utility.yul\":10785:10786   */\n      0x02\n        /* \"#utility.yul\":10779:10783   */\n      dup3\n        /* \"#utility.yul\":10775:10787   */\n      div\n        /* \"#utility.yul\":10765:10787   */\n      swap1\n      pop\n        /* \"#utility.yul\":10832:10833   */\n      0x01\n        /* \"#utility.yul\":10826:10830   */\n      dup3\n        /* \"#utility.yul\":10822:10834   */\n      and\n        /* \"#utility.yul\":10853:10871   */\n      dup1\n        /* \"#utility.yul\":10843:10924   */\n      tag_336\n      jumpi\n        /* \"#utility.yul\":10909:10913   */\n      0x7f\n        /* \"#utility.yul\":10901:10907   */\n      dup3\n        /* \"#utility.yul\":10897:10914   */\n      and\n        /* \"#utility.yul\":10887:10914   */\n      swap2\n      pop\n        /* \"#utility.yul\":10843:10924   */\n    tag_336:\n        /* \"#utility.yul\":10971:10973   */\n      0x20\n        /* \"#utility.yul\":10963:10969   */\n      dup3\n        /* \"#utility.yul\":10960:10974   */\n      lt\n        /* \"#utility.yul\":10940:10958   */\n      dup2\n        /* \"#utility.yul\":10937:10975   */\n      eq\n        /* \"#utility.yul\":10934:11018   */\n      iszero\n      tag_337\n      jumpi\n        /* \"#utility.yul\":10990:11008   */\n      tag_338\n      tag_339\n      jump\t// in\n    tag_338:\n        /* \"#utility.yul\":10934:11018   */\n    tag_337:\n        /* \"#utility.yul\":10755:11024   */\n      pop\n        /* \"#utility.yul\":10704:11024   */\n      swap2\n      swap1\n      pop\n      jump\t// out\n        /* \"#utility.yul\":11030:11311   */\n    tag_258:\n        /* \"#utility.yul\":11113:11140   */\n      tag_341\n        /* \"#utility.yul\":11135:11139   */\n      dup3\n        /* \"#utility.yul\":11113:11140   */\n      tag_231\n      jump\t// in\n    tag_341:\n        /* \"#utility.yul\":11105:11111   */\n      dup2\n        /* \"#utility.yul\":11101:11141   */\n      add\n        /* \"#utility.yul\":11243:11249   */\n      dup2\n        /* \"#utility.yul\":11231:11241   */\n      dup2\n        /* \"#utility.yul\":11228:11250   */\n      lt\n        /* \"#utility.yul\":11207:11225   */\n      0xffffffffffffffff\n        /* \"#utility.yul\":11195:11205   */\n      dup3\n        /* \"#utility.yul\":11192:11226   */\n      gt\n        /* \"#utility.yul\":11189:11251   */\n      or\n        /* \"#utility.yul\":11186:11274   */\n      iszero\n      tag_342\n      jumpi\n        /* \"#utility.yul\":11254:11272   */\n      tag_343\n      tag_263\n      jump\t// in\n    tag_343:\n        /* \"#utility.yul\":11186:11274   */\n    tag_342:\n        /* \"#utility.yul\":11294:11304   */\n      dup1\n        /* \"#utility.yul\":11290:11292   */\n      0x40\n        /* \"#utility.yul\":11283:11305   */\n      mstore\n        /* \"#utility.yul\":11073:11311   */\n      pop\n        /* \"#utility.yul\":11030:11311   */\n      pop\n      pop\n      jump\t// out\n        /* \"#utility.yul\":11317:11493   */\n    tag_125:\n        /* \"#utility.yul\":11349:11350   */\n      0x00\n        /* \"#utility.yul\":11366:11386   */\n      tag_345\n        /* \"#utility.yul\":11384:11385   */\n      dup3\n        /* \"#utility.yul\":11366:11386   */\n      tag_235\n      jump\t// in\n    tag_345:\n        /* \"#utility.yul\":11361:11386   */\n      swap2\n      pop\n        /* \"#utility.yul\":11400:11420   */\n      tag_346\n        /* \"#utility.yul\":11418:11419   */\n      dup4\n        /* \"#utility.yul\":11400:11420   */\n      tag_235\n      jump\t// in\n    tag_346:\n        /* \"#utility.yul\":11395:11420   */\n      swap3\n      pop\n        /* \"#utility.yul\":11439:11440   */\n      dup3\n        /* \"#utility.yul\":11429:11464   */\n      tag_347\n      jumpi\n        /* \"#utility.yul\":11444:11462   */\n      tag_348\n      tag_278\n      jump\t// in\n    tag_348:\n        /* \"#utility.yul\":11429:11464   */\n    tag_347:\n        /* \"#utility.yul\":11485:11486   */\n      dup3\n        /* \"#utility.yul\":11482:11483   */\n      dup3\n        /* \"#utility.yul\":11478:11487   */\n      mod\n        /* \"#utility.yul\":11473:11487   */\n      swap1\n      pop\n        /* \"#utility.yul\":11317:11493   */\n      swap3\n      swap2\n      pop\n      pop\n      jump\t// out\n        /* \"#utility.yul\":11499:11727   */\n    tag_127:\n        /* \"#utility.yul\":11534:11537   */\n      0x00\n        /* \"#utility.yul\":11557:11580   */\n      tag_350\n        /* \"#utility.yul\":11574:11579   */\n      dup3\n        /* \"#utility.yul\":11557:11580   */\n      tag_217\n      jump\t// in\n    tag_350:\n        /* \"#utility.yul\":11548:11580   */\n      swap2\n      pop\n        /* \"#utility.yul\":11602:11668   */\n      0x8000000000000000000000000000000000000000000000000000000000000000\n        /* \"#utility.yul\":11595:11600   */\n      dup3\n        /* \"#utility.yul\":11592:11669   */\n      eq\n        /* \"#utility.yul\":11589:11692   */\n      iszero\n      tag_351\n      jumpi\n        /* \"#utility.yul\":11672:11690   */\n      tag_352\n      tag_272\n      jump\t// in\n    tag_352:\n        /* \"#utility.yul\":11589:11692   */\n    tag_351:\n        /* \"#utility.yul\":11715:11720   */\n      dup2\n        /* \"#utility.yul\":11712:11713   */\n      0x00\n        /* \"#utility.yul\":11708:11721   */\n      sub\n        /* \"#utility.yul\":11701:11721   */\n      swap1\n      pop\n        /* \"#utility.yul\":11499:11727   */\n      swap2\n      swap1\n      pop\n      jump\t// out\n        /* \"#utility.yul\":11733:11913   */\n    tag_272:\n        /* \"#utility.yul\":11781:11858   */\n      0x4e487b7100000000000000000000000000000000000000000000000000000000\n        /* \"#utility.yul\":11778:11779   */\n      0x00\n        /* \"#utility.yul\":11771:11859   */\n      mstore\n        /* \"#utility.yul\":11878:11882   */\n      0x11\n        /* \"#utility.yul\":11875:11876   */\n      0x04\n        /* \"#utility.yul\":11868:11883   */\n      mstore\n        /* \"#utility.yul\":11902:11906   */\n      0x24\n        /* \"#utility.yul\":11899:11900   */\n      0x00\n        /* \"#utility.yul\":11892:11907   */\n      revert\n        /* \"#utility.yul\":11919:12099   */\n    tag_278:\n        /* \"#utility.yul\":11967:12044   */\n      0x4e487b7100000000000000000000000000000000000000000000000000000000\n        /* \"#utility.yul\":11964:11965   */\n      0x00\n        /* \"#utility.yul\":11957:12045   */\n      mstore\n        /* \"#utility.yul\":12064:12068   */\n      0x12\n        /* \"#utility.yul\":12061:12062   */\n      0x04\n        /* \"#utility.yul\":12054:12069   */\n      mstore\n        /* \"#utility.yul\":12088:12092   */\n      0x24\n        /* \"#utility.yul\":12085:12086   */\n      0x00\n        /* \"#utility.yul\":12078:12093   */\n      revert\n        /* \"#utility.yul\":12105:12285   */\n    tag_339:\n        /* \"#utility.yul\":12153:12230   */\n      0x4e487b7100000000000000000000000000000000000000000000000000000000\n        /* \"#utility.yul\":12150:12151   */\n      0x00\n        /* \"#utility.yul\":12143:12231   */\n      mstore\n        /* \"#utility.yul\":12250:12254   */\n      0x22\n        /* \"#utility.yul\":12247:12248   */\n      0x04\n        /* \"#utility.yul\":12240:12255   */\n      mstore\n        /* \"#utility.yul\":12274:12278   */\n      0x24\n        /* \"#utility.yul\":12271:12272   */\n      0x00\n        /* \"#utility.yul\":12264:12279   */\n      revert\n        /* \"#utility.yul\":12291:12471   */\n    tag_263:\n        /* \"#utility.yul\":12339:12416   */\n      0x4e487b7100000000000000000000000000000000000000000000000000000000\n        /* \"#utility.yul\":12336:12337   */\n      0x00\n        /* \"#utility.yul\":12329:12417   */\n      mstore\n        /* \"#utility.yul\":12436:12440   */\n      0x41\n        /* \"#utility.yul\":12433:12434   */\n      0x04\n        /* \"#utility.yul\":12426:12441   */\n      mstore\n        /* \"#utility.yul\":12460:12464   */\n      0x24\n        /* \"#utility.yul\":12457:12458   */\n      0x00\n        /* \"#utility.yul\":12450:12465   */\n      revert\n        /* \"#utility.yul\":12477:12594   */\n    tag_180:\n        /* \"#utility.yul\":12586:12587   */\n      0x00\n        /* \"#utility.yul\":12583:12584   */\n      dup1\n        /* \"#utility.yul\":12576:12588   */\n      revert\n        /* \"#utility.yul\":12600:12717   */\n    tag_165:\n        /* \"#utility.yul\":12709:12710   */\n      0x00\n        /* \"#utility.yul\":12706:12707   */\n      dup1\n        /* \"#utility.yul\":12699:12711   */\n      revert\n        /* \"#utility.yul\":12723:12840   */\n    tag_200:\n        /* \"#utility.yul\":12832:12833   */\n      0x00\n        /* \"#utility.yul\":12829:12830   */\n      dup1\n        /* \"#utility.yul\":12822:12834   */\n      revert\n        /* \"#utility.yul\":12846:12963   */\n    tag_189:\n        /* \"#utility.yul\":12955:12956   */\n      0x00\n        /* \"#utility.yul\":12952:12953   */\n      dup1\n        /* \"#utility.yul\":12945:12957   */\n      revert\n        /* \"#utility.yul\":12969:13071   */\n    tag_231:\n        /* \"#utility.yul\":13010:13016   */\n      0x00\n        /* \"#utility.yul\":13061:13063   */\n      0x1f\n        /* \"#utility.yul\":13057:13064   */\n      not\n        /* \"#utility.yul\":13052:13054   */\n      0x1f\n        /* \"#utility.yul\":13045:13050   */\n      dup4\n        /* \"#utility.yul\":13041:13055   */\n      add\n        /* \"#utility.yul\":13037:13065   */\n      and\n        /* \"#utility.yul\":13027:13065   */\n      swap1\n      pop\n        /* \"#utility.yul\":12969:13071   */\n      swap2\n      swap1\n      pop\n      jump\t// out\n        /* \"#utility.yul\":13077:13179   */\n    tag_288:\n        /* \"#utility.yul\":13119:13127   */\n      0x00\n        /* \"#utility.yul\":13166:13171   */\n      dup2\n        /* \"#utility.yul\":13163:13164   */\n      0x01\n        /* \"#utility.yul\":13159:13172   */\n      shr\n        /* \"#utility.yul\":13138:13172   */\n      swap1\n      pop\n        /* \"#utility.yul\":13077:13179   */\n      swap2\n      swap1\n      pop\n      jump\t// out\n        /* \"#utility.yul\":13185:13307   */\n    tag_171:\n        /* \"#utility.yul\":13258:13282   */\n      tag_364\n        /* \"#utility.yul\":13276:13281   */\n      dup2\n        /* \"#utility.yul\":13258:13282   */\n      tag_209\n      jump\t// in\n    tag_364:\n        /* \"#utility.yul\":13251:13256   */\n      dup2\n        /* \"#utility.yul\":13248:13283   */\n      eq\n        /* \"#utility.yul\":13238:13301   */\n      tag_365\n      jumpi\n        /* \"#utility.yul\":13297:13298   */\n      0x00\n        /* \"#utility.yul\":13294:13295   */\n      dup1\n        /* \"#utility.yul\":13287:13299   */\n      revert\n        /* \"#utility.yul\":13238:13301   */\n    tag_365:\n        /* \"#utility.yul\":13185:13307   */\n      pop\n      jump\t// out\n        /* \"#utility.yul\":13313:13429   */\n    tag_175:\n        /* \"#utility.yul\":13383:13404   */\n      tag_367\n        /* \"#utility.yul\":13398:13403   */\n      dup2\n        /* \"#utility.yul\":13383:13404   */\n      tag_213\n      jump\t// in\n    tag_367:\n        /* \"#utility.yul\":13376:13381   */\n      dup2\n        /* \"#utility.yul\":13373:13405   */\n      eq\n        /* \"#utility.yul\":13363:13423   */\n      tag_368\n      jumpi\n        /* \"#utility.yul\":13419:13420   */\n      0x00\n        /* \"#utility.yul\":13416:13417   */\n      dup1\n        /* \"#utility.yul\":13409:13421   */\n      revert\n        /* \"#utility.yul\":13363:13423   */\n    tag_368:\n        /* \"#utility.yul\":13313:13429   */\n      pop\n      jump\t// out\n        /* \"#utility.yul\":13435:13557   */\n    tag_185:\n        /* \"#utility.yul\":13508:13532   */\n      tag_370\n        /* \"#utility.yul\":13526:13531   */\n      dup2\n        /* \"#utility.yul\":13508:13532   */\n      tag_235\n      jump\t// in\n    tag_370:\n        /* \"#utility.yul\":13501:13506   */\n      dup2\n        /* \"#utility.yul\":13498:13533   */\n      eq\n        /* \"#utility.yul\":13488:13551   */\n      tag_371\n      jumpi\n        /* \"#utility.yul\":13547:13548   */\n      0x00\n        /* \"#utility.yul\":13544:13545   */\n      dup1\n        /* \"#utility.yul\":13537:13549   */\n      revert\n        /* \"#utility.yul\":13488:13551   */\n    tag_371:\n        /* \"#utility.yul\":13435:13557   */\n      pop\n      jump\t// out\n\n    auxdata: 0xa2646970667358221220517b8137ef96b15eaae0d62ab950bf255375c733528c7532b5155be3fcacc13164736f6c63430008070033\n}\n",
				"bytecode": {
					"linkReferences": {},
					"object": "6080604052735b38da6a701c568545dcfcb03fcb875f56beddc46000806101000a81548173ffffffffffffffffffffffffffffffffffffffff021916908373ffffffffffffffffffffffffffffffffffffffff1602179055506040518060400160405280600481526020017f746573740000000000000000000000000000000000000000000000000000000081525060019080519060200190620000a5929190620001b5565b5060fe600260006101000a81548160ff021916908360ff160217905550602a6005556002600660006101000a81548160ff021916908360ff1602179055507fffffffffffffffffffffffffffffffffffffffffffffffffffffffffffffffd66007557fffffffffffffffffffffffffffffffffffffffffffffffffffffffffffffffff600860006101000a81548160ff021916908360000b60ff1602179055506001600860016101000a81548160ff0219169083151502179055503480156200016d57600080fd5b5033600860026101000a81548173ffffffffffffffffffffffffffffffffffffffff021916908373ffffffffffffffffffffffffffffffffffffffff160217905550620002ca565b828054620001c39062000265565b90600052602060002090601f016020900481019282620001e7576000855562000233565b82601f106200020257805160ff191683800117855562000233565b8280016001018555821562000233579182015b828111156200023257825182559160200191906001019062000215565b5b50905062000242919062000246565b5090565b5b808211156200026157600081600090555060010162000247565b5090565b600060028204905060018216806200027e57607f821691505b602082108114156200029557620002946200029b565b5b50919050565b7f4e487b7100000000000000000000000000000000000000000000000000000000600052602260045260246000fd5b61111780620002da6000396000f3fe60806040526004361061011f5760003560e01c80635a455c1c116100a05780638da5cb5b116100645780638da5cb5b14610348578063939a79ac14610373578063e2982c211461039c578063e665b266146103d9578063ed32ca32146104045761011f565b80635a455c1c146102875780636deecdbe146102b25780637a28a513146102dd578063853828b6146103085780638b36687e1461031f5761011f565b80632cb777a6116100e75780632cb777a6146101c4578063371303c0146101ef5780633891e8991461020657806352342f131461023157806352d6804d1461025c5761011f565b806301725a0b1461012457806306540f7e1461013b578063071bd0791461016657806312065fe01461018f57806313bea460146101ba575b600080fd5b34801561013057600080fd5b5061013961042f565b005b34801561014757600080fd5b50610150610446565b60405161015d9190610af5565b60405180910390f35b34801561017257600080fd5b5061018d600480360381019061018891906109a7565b61044c565b005b34801561019b57600080fd5b506101a46104b7565b6040516101b19190610af5565b60405180910390f35b6101c26104f7565b005b3480156101d057600080fd5b506101d961053d565b6040516101e69190610a9d565b60405180910390f35b3480156101fb57600080fd5b50610204610543565b005b34801561021257600080fd5b5061021b610577565b6040516102289190610b10565b60405180910390f35b34801561023d57600080fd5b5061024661058a565b6040516102539190610af5565b60405180910390f35b34801561026857600080fd5b50610271610590565b60405161027e9190610af5565b60405180910390f35b34801561029357600080fd5b5061029c610596565b6040516102a99190610ad3565b60405180910390f35b3480156102be57600080fd5b506102c7610624565b6040516102d49190610a82565b60405180910390f35b3480156102e957600080fd5b506102f2610637565b6040516102ff9190610ab8565b60405180910390f35b34801561031457600080fd5b5061031d61064a565b005b34801561032b57600080fd5b5061034660048036038101906103419190610931565b6106d8565b005b34801561035457600080fd5b5061035d6106e8565b60405161036a9190610a67565b60405180910390f35b34801561037f57600080fd5b5061039a6004803603810190610395919061095e565b61070e565b005b3480156103a857600080fd5b506103c360048036038101906103be9190610904565b610763565b6040516103d09190610af5565b60405180910390f35b3480156103e557600080fd5b506103ee61077b565b6040516103fb9190610a67565b60405180910390f35b34801561041057600080fd5b5061041961079f565b6040516104269190610b10565b60405180910390f35b600060ff1660038190555060ff8016600481905550565b60055481565b6000602a905060018161045f9190610b9d565b5060018161046d9190610def565b5060028161047b9190610d95565b506002816104899190610bf3565b506003816104979190610c77565b506003816104a59190610f34565b506007546104b290610f65565b505050565b60008060009054906101000a900473ffffffffffffffffffffffffffffffffffffffff1673ffffffffffffffffffffffffffffffffffffffff1631905090565b34600960003373ffffffffffffffffffffffffffffffffffffffff1673ffffffffffffffffffffffffffffffffffffffff16815260200190815260200160002081905550565b60075481565b6002600081819054906101000a900460ff168092919060010191906101000a81548160ff021916908360ff16021790555050565b600660009054906101000a900460ff1681565b60045481565b60035481565b600180546105a390610ed1565b80601f01602080910402602001604051908101604052809291908181526020018280546105cf90610ed1565b801561061c5780601f106105f15761010080835404028352916020019161061c565b820191906000526020600020905b8154815290600101906020018083116105ff57829003601f168201915b505050505081565b600860019054906101000a900460ff1681565b600860009054906101000a900460000b81565b6000600860029054906101000a900473ffffffffffffffffffffffffffffffffffffffff16905060003090508173ffffffffffffffffffffffffffffffffffffffff166108fc8273ffffffffffffffffffffffffffffffffffffffff16319081150290604051600060405180830381858888f193505050501580156106d3573d6000803e3d6000fd5b505050565b600081806106e35750805b505050565b600860029054906101000a900473ffffffffffffffffffffffffffffffffffffffff1681565b60006040518060400160405280600481526020017f74656d70000000000000000000000000000000000000000000000000000000008152509050816001908051906020019061075e9291906107b2565b505050565b60096020528060005260406000206000915090505481565b60008054906101000a900473ffffffffffffffffffffffffffffffffffffffff1681565b600260009054906101000a900460ff1681565b8280546107be90610ed1565b90600052602060002090601f0160209004810192826107e05760008555610827565b82601f106107f957805160ff1916838001178555610827565b82800160010185558215610827579182015b8281111561082657825182559160200191906001019061080b565b5b5090506108349190610838565b5090565b5b80821115610851576000816000905550600101610839565b5090565b600061086861086384610b50565b610b2b565b9050828152602081018484840111156108845761088361106f565b5b61088f848285610e8f565b509392505050565b6000813590506108a68161109c565b92915050565b6000813590506108bb816110b3565b92915050565b600082601f8301126108d6576108d561106a565b5b81356108e6848260208601610855565b91505092915050565b6000813590506108fe816110ca565b92915050565b60006020828403121561091a57610919611079565b5b600061092884828501610897565b91505092915050565b60006020828403121561094757610946611079565b5b6000610955848285016108ac565b91505092915050565b60006020828403121561097457610973611079565b5b600082013567ffffffffffffffff81111561099257610991611074565b5b61099e848285016108c1565b91505092915050565b6000602082840312156109bd576109bc611079565b5b60006109cb848285016108ef565b91505092915050565b6109dd81610e23565b82525050565b6109ec81610e35565b82525050565b6109fb81610e41565b82525050565b610a0a81610e4b565b82525050565b6000610a1b82610b81565b610a258185610b8c565b9350610a35818560208601610e9e565b610a3e8161107e565b840191505092915050565b610a5281610e78565b82525050565b610a6181610e82565b82525050565b6000602082019050610a7c60008301846109d4565b92915050565b6000602082019050610a9760008301846109e3565b92915050565b6000602082019050610ab260008301846109f2565b92915050565b6000602082019050610acd6000830184610a01565b92915050565b60006020820190508181036000830152610aed8184610a10565b905092915050565b6000602082019050610b0a6000830184610a49565b92915050565b6000602082019050610b256000830184610a58565b92915050565b6000610b35610b46565b9050610b418282610f03565b919050565b6000604051905090565b600067ffffffffffffffff821115610b6b57610b6a61103b565b5b610b748261107e565b9050602081019050919050565b600081519050919050565b600082825260208201905092915050565b6000610ba882610e78565b9150610bb383610e78565b9250827fffffffffffffffffffffffffffffffffffffffffffffffffffffffffffffffff03821115610be857610be7610fae565b5b828201905092915050565b6000610bfe82610e78565b9150610c0983610e78565b925082610c1957610c18610fdd565b5b828204905092915050565b6000808291508390505b6001851115610c6e57808604811115610c4a57610c49610fae565b5b6001851615610c595780820291505b8081029050610c678561108f565b9450610c2e565b94509492505050565b6000610c8282610e78565b9150610c8d83610e82565b9250610cba7fffffffffffffffffffffffffffffffffffffffffffffffffffffffffffffffff8484610cc2565b905092915050565b600082610cd25760019050610d8e565b81610ce05760009050610d8e565b8160018114610cf65760028114610d0057610d2f565b6001915050610d8e565b60ff841115610d1257610d11610fae565b5b8360020a915084821115610d2957610d28610fae565b5b50610d8e565b5060208310610133831016604e8410600b8410161715610d645782820a905083811115610d5f57610d5e610fae565b5b610d8e565b610d718484846001610c24565b92509050818404811115610d8857610d87610fae565b5b81810290505b9392505050565b6000610da082610e78565b9150610dab83610e78565b9250817fffffffffffffffffffffffffffffffffffffffffffffffffffffffffffffffff0483118215151615610de457610de3610fae565b5b828202905092915050565b6000610dfa82610e78565b9150610e0583610e78565b925082821015610e1857610e17610fae565b5b828203905092915050565b6000610e2e82610e58565b9050919050565b60008115159050919050565b6000819050919050565b60008160000b9050919050565b600073ffffffffffffffffffffffffffffffffffffffff82169050919050565b6000819050919050565b600060ff82169050919050565b82818337600083830152505050565b60005b83811015610ebc578082015181840152602081019050610ea1565b83811115610ecb576000848401525b50505050565b60006002820490506001821680610ee957607f821691505b60208210811415610efd57610efc61100c565b5b50919050565b610f0c8261107e565b810181811067ffffffffffffffff82111715610f2b57610f2a61103b565b5b80604052505050565b6000610f3f82610e78565b9150610f4a83610e78565b925082610f5a57610f59610fdd565b5b828206905092915050565b6000610f7082610e41565b91507f8000000000000000000000000000000000000000000000000000000000000000821415610fa357610fa2610fae565b5b816000039050919050565b7f4e487b7100000000000000000000000000000000000000000000000000000000600052601160045260246000fd5b7f4e487b7100000000000000000000000000000000000000000000000000000000600052601260045260246000fd5b7f4e487b7100000000000000000000000000000000000000000000000000000000600052602260045260246000fd5b7f4e487b7100000000000000000000000000000000000000000000000000000000600052604160045260246000fd5b600080fd5b600080fd5b600080fd5b600080fd5b6000601f19601f8301169050919050565b60008160011c9050919050565b6110a581610e23565b81146110b057600080fd5b50565b6110bc81610e35565b81146110c757600080fd5b50565b6110d381610e78565b81146110de57600080fd5b5056fea2646970667358221220517b8137ef96b15eaae0d62ab950bf255375c733528c7532b5155be3fcacc13164736f6c63430008070033",
					"opcodes": "PUSH1 0x80 PUSH1 0x40 MSTORE PUSH20 0x5B38DA6A701C568545DCFCB03FCB875F56BEDDC4 PUSH1 0x0 DUP1 PUSH2 0x100 EXP DUP2 SLOAD DUP2 PUSH20 0xFFFFFFFFFFFFFFFFFFFFFFFFFFFFFFFFFFFFFFFF MUL NOT AND SWAP1 DUP4 PUSH20 0xFFFFFFFFFFFFFFFFFFFFFFFFFFFFFFFFFFFFFFFF AND MUL OR SWAP1 SSTORE POP PUSH1 0x40 MLOAD DUP1 PUSH1 0x40 ADD PUSH1 0x40 MSTORE DUP1 PUSH1 0x4 DUP2 MSTORE PUSH1 0x20 ADD PUSH32 0x7465737400000000000000000000000000000000000000000000000000000000 DUP2 MSTORE POP PUSH1 0x1 SWAP1 DUP1 MLOAD SWAP1 PUSH1 0x20 ADD SWAP1 PUSH3 0xA5 SWAP3 SWAP2 SWAP1 PUSH3 0x1B5 JUMP JUMPDEST POP PUSH1 0xFE PUSH1 0x2 PUSH1 0x0 PUSH2 0x100 EXP DUP2 SLOAD DUP2 PUSH1 0xFF MUL NOT AND SWAP1 DUP4 PUSH1 0xFF AND MUL OR SWAP1 SSTORE POP PUSH1 0x2A PUSH1 0x5 SSTORE PUSH1 0x2 PUSH1 0x6 PUSH1 0x0 PUSH2 0x100 EXP DUP2 SLOAD DUP2 PUSH1 0xFF MUL NOT AND SWAP1 DUP4 PUSH1 0xFF AND MUL OR SWAP1 SSTORE POP PUSH32 0xFFFFFFFFFFFFFFFFFFFFFFFFFFFFFFFFFFFFFFFFFFFFFFFFFFFFFFFFFFFFFFD6 PUSH1 0x7 SSTORE PUSH32 0xFFFFFFFFFFFFFFFFFFFFFFFFFFFFFFFFFFFFFFFFFFFFFFFFFFFFFFFFFFFFFFFF PUSH1 0x8 PUSH1 0x0 PUSH2 0x100 EXP DUP2 SLOAD DUP2 PUSH1 0xFF MUL NOT AND SWAP1 DUP4 PUSH1 0x0 SIGNEXTEND PUSH1 0xFF AND MUL OR SWAP1 SSTORE POP PUSH1 0x1 PUSH1 0x8 PUSH1 0x1 PUSH2 0x100 EXP DUP2 SLOAD DUP2 PUSH1 0xFF MUL NOT AND SWAP1 DUP4 ISZERO ISZERO MUL OR SWAP1 SSTORE POP CALLVALUE DUP1 ISZERO PUSH3 0x16D JUMPI PUSH1 0x0 DUP1 REVERT JUMPDEST POP CALLER PUSH1 0x8 PUSH1 0x2 PUSH2 0x100 EXP DUP2 SLOAD DUP2 PUSH20 0xFFFFFFFFFFFFFFFFFFFFFFFFFFFFFFFFFFFFFFFF MUL NOT AND SWAP1 DUP4 PUSH20 0xFFFFFFFFFFFFFFFFFFFFFFFFFFFFFFFFFFFFFFFF AND MUL OR SWAP1 SSTORE POP PUSH3 0x2CA JUMP JUMPDEST DUP3 DUP1 SLOAD PUSH3 0x1C3 SWAP1 PUSH3 0x265 JUMP JUMPDEST SWAP1 PUSH1 0x0 MSTORE PUSH1 0x20 PUSH1 0x0 KECCAK256 SWAP1 PUSH1 0x1F ADD PUSH1 0x20 SWAP1 DIV DUP2 ADD SWAP3 DUP3 PUSH3 0x1E7 JUMPI PUSH1 0x0 DUP6 SSTORE PUSH3 0x233 JUMP JUMPDEST DUP3 PUSH1 0x1F LT PUSH3 0x202 JUMPI DUP1 MLOAD PUSH1 0xFF NOT AND DUP4 DUP1 ADD OR DUP6 SSTORE PUSH3 0x233 JUMP JUMPDEST DUP3 DUP1 ADD PUSH1 0x1 ADD DUP6 SSTORE DUP3 ISZERO PUSH3 0x233 JUMPI SWAP2 DUP3 ADD JUMPDEST DUP3 DUP2 GT ISZERO PUSH3 0x232 JUMPI DUP3 MLOAD DUP3 SSTORE SWAP2 PUSH1 0x20 ADD SWAP2 SWAP1 PUSH1 0x1 ADD SWAP1 PUSH3 0x215 JUMP JUMPDEST JUMPDEST POP SWAP1 POP PUSH3 0x242 SWAP2 SWAP1 PUSH3 0x246 JUMP JUMPDEST POP SWAP1 JUMP JUMPDEST JUMPDEST DUP1 DUP3 GT ISZERO PUSH3 0x261 JUMPI PUSH1 0x0 DUP2 PUSH1 0x0 SWAP1 SSTORE POP PUSH1 0x1 ADD PUSH3 0x247 JUMP JUMPDEST POP SWAP1 JUMP JUMPDEST PUSH1 0x0 PUSH1 0x2 DUP3 DIV SWAP1 POP PUSH1 0x1 DUP3 AND DUP1 PUSH3 0x27E JUMPI PUSH1 0x7F DUP3 AND SWAP2 POP JUMPDEST PUSH1 0x20 DUP3 LT DUP2 EQ ISZERO PUSH3 0x295 JUMPI PUSH3 0x294 PUSH3 0x29B JUMP JUMPDEST JUMPDEST POP SWAP2 SWAP1 POP JUMP JUMPDEST PUSH32 0x4E487B7100000000000000000000000000000000000000000000000000000000 PUSH1 0x0 MSTORE PUSH1 0x22 PUSH1 0x4 MSTORE PUSH1 0x24 PUSH1 0x0 REVERT JUMPDEST PUSH2 0x1117 DUP1 PUSH3 0x2DA PUSH1 0x0 CODECOPY PUSH1 0x0 RETURN INVALID PUSH1 0x80 PUSH1 0x40 MSTORE PUSH1 0x4 CALLDATASIZE LT PUSH2 0x11F JUMPI PUSH1 0x0 CALLDATALOAD PUSH1 0xE0 SHR DUP1 PUSH4 0x5A455C1C GT PUSH2 0xA0 JUMPI DUP1 PUSH4 0x8DA5CB5B GT PUSH2 0x64 JUMPI DUP1 PUSH4 0x8DA5CB5B EQ PUSH2 0x348 JUMPI DUP1 PUSH4 0x939A79AC EQ PUSH2 0x373 JUMPI DUP1 PUSH4 0xE2982C21 EQ PUSH2 0x39C JUMPI DUP1 PUSH4 0xE665B266 EQ PUSH2 0x3D9 JUMPI DUP1 PUSH4 0xED32CA32 EQ PUSH2 0x404 JUMPI PUSH2 0x11F JUMP JUMPDEST DUP1 PUSH4 0x5A455C1C EQ PUSH2 0x287 JUMPI DUP1 PUSH4 0x6DEECDBE EQ PUSH2 0x2B2 JUMPI DUP1 PUSH4 0x7A28A513 EQ PUSH2 0x2DD JUMPI DUP1 PUSH4 0x853828B6 EQ PUSH2 0x308 JUMPI DUP1 PUSH4 0x8B36687E EQ PUSH2 0x31F JUMPI PUSH2 0x11F JUMP JUMPDEST DUP1 PUSH4 0x2CB777A6 GT PUSH2 0xE7 JUMPI DUP1 PUSH4 0x2CB777A6 EQ PUSH2 0x1C4 JUMPI DUP1 PUSH4 0x371303C0 EQ PUSH2 0x1EF JUMPI DUP1 PUSH4 0x3891E899 EQ PUSH2 0x206 JUMPI DUP1 PUSH4 0x52342F13 EQ PUSH2 0x231 JUMPI DUP1 PUSH4 0x52D6804D EQ PUSH2 0x25C JUMPI PUSH2 0x11F JUMP JUMPDEST DUP1 PUSH4 0x1725A0B EQ PUSH2 0x124 JUMPI DUP1 PUSH4 0x6540F7E EQ PUSH2 0x13B JUMPI DUP1 PUSH4 0x71BD079 EQ PUSH2 0x166 JUMPI DUP1 PUSH4 0x12065FE0 EQ PUSH2 0x18F JUMPI DUP1 PUSH4 0x13BEA460 EQ PUSH2 0x1BA JUMPI JUMPDEST PUSH1 0x0 DUP1 REVERT JUMPDEST CALLVALUE DUP1 ISZERO PUSH2 0x130 JUMPI PUSH1 0x0 DUP1 REVERT JUMPDEST POP PUSH2 0x139 PUSH2 0x42F JUMP JUMPDEST STOP JUMPDEST CALLVALUE DUP1 ISZERO PUSH2 0x147 JUMPI PUSH1 0x0 DUP1 REVERT JUMPDEST POP PUSH2 0x150 PUSH2 0x446 JUMP JUMPDEST PUSH1 0x40 MLOAD PUSH2 0x15D SWAP2 SWAP1 PUSH2 0xAF5 JUMP JUMPDEST PUSH1 0x40 MLOAD DUP1 SWAP2 SUB SWAP1 RETURN JUMPDEST CALLVALUE DUP1 ISZERO PUSH2 0x172 JUMPI PUSH1 0x0 DUP1 REVERT JUMPDEST POP PUSH2 0x18D PUSH1 0x4 DUP1 CALLDATASIZE SUB DUP2 ADD SWAP1 PUSH2 0x188 SWAP2 SWAP1 PUSH2 0x9A7 JUMP JUMPDEST PUSH2 0x44C JUMP JUMPDEST STOP JUMPDEST CALLVALUE DUP1 ISZERO PUSH2 0x19B JUMPI PUSH1 0x0 DUP1 REVERT JUMPDEST POP PUSH2 0x1A4 PUSH2 0x4B7 JUMP JUMPDEST PUSH1 0x40 MLOAD PUSH2 0x1B1 SWAP2 SWAP1 PUSH2 0xAF5 JUMP JUMPDEST PUSH1 0x40 MLOAD DUP1 SWAP2 SUB SWAP1 RETURN JUMPDEST PUSH2 0x1C2 PUSH2 0x4F7 JUMP JUMPDEST STOP JUMPDEST CALLVALUE DUP1 ISZERO PUSH2 0x1D0 JUMPI PUSH1 0x0 DUP1 REVERT JUMPDEST POP PUSH2 0x1D9 PUSH2 0x53D JUMP JUMPDEST PUSH1 0x40 MLOAD PUSH2 0x1E6 SWAP2 SWAP1 PUSH2 0xA9D JUMP JUMPDEST PUSH1 0x40 MLOAD DUP1 SWAP2 SUB SWAP1 RETURN JUMPDEST CALLVALUE DUP1 ISZERO PUSH2 0x1FB JUMPI PUSH1 0x0 DUP1 REVERT JUMPDEST POP PUSH2 0x204 PUSH2 0x543 JUMP JUMPDEST STOP JUMPDEST CALLVALUE DUP1 ISZERO PUSH2 0x212 JUMPI PUSH1 0x0 DUP1 REVERT JUMPDEST POP PUSH2 0x21B PUSH2 0x577 JUMP JUMPDEST PUSH1 0x40 MLOAD PUSH2 0x228 SWAP2 SWAP1 PUSH2 0xB10 JUMP JUMPDEST PUSH1 0x40 MLOAD DUP1 SWAP2 SUB SWAP1 RETURN JUMPDEST CALLVALUE DUP1 ISZERO PUSH2 0x23D JUMPI PUSH1 0x0 DUP1 REVERT JUMPDEST POP PUSH2 0x246 PUSH2 0x58A JUMP JUMPDEST PUSH1 0x40 MLOAD PUSH2 0x253 SWAP2 SWAP1 PUSH2 0xAF5 JUMP JUMPDEST PUSH1 0x40 MLOAD DUP1 SWAP2 SUB SWAP1 RETURN JUMPDEST CALLVALUE DUP1 ISZERO PUSH2 0x268 JUMPI PUSH1 0x0 DUP1 REVERT JUMPDEST POP PUSH2 0x271 PUSH2 0x590 JUMP JUMPDEST PUSH1 0x40 MLOAD PUSH2 0x27E SWAP2 SWAP1 PUSH2 0xAF5 JUMP JUMPDEST PUSH1 0x40 MLOAD DUP1 SWAP2 SUB SWAP1 RETURN JUMPDEST CALLVALUE DUP1 ISZERO PUSH2 0x293 JUMPI PUSH1 0x0 DUP1 REVERT JUMPDEST POP PUSH2 0x29C PUSH2 0x596 JUMP JUMPDEST PUSH1 0x40 MLOAD PUSH2 0x2A9 SWAP2 SWAP1 PUSH2 0xAD3 JUMP JUMPDEST PUSH1 0x40 MLOAD DUP1 SWAP2 SUB SWAP1 RETURN JUMPDEST CALLVALUE DUP1 ISZERO PUSH2 0x2BE JUMPI PUSH1 0x0 DUP1 REVERT JUMPDEST POP PUSH2 0x2C7 PUSH2 0x624 JUMP JUMPDEST PUSH1 0x40 MLOAD PUSH2 0x2D4 SWAP2 SWAP1 PUSH2 0xA82 JUMP JUMPDEST PUSH1 0x40 MLOAD DUP1 SWAP2 SUB SWAP1 RETURN JUMPDEST CALLVALUE DUP1 ISZERO PUSH2 0x2E9 JUMPI PUSH1 0x0 DUP1 REVERT JUMPDEST POP PUSH2 0x2F2 PUSH2 0x637 JUMP JUMPDEST PUSH1 0x40 MLOAD PUSH2 0x2FF SWAP2 SWAP1 PUSH2 0xAB8 JUMP JUMPDEST PUSH1 0x40 MLOAD DUP1 SWAP2 SUB SWAP1 RETURN JUMPDEST CALLVALUE DUP1 ISZERO PUSH2 0x314 JUMPI PUSH1 0x0 DUP1 REVERT JUMPDEST POP PUSH2 0x31D PUSH2 0x64A JUMP JUMPDEST STOP JUMPDEST CALLVALUE DUP1 ISZERO PUSH2 0x32B JUMPI PUSH1 0x0 DUP1 REVERT JUMPDEST POP PUSH2 0x346 PUSH1 0x4 DUP1 CALLDATASIZE SUB DUP2 ADD SWAP1 PUSH2 0x341 SWAP2 SWAP1 PUSH2 0x931 JUMP JUMPDEST PUSH2 0x6D8 JUMP JUMPDEST STOP JUMPDEST CALLVALUE DUP1 ISZERO PUSH2 0x354 JUMPI PUSH1 0x0 DUP1 REVERT JUMPDEST POP PUSH2 0x35D PUSH2 0x6E8 JUMP JUMPDEST PUSH1 0x40 MLOAD PUSH2 0x36A SWAP2 SWAP1 PUSH2 0xA67 JUMP JUMPDEST PUSH1 0x40 MLOAD DUP1 SWAP2 SUB SWAP1 RETURN JUMPDEST CALLVALUE DUP1 ISZERO PUSH2 0x37F JUMPI PUSH1 0x0 DUP1 REVERT JUMPDEST POP PUSH2 0x39A PUSH1 0x4 DUP1 CALLDATASIZE SUB DUP2 ADD SWAP1 PUSH2 0x395 SWAP2 SWAP1 PUSH2 0x95E JUMP JUMPDEST PUSH2 0x70E JUMP JUMPDEST STOP JUMPDEST CALLVALUE DUP1 ISZERO PUSH2 0x3A8 JUMPI PUSH1 0x0 DUP1 REVERT JUMPDEST POP PUSH2 0x3C3 PUSH1 0x4 DUP1 CALLDATASIZE SUB DUP2 ADD SWAP1 PUSH2 0x3BE SWAP2 SWAP1 PUSH2 0x904 JUMP JUMPDEST PUSH2 0x763 JUMP JUMPDEST PUSH1 0x40 MLOAD PUSH2 0x3D0 SWAP2 SWAP1 PUSH2 0xAF5 JUMP JUMPDEST PUSH1 0x40 MLOAD DUP1 SWAP2 SUB SWAP1 RETURN JUMPDEST CALLVALUE DUP1 ISZERO PUSH2 0x3E5 JUMPI PUSH1 0x0 DUP1 REVERT JUMPDEST POP PUSH2 0x3EE PUSH2 0x77B JUMP JUMPDEST PUSH1 0x40 MLOAD PUSH2 0x3FB SWAP2 SWAP1 PUSH2 0xA67 JUMP JUMPDEST PUSH1 0x40 MLOAD DUP1 SWAP2 SUB SWAP1 RETURN JUMPDEST CALLVALUE DUP1 ISZERO PUSH2 0x410 JUMPI PUSH1 0x0 DUP1 REVERT JUMPDEST POP PUSH2 0x419 PUSH2 0x79F JUMP JUMPDEST PUSH1 0x40 MLOAD PUSH2 0x426 SWAP2 SWAP1 PUSH2 0xB10 JUMP JUMPDEST PUSH1 0x40 MLOAD DUP1 SWAP2 SUB SWAP1 RETURN JUMPDEST PUSH1 0x0 PUSH1 0xFF AND PUSH1 0x3 DUP2 SWAP1 SSTORE POP PUSH1 0xFF DUP1 AND PUSH1 0x4 DUP2 SWAP1 SSTORE POP JUMP JUMPDEST PUSH1 0x5 SLOAD DUP2 JUMP JUMPDEST PUSH1 0x0 PUSH1 0x2A SWAP1 POP PUSH1 0x1 DUP2 PUSH2 0x45F SWAP2 SWAP1 PUSH2 0xB9D JUMP JUMPDEST POP PUSH1 0x1 DUP2 PUSH2 0x46D SWAP2 SWAP1 PUSH2 0xDEF JUMP JUMPDEST POP PUSH1 0x2 DUP2 PUSH2 0x47B SWAP2 SWAP1 PUSH2 0xD95 JUMP JUMPDEST POP PUSH1 0x2 DUP2 PUSH2 0x489 SWAP2 SWAP1 PUSH2 0xBF3 JUMP JUMPDEST POP PUSH1 0x3 DUP2 PUSH2 0x497 SWAP2 SWAP1 PUSH2 0xC77 JUMP JUMPDEST POP PUSH1 0x3 DUP2 PUSH2 0x4A5 SWAP2 SWAP1 PUSH2 0xF34 JUMP JUMPDEST POP PUSH1 0x7 SLOAD PUSH2 0x4B2 SWAP1 PUSH2 0xF65 JUMP JUMPDEST POP POP POP JUMP JUMPDEST PUSH1 0x0 DUP1 PUSH1 0x0 SWAP1 SLOAD SWAP1 PUSH2 0x100 EXP SWAP1 DIV PUSH20 0xFFFFFFFFFFFFFFFFFFFFFFFFFFFFFFFFFFFFFFFF AND PUSH20 0xFFFFFFFFFFFFFFFFFFFFFFFFFFFFFFFFFFFFFFFF AND BALANCE SWAP1 POP SWAP1 JUMP JUMPDEST CALLVALUE PUSH1 0x9 PUSH1 0x0 CALLER PUSH20 0xFFFFFFFFFFFFFFFFFFFFFFFFFFFFFFFFFFFFFFFF AND PUSH20 0xFFFFFFFFFFFFFFFFFFFFFFFFFFFFFFFFFFFFFFFF AND DUP2 MSTORE PUSH1 0x20 ADD SWAP1 DUP2 MSTORE PUSH1 0x20 ADD PUSH1 0x0 KECCAK256 DUP2 SWAP1 SSTORE POP JUMP JUMPDEST PUSH1 0x7 SLOAD DUP2 JUMP JUMPDEST PUSH1 0x2 PUSH1 0x0 DUP2 DUP2 SWAP1 SLOAD SWAP1 PUSH2 0x100 EXP SWAP1 DIV PUSH1 0xFF AND DUP1 SWAP3 SWAP2 SWAP1 PUSH1 0x1 ADD SWAP2 SWAP1 PUSH2 0x100 EXP DUP2 SLOAD DUP2 PUSH1 0xFF MUL NOT AND SWAP1 DUP4 PUSH1 0xFF AND MUL OR SWAP1 SSTORE POP POP JUMP JUMPDEST PUSH1 0x6 PUSH1 0x0 SWAP1 SLOAD SWAP1 PUSH2 0x100 EXP SWAP1 DIV PUSH1 0xFF AND DUP2 JUMP JUMPDEST PUSH1 0x4 SLOAD DUP2 JUMP JUMPDEST PUSH1 0x3 SLOAD DUP2 JUMP JUMPDEST PUSH1 0x1 DUP1 SLOAD PUSH2 0x5A3 SWAP1 PUSH2 0xED1 JUMP JUMPDEST DUP1 PUSH1 0x1F ADD PUSH1 0x20 DUP1 SWAP2 DIV MUL PUSH1 0x20 ADD PUSH1 0x40 MLOAD SWAP1 DUP2 ADD PUSH1 0x40 MSTORE DUP1 SWAP3 SWAP2 SWAP1 DUP2 DUP2 MSTORE PUSH1 0x20 ADD DUP3 DUP1 SLOAD PUSH2 0x5CF SWAP1 PUSH2 0xED1 JUMP JUMPDEST DUP1 ISZERO PUSH2 0x61C JUMPI DUP1 PUSH1 0x1F LT PUSH2 0x5F1 JUMPI PUSH2 0x100 DUP1 DUP4 SLOAD DIV MUL DUP4 MSTORE SWAP2 PUSH1 0x20 ADD SWAP2 PUSH2 0x61C JUMP JUMPDEST DUP3 ADD SWAP2 SWAP1 PUSH1 0x0 MSTORE PUSH1 0x20 PUSH1 0x0 KECCAK256 SWAP1 JUMPDEST DUP2 SLOAD DUP2 MSTORE SWAP1 PUSH1 0x1 ADD SWAP1 PUSH1 0x20 ADD DUP1 DUP4 GT PUSH2 0x5FF JUMPI DUP3 SWAP1 SUB PUSH1 0x1F AND DUP3 ADD SWAP2 JUMPDEST POP POP POP POP POP DUP2 JUMP JUMPDEST PUSH1 0x8 PUSH1 0x1 SWAP1 SLOAD SWAP1 PUSH2 0x100 EXP SWAP1 DIV PUSH1 0xFF AND DUP2 JUMP JUMPDEST PUSH1 0x8 PUSH1 0x0 SWAP1 SLOAD SWAP1 PUSH2 0x100 EXP SWAP1 DIV PUSH1 0x0 SIGNEXTEND DUP2 JUMP JUMPDEST PUSH1 0x0 PUSH1 0x8 PUSH1 0x2 SWAP1 SLOAD SWAP1 PUSH2 0x100 EXP SWAP1 DIV PUSH20 0xFFFFFFFFFFFFFFFFFFFFFFFFFFFFFFFFFFFFFFFF AND SWAP1 POP PUSH1 0x0 ADDRESS SWAP1 POP DUP2 PUSH20 0xFFFFFFFFFFFFFFFFFFFFFFFFFFFFFFFFFFFFFFFF AND PUSH2 0x8FC DUP3 PUSH20 0xFFFFFFFFFFFFFFFFFFFFFFFFFFFFFFFFFFFFFFFF AND BALANCE SWAP1 DUP2 ISZERO MUL SWAP1 PUSH1 0x40 MLOAD PUSH1 0x0 PUSH1 0x40 MLOAD DUP1 DUP4 SUB DUP2 DUP6 DUP9 DUP9 CALL SWAP4 POP POP POP POP ISZERO DUP1 ISZERO PUSH2 0x6D3 JUMPI RETURNDATASIZE PUSH1 0x0 DUP1 RETURNDATACOPY RETURNDATASIZE PUSH1 0x0 REVERT JUMPDEST POP POP POP JUMP JUMPDEST PUSH1 0x0 DUP2 DUP1 PUSH2 0x6E3 JUMPI POP DUP1 JUMPDEST POP POP POP JUMP JUMPDEST PUSH1 0x8 PUSH1 0x2 SWAP1 SLOAD SWAP1 PUSH2 0x100 EXP SWAP1 DIV PUSH20 0xFFFFFFFFFFFFFFFFFFFFFFFFFFFFFFFFFFFFFFFF AND DUP2 JUMP JUMPDEST PUSH1 0x0 PUSH1 0x40 MLOAD DUP1 PUSH1 0x40 ADD PUSH1 0x40 MSTORE DUP1 PUSH1 0x4 DUP2 MSTORE PUSH1 0x20 ADD PUSH32 0x74656D7000000000000000000000000000000000000000000000000000000000 DUP2 MSTORE POP SWAP1 POP DUP2 PUSH1 0x1 SWAP1 DUP1 MLOAD SWAP1 PUSH1 0x20 ADD SWAP1 PUSH2 0x75E SWAP3 SWAP2 SWAP1 PUSH2 0x7B2 JUMP JUMPDEST POP POP POP JUMP JUMPDEST PUSH1 0x9 PUSH1 0x20 MSTORE DUP1 PUSH1 0x0 MSTORE PUSH1 0x40 PUSH1 0x0 KECCAK256 PUSH1 0x0 SWAP2 POP SWAP1 POP SLOAD DUP2 JUMP JUMPDEST PUSH1 0x0 DUP1 SLOAD SWAP1 PUSH2 0x100 EXP SWAP1 DIV PUSH20 0xFFFFFFFFFFFFFFFFFFFFFFFFFFFFFFFFFFFFFFFF AND DUP2 JUMP JUMPDEST PUSH1 0x2 PUSH1 0x0 SWAP1 SLOAD SWAP1 PUSH2 0x100 EXP SWAP1 DIV PUSH1 0xFF AND DUP2 JUMP JUMPDEST DUP3 DUP1 SLOAD PUSH2 0x7BE SWAP1 PUSH2 0xED1 JUMP JUMPDEST SWAP1 PUSH1 0x0 MSTORE PUSH1 0x20 PUSH1 0x0 KECCAK256 SWAP1 PUSH1 0x1F ADD PUSH1 0x20 SWAP1 DIV DUP2 ADD SWAP3 DUP3 PUSH2 0x7E0 JUMPI PUSH1 0x0 DUP6 SSTORE PUSH2 0x827 JUMP JUMPDEST DUP3 PUSH1 0x1F LT PUSH2 0x7F9 JUMPI DUP1 MLOAD PUSH1 0xFF NOT AND DUP4 DUP1 ADD OR DUP6 SSTORE PUSH2 0x827 JUMP JUMPDEST DUP3 DUP1 ADD PUSH1 0x1 ADD DUP6 SSTORE DUP3 ISZERO PUSH2 0x827 JUMPI SWAP2 DUP3 ADD JUMPDEST DUP3 DUP2 GT ISZERO PUSH2 0x826 JUMPI DUP3 MLOAD DUP3 SSTORE SWAP2 PUSH1 0x20 ADD SWAP2 SWAP1 PUSH1 0x1 ADD SWAP1 PUSH2 0x80B JUMP JUMPDEST JUMPDEST POP SWAP1 POP PUSH2 0x834 SWAP2 SWAP1 PUSH2 0x838 JUMP JUMPDEST POP SWAP1 JUMP JUMPDEST JUMPDEST DUP1 DUP3 GT ISZERO PUSH2 0x851 JUMPI PUSH1 0x0 DUP2 PUSH1 0x0 SWAP1 SSTORE POP PUSH1 0x1 ADD PUSH2 0x839 JUMP JUMPDEST POP SWAP1 JUMP JUMPDEST PUSH1 0x0 PUSH2 0x868 PUSH2 0x863 DUP5 PUSH2 0xB50 JUMP JUMPDEST PUSH2 0xB2B JUMP JUMPDEST SWAP1 POP DUP3 DUP2 MSTORE PUSH1 0x20 DUP2 ADD DUP5 DUP5 DUP5 ADD GT ISZERO PUSH2 0x884 JUMPI PUSH2 0x883 PUSH2 0x106F JUMP JUMPDEST JUMPDEST PUSH2 0x88F DUP5 DUP3 DUP6 PUSH2 0xE8F JUMP JUMPDEST POP SWAP4 SWAP3 POP POP POP JUMP JUMPDEST PUSH1 0x0 DUP2 CALLDATALOAD SWAP1 POP PUSH2 0x8A6 DUP2 PUSH2 0x109C JUMP JUMPDEST SWAP3 SWAP2 POP POP JUMP JUMPDEST PUSH1 0x0 DUP2 CALLDATALOAD SWAP1 POP PUSH2 0x8BB DUP2 PUSH2 0x10B3 JUMP JUMPDEST SWAP3 SWAP2 POP POP JUMP JUMPDEST PUSH1 0x0 DUP3 PUSH1 0x1F DUP4 ADD SLT PUSH2 0x8D6 JUMPI PUSH2 0x8D5 PUSH2 0x106A JUMP JUMPDEST JUMPDEST DUP2 CALLDATALOAD PUSH2 0x8E6 DUP5 DUP3 PUSH1 0x20 DUP7 ADD PUSH2 0x855 JUMP JUMPDEST SWAP2 POP POP SWAP3 SWAP2 POP POP JUMP JUMPDEST PUSH1 0x0 DUP2 CALLDATALOAD SWAP1 POP PUSH2 0x8FE DUP2 PUSH2 0x10CA JUMP JUMPDEST SWAP3 SWAP2 POP POP JUMP JUMPDEST PUSH1 0x0 PUSH1 0x20 DUP3 DUP5 SUB SLT ISZERO PUSH2 0x91A JUMPI PUSH2 0x919 PUSH2 0x1079 JUMP JUMPDEST JUMPDEST PUSH1 0x0 PUSH2 0x928 DUP5 DUP3 DUP6 ADD PUSH2 0x897 JUMP JUMPDEST SWAP2 POP POP SWAP3 SWAP2 POP POP JUMP JUMPDEST PUSH1 0x0 PUSH1 0x20 DUP3 DUP5 SUB SLT ISZERO PUSH2 0x947 JUMPI PUSH2 0x946 PUSH2 0x1079 JUMP JUMPDEST JUMPDEST PUSH1 0x0 PUSH2 0x955 DUP5 DUP3 DUP6 ADD PUSH2 0x8AC JUMP JUMPDEST SWAP2 POP POP SWAP3 SWAP2 POP POP JUMP JUMPDEST PUSH1 0x0 PUSH1 0x20 DUP3 DUP5 SUB SLT ISZERO PUSH2 0x974 JUMPI PUSH2 0x973 PUSH2 0x1079 JUMP JUMPDEST JUMPDEST PUSH1 0x0 DUP3 ADD CALLDATALOAD PUSH8 0xFFFFFFFFFFFFFFFF DUP2 GT ISZERO PUSH2 0x992 JUMPI PUSH2 0x991 PUSH2 0x1074 JUMP JUMPDEST JUMPDEST PUSH2 0x99E DUP5 DUP3 DUP6 ADD PUSH2 0x8C1 JUMP JUMPDEST SWAP2 POP POP SWAP3 SWAP2 POP POP JUMP JUMPDEST PUSH1 0x0 PUSH1 0x20 DUP3 DUP5 SUB SLT ISZERO PUSH2 0x9BD JUMPI PUSH2 0x9BC PUSH2 0x1079 JUMP JUMPDEST JUMPDEST PUSH1 0x0 PUSH2 0x9CB DUP5 DUP3 DUP6 ADD PUSH2 0x8EF JUMP JUMPDEST SWAP2 POP POP SWAP3 SWAP2 POP POP JUMP JUMPDEST PUSH2 0x9DD DUP2 PUSH2 0xE23 JUMP JUMPDEST DUP3 MSTORE POP POP JUMP JUMPDEST PUSH2 0x9EC DUP2 PUSH2 0xE35 JUMP JUMPDEST DUP3 MSTORE POP POP JUMP JUMPDEST PUSH2 0x9FB DUP2 PUSH2 0xE41 JUMP JUMPDEST DUP3 MSTORE POP POP JUMP JUMPDEST PUSH2 0xA0A DUP2 PUSH2 0xE4B JUMP JUMPDEST DUP3 MSTORE POP POP JUMP JUMPDEST PUSH1 0x0 PUSH2 0xA1B DUP3 PUSH2 0xB81 JUMP JUMPDEST PUSH2 0xA25 DUP2 DUP6 PUSH2 0xB8C JUMP JUMPDEST SWAP4 POP PUSH2 0xA35 DUP2 DUP6 PUSH1 0x20 DUP7 ADD PUSH2 0xE9E JUMP JUMPDEST PUSH2 0xA3E DUP2 PUSH2 0x107E JUMP JUMPDEST DUP5 ADD SWAP2 POP POP SWAP3 SWAP2 POP POP JUMP JUMPDEST PUSH2 0xA52 DUP2 PUSH2 0xE78 JUMP JUMPDEST DUP3 MSTORE POP POP JUMP JUMPDEST PUSH2 0xA61 DUP2 PUSH2 0xE82 JUMP JUMPDEST DUP3 MSTORE POP POP JUMP JUMPDEST PUSH1 0x0 PUSH1 0x20 DUP3 ADD SWAP1 POP PUSH2 0xA7C PUSH1 0x0 DUP4 ADD DUP5 PUSH2 0x9D4 JUMP JUMPDEST SWAP3 SWAP2 POP POP JUMP JUMPDEST PUSH1 0x0 PUSH1 0x20 DUP3 ADD SWAP1 POP PUSH2 0xA97 PUSH1 0x0 DUP4 ADD DUP5 PUSH2 0x9E3 JUMP JUMPDEST SWAP3 SWAP2 POP POP JUMP JUMPDEST PUSH1 0x0 PUSH1 0x20 DUP3 ADD SWAP1 POP PUSH2 0xAB2 PUSH1 0x0 DUP4 ADD DUP5 PUSH2 0x9F2 JUMP JUMPDEST SWAP3 SWAP2 POP POP JUMP JUMPDEST PUSH1 0x0 PUSH1 0x20 DUP3 ADD SWAP1 POP PUSH2 0xACD PUSH1 0x0 DUP4 ADD DUP5 PUSH2 0xA01 JUMP JUMPDEST SWAP3 SWAP2 POP POP JUMP JUMPDEST PUSH1 0x0 PUSH1 0x20 DUP3 ADD SWAP1 POP DUP2 DUP2 SUB PUSH1 0x0 DUP4 ADD MSTORE PUSH2 0xAED DUP2 DUP5 PUSH2 0xA10 JUMP JUMPDEST SWAP1 POP SWAP3 SWAP2 POP POP JUMP JUMPDEST PUSH1 0x0 PUSH1 0x20 DUP3 ADD SWAP1 POP PUSH2 0xB0A PUSH1 0x0 DUP4 ADD DUP5 PUSH2 0xA49 JUMP JUMPDEST SWAP3 SWAP2 POP POP JUMP JUMPDEST PUSH1 0x0 PUSH1 0x20 DUP3 ADD SWAP1 POP PUSH2 0xB25 PUSH1 0x0 DUP4 ADD DUP5 PUSH2 0xA58 JUMP JUMPDEST SWAP3 SWAP2 POP POP JUMP JUMPDEST PUSH1 0x0 PUSH2 0xB35 PUSH2 0xB46 JUMP JUMPDEST SWAP1 POP PUSH2 0xB41 DUP3 DUP3 PUSH2 0xF03 JUMP JUMPDEST SWAP2 SWAP1 POP JUMP JUMPDEST PUSH1 0x0 PUSH1 0x40 MLOAD SWAP1 POP SWAP1 JUMP JUMPDEST PUSH1 0x0 PUSH8 0xFFFFFFFFFFFFFFFF DUP3 GT ISZERO PUSH2 0xB6B JUMPI PUSH2 0xB6A PUSH2 0x103B JUMP JUMPDEST JUMPDEST PUSH2 0xB74 DUP3 PUSH2 0x107E JUMP JUMPDEST SWAP1 POP PUSH1 0x20 DUP2 ADD SWAP1 POP SWAP2 SWAP1 POP JUMP JUMPDEST PUSH1 0x0 DUP2 MLOAD SWAP1 POP SWAP2 SWAP1 POP JUMP JUMPDEST PUSH1 0x0 DUP3 DUP3 MSTORE PUSH1 0x20 DUP3 ADD SWAP1 POP SWAP3 SWAP2 POP POP JUMP JUMPDEST PUSH1 0x0 PUSH2 0xBA8 DUP3 PUSH2 0xE78 JUMP JUMPDEST SWAP2 POP PUSH2 0xBB3 DUP4 PUSH2 0xE78 JUMP JUMPDEST SWAP3 POP DUP3 PUSH32 0xFFFFFFFFFFFFFFFFFFFFFFFFFFFFFFFFFFFFFFFFFFFFFFFFFFFFFFFFFFFFFFFF SUB DUP3 GT ISZERO PUSH2 0xBE8 JUMPI PUSH2 0xBE7 PUSH2 0xFAE JUMP JUMPDEST JUMPDEST DUP3 DUP3 ADD SWAP1 POP SWAP3 SWAP2 POP POP JUMP JUMPDEST PUSH1 0x0 PUSH2 0xBFE DUP3 PUSH2 0xE78 JUMP JUMPDEST SWAP2 POP PUSH2 0xC09 DUP4 PUSH2 0xE78 JUMP JUMPDEST SWAP3 POP DUP3 PUSH2 0xC19 JUMPI PUSH2 0xC18 PUSH2 0xFDD JUMP JUMPDEST JUMPDEST DUP3 DUP3 DIV SWAP1 POP SWAP3 SWAP2 POP POP JUMP JUMPDEST PUSH1 0x0 DUP1 DUP3 SWAP2 POP DUP4 SWAP1 POP JUMPDEST PUSH1 0x1 DUP6 GT ISZERO PUSH2 0xC6E JUMPI DUP1 DUP7 DIV DUP2 GT ISZERO PUSH2 0xC4A JUMPI PUSH2 0xC49 PUSH2 0xFAE JUMP JUMPDEST JUMPDEST PUSH1 0x1 DUP6 AND ISZERO PUSH2 0xC59 JUMPI DUP1 DUP3 MUL SWAP2 POP JUMPDEST DUP1 DUP2 MUL SWAP1 POP PUSH2 0xC67 DUP6 PUSH2 0x108F JUMP JUMPDEST SWAP5 POP PUSH2 0xC2E JUMP JUMPDEST SWAP5 POP SWAP5 SWAP3 POP POP POP JUMP JUMPDEST PUSH1 0x0 PUSH2 0xC82 DUP3 PUSH2 0xE78 JUMP JUMPDEST SWAP2 POP PUSH2 0xC8D DUP4 PUSH2 0xE82 JUMP JUMPDEST SWAP3 POP PUSH2 0xCBA PUSH32 0xFFFFFFFFFFFFFFFFFFFFFFFFFFFFFFFFFFFFFFFFFFFFFFFFFFFFFFFFFFFFFFFF DUP5 DUP5 PUSH2 0xCC2 JUMP JUMPDEST SWAP1 POP SWAP3 SWAP2 POP POP JUMP JUMPDEST PUSH1 0x0 DUP3 PUSH2 0xCD2 JUMPI PUSH1 0x1 SWAP1 POP PUSH2 0xD8E JUMP JUMPDEST DUP2 PUSH2 0xCE0 JUMPI PUSH1 0x0 SWAP1 POP PUSH2 0xD8E JUMP JUMPDEST DUP2 PUSH1 0x1 DUP2 EQ PUSH2 0xCF6 JUMPI PUSH1 0x2 DUP2 EQ PUSH2 0xD00 JUMPI PUSH2 0xD2F JUMP JUMPDEST PUSH1 0x1 SWAP2 POP POP PUSH2 0xD8E JUMP JUMPDEST PUSH1 0xFF DUP5 GT ISZERO PUSH2 0xD12 JUMPI PUSH2 0xD11 PUSH2 0xFAE JUMP JUMPDEST JUMPDEST DUP4 PUSH1 0x2 EXP SWAP2 POP DUP5 DUP3 GT ISZERO PUSH2 0xD29 JUMPI PUSH2 0xD28 PUSH2 0xFAE JUMP JUMPDEST JUMPDEST POP PUSH2 0xD8E JUMP JUMPDEST POP PUSH1 0x20 DUP4 LT PUSH2 0x133 DUP4 LT AND PUSH1 0x4E DUP5 LT PUSH1 0xB DUP5 LT AND OR ISZERO PUSH2 0xD64 JUMPI DUP3 DUP3 EXP SWAP1 POP DUP4 DUP2 GT ISZERO PUSH2 0xD5F JUMPI PUSH2 0xD5E PUSH2 0xFAE JUMP JUMPDEST JUMPDEST PUSH2 0xD8E JUMP JUMPDEST PUSH2 0xD71 DUP5 DUP5 DUP5 PUSH1 0x1 PUSH2 0xC24 JUMP JUMPDEST SWAP3 POP SWAP1 POP DUP2 DUP5 DIV DUP2 GT ISZERO PUSH2 0xD88 JUMPI PUSH2 0xD87 PUSH2 0xFAE JUMP JUMPDEST JUMPDEST DUP2 DUP2 MUL SWAP1 POP JUMPDEST SWAP4 SWAP3 POP POP POP JUMP JUMPDEST PUSH1 0x0 PUSH2 0xDA0 DUP3 PUSH2 0xE78 JUMP JUMPDEST SWAP2 POP PUSH2 0xDAB DUP4 PUSH2 0xE78 JUMP JUMPDEST SWAP3 POP DUP2 PUSH32 0xFFFFFFFFFFFFFFFFFFFFFFFFFFFFFFFFFFFFFFFFFFFFFFFFFFFFFFFFFFFFFFFF DIV DUP4 GT DUP3 ISZERO ISZERO AND ISZERO PUSH2 0xDE4 JUMPI PUSH2 0xDE3 PUSH2 0xFAE JUMP JUMPDEST JUMPDEST DUP3 DUP3 MUL SWAP1 POP SWAP3 SWAP2 POP POP JUMP JUMPDEST PUSH1 0x0 PUSH2 0xDFA DUP3 PUSH2 0xE78 JUMP JUMPDEST SWAP2 POP PUSH2 0xE05 DUP4 PUSH2 0xE78 JUMP JUMPDEST SWAP3 POP DUP3 DUP3 LT ISZERO PUSH2 0xE18 JUMPI PUSH2 0xE17 PUSH2 0xFAE JUMP JUMPDEST JUMPDEST DUP3 DUP3 SUB SWAP1 POP SWAP3 SWAP2 POP POP JUMP JUMPDEST PUSH1 0x0 PUSH2 0xE2E DUP3 PUSH2 0xE58 JUMP JUMPDEST SWAP1 POP SWAP2 SWAP1 POP JUMP JUMPDEST PUSH1 0x0 DUP2 ISZERO ISZERO SWAP1 POP SWAP2 SWAP1 POP JUMP JUMPDEST PUSH1 0x0 DUP2 SWAP1 POP SWAP2 SWAP1 POP JUMP JUMPDEST PUSH1 0x0 DUP2 PUSH1 0x0 SIGNEXTEND SWAP1 POP SWAP2 SWAP1 POP JUMP JUMPDEST PUSH1 0x0 PUSH20 0xFFFFFFFFFFFFFFFFFFFFFFFFFFFFFFFFFFFFFFFF DUP3 AND SWAP1 POP SWAP2 SWAP1 POP JUMP JUMPDEST PUSH1 0x0 DUP2 SWAP1 POP SWAP2 SWAP1 POP JUMP JUMPDEST PUSH1 0x0 PUSH1 0xFF DUP3 AND SWAP1 POP SWAP2 SWAP1 POP JUMP JUMPDEST DUP3 DUP2 DUP4 CALLDATACOPY PUSH1 0x0 DUP4 DUP4 ADD MSTORE POP POP POP JUMP JUMPDEST PUSH1 0x0 JUMPDEST DUP4 DUP2 LT ISZERO PUSH2 0xEBC JUMPI DUP1 DUP3 ADD MLOAD DUP2 DUP5 ADD MSTORE PUSH1 0x20 DUP2 ADD SWAP1 POP PUSH2 0xEA1 JUMP JUMPDEST DUP4 DUP2 GT ISZERO PUSH2 0xECB JUMPI PUSH1 0x0 DUP5 DUP5 ADD MSTORE JUMPDEST POP POP POP POP JUMP JUMPDEST PUSH1 0x0 PUSH1 0x2 DUP3 DIV SWAP1 POP PUSH1 0x1 DUP3 AND DUP1 PUSH2 0xEE9 JUMPI PUSH1 0x7F DUP3 AND SWAP2 POP JUMPDEST PUSH1 0x20 DUP3 LT DUP2 EQ ISZERO PUSH2 0xEFD JUMPI PUSH2 0xEFC PUSH2 0x100C JUMP JUMPDEST JUMPDEST POP SWAP2 SWAP1 POP JUMP JUMPDEST PUSH2 0xF0C DUP3 PUSH2 0x107E JUMP JUMPDEST DUP2 ADD DUP2 DUP2 LT PUSH8 0xFFFFFFFFFFFFFFFF DUP3 GT OR ISZERO PUSH2 0xF2B JUMPI PUSH2 0xF2A PUSH2 0x103B JUMP JUMPDEST JUMPDEST DUP1 PUSH1 0x40 MSTORE POP POP POP JUMP JUMPDEST PUSH1 0x0 PUSH2 0xF3F DUP3 PUSH2 0xE78 JUMP JUMPDEST SWAP2 POP PUSH2 0xF4A DUP4 PUSH2 0xE78 JUMP JUMPDEST SWAP3 POP DUP3 PUSH2 0xF5A JUMPI PUSH2 0xF59 PUSH2 0xFDD JUMP JUMPDEST JUMPDEST DUP3 DUP3 MOD SWAP1 POP SWAP3 SWAP2 POP POP JUMP JUMPDEST PUSH1 0x0 PUSH2 0xF70 DUP3 PUSH2 0xE41 JUMP JUMPDEST SWAP2 POP PUSH32 0x8000000000000000000000000000000000000000000000000000000000000000 DUP3 EQ ISZERO PUSH2 0xFA3 JUMPI PUSH2 0xFA2 PUSH2 0xFAE JUMP JUMPDEST JUMPDEST DUP2 PUSH1 0x0 SUB SWAP1 POP SWAP2 SWAP1 POP JUMP JUMPDEST PUSH32 0x4E487B7100000000000000000000000000000000000000000000000000000000 PUSH1 0x0 MSTORE PUSH1 0x11 PUSH1 0x4 MSTORE PUSH1 0x24 PUSH1 0x0 REVERT JUMPDEST PUSH32 0x4E487B7100000000000000000000000000000000000000000000000000000000 PUSH1 0x0 MSTORE PUSH1 0x12 PUSH1 0x4 MSTORE PUSH1 0x24 PUSH1 0x0 REVERT JUMPDEST PUSH32 0x4E487B7100000000000000000000000000000000000000000000000000000000 PUSH1 0x0 MSTORE PUSH1 0x22 PUSH1 0x4 MSTORE PUSH1 0x24 PUSH1 0x0 REVERT JUMPDEST PUSH32 0x4E487B7100000000000000000000000000000000000000000000000000000000 PUSH1 0x0 MSTORE PUSH1 0x41 PUSH1 0x4 MSTORE PUSH1 0x24 PUSH1 0x0 REVERT JUMPDEST PUSH1 0x0 DUP1 REVERT JUMPDEST PUSH1 0x0 DUP1 REVERT JUMPDEST PUSH1 0x0 DUP1 REVERT JUMPDEST PUSH1 0x0 DUP1 REVERT JUMPDEST PUSH1 0x0 PUSH1 0x1F NOT PUSH1 0x1F DUP4 ADD AND SWAP1 POP SWAP2 SWAP1 POP JUMP JUMPDEST PUSH1 0x0 DUP2 PUSH1 0x1 SHR SWAP1 POP SWAP2 SWAP1 POP JUMP JUMPDEST PUSH2 0x10A5 DUP2 PUSH2 0xE23 JUMP JUMPDEST DUP2 EQ PUSH2 0x10B0 JUMPI PUSH1 0x0 DUP1 REVERT JUMPDEST POP JUMP JUMPDEST PUSH2 0x10BC DUP2 PUSH2 0xE35 JUMP JUMPDEST DUP2 EQ PUSH2 0x10C7 JUMPI PUSH1 0x0 DUP1 REVERT JUMPDEST POP JUMP JUMPDEST PUSH2 0x10D3 DUP2 PUSH2 0xE78 JUMP JUMPDEST DUP2 EQ PUSH2 0x10DE JUMPI PUSH1 0x0 DUP1 REVERT JUMPDEST POP JUMP INVALID LOG2 PUSH5 0x6970667358 0x22 SLT KECCAK256 MLOAD PUSH28 0x8137EF96B15EAAE0D62AB950BF255375C733528C7532B5155BE3FCAC 0xC1 BALANCE PUSH5 0x736F6C6343 STOP ADDMOD SMOD STOP CALLER "
				},
				"gasEstimates": {
					"creation": {
						"codeDepositCost": "875000",
						"executionCost": "infinite",
						"totalCost": "infinite"
					},
					"external": {
						"demo()": "27308",
						"demo(string)": "infinite",
						"demo(uint256)": "infinite",
						"getBalance()": "5169",
						"inc()": "26618",
						"maximum()": "2518",
						"minimum()": "2540",
						"myAddr()": "2599",
						"myBool()": "2566",
						"myFunc(bool)": "555",
						"myInt()": "2452",
						"mySmaillUint()": "2538",
						"mySmallInt()": "2542",
						"myStr()": "infinite",
						"myUint()": "2475",
						"myVal()": "2581",
						"owner()": "2586",
						"payForItem()": "22434",
						"payments(address)": "2880",
						"withdrawAll()": "infinite"
					}
				},
				"methodIdentifiers": {
					"demo()": "01725a0b",
					"demo(string)": "939a79ac",
					"demo(uint256)": "071bd079",
					"getBalance()": "12065fe0",
					"inc()": "371303c0",
					"maximum()": "52342f13",
					"minimum()": "52d6804d",
					"myAddr()": "e665b266",
					"myBool()": "6deecdbe",
					"myFunc(bool)": "8b36687e",
					"myInt()": "2cb777a6",
					"mySmaillUint()": "3891e899",
					"mySmallInt()": "7a28a513",
					"myStr()": "5a455c1c",
					"myUint()": "06540f7e",
					"myVal()": "ed32ca32",
					"owner()": "8da5cb5b",
					"payForItem()": "13bea460",
					"payments(address)": "e2982c21",
					"withdrawAll()": "853828b6"
				}
			},
			"storageLayout": {
				"storage": [
					{
						"astId": 4,
						"contract": "contracts/Demo.sol:MyShop",
						"label": "myAddr",
						"offset": 0,
						"slot": "0",
						"type": "t_address"
					},
					{
						"astId": 16,
						"contract": "contracts/Demo.sol:MyShop",
						"label": "myStr",
						"offset": 0,
						"slot": "1",
						"type": "t_string_storage"
					},
					{
						"astId": 33,
						"contract": "contracts/Demo.sol:MyShop",
						"label": "myVal",
						"offset": 0,
						"slot": "2",
						"type": "t_uint8"
					},
					{
						"astId": 43,
						"contract": "contracts/Demo.sol:MyShop",
						"label": "minimum",
						"offset": 0,
						"slot": "3",
						"type": "t_uint256"
					},
					{
						"astId": 45,
						"contract": "contracts/Demo.sol:MyShop",
						"label": "maximum",
						"offset": 0,
						"slot": "4",
						"type": "t_uint256"
					},
					{
						"astId": 68,
						"contract": "contracts/Demo.sol:MyShop",
						"label": "myUint",
						"offset": 0,
						"slot": "5",
						"type": "t_uint256"
					},
					{
						"astId": 71,
						"contract": "contracts/Demo.sol:MyShop",
						"label": "mySmaillUint",
						"offset": 0,
						"slot": "6",
						"type": "t_uint8"
					},
					{
						"astId": 128,
						"contract": "contracts/Demo.sol:MyShop",
						"label": "myInt",
						"offset": 0,
						"slot": "7",
						"type": "t_int256"
					},
					{
						"astId": 132,
						"contract": "contracts/Demo.sol:MyShop",
						"label": "mySmallInt",
						"offset": 0,
						"slot": "8",
						"type": "t_int8"
					},
					{
						"astId": 135,
						"contract": "contracts/Demo.sol:MyShop",
						"label": "myBool",
						"offset": 1,
						"slot": "8",
						"type": "t_bool"
					},
					{
						"astId": 137,
						"contract": "contracts/Demo.sol:MyShop",
						"label": "owner",
						"offset": 2,
						"slot": "8",
						"type": "t_address"
					},
					{
						"astId": 141,
						"contract": "contracts/Demo.sol:MyShop",
						"label": "payments",
						"offset": 0,
						"slot": "9",
						"type": "t_mapping(t_address,t_uint256)"
					}
				],
				"types": {
					"t_address": {
						"encoding": "inplace",
						"label": "address",
						"numberOfBytes": "20"
					},
					"t_bool": {
						"encoding": "inplace",
						"label": "bool",
						"numberOfBytes": "1"
					},
					"t_int256": {
						"encoding": "inplace",
						"label": "int256",
						"numberOfBytes": "32"
					},
					"t_int8": {
						"encoding": "inplace",
						"label": "int8",
						"numberOfBytes": "1"
					},
					"t_mapping(t_address,t_uint256)": {
						"encoding": "mapping",
						"key": "t_address",
						"label": "mapping(address => uint256)",
						"numberOfBytes": "32",
						"value": "t_uint256"
					},
					"t_string_storage": {
						"encoding": "bytes",
						"label": "string",
						"numberOfBytes": "32"
					},
					"t_uint256": {
						"encoding": "inplace",
						"label": "uint256",
						"numberOfBytes": "32"
					},
					"t_uint8": {
						"encoding": "inplace",
						"label": "uint8",
						"numberOfBytes": "1"
					}
				}
			},
			"userdoc": {
				"kind": "user",
				"methods": {},
				"version": 1
			}
		}
	}
}