{
	"contracts/Demo.sol": {
		"MyShop": {
			"abi": [
				{
					"inputs": [],
					"stateMutability": "nonpayable",
					"type": "constructor"
				},
				{
					"inputs": [],
					"name": "demo",
					"outputs": [],
					"stateMutability": "nonpayable",
					"type": "function"
				},
				{
					"inputs": [
						{
							"internalType": "uint256",
							"name": "_inputUint",
							"type": "uint256"
						}
					],
					"name": "demo",
					"outputs": [],
					"stateMutability": "nonpayable",
					"type": "function"
				},
				{
					"inputs": [
						{
							"internalType": "string",
							"name": "newValueStr",
							"type": "string"
						}
					],
					"name": "demo",
					"outputs": [],
					"stateMutability": "nonpayable",
					"type": "function"
				},
				{
					"inputs": [
						{
							"internalType": "address",
							"name": "targetAddr",
							"type": "address"
						}
					],
					"name": "getBalance",
					"outputs": [
						{
							"internalType": "uint256",
							"name": "",
							"type": "uint256"
						}
					],
					"stateMutability": "view",
					"type": "function"
				},
				{
					"inputs": [],
					"name": "inc",
					"outputs": [],
					"stateMutability": "nonpayable",
					"type": "function"
				},
				{
					"inputs": [],
					"name": "maximum",
					"outputs": [
						{
							"internalType": "uint256",
							"name": "",
							"type": "uint256"
						}
					],
					"stateMutability": "view",
					"type": "function"
				},
				{
					"inputs": [],
					"name": "minimum",
					"outputs": [
						{
							"internalType": "uint256",
							"name": "",
							"type": "uint256"
						}
					],
					"stateMutability": "view",
					"type": "function"
				},
				{
					"inputs": [],
					"name": "myAddr",
					"outputs": [
						{
							"internalType": "address",
							"name": "",
							"type": "address"
						}
					],
					"stateMutability": "view",
					"type": "function"
				},
				{
					"inputs": [],
					"name": "myBool",
					"outputs": [
						{
							"internalType": "bool",
							"name": "",
							"type": "bool"
						}
					],
					"stateMutability": "view",
					"type": "function"
				},
				{
					"inputs": [
						{
							"internalType": "bool",
							"name": "_inputBool",
							"type": "bool"
						}
					],
					"name": "myFunc",
					"outputs": [],
					"stateMutability": "nonpayable",
					"type": "function"
				},
				{
					"inputs": [],
					"name": "myInt",
					"outputs": [
						{
							"internalType": "int256",
							"name": "",
							"type": "int256"
						}
					],
					"stateMutability": "view",
					"type": "function"
				},
				{
					"inputs": [],
					"name": "mySmaillUint",
					"outputs": [
						{
							"internalType": "uint8",
							"name": "",
							"type": "uint8"
						}
					],
					"stateMutability": "view",
					"type": "function"
				},
				{
					"inputs": [],
					"name": "mySmallInt",
					"outputs": [
						{
							"internalType": "int8",
							"name": "",
							"type": "int8"
						}
					],
					"stateMutability": "view",
					"type": "function"
				},
				{
					"inputs": [],
					"name": "myStr",
					"outputs": [
						{
							"internalType": "string",
							"name": "",
							"type": "string"
						}
					],
					"stateMutability": "view",
					"type": "function"
				},
				{
					"inputs": [],
					"name": "myUint",
					"outputs": [
						{
							"internalType": "uint256",
							"name": "",
							"type": "uint256"
						}
					],
					"stateMutability": "view",
					"type": "function"
				},
				{
					"inputs": [],
					"name": "myVal",
					"outputs": [
						{
							"internalType": "uint8",
							"name": "",
							"type": "uint8"
						}
					],
					"stateMutability": "view",
					"type": "function"
				},
				{
					"inputs": [],
					"name": "owner",
					"outputs": [
						{
							"internalType": "address",
							"name": "",
							"type": "address"
						}
					],
					"stateMutability": "view",
					"type": "function"
				},
				{
					"inputs": [],
					"name": "payForItem",
					"outputs": [],
					"stateMutability": "payable",
					"type": "function"
				},
				{
					"inputs": [
						{
							"internalType": "address",
							"name": "",
							"type": "address"
						}
					],
					"name": "payments",
					"outputs": [
						{
							"internalType": "uint256",
							"name": "",
							"type": "uint256"
						}
					],
					"stateMutability": "view",
					"type": "function"
				},
				{
					"inputs": [],
					"name": "receiveFunds",
					"outputs": [],
					"stateMutability": "payable",
					"type": "function"
				},
				{
					"inputs": [
						{
							"internalType": "address",
							"name": "targetAddr",
							"type": "address"
						},
						{
							"internalType": "uint256",
							"name": "amount",
							"type": "uint256"
						}
					],
					"name": "transferTo",
					"outputs": [],
					"stateMutability": "nonpayable",
					"type": "function"
				},
				{
					"inputs": [],
					"name": "withdrawAll",
					"outputs": [],
					"stateMutability": "nonpayable",
					"type": "function"
				}
			],
			"devdoc": {
				"kind": "dev",
				"methods": {},
				"version": 1
			},
			"evm": {
				"assembly": "    /* \"contracts/Demo.sol\":62:2933  contract MyShop {\r... */\n  mstore(0x40, 0x80)\n    /* \"contracts/Demo.sol\":161:203  0x5B38Da6a701c568545dCfcB03FcB875f56beddC4 */\n  0x5b38da6a701c568545dcfcb03fcb875f56beddc4\n    /* \"contracts/Demo.sol\":137:203  address public myAddr = 0x5B38Da6a701c568545dCfcB03FcB875f56beddC4 */\n  0x01\n  exp(0x0100, 0x00)\n  dup2\n  sload\n  dup2\n  0xffffffffffffffffffffffffffffffffffffffff\n  mul\n  not\n  and\n  swap1\n  dup4\n  0xffffffffffffffffffffffffffffffffffffffff\n  and\n  mul\n  or\n  swap1\n  sstore\n  pop\n    /* \"contracts/Demo.sol\":761:789  string public myStr = \"test\" */\n  mload(0x40)\n  dup1\n  0x40\n  add\n  0x40\n  mstore\n  dup1\n  0x04\n  dup2\n  mstore\n  0x20\n  add\n  0x7465737400000000000000000000000000000000000000000000000000000000\n  dup2\n  mstore\n  pop\n  0x02\n  swap1\n  dup1\n  mload\n  swap1\n  0x20\n  add\n  swap1\n  tag_1\n  swap3\n  swap2\n  swap1\n  tag_2\n  jump\t// in\ntag_1:\n  pop\n    /* \"contracts/Demo.sol\":1051:1054  254 */\n  0xfe\n    /* \"contracts/Demo.sol\":1030:1054  uint8 public myVal = 254 */\n  0x03\n  exp(0x0100, 0x00)\n  dup2\n  sload\n  dup2\n  0xff\n  mul\n  not\n  and\n  swap1\n  dup4\n  0xff\n  and\n  mul\n  or\n  swap1\n  sstore\n  pop\n    /* \"contracts/Demo.sol\":1525:1527  42 */\n  0x2a\n    /* \"contracts/Demo.sol\":1504:1527  uint public myUint = 42 */\n  0x06\n  sstore\n    /* \"contracts/Demo.sol\":1581:1582  2 */\n  0x02\n    /* \"contracts/Demo.sol\":1553:1582  uint8 public mySmaillUint = 2 */\n  0x07\n  exp(0x0100, 0x00)\n  dup2\n  sload\n  dup2\n  0xff\n  mul\n  not\n  and\n  swap1\n  dup4\n  0xff\n  and\n  mul\n  or\n  swap1\n  sstore\n  pop\n    /* \"contracts/Demo.sol\":2054:2057  -42 */\n  0xffffffffffffffffffffffffffffffffffffffffffffffffffffffffffffffd6\n    /* \"contracts/Demo.sol\":2032:2057  int256 public myInt = -42 */\n  0x08\n  sstore\n    /* \"contracts/Demo.sol\":2089:2091  -1 */\n  0xffffffffffffffffffffffffffffffffffffffffffffffffffffffffffffffff\n    /* \"contracts/Demo.sol\":2064:2091  int8 public mySmallInt = -1 */\n  0x09\n  exp(0x0100, 0x00)\n  dup2\n  sload\n  dup2\n  0xff\n  mul\n  not\n  and\n  swap1\n  dup4\n  0x00\n  signextend\n  0xff\n  and\n  mul\n  or\n  swap1\n  sstore\n  pop\n    /* \"contracts/Demo.sol\":2170:2174  true */\n  0x01\n    /* \"contracts/Demo.sol\":2149:2174  bool public myBool = true */\n  0x09\n  exp(0x0100, 0x01)\n  dup2\n  sload\n  dup2\n  0xff\n  mul\n  not\n  and\n  swap1\n  dup4\n  iszero\n  iszero\n  mul\n  or\n  swap1\n  sstore\n  pop\n    /* \"contracts/Demo.sol\":2272:2324  constructor () {\r... */\n  callvalue\n  dup1\n  iszero\n  tag_3\n  jumpi\n  0x00\n  dup1\n  revert\ntag_3:\n  pop\n    /* \"contracts/Demo.sol\":2306:2316  msg.sender */\n  caller\n    /* \"contracts/Demo.sol\":2298:2303  owner */\n  0x09\n  0x02\n    /* \"contracts/Demo.sol\":2298:2316  owner = msg.sender */\n  0x0100\n  exp\n  dup2\n  sload\n  dup2\n  0xffffffffffffffffffffffffffffffffffffffff\n  mul\n  not\n  and\n  swap1\n  dup4\n  0xffffffffffffffffffffffffffffffffffffffff\n  and\n  mul\n  or\n  swap1\n  sstore\n  pop\n    /* \"contracts/Demo.sol\":62:2933  contract MyShop {\r... */\n  jump(tag_6)\ntag_2:\n  dup3\n  dup1\n  sload\n  tag_7\n  swap1\n  tag_8\n  jump\t// in\ntag_7:\n  swap1\n  0x00\n  mstore\n  keccak256(0x00, 0x20)\n  swap1\n  0x1f\n  add\n  0x20\n  swap1\n  div\n  dup2\n  add\n  swap3\n  dup3\n  tag_10\n  jumpi\n  0x00\n  dup6\n  sstore\n  jump(tag_9)\ntag_10:\n  dup3\n  0x1f\n  lt\n  tag_11\n  jumpi\n  dup1\n  mload\n  not(0xff)\n  and\n  dup4\n  dup1\n  add\n  or\n  dup6\n  sstore\n  jump(tag_9)\ntag_11:\n  dup3\n  dup1\n  add\n  0x01\n  add\n  dup6\n  sstore\n  dup3\n  iszero\n  tag_9\n  jumpi\n  swap2\n  dup3\n  add\ntag_12:\n  dup3\n  dup2\n  gt\n  iszero\n  tag_13\n  jumpi\n  dup3\n  mload\n  dup3\n  sstore\n  swap2\n  0x20\n  add\n  swap2\n  swap1\n  0x01\n  add\n  swap1\n  jump(tag_12)\ntag_13:\ntag_9:\n  pop\n  swap1\n  pop\n  tag_14\n  swap2\n  swap1\n  tag_15\n  jump\t// in\ntag_14:\n  pop\n  swap1\n  jump\t// out\ntag_15:\ntag_16:\n  dup1\n  dup3\n  gt\n  iszero\n  tag_17\n  jumpi\n  0x00\n  dup2\n  0x00\n  swap1\n  sstore\n  pop\n  0x01\n  add\n  jump(tag_16)\ntag_17:\n  pop\n  swap1\n  jump\t// out\n    /* \"#utility.yul\":7:327   */\ntag_8:\n    /* \"#utility.yul\":51:57   */\n  0x00\n    /* \"#utility.yul\":88:89   */\n  0x02\n    /* \"#utility.yul\":82:86   */\n  dup3\n    /* \"#utility.yul\":78:90   */\n  div\n    /* \"#utility.yul\":68:90   */\n  swap1\n  pop\n    /* \"#utility.yul\":135:136   */\n  0x01\n    /* \"#utility.yul\":129:133   */\n  dup3\n    /* \"#utility.yul\":125:137   */\n  and\n    /* \"#utility.yul\":156:174   */\n  dup1\n    /* \"#utility.yul\":146:227   */\n  tag_20\n  jumpi\n    /* \"#utility.yul\":212:216   */\n  0x7f\n    /* \"#utility.yul\":204:210   */\n  dup3\n    /* \"#utility.yul\":200:217   */\n  and\n    /* \"#utility.yul\":190:217   */\n  swap2\n  pop\n    /* \"#utility.yul\":146:227   */\ntag_20:\n    /* \"#utility.yul\":274:276   */\n  0x20\n    /* \"#utility.yul\":266:272   */\n  dup3\n    /* \"#utility.yul\":263:277   */\n  lt\n    /* \"#utility.yul\":243:261   */\n  dup2\n    /* \"#utility.yul\":240:278   */\n  eq\n    /* \"#utility.yul\":237:321   */\n  iszero\n  tag_21\n  jumpi\n    /* \"#utility.yul\":293:311   */\n  tag_22\n  tag_23\n  jump\t// in\ntag_22:\n    /* \"#utility.yul\":237:321   */\ntag_21:\n    /* \"#utility.yul\":58:327   */\n  pop\n    /* \"#utility.yul\":7:327   */\n  swap2\n  swap1\n  pop\n  jump\t// out\n    /* \"#utility.yul\":333:513   */\ntag_23:\n    /* \"#utility.yul\":381:458   */\n  0x4e487b7100000000000000000000000000000000000000000000000000000000\n    /* \"#utility.yul\":378:379   */\n  0x00\n    /* \"#utility.yul\":371:459   */\n  mstore\n    /* \"#utility.yul\":478:482   */\n  0x22\n    /* \"#utility.yul\":475:476   */\n  0x04\n    /* \"#utility.yul\":468:483   */\n  mstore\n    /* \"#utility.yul\":502:506   */\n  0x24\n    /* \"#utility.yul\":499:500   */\n  0x00\n    /* \"#utility.yul\":492:507   */\n  revert\n    /* \"contracts/Demo.sol\":62:2933  contract MyShop {\r... */\ntag_6:\n  dataSize(sub_0)\n  dup1\n  dataOffset(sub_0)\n  0x00\n  codecopy\n  0x00\n  return\nstop\n\nsub_0: assembly {\n        /* \"contracts/Demo.sol\":62:2933  contract MyShop {\r... */\n      mstore(0x40, 0x80)\n      jumpi(tag_1, lt(calldatasize, 0x04))\n      shr(0xe0, calldataload(0x00))\n      dup1\n      0x5a455c1c\n      gt\n      tag_24\n      jumpi\n      dup1\n      0x8da5cb5b\n      gt\n      tag_25\n      jumpi\n      dup1\n      0x8da5cb5b\n      eq\n      tag_18\n      jumpi\n      dup1\n      0x939a79ac\n      eq\n      tag_19\n      jumpi\n      dup1\n      0xe2982c21\n      eq\n      tag_20\n      jumpi\n      dup1\n      0xe665b266\n      eq\n      tag_21\n      jumpi\n      dup1\n      0xed32ca32\n      eq\n      tag_22\n      jumpi\n      dup1\n      0xf8b2cb4f\n      eq\n      tag_23\n      jumpi\n      jump(tag_1)\n    tag_25:\n      dup1\n      0x5a455c1c\n      eq\n      tag_13\n      jumpi\n      dup1\n      0x6deecdbe\n      eq\n      tag_14\n      jumpi\n      dup1\n      0x7a28a513\n      eq\n      tag_15\n      jumpi\n      dup1\n      0x853828b6\n      eq\n      tag_16\n      jumpi\n      dup1\n      0x8b36687e\n      eq\n      tag_17\n      jumpi\n      jump(tag_1)\n    tag_24:\n      dup1\n      0x2cb777a6\n      gt\n      tag_26\n      jumpi\n      dup1\n      0x2cb777a6\n      eq\n      tag_7\n      jumpi\n      dup1\n      0x2ccb1b30\n      eq\n      tag_8\n      jumpi\n      dup1\n      0x371303c0\n      eq\n      tag_9\n      jumpi\n      dup1\n      0x3891e899\n      eq\n      tag_10\n      jumpi\n      dup1\n      0x52342f13\n      eq\n      tag_11\n      jumpi\n      dup1\n      0x52d6804d\n      eq\n      tag_12\n      jumpi\n      jump(tag_1)\n    tag_26:\n      dup1\n      0x5c33e1\n      eq\n      tag_2\n      jumpi\n      dup1\n      0x01725a0b\n      eq\n      tag_3\n      jumpi\n      dup1\n      0x06540f7e\n      eq\n      tag_4\n      jumpi\n      dup1\n      0x071bd079\n      eq\n      tag_5\n      jumpi\n      dup1\n      0x13bea460\n      eq\n      tag_6\n      jumpi\n    tag_1:\n      0x00\n      dup1\n      revert\n        /* \"contracts/Demo.sol\":212:261  function receiveFunds() public payable {\r... */\n    tag_2:\n      tag_27\n      tag_28\n      jump\t// in\n    tag_27:\n      stop\n        /* \"contracts/Demo.sol\":1343:1446  function demo() public {\r... */\n    tag_3:\n      callvalue\n      dup1\n      iszero\n      tag_29\n      jumpi\n      0x00\n      dup1\n      revert\n    tag_29:\n      pop\n      tag_30\n      tag_31\n      jump\t// in\n    tag_30:\n      stop\n        /* \"contracts/Demo.sol\":1504:1527  uint public myUint = 42 */\n    tag_4:\n      callvalue\n      dup1\n      iszero\n      tag_32\n      jumpi\n      0x00\n      dup1\n      revert\n    tag_32:\n      pop\n      tag_33\n      tag_34\n      jump\t// in\n    tag_33:\n      mload(0x40)\n      tag_35\n      swap2\n      swap1\n      tag_36\n      jump\t// in\n    tag_35:\n      mload(0x40)\n      dup1\n      swap2\n      sub\n      swap1\n      return\n        /* \"contracts/Demo.sol\":1635:2000  function demo(uint _inputUint) public {\r... */\n    tag_5:\n      callvalue\n      dup1\n      iszero\n      tag_37\n      jumpi\n      0x00\n      dup1\n      revert\n    tag_37:\n      pop\n      tag_38\n      0x04\n      dup1\n      calldatasize\n      sub\n      dup2\n      add\n      swap1\n      tag_39\n      swap2\n      swap1\n      tag_40\n      jump\t// in\n    tag_39:\n      tag_41\n      jump\t// in\n    tag_38:\n      stop\n        /* \"contracts/Demo.sol\":2332:2421  function payForItem () public payable {\r... */\n    tag_6:\n      tag_42\n      tag_43\n      jump\t// in\n    tag_42:\n      stop\n        /* \"contracts/Demo.sol\":2032:2057  int256 public myInt = -42 */\n    tag_7:\n      callvalue\n      dup1\n      iszero\n      tag_44\n      jumpi\n      0x00\n      dup1\n      revert\n    tag_44:\n      pop\n      tag_45\n      tag_46\n      jump\t// in\n    tag_45:\n      mload(0x40)\n      tag_47\n      swap2\n      swap1\n      tag_48\n      jump\t// in\n    tag_47:\n      mload(0x40)\n      dup1\n      swap2\n      sub\n      swap1\n      return\n        /* \"contracts/Demo.sol\":269:434  function transferTo(address /* payable */ targetAddr, uint amount) public {\r... */\n    tag_8:\n      callvalue\n      dup1\n      iszero\n      tag_49\n      jumpi\n      0x00\n      dup1\n      revert\n    tag_49:\n      pop\n      tag_50\n      0x04\n      dup1\n      calldatasize\n      sub\n      dup2\n      add\n      swap1\n      tag_51\n      swap2\n      swap1\n      tag_52\n      jump\t// in\n    tag_51:\n      tag_53\n      jump\t// in\n    tag_50:\n      stop\n        /* \"contracts/Demo.sol\":1063:1281  function inc() public {\r... */\n    tag_9:\n      callvalue\n      dup1\n      iszero\n      tag_54\n      jumpi\n      0x00\n      dup1\n      revert\n    tag_54:\n      pop\n      tag_55\n      tag_56\n      jump\t// in\n    tag_55:\n      stop\n        /* \"contracts/Demo.sol\":1553:1582  uint8 public mySmaillUint = 2 */\n    tag_10:\n      callvalue\n      dup1\n      iszero\n      tag_57\n      jumpi\n      0x00\n      dup1\n      revert\n    tag_57:\n      pop\n      tag_58\n      tag_59\n      jump\t// in\n    tag_58:\n      mload(0x40)\n      tag_60\n      swap2\n      swap1\n      tag_61\n      jump\t// in\n    tag_60:\n      mload(0x40)\n      dup1\n      swap2\n      sub\n      swap1\n      return\n        /* \"contracts/Demo.sol\":1315:1334  uint public maximum */\n    tag_11:\n      callvalue\n      dup1\n      iszero\n      tag_62\n      jumpi\n      0x00\n      dup1\n      revert\n    tag_62:\n      pop\n      tag_63\n      tag_64\n      jump\t// in\n    tag_63:\n      mload(0x40)\n      tag_65\n      swap2\n      swap1\n      tag_36\n      jump\t// in\n    tag_65:\n      mload(0x40)\n      dup1\n      swap2\n      sub\n      swap1\n      return\n        /* \"contracts/Demo.sol\":1289:1308  uint public minimum */\n    tag_12:\n      callvalue\n      dup1\n      iszero\n      tag_66\n      jumpi\n      0x00\n      dup1\n      revert\n    tag_66:\n      pop\n      tag_67\n      tag_68\n      jump\t// in\n    tag_67:\n      mload(0x40)\n      tag_69\n      swap2\n      swap1\n      tag_36\n      jump\t// in\n    tag_69:\n      mload(0x40)\n      dup1\n      swap2\n      sub\n      swap1\n      return\n        /* \"contracts/Demo.sol\":761:789  string public myStr = \"test\" */\n    tag_13:\n      callvalue\n      dup1\n      iszero\n      tag_70\n      jumpi\n      0x00\n      dup1\n      revert\n    tag_70:\n      pop\n      tag_71\n      tag_72\n      jump\t// in\n    tag_71:\n      mload(0x40)\n      tag_73\n      swap2\n      swap1\n      tag_74\n      jump\t// in\n    tag_73:\n      mload(0x40)\n      dup1\n      swap2\n      sub\n      swap1\n      return\n        /* \"contracts/Demo.sol\":2149:2174  bool public myBool = true */\n    tag_14:\n      callvalue\n      dup1\n      iszero\n      tag_75\n      jumpi\n      0x00\n      dup1\n      revert\n    tag_75:\n      pop\n      tag_76\n      tag_77\n      jump\t// in\n    tag_76:\n      mload(0x40)\n      tag_78\n      swap2\n      swap1\n      tag_79\n      jump\t// in\n    tag_78:\n      mload(0x40)\n      dup1\n      swap2\n      sub\n      swap1\n      return\n        /* \"contracts/Demo.sol\":2064:2091  int8 public mySmallInt = -1 */\n    tag_15:\n      callvalue\n      dup1\n      iszero\n      tag_80\n      jumpi\n      0x00\n      dup1\n      revert\n    tag_80:\n      pop\n      tag_81\n      tag_82\n      jump\t// in\n    tag_81:\n      mload(0x40)\n      tag_83\n      swap2\n      swap1\n      tag_84\n      jump\t// in\n    tag_83:\n      mload(0x40)\n      dup1\n      swap2\n      sub\n      swap1\n      return\n        /* \"contracts/Demo.sol\":2429:2609  function withdrawAll () public {\r... */\n    tag_16:\n      callvalue\n      dup1\n      iszero\n      tag_85\n      jumpi\n      0x00\n      dup1\n      revert\n    tag_85:\n      pop\n      tag_86\n      tag_87\n      jump\t// in\n    tag_86:\n      stop\n        /* \"contracts/Demo.sol\":2617:2928  function myFunc (bool _inputBool) public {\r... */\n    tag_17:\n      callvalue\n      dup1\n      iszero\n      tag_88\n      jumpi\n      0x00\n      dup1\n      revert\n    tag_88:\n      pop\n      tag_89\n      0x04\n      dup1\n      calldatasize\n      sub\n      dup2\n      add\n      swap1\n      tag_90\n      swap2\n      swap1\n      tag_91\n      jump\t// in\n    tag_90:\n      tag_92\n      jump\t// in\n    tag_89:\n      stop\n        /* \"contracts/Demo.sol\":2243:2263  address public owner */\n    tag_18:\n      callvalue\n      dup1\n      iszero\n      tag_93\n      jumpi\n      0x00\n      dup1\n      revert\n    tag_93:\n      pop\n      tag_94\n      tag_95\n      jump\t// in\n    tag_94:\n      mload(0x40)\n      tag_96\n      swap2\n      swap1\n      tag_97\n      jump\t// in\n    tag_96:\n      mload(0x40)\n      dup1\n      swap2\n      sub\n      swap1\n      return\n        /* \"contracts/Demo.sol\":840:1022  function demo(string memory newValueStr) public {\r... */\n    tag_19:\n      callvalue\n      dup1\n      iszero\n      tag_98\n      jumpi\n      0x00\n      dup1\n      revert\n    tag_98:\n      pop\n      tag_99\n      0x04\n      dup1\n      calldatasize\n      sub\n      dup2\n      add\n      swap1\n      tag_100\n      swap2\n      swap1\n      tag_101\n      jump\t// in\n    tag_100:\n      tag_102\n      jump\t// in\n    tag_99:\n      stop\n        /* \"contracts/Demo.sol\":87:128  mapping (address => uint) public payments */\n    tag_20:\n      callvalue\n      dup1\n      iszero\n      tag_103\n      jumpi\n      0x00\n      dup1\n      revert\n    tag_103:\n      pop\n      tag_104\n      0x04\n      dup1\n      calldatasize\n      sub\n      dup2\n      add\n      swap1\n      tag_105\n      swap2\n      swap1\n      tag_106\n      jump\t// in\n    tag_105:\n      tag_107\n      jump\t// in\n    tag_104:\n      mload(0x40)\n      tag_108\n      swap2\n      swap1\n      tag_36\n      jump\t// in\n    tag_108:\n      mload(0x40)\n      dup1\n      swap2\n      sub\n      swap1\n      return\n        /* \"contracts/Demo.sol\":137:203  address public myAddr = 0x5B38Da6a701c568545dCfcB03FcB875f56beddC4 */\n    tag_21:\n      callvalue\n      dup1\n      iszero\n      tag_109\n      jumpi\n      0x00\n      dup1\n      revert\n    tag_109:\n      pop\n      tag_110\n      tag_111\n      jump\t// in\n    tag_110:\n      mload(0x40)\n      tag_112\n      swap2\n      swap1\n      tag_97\n      jump\t// in\n    tag_112:\n      mload(0x40)\n      dup1\n      swap2\n      sub\n      swap1\n      return\n        /* \"contracts/Demo.sol\":1030:1054  uint8 public myVal = 254 */\n    tag_22:\n      callvalue\n      dup1\n      iszero\n      tag_113\n      jumpi\n      0x00\n      dup1\n      revert\n    tag_113:\n      pop\n      tag_114\n      tag_115\n      jump\t// in\n    tag_114:\n      mload(0x40)\n      tag_116\n      swap2\n      swap1\n      tag_61\n      jump\t// in\n    tag_116:\n      mload(0x40)\n      dup1\n      swap2\n      sub\n      swap1\n      return\n        /* \"contracts/Demo.sol\":510:620  function getBalance(address targetAddr) public view returns(uint) {\r... */\n    tag_23:\n      callvalue\n      dup1\n      iszero\n      tag_117\n      jumpi\n      0x00\n      dup1\n      revert\n    tag_117:\n      pop\n      tag_118\n      0x04\n      dup1\n      calldatasize\n      sub\n      dup2\n      add\n      swap1\n      tag_119\n      swap2\n      swap1\n      tag_106\n      jump\t// in\n    tag_119:\n      tag_120\n      jump\t// in\n    tag_118:\n      mload(0x40)\n      tag_121\n      swap2\n      swap1\n      tag_36\n      jump\t// in\n    tag_121:\n      mload(0x40)\n      dup1\n      swap2\n      sub\n      swap1\n      return\n        /* \"contracts/Demo.sol\":212:261  function receiveFunds() public payable {\r... */\n    tag_28:\n      jump\t// out\n        /* \"contracts/Demo.sol\":1343:1446  function demo() public {\r... */\n    tag_31:\n        /* \"contracts/Demo.sol\":1387:1402  type(uint8).min */\n      0x00\n        /* \"contracts/Demo.sol\":1377:1402  minimum = type(uint8).min */\n      0xff\n      and\n        /* \"contracts/Demo.sol\":1377:1384  minimum */\n      0x04\n        /* \"contracts/Demo.sol\":1377:1402  minimum = type(uint8).min */\n      dup2\n      swap1\n      sstore\n      pop\n        /* \"contracts/Demo.sol\":1423:1438  type(uint8).max */\n      0xff\n        /* \"contracts/Demo.sol\":1413:1438  maximum = type(uint8).max */\n      dup1\n      and\n        /* \"contracts/Demo.sol\":1413:1420  maximum */\n      0x05\n        /* \"contracts/Demo.sol\":1413:1438  maximum = type(uint8).max */\n      dup2\n      swap1\n      sstore\n      pop\n        /* \"contracts/Demo.sol\":1343:1446  function demo() public {\r... */\n      jump\t// out\n        /* \"contracts/Demo.sol\":1504:1527  uint public myUint = 42 */\n    tag_34:\n      sload(0x06)\n      dup2\n      jump\t// out\n        /* \"contracts/Demo.sol\":1635:2000  function demo(uint _inputUint) public {\r... */\n    tag_41:\n        /* \"contracts/Demo.sol\":1684:1698  uint localUint */\n      0x00\n        /* \"contracts/Demo.sol\":1701:1703  42 */\n      0x2a\n        /* \"contracts/Demo.sol\":1684:1703  uint localUint = 42 */\n      swap1\n      pop\n        /* \"contracts/Demo.sol\":1726:1727  1 */\n      0x01\n        /* \"contracts/Demo.sol\":1714:1723  localUint */\n      dup2\n        /* \"contracts/Demo.sol\":1714:1727  localUint + 1 */\n      tag_125\n      swap2\n      swap1\n      tag_126\n      jump\t// in\n    tag_125:\n      pop\n        /* \"contracts/Demo.sol\":1750:1751  1 */\n      0x01\n        /* \"contracts/Demo.sol\":1738:1747  localUint */\n      dup2\n        /* \"contracts/Demo.sol\":1738:1751  localUint - 1 */\n      tag_127\n      swap2\n      swap1\n      tag_128\n      jump\t// in\n    tag_127:\n      pop\n        /* \"contracts/Demo.sol\":1774:1775  2 */\n      0x02\n        /* \"contracts/Demo.sol\":1762:1771  localUint */\n      dup2\n        /* \"contracts/Demo.sol\":1762:1775  localUint * 2 */\n      tag_129\n      swap2\n      swap1\n      tag_130\n      jump\t// in\n    tag_129:\n      pop\n        /* \"contracts/Demo.sol\":1798:1799  2 */\n      0x02\n        /* \"contracts/Demo.sol\":1786:1795  localUint */\n      dup2\n        /* \"contracts/Demo.sol\":1786:1799  localUint / 2 */\n      tag_131\n      swap2\n      swap1\n      tag_132\n      jump\t// in\n    tag_131:\n      pop\n        /* \"contracts/Demo.sol\":1830:1831  3 */\n      0x03\n        /* \"contracts/Demo.sol\":1817:1826  localUint */\n      dup2\n        /* \"contracts/Demo.sol\":1817:1831  localUint ** 3 */\n      tag_133\n      swap2\n      swap1\n      tag_134\n      jump\t// in\n    tag_133:\n      pop\n        /* \"contracts/Demo.sol\":1854:1855  3 */\n      0x03\n        /* \"contracts/Demo.sol\":1842:1851  localUint */\n      dup2\n        /* \"contracts/Demo.sol\":1842:1855  localUint % 3 */\n      tag_135\n      swap2\n      swap1\n      tag_136\n      jump\t// in\n    tag_135:\n      pop\n        /* \"contracts/Demo.sol\":1867:1872  myInt */\n      sload(0x08)\n        /* \"contracts/Demo.sol\":1866:1872  -myInt */\n      tag_137\n      swap1\n      tag_138\n      jump\t// in\n    tag_137:\n      pop\n        /* \"contracts/Demo.sol\":1673:2000  {\r... */\n      pop\n        /* \"contracts/Demo.sol\":1635:2000  function demo(uint _inputUint) public {\r... */\n      pop\n      jump\t// out\n        /* \"contracts/Demo.sol\":2332:2421  function payForItem () public payable {\r... */\n    tag_43:\n        /* \"contracts/Demo.sol\":2404:2413  msg.value */\n      callvalue\n        /* \"contracts/Demo.sol\":2381:2389  payments */\n      0x00\n        /* \"contracts/Demo.sol\":2381:2401  payments[msg.sender] */\n      dup1\n        /* \"contracts/Demo.sol\":2390:2400  msg.sender */\n      caller\n        /* \"contracts/Demo.sol\":2381:2401  payments[msg.sender] */\n      0xffffffffffffffffffffffffffffffffffffffff\n      and\n      0xffffffffffffffffffffffffffffffffffffffff\n      and\n      dup2\n      mstore\n      0x20\n      add\n      swap1\n      dup2\n      mstore\n      0x20\n      add\n      0x00\n      keccak256\n        /* \"contracts/Demo.sol\":2381:2413  payments[msg.sender] = msg.value */\n      dup2\n      swap1\n      sstore\n      pop\n        /* \"contracts/Demo.sol\":2332:2421  function payForItem () public payable {\r... */\n      jump\t// out\n        /* \"contracts/Demo.sol\":2032:2057  int256 public myInt = -42 */\n    tag_46:\n      sload(0x08)\n      dup2\n      jump\t// out\n        /* \"contracts/Demo.sol\":269:434  function transferTo(address /* payable */ targetAddr, uint amount) public {\r... */\n    tag_53:\n        /* \"contracts/Demo.sol\":354:373  address payable _to */\n      0x00\n        /* \"contracts/Demo.sol\":384:394  targetAddr */\n      dup3\n        /* \"contracts/Demo.sol\":354:395  address payable _to = payable(targetAddr) */\n      swap1\n      pop\n        /* \"contracts/Demo.sol\":406:409  _to */\n      dup1\n        /* \"contracts/Demo.sol\":406:418  _to.transfer */\n      0xffffffffffffffffffffffffffffffffffffffff\n      and\n        /* \"contracts/Demo.sol\":406:426  _to.transfer(amount) */\n      0x08fc\n        /* \"contracts/Demo.sol\":419:425  amount */\n      dup4\n        /* \"contracts/Demo.sol\":406:426  _to.transfer(amount) */\n      swap1\n      dup2\n      iszero\n      mul\n      swap1\n      mload(0x40)\n      0x00\n      mload(0x40)\n      dup1\n      dup4\n      sub\n      dup2\n      dup6\n      dup9\n      dup9\n      call\n      swap4\n      pop\n      pop\n      pop\n      pop\n      iszero\n      dup1\n      iszero\n      tag_142\n      jumpi\n      returndatasize\n      0x00\n      dup1\n      returndatacopy\n      revert(0x00, returndatasize)\n    tag_142:\n      pop\n        /* \"contracts/Demo.sol\":343:434  {\r... */\n      pop\n        /* \"contracts/Demo.sol\":269:434  function transferTo(address /* payable */ targetAddr, uint amount) public {\r... */\n      pop\n      pop\n      jump\t// out\n        /* \"contracts/Demo.sol\":1063:1281  function inc() public {\r... */\n    tag_56:\n        /* \"contracts/Demo.sol\":1209:1214  myVal */\n      0x03\n      0x00\n        /* \"contracts/Demo.sol\":1209:1216  myVal++ */\n      dup2\n      dup2\n      swap1\n      sload\n      swap1\n      0x0100\n      exp\n      swap1\n      div\n      0xff\n      and\n      dup1\n      swap3\n      swap2\n      swap1\n      0x01\n      add\n      swap2\n      swap1\n      0x0100\n      exp\n      dup2\n      sload\n      dup2\n      0xff\n      mul\n      not\n      and\n      swap1\n      dup4\n      0xff\n      and\n      mul\n      or\n      swap1\n      sstore\n      pop\n      pop\n        /* \"contracts/Demo.sol\":1063:1281  function inc() public {\r... */\n      jump\t// out\n        /* \"contracts/Demo.sol\":1553:1582  uint8 public mySmaillUint = 2 */\n    tag_59:\n      0x07\n      0x00\n      swap1\n      sload\n      swap1\n      0x0100\n      exp\n      swap1\n      div\n      0xff\n      and\n      dup2\n      jump\t// out\n        /* \"contracts/Demo.sol\":1315:1334  uint public maximum */\n    tag_64:\n      sload(0x05)\n      dup2\n      jump\t// out\n        /* \"contracts/Demo.sol\":1289:1308  uint public minimum */\n    tag_68:\n      sload(0x04)\n      dup2\n      jump\t// out\n        /* \"contracts/Demo.sol\":761:789  string public myStr = \"test\" */\n    tag_72:\n      0x02\n      dup1\n      sload\n      tag_144\n      swap1\n      tag_145\n      jump\t// in\n    tag_144:\n      dup1\n      0x1f\n      add\n      0x20\n      dup1\n      swap2\n      div\n      mul\n      0x20\n      add\n      mload(0x40)\n      swap1\n      dup2\n      add\n      0x40\n      mstore\n      dup1\n      swap3\n      swap2\n      swap1\n      dup2\n      dup2\n      mstore\n      0x20\n      add\n      dup3\n      dup1\n      sload\n      tag_146\n      swap1\n      tag_145\n      jump\t// in\n    tag_146:\n      dup1\n      iszero\n      tag_147\n      jumpi\n      dup1\n      0x1f\n      lt\n      tag_148\n      jumpi\n      0x0100\n      dup1\n      dup4\n      sload\n      div\n      mul\n      dup4\n      mstore\n      swap2\n      0x20\n      add\n      swap2\n      jump(tag_147)\n    tag_148:\n      dup3\n      add\n      swap2\n      swap1\n      0x00\n      mstore\n      keccak256(0x00, 0x20)\n      swap1\n    tag_149:\n      dup2\n      sload\n      dup2\n      mstore\n      swap1\n      0x01\n      add\n      swap1\n      0x20\n      add\n      dup1\n      dup4\n      gt\n      tag_149\n      jumpi\n      dup3\n      swap1\n      sub\n      0x1f\n      and\n      dup3\n      add\n      swap2\n    tag_147:\n      pop\n      pop\n      pop\n      pop\n      pop\n      dup2\n      jump\t// out\n        /* \"contracts/Demo.sol\":2149:2174  bool public myBool = true */\n    tag_77:\n      0x09\n      0x01\n      swap1\n      sload\n      swap1\n      0x0100\n      exp\n      swap1\n      div\n      0xff\n      and\n      dup2\n      jump\t// out\n        /* \"contracts/Demo.sol\":2064:2091  int8 public mySmallInt = -1 */\n    tag_82:\n      0x09\n      0x00\n      swap1\n      sload\n      swap1\n      0x0100\n      exp\n      swap1\n      div\n      0x00\n      signextend\n      dup2\n      jump\t// out\n        /* \"contracts/Demo.sol\":2429:2609  function withdrawAll () public {\r... */\n    tag_87:\n        /* \"contracts/Demo.sol\":2471:2490  address payable _to */\n      0x00\n        /* \"contracts/Demo.sol\":2501:2506  owner */\n      0x09\n      0x02\n      swap1\n      sload\n      swap1\n      0x0100\n      exp\n      swap1\n      div\n      0xffffffffffffffffffffffffffffffffffffffff\n      and\n        /* \"contracts/Demo.sol\":2471:2507  address payable _to = payable(owner) */\n      swap1\n      pop\n        /* \"contracts/Demo.sol\":2518:2539  address _thisContract */\n      0x00\n        /* \"contracts/Demo.sol\":2550:2554  this */\n      address\n        /* \"contracts/Demo.sol\":2518:2555  address _thisContract = address(this) */\n      swap1\n      pop\n        /* \"contracts/Demo.sol\":2566:2569  _to */\n      dup2\n        /* \"contracts/Demo.sol\":2566:2578  _to.transfer */\n      0xffffffffffffffffffffffffffffffffffffffff\n      and\n        /* \"contracts/Demo.sol\":2566:2601  _to.transfer(_thisContract.balance) */\n      0x08fc\n        /* \"contracts/Demo.sol\":2579:2592  _thisContract */\n      dup3\n        /* \"contracts/Demo.sol\":2579:2600  _thisContract.balance */\n      0xffffffffffffffffffffffffffffffffffffffff\n      and\n      balance\n        /* \"contracts/Demo.sol\":2566:2601  _to.transfer(_thisContract.balance) */\n      swap1\n      dup2\n      iszero\n      mul\n      swap1\n      mload(0x40)\n      0x00\n      mload(0x40)\n      dup1\n      dup4\n      sub\n      dup2\n      dup6\n      dup9\n      dup9\n      call\n      swap4\n      pop\n      pop\n      pop\n      pop\n      iszero\n      dup1\n      iszero\n      tag_152\n      jumpi\n      returndatasize\n      0x00\n      dup1\n      returndatacopy\n      revert(0x00, returndatasize)\n    tag_152:\n      pop\n        /* \"contracts/Demo.sol\":2460:2609  {\r... */\n      pop\n      pop\n        /* \"contracts/Demo.sol\":2429:2609  function withdrawAll () public {\r... */\n      jump\t// out\n        /* \"contracts/Demo.sol\":2617:2928  function myFunc (bool _inputBool) public {\r... */\n    tag_92:\n        /* \"contracts/Demo.sol\":2669:2683  bool localBool */\n      0x00\n        /* \"contracts/Demo.sol\":2882:2892  _inputBool */\n      dup2\n        /* \"contracts/Demo.sol\":2882:2905  _inputBool || localBool */\n      dup1\n      tag_154\n      jumpi\n      pop\n        /* \"contracts/Demo.sol\":2896:2905  localBool */\n      dup1\n        /* \"contracts/Demo.sol\":2882:2905  _inputBool || localBool */\n    tag_154:\n        /* \"contracts/Demo.sol\":2878:2921  if (_inputBool || localBool) {\r... */\n      pop\n        /* \"contracts/Demo.sol\":2658:2928  {\r... */\n      pop\n        /* \"contracts/Demo.sol\":2617:2928  function myFunc (bool _inputBool) public {\r... */\n      pop\n      jump\t// out\n        /* \"contracts/Demo.sol\":2243:2263  address public owner */\n    tag_95:\n      0x09\n      0x02\n      swap1\n      sload\n      swap1\n      0x0100\n      exp\n      swap1\n      div\n      0xffffffffffffffffffffffffffffffffffffffff\n      and\n      dup2\n      jump\t// out\n        /* \"contracts/Demo.sol\":840:1022  function demo(string memory newValueStr) public {\r... */\n    tag_102:\n        /* \"contracts/Demo.sol\":950:973  string memory myTempStr */\n      0x00\n        /* \"contracts/Demo.sol\":950:982  string memory myTempStr = \"temp\" */\n      mload(0x40)\n      dup1\n      0x40\n      add\n      0x40\n      mstore\n      dup1\n      0x04\n      dup2\n      mstore\n      0x20\n      add\n      0x74656d7000000000000000000000000000000000000000000000000000000000\n      dup2\n      mstore\n      pop\n      swap1\n      pop\n        /* \"contracts/Demo.sol\":1001:1012  newValueStr */\n      dup2\n        /* \"contracts/Demo.sol\":993:998  myStr */\n      0x02\n        /* \"contracts/Demo.sol\":993:1012  myStr = newValueStr */\n      swap1\n      dup1\n      mload\n      swap1\n      0x20\n      add\n      swap1\n      tag_157\n      swap3\n      swap2\n      swap1\n      tag_158\n      jump\t// in\n    tag_157:\n      pop\n        /* \"contracts/Demo.sol\":888:1022  {\r... */\n      pop\n        /* \"contracts/Demo.sol\":840:1022  function demo(string memory newValueStr) public {\r... */\n      pop\n      jump\t// out\n        /* \"contracts/Demo.sol\":87:128  mapping (address => uint) public payments */\n    tag_107:\n      mstore(0x20, 0x00)\n      dup1\n      0x00\n      mstore\n      keccak256(0x00, 0x40)\n      0x00\n      swap2\n      pop\n      swap1\n      pop\n      sload\n      dup2\n      jump\t// out\n        /* \"contracts/Demo.sol\":137:203  address public myAddr = 0x5B38Da6a701c568545dCfcB03FcB875f56beddC4 */\n    tag_111:\n      0x01\n      0x00\n      swap1\n      sload\n      swap1\n      0x0100\n      exp\n      swap1\n      div\n      0xffffffffffffffffffffffffffffffffffffffff\n      and\n      dup2\n      jump\t// out\n        /* \"contracts/Demo.sol\":1030:1054  uint8 public myVal = 254 */\n    tag_115:\n      0x03\n      0x00\n      swap1\n      sload\n      swap1\n      0x0100\n      exp\n      swap1\n      div\n      0xff\n      and\n      dup2\n      jump\t// out\n        /* \"contracts/Demo.sol\":510:620  function getBalance(address targetAddr) public view returns(uint) {\r... */\n    tag_120:\n        /* \"contracts/Demo.sol\":570:574  uint */\n      0x00\n        /* \"contracts/Demo.sol\":594:604  targetAddr */\n      dup2\n        /* \"contracts/Demo.sol\":594:612  targetAddr.balance */\n      0xffffffffffffffffffffffffffffffffffffffff\n      and\n      balance\n        /* \"contracts/Demo.sol\":587:612  return targetAddr.balance */\n      swap1\n      pop\n        /* \"contracts/Demo.sol\":510:620  function getBalance(address targetAddr) public view returns(uint) {\r... */\n      swap2\n      swap1\n      pop\n      jump\t// out\n    tag_158:\n      dup3\n      dup1\n      sload\n      tag_160\n      swap1\n      tag_145\n      jump\t// in\n    tag_160:\n      swap1\n      0x00\n      mstore\n      keccak256(0x00, 0x20)\n      swap1\n      0x1f\n      add\n      0x20\n      swap1\n      div\n      dup2\n      add\n      swap3\n      dup3\n      tag_162\n      jumpi\n      0x00\n      dup6\n      sstore\n      jump(tag_161)\n    tag_162:\n      dup3\n      0x1f\n      lt\n      tag_163\n      jumpi\n      dup1\n      mload\n      not(0xff)\n      and\n      dup4\n      dup1\n      add\n      or\n      dup6\n      sstore\n      jump(tag_161)\n    tag_163:\n      dup3\n      dup1\n      add\n      0x01\n      add\n      dup6\n      sstore\n      dup3\n      iszero\n      tag_161\n      jumpi\n      swap2\n      dup3\n      add\n    tag_164:\n      dup3\n      dup2\n      gt\n      iszero\n      tag_165\n      jumpi\n      dup3\n      mload\n      dup3\n      sstore\n      swap2\n      0x20\n      add\n      swap2\n      swap1\n      0x01\n      add\n      swap1\n      jump(tag_164)\n    tag_165:\n    tag_161:\n      pop\n      swap1\n      pop\n      tag_166\n      swap2\n      swap1\n      tag_167\n      jump\t// in\n    tag_166:\n      pop\n      swap1\n      jump\t// out\n    tag_167:\n    tag_168:\n      dup1\n      dup3\n      gt\n      iszero\n      tag_169\n      jumpi\n      0x00\n      dup2\n      0x00\n      swap1\n      sstore\n      pop\n      0x01\n      add\n      jump(tag_168)\n    tag_169:\n      pop\n      swap1\n      jump\t// out\n        /* \"#utility.yul\":7:419   */\n    tag_171:\n        /* \"#utility.yul\":85:90   */\n      0x00\n        /* \"#utility.yul\":110:176   */\n      tag_173\n        /* \"#utility.yul\":126:175   */\n      tag_174\n        /* \"#utility.yul\":168:174   */\n      dup5\n        /* \"#utility.yul\":126:175   */\n      tag_175\n      jump\t// in\n    tag_174:\n        /* \"#utility.yul\":110:176   */\n      tag_176\n      jump\t// in\n    tag_173:\n        /* \"#utility.yul\":101:176   */\n      swap1\n      pop\n        /* \"#utility.yul\":199:205   */\n      dup3\n        /* \"#utility.yul\":192:197   */\n      dup2\n        /* \"#utility.yul\":185:206   */\n      mstore\n        /* \"#utility.yul\":237:241   */\n      0x20\n        /* \"#utility.yul\":230:235   */\n      dup2\n        /* \"#utility.yul\":226:242   */\n      add\n        /* \"#utility.yul\":275:278   */\n      dup5\n        /* \"#utility.yul\":266:272   */\n      dup5\n        /* \"#utility.yul\":261:264   */\n      dup5\n        /* \"#utility.yul\":257:273   */\n      add\n        /* \"#utility.yul\":254:279   */\n      gt\n        /* \"#utility.yul\":251:363   */\n      iszero\n      tag_177\n      jumpi\n        /* \"#utility.yul\":282:361   */\n      tag_178\n      tag_179\n      jump\t// in\n    tag_178:\n        /* \"#utility.yul\":251:363   */\n    tag_177:\n        /* \"#utility.yul\":372:413   */\n      tag_180\n        /* \"#utility.yul\":406:412   */\n      dup5\n        /* \"#utility.yul\":401:404   */\n      dup3\n        /* \"#utility.yul\":396:399   */\n      dup6\n        /* \"#utility.yul\":372:413   */\n      tag_181\n      jump\t// in\n    tag_180:\n        /* \"#utility.yul\":91:419   */\n      pop\n        /* \"#utility.yul\":7:419   */\n      swap4\n      swap3\n      pop\n      pop\n      pop\n      jump\t// out\n        /* \"#utility.yul\":425:564   */\n    tag_182:\n        /* \"#utility.yul\":471:476   */\n      0x00\n        /* \"#utility.yul\":509:515   */\n      dup2\n        /* \"#utility.yul\":496:516   */\n      calldataload\n        /* \"#utility.yul\":487:516   */\n      swap1\n      pop\n        /* \"#utility.yul\":525:558   */\n      tag_184\n        /* \"#utility.yul\":552:557   */\n      dup2\n        /* \"#utility.yul\":525:558   */\n      tag_185\n      jump\t// in\n    tag_184:\n        /* \"#utility.yul\":425:564   */\n      swap3\n      swap2\n      pop\n      pop\n      jump\t// out\n        /* \"#utility.yul\":570:703   */\n    tag_186:\n        /* \"#utility.yul\":613:618   */\n      0x00\n        /* \"#utility.yul\":651:657   */\n      dup2\n        /* \"#utility.yul\":638:658   */\n      calldataload\n        /* \"#utility.yul\":629:658   */\n      swap1\n      pop\n        /* \"#utility.yul\":667:697   */\n      tag_188\n        /* \"#utility.yul\":691:696   */\n      dup2\n        /* \"#utility.yul\":667:697   */\n      tag_189\n      jump\t// in\n    tag_188:\n        /* \"#utility.yul\":570:703   */\n      swap3\n      swap2\n      pop\n      pop\n      jump\t// out\n        /* \"#utility.yul\":723:1063   */\n    tag_190:\n        /* \"#utility.yul\":779:784   */\n      0x00\n        /* \"#utility.yul\":828:831   */\n      dup3\n        /* \"#utility.yul\":821:825   */\n      0x1f\n        /* \"#utility.yul\":813:819   */\n      dup4\n        /* \"#utility.yul\":809:826   */\n      add\n        /* \"#utility.yul\":805:832   */\n      slt\n        /* \"#utility.yul\":795:917   */\n      tag_192\n      jumpi\n        /* \"#utility.yul\":836:915   */\n      tag_193\n      tag_194\n      jump\t// in\n    tag_193:\n        /* \"#utility.yul\":795:917   */\n    tag_192:\n        /* \"#utility.yul\":953:959   */\n      dup2\n        /* \"#utility.yul\":940:960   */\n      calldataload\n        /* \"#utility.yul\":978:1057   */\n      tag_195\n        /* \"#utility.yul\":1053:1056   */\n      dup5\n        /* \"#utility.yul\":1045:1051   */\n      dup3\n        /* \"#utility.yul\":1038:1042   */\n      0x20\n        /* \"#utility.yul\":1030:1036   */\n      dup7\n        /* \"#utility.yul\":1026:1043   */\n      add\n        /* \"#utility.yul\":978:1057   */\n      tag_171\n      jump\t// in\n    tag_195:\n        /* \"#utility.yul\":969:1057   */\n      swap2\n      pop\n        /* \"#utility.yul\":785:1063   */\n      pop\n        /* \"#utility.yul\":723:1063   */\n      swap3\n      swap2\n      pop\n      pop\n      jump\t// out\n        /* \"#utility.yul\":1069:1208   */\n    tag_196:\n        /* \"#utility.yul\":1115:1120   */\n      0x00\n        /* \"#utility.yul\":1153:1159   */\n      dup2\n        /* \"#utility.yul\":1140:1160   */\n      calldataload\n        /* \"#utility.yul\":1131:1160   */\n      swap1\n      pop\n        /* \"#utility.yul\":1169:1202   */\n      tag_198\n        /* \"#utility.yul\":1196:1201   */\n      dup2\n        /* \"#utility.yul\":1169:1202   */\n      tag_199\n      jump\t// in\n    tag_198:\n        /* \"#utility.yul\":1069:1208   */\n      swap3\n      swap2\n      pop\n      pop\n      jump\t// out\n        /* \"#utility.yul\":1214:1543   */\n    tag_106:\n        /* \"#utility.yul\":1273:1279   */\n      0x00\n        /* \"#utility.yul\":1322:1324   */\n      0x20\n        /* \"#utility.yul\":1310:1319   */\n      dup3\n        /* \"#utility.yul\":1301:1308   */\n      dup5\n        /* \"#utility.yul\":1297:1320   */\n      sub\n        /* \"#utility.yul\":1293:1325   */\n      slt\n        /* \"#utility.yul\":1290:1409   */\n      iszero\n      tag_201\n      jumpi\n        /* \"#utility.yul\":1328:1407   */\n      tag_202\n      tag_203\n      jump\t// in\n    tag_202:\n        /* \"#utility.yul\":1290:1409   */\n    tag_201:\n        /* \"#utility.yul\":1448:1449   */\n      0x00\n        /* \"#utility.yul\":1473:1526   */\n      tag_204\n        /* \"#utility.yul\":1518:1525   */\n      dup5\n        /* \"#utility.yul\":1509:1515   */\n      dup3\n        /* \"#utility.yul\":1498:1507   */\n      dup6\n        /* \"#utility.yul\":1494:1516   */\n      add\n        /* \"#utility.yul\":1473:1526   */\n      tag_182\n      jump\t// in\n    tag_204:\n        /* \"#utility.yul\":1463:1526   */\n      swap2\n      pop\n        /* \"#utility.yul\":1419:1536   */\n      pop\n        /* \"#utility.yul\":1214:1543   */\n      swap3\n      swap2\n      pop\n      pop\n      jump\t// out\n        /* \"#utility.yul\":1549:2023   */\n    tag_52:\n        /* \"#utility.yul\":1617:1623   */\n      0x00\n        /* \"#utility.yul\":1625:1631   */\n      dup1\n        /* \"#utility.yul\":1674:1676   */\n      0x40\n        /* \"#utility.yul\":1662:1671   */\n      dup4\n        /* \"#utility.yul\":1653:1660   */\n      dup6\n        /* \"#utility.yul\":1649:1672   */\n      sub\n        /* \"#utility.yul\":1645:1677   */\n      slt\n        /* \"#utility.yul\":1642:1761   */\n      iszero\n      tag_206\n      jumpi\n        /* \"#utility.yul\":1680:1759   */\n      tag_207\n      tag_203\n      jump\t// in\n    tag_207:\n        /* \"#utility.yul\":1642:1761   */\n    tag_206:\n        /* \"#utility.yul\":1800:1801   */\n      0x00\n        /* \"#utility.yul\":1825:1878   */\n      tag_208\n        /* \"#utility.yul\":1870:1877   */\n      dup6\n        /* \"#utility.yul\":1861:1867   */\n      dup3\n        /* \"#utility.yul\":1850:1859   */\n      dup7\n        /* \"#utility.yul\":1846:1868   */\n      add\n        /* \"#utility.yul\":1825:1878   */\n      tag_182\n      jump\t// in\n    tag_208:\n        /* \"#utility.yul\":1815:1878   */\n      swap3\n      pop\n        /* \"#utility.yul\":1771:1888   */\n      pop\n        /* \"#utility.yul\":1927:1929   */\n      0x20\n        /* \"#utility.yul\":1953:2006   */\n      tag_209\n        /* \"#utility.yul\":1998:2005   */\n      dup6\n        /* \"#utility.yul\":1989:1995   */\n      dup3\n        /* \"#utility.yul\":1978:1987   */\n      dup7\n        /* \"#utility.yul\":1974:1996   */\n      add\n        /* \"#utility.yul\":1953:2006   */\n      tag_196\n      jump\t// in\n    tag_209:\n        /* \"#utility.yul\":1943:2006   */\n      swap2\n      pop\n        /* \"#utility.yul\":1898:2016   */\n      pop\n        /* \"#utility.yul\":1549:2023   */\n      swap3\n      pop\n      swap3\n      swap1\n      pop\n      jump\t// out\n        /* \"#utility.yul\":2029:2352   */\n    tag_91:\n        /* \"#utility.yul\":2085:2091   */\n      0x00\n        /* \"#utility.yul\":2134:2136   */\n      0x20\n        /* \"#utility.yul\":2122:2131   */\n      dup3\n        /* \"#utility.yul\":2113:2120   */\n      dup5\n        /* \"#utility.yul\":2109:2132   */\n      sub\n        /* \"#utility.yul\":2105:2137   */\n      slt\n        /* \"#utility.yul\":2102:2221   */\n      iszero\n      tag_211\n      jumpi\n        /* \"#utility.yul\":2140:2219   */\n      tag_212\n      tag_203\n      jump\t// in\n    tag_212:\n        /* \"#utility.yul\":2102:2221   */\n    tag_211:\n        /* \"#utility.yul\":2260:2261   */\n      0x00\n        /* \"#utility.yul\":2285:2335   */\n      tag_213\n        /* \"#utility.yul\":2327:2334   */\n      dup5\n        /* \"#utility.yul\":2318:2324   */\n      dup3\n        /* \"#utility.yul\":2307:2316   */\n      dup6\n        /* \"#utility.yul\":2303:2325   */\n      add\n        /* \"#utility.yul\":2285:2335   */\n      tag_186\n      jump\t// in\n    tag_213:\n        /* \"#utility.yul\":2275:2335   */\n      swap2\n      pop\n        /* \"#utility.yul\":2231:2345   */\n      pop\n        /* \"#utility.yul\":2029:2352   */\n      swap3\n      swap2\n      pop\n      pop\n      jump\t// out\n        /* \"#utility.yul\":2358:2867   */\n    tag_101:\n        /* \"#utility.yul\":2427:2433   */\n      0x00\n        /* \"#utility.yul\":2476:2478   */\n      0x20\n        /* \"#utility.yul\":2464:2473   */\n      dup3\n        /* \"#utility.yul\":2455:2462   */\n      dup5\n        /* \"#utility.yul\":2451:2474   */\n      sub\n        /* \"#utility.yul\":2447:2479   */\n      slt\n        /* \"#utility.yul\":2444:2563   */\n      iszero\n      tag_215\n      jumpi\n        /* \"#utility.yul\":2482:2561   */\n      tag_216\n      tag_203\n      jump\t// in\n    tag_216:\n        /* \"#utility.yul\":2444:2563   */\n    tag_215:\n        /* \"#utility.yul\":2630:2631   */\n      0x00\n        /* \"#utility.yul\":2619:2628   */\n      dup3\n        /* \"#utility.yul\":2615:2632   */\n      add\n        /* \"#utility.yul\":2602:2633   */\n      calldataload\n        /* \"#utility.yul\":2660:2678   */\n      0xffffffffffffffff\n        /* \"#utility.yul\":2652:2658   */\n      dup2\n        /* \"#utility.yul\":2649:2679   */\n      gt\n        /* \"#utility.yul\":2646:2763   */\n      iszero\n      tag_217\n      jumpi\n        /* \"#utility.yul\":2682:2761   */\n      tag_218\n      tag_219\n      jump\t// in\n    tag_218:\n        /* \"#utility.yul\":2646:2763   */\n    tag_217:\n        /* \"#utility.yul\":2787:2850   */\n      tag_220\n        /* \"#utility.yul\":2842:2849   */\n      dup5\n        /* \"#utility.yul\":2833:2839   */\n      dup3\n        /* \"#utility.yul\":2822:2831   */\n      dup6\n        /* \"#utility.yul\":2818:2840   */\n      add\n        /* \"#utility.yul\":2787:2850   */\n      tag_190\n      jump\t// in\n    tag_220:\n        /* \"#utility.yul\":2777:2850   */\n      swap2\n      pop\n        /* \"#utility.yul\":2573:2860   */\n      pop\n        /* \"#utility.yul\":2358:2867   */\n      swap3\n      swap2\n      pop\n      pop\n      jump\t// out\n        /* \"#utility.yul\":2873:3202   */\n    tag_40:\n        /* \"#utility.yul\":2932:2938   */\n      0x00\n        /* \"#utility.yul\":2981:2983   */\n      0x20\n        /* \"#utility.yul\":2969:2978   */\n      dup3\n        /* \"#utility.yul\":2960:2967   */\n      dup5\n        /* \"#utility.yul\":2956:2979   */\n      sub\n        /* \"#utility.yul\":2952:2984   */\n      slt\n        /* \"#utility.yul\":2949:3068   */\n      iszero\n      tag_222\n      jumpi\n        /* \"#utility.yul\":2987:3066   */\n      tag_223\n      tag_203\n      jump\t// in\n    tag_223:\n        /* \"#utility.yul\":2949:3068   */\n    tag_222:\n        /* \"#utility.yul\":3107:3108   */\n      0x00\n        /* \"#utility.yul\":3132:3185   */\n      tag_224\n        /* \"#utility.yul\":3177:3184   */\n      dup5\n        /* \"#utility.yul\":3168:3174   */\n      dup3\n        /* \"#utility.yul\":3157:3166   */\n      dup6\n        /* \"#utility.yul\":3153:3175   */\n      add\n        /* \"#utility.yul\":3132:3185   */\n      tag_196\n      jump\t// in\n    tag_224:\n        /* \"#utility.yul\":3122:3185   */\n      swap2\n      pop\n        /* \"#utility.yul\":3078:3195   */\n      pop\n        /* \"#utility.yul\":2873:3202   */\n      swap3\n      swap2\n      pop\n      pop\n      jump\t// out\n        /* \"#utility.yul\":3208:3326   */\n    tag_225:\n        /* \"#utility.yul\":3295:3319   */\n      tag_227\n        /* \"#utility.yul\":3313:3318   */\n      dup2\n        /* \"#utility.yul\":3295:3319   */\n      tag_228\n      jump\t// in\n    tag_227:\n        /* \"#utility.yul\":3290:3293   */\n      dup3\n        /* \"#utility.yul\":3283:3320   */\n      mstore\n        /* \"#utility.yul\":3208:3326   */\n      pop\n      pop\n      jump\t// out\n        /* \"#utility.yul\":3332:3441   */\n    tag_229:\n        /* \"#utility.yul\":3413:3434   */\n      tag_231\n        /* \"#utility.yul\":3428:3433   */\n      dup2\n        /* \"#utility.yul\":3413:3434   */\n      tag_232\n      jump\t// in\n    tag_231:\n        /* \"#utility.yul\":3408:3411   */\n      dup3\n        /* \"#utility.yul\":3401:3435   */\n      mstore\n        /* \"#utility.yul\":3332:3441   */\n      pop\n      pop\n      jump\t// out\n        /* \"#utility.yul\":3447:3562   */\n    tag_233:\n        /* \"#utility.yul\":3532:3555   */\n      tag_235\n        /* \"#utility.yul\":3549:3554   */\n      dup2\n        /* \"#utility.yul\":3532:3555   */\n      tag_236\n      jump\t// in\n    tag_235:\n        /* \"#utility.yul\":3527:3530   */\n      dup3\n        /* \"#utility.yul\":3520:3556   */\n      mstore\n        /* \"#utility.yul\":3447:3562   */\n      pop\n      pop\n      jump\t// out\n        /* \"#utility.yul\":3568:3677   */\n    tag_237:\n        /* \"#utility.yul\":3649:3670   */\n      tag_239\n        /* \"#utility.yul\":3664:3669   */\n      dup2\n        /* \"#utility.yul\":3649:3670   */\n      tag_240\n      jump\t// in\n    tag_239:\n        /* \"#utility.yul\":3644:3647   */\n      dup3\n        /* \"#utility.yul\":3637:3671   */\n      mstore\n        /* \"#utility.yul\":3568:3677   */\n      pop\n      pop\n      jump\t// out\n        /* \"#utility.yul\":3683:4047   */\n    tag_241:\n        /* \"#utility.yul\":3771:3774   */\n      0x00\n        /* \"#utility.yul\":3799:3838   */\n      tag_243\n        /* \"#utility.yul\":3832:3837   */\n      dup3\n        /* \"#utility.yul\":3799:3838   */\n      tag_244\n      jump\t// in\n    tag_243:\n        /* \"#utility.yul\":3854:3925   */\n      tag_245\n        /* \"#utility.yul\":3918:3924   */\n      dup2\n        /* \"#utility.yul\":3913:3916   */\n      dup6\n        /* \"#utility.yul\":3854:3925   */\n      tag_246\n      jump\t// in\n    tag_245:\n        /* \"#utility.yul\":3847:3925   */\n      swap4\n      pop\n        /* \"#utility.yul\":3934:3986   */\n      tag_247\n        /* \"#utility.yul\":3979:3985   */\n      dup2\n        /* \"#utility.yul\":3974:3977   */\n      dup6\n        /* \"#utility.yul\":3967:3971   */\n      0x20\n        /* \"#utility.yul\":3960:3965   */\n      dup7\n        /* \"#utility.yul\":3956:3972   */\n      add\n        /* \"#utility.yul\":3934:3986   */\n      tag_248\n      jump\t// in\n    tag_247:\n        /* \"#utility.yul\":4011:4040   */\n      tag_249\n        /* \"#utility.yul\":4033:4039   */\n      dup2\n        /* \"#utility.yul\":4011:4040   */\n      tag_250\n      jump\t// in\n    tag_249:\n        /* \"#utility.yul\":4006:4009   */\n      dup5\n        /* \"#utility.yul\":4002:4041   */\n      add\n        /* \"#utility.yul\":3995:4041   */\n      swap2\n      pop\n        /* \"#utility.yul\":3775:4047   */\n      pop\n        /* \"#utility.yul\":3683:4047   */\n      swap3\n      swap2\n      pop\n      pop\n      jump\t// out\n        /* \"#utility.yul\":4053:4171   */\n    tag_251:\n        /* \"#utility.yul\":4140:4164   */\n      tag_253\n        /* \"#utility.yul\":4158:4163   */\n      dup2\n        /* \"#utility.yul\":4140:4164   */\n      tag_254\n      jump\t// in\n    tag_253:\n        /* \"#utility.yul\":4135:4138   */\n      dup3\n        /* \"#utility.yul\":4128:4165   */\n      mstore\n        /* \"#utility.yul\":4053:4171   */\n      pop\n      pop\n      jump\t// out\n        /* \"#utility.yul\":4177:4289   */\n    tag_255:\n        /* \"#utility.yul\":4260:4282   */\n      tag_257\n        /* \"#utility.yul\":4276:4281   */\n      dup2\n        /* \"#utility.yul\":4260:4282   */\n      tag_258\n      jump\t// in\n    tag_257:\n        /* \"#utility.yul\":4255:4258   */\n      dup3\n        /* \"#utility.yul\":4248:4283   */\n      mstore\n        /* \"#utility.yul\":4177:4289   */\n      pop\n      pop\n      jump\t// out\n        /* \"#utility.yul\":4295:4517   */\n    tag_97:\n        /* \"#utility.yul\":4388:4392   */\n      0x00\n        /* \"#utility.yul\":4426:4428   */\n      0x20\n        /* \"#utility.yul\":4415:4424   */\n      dup3\n        /* \"#utility.yul\":4411:4429   */\n      add\n        /* \"#utility.yul\":4403:4429   */\n      swap1\n      pop\n        /* \"#utility.yul\":4439:4510   */\n      tag_260\n        /* \"#utility.yul\":4507:4508   */\n      0x00\n        /* \"#utility.yul\":4496:4505   */\n      dup4\n        /* \"#utility.yul\":4492:4509   */\n      add\n        /* \"#utility.yul\":4483:4489   */\n      dup5\n        /* \"#utility.yul\":4439:4510   */\n      tag_225\n      jump\t// in\n    tag_260:\n        /* \"#utility.yul\":4295:4517   */\n      swap3\n      swap2\n      pop\n      pop\n      jump\t// out\n        /* \"#utility.yul\":4523:4733   */\n    tag_79:\n        /* \"#utility.yul\":4610:4614   */\n      0x00\n        /* \"#utility.yul\":4648:4650   */\n      0x20\n        /* \"#utility.yul\":4637:4646   */\n      dup3\n        /* \"#utility.yul\":4633:4651   */\n      add\n        /* \"#utility.yul\":4625:4651   */\n      swap1\n      pop\n        /* \"#utility.yul\":4661:4726   */\n      tag_262\n        /* \"#utility.yul\":4723:4724   */\n      0x00\n        /* \"#utility.yul\":4712:4721   */\n      dup4\n        /* \"#utility.yul\":4708:4725   */\n      add\n        /* \"#utility.yul\":4699:4705   */\n      dup5\n        /* \"#utility.yul\":4661:4726   */\n      tag_229\n      jump\t// in\n    tag_262:\n        /* \"#utility.yul\":4523:4733   */\n      swap3\n      swap2\n      pop\n      pop\n      jump\t// out\n        /* \"#utility.yul\":4739:4957   */\n    tag_48:\n        /* \"#utility.yul\":4830:4834   */\n      0x00\n        /* \"#utility.yul\":4868:4870   */\n      0x20\n        /* \"#utility.yul\":4857:4866   */\n      dup3\n        /* \"#utility.yul\":4853:4871   */\n      add\n        /* \"#utility.yul\":4845:4871   */\n      swap1\n      pop\n        /* \"#utility.yul\":4881:4950   */\n      tag_264\n        /* \"#utility.yul\":4947:4948   */\n      0x00\n        /* \"#utility.yul\":4936:4945   */\n      dup4\n        /* \"#utility.yul\":4932:4949   */\n      add\n        /* \"#utility.yul\":4923:4929   */\n      dup5\n        /* \"#utility.yul\":4881:4950   */\n      tag_233\n      jump\t// in\n    tag_264:\n        /* \"#utility.yul\":4739:4957   */\n      swap3\n      swap2\n      pop\n      pop\n      jump\t// out\n        /* \"#utility.yul\":4963:5173   */\n    tag_84:\n        /* \"#utility.yul\":5050:5054   */\n      0x00\n        /* \"#utility.yul\":5088:5090   */\n      0x20\n        /* \"#utility.yul\":5077:5086   */\n      dup3\n        /* \"#utility.yul\":5073:5091   */\n      add\n        /* \"#utility.yul\":5065:5091   */\n      swap1\n      pop\n        /* \"#utility.yul\":5101:5166   */\n      tag_266\n        /* \"#utility.yul\":5163:5164   */\n      0x00\n        /* \"#utility.yul\":5152:5161   */\n      dup4\n        /* \"#utility.yul\":5148:5165   */\n      add\n        /* \"#utility.yul\":5139:5145   */\n      dup5\n        /* \"#utility.yul\":5101:5166   */\n      tag_237\n      jump\t// in\n    tag_266:\n        /* \"#utility.yul\":4963:5173   */\n      swap3\n      swap2\n      pop\n      pop\n      jump\t// out\n        /* \"#utility.yul\":5179:5492   */\n    tag_74:\n        /* \"#utility.yul\":5292:5296   */\n      0x00\n        /* \"#utility.yul\":5330:5332   */\n      0x20\n        /* \"#utility.yul\":5319:5328   */\n      dup3\n        /* \"#utility.yul\":5315:5333   */\n      add\n        /* \"#utility.yul\":5307:5333   */\n      swap1\n      pop\n        /* \"#utility.yul\":5379:5388   */\n      dup2\n        /* \"#utility.yul\":5373:5377   */\n      dup2\n        /* \"#utility.yul\":5369:5389   */\n      sub\n        /* \"#utility.yul\":5365:5366   */\n      0x00\n        /* \"#utility.yul\":5354:5363   */\n      dup4\n        /* \"#utility.yul\":5350:5367   */\n      add\n        /* \"#utility.yul\":5343:5390   */\n      mstore\n        /* \"#utility.yul\":5407:5485   */\n      tag_268\n        /* \"#utility.yul\":5480:5484   */\n      dup2\n        /* \"#utility.yul\":5471:5477   */\n      dup5\n        /* \"#utility.yul\":5407:5485   */\n      tag_241\n      jump\t// in\n    tag_268:\n        /* \"#utility.yul\":5399:5485   */\n      swap1\n      pop\n        /* \"#utility.yul\":5179:5492   */\n      swap3\n      swap2\n      pop\n      pop\n      jump\t// out\n        /* \"#utility.yul\":5498:5720   */\n    tag_36:\n        /* \"#utility.yul\":5591:5595   */\n      0x00\n        /* \"#utility.yul\":5629:5631   */\n      0x20\n        /* \"#utility.yul\":5618:5627   */\n      dup3\n        /* \"#utility.yul\":5614:5632   */\n      add\n        /* \"#utility.yul\":5606:5632   */\n      swap1\n      pop\n        /* \"#utility.yul\":5642:5713   */\n      tag_270\n        /* \"#utility.yul\":5710:5711   */\n      0x00\n        /* \"#utility.yul\":5699:5708   */\n      dup4\n        /* \"#utility.yul\":5695:5712   */\n      add\n        /* \"#utility.yul\":5686:5692   */\n      dup5\n        /* \"#utility.yul\":5642:5713   */\n      tag_251\n      jump\t// in\n    tag_270:\n        /* \"#utility.yul\":5498:5720   */\n      swap3\n      swap2\n      pop\n      pop\n      jump\t// out\n        /* \"#utility.yul\":5726:5940   */\n    tag_61:\n        /* \"#utility.yul\":5815:5819   */\n      0x00\n        /* \"#utility.yul\":5853:5855   */\n      0x20\n        /* \"#utility.yul\":5842:5851   */\n      dup3\n        /* \"#utility.yul\":5838:5856   */\n      add\n        /* \"#utility.yul\":5830:5856   */\n      swap1\n      pop\n        /* \"#utility.yul\":5866:5933   */\n      tag_272\n        /* \"#utility.yul\":5930:5931   */\n      0x00\n        /* \"#utility.yul\":5919:5928   */\n      dup4\n        /* \"#utility.yul\":5915:5932   */\n      add\n        /* \"#utility.yul\":5906:5912   */\n      dup5\n        /* \"#utility.yul\":5866:5933   */\n      tag_255\n      jump\t// in\n    tag_272:\n        /* \"#utility.yul\":5726:5940   */\n      swap3\n      swap2\n      pop\n      pop\n      jump\t// out\n        /* \"#utility.yul\":5946:6075   */\n    tag_176:\n        /* \"#utility.yul\":5980:5986   */\n      0x00\n        /* \"#utility.yul\":6007:6027   */\n      tag_274\n      tag_275\n      jump\t// in\n    tag_274:\n        /* \"#utility.yul\":5997:6027   */\n      swap1\n      pop\n        /* \"#utility.yul\":6036:6069   */\n      tag_276\n        /* \"#utility.yul\":6064:6068   */\n      dup3\n        /* \"#utility.yul\":6056:6062   */\n      dup3\n        /* \"#utility.yul\":6036:6069   */\n      tag_277\n      jump\t// in\n    tag_276:\n        /* \"#utility.yul\":5946:6075   */\n      swap2\n      swap1\n      pop\n      jump\t// out\n        /* \"#utility.yul\":6081:6156   */\n    tag_275:\n        /* \"#utility.yul\":6114:6120   */\n      0x00\n        /* \"#utility.yul\":6147:6149   */\n      0x40\n        /* \"#utility.yul\":6141:6150   */\n      mload\n        /* \"#utility.yul\":6131:6150   */\n      swap1\n      pop\n        /* \"#utility.yul\":6081:6156   */\n      swap1\n      jump\t// out\n        /* \"#utility.yul\":6162:6470   */\n    tag_175:\n        /* \"#utility.yul\":6224:6228   */\n      0x00\n        /* \"#utility.yul\":6314:6332   */\n      0xffffffffffffffff\n        /* \"#utility.yul\":6306:6312   */\n      dup3\n        /* \"#utility.yul\":6303:6333   */\n      gt\n        /* \"#utility.yul\":6300:6356   */\n      iszero\n      tag_280\n      jumpi\n        /* \"#utility.yul\":6336:6354   */\n      tag_281\n      tag_282\n      jump\t// in\n    tag_281:\n        /* \"#utility.yul\":6300:6356   */\n    tag_280:\n        /* \"#utility.yul\":6374:6403   */\n      tag_283\n        /* \"#utility.yul\":6396:6402   */\n      dup3\n        /* \"#utility.yul\":6374:6403   */\n      tag_250\n      jump\t// in\n    tag_283:\n        /* \"#utility.yul\":6366:6403   */\n      swap1\n      pop\n        /* \"#utility.yul\":6458:6462   */\n      0x20\n        /* \"#utility.yul\":6452:6456   */\n      dup2\n        /* \"#utility.yul\":6448:6463   */\n      add\n        /* \"#utility.yul\":6440:6463   */\n      swap1\n      pop\n        /* \"#utility.yul\":6162:6470   */\n      swap2\n      swap1\n      pop\n      jump\t// out\n        /* \"#utility.yul\":6476:6575   */\n    tag_244:\n        /* \"#utility.yul\":6528:6534   */\n      0x00\n        /* \"#utility.yul\":6562:6567   */\n      dup2\n        /* \"#utility.yul\":6556:6568   */\n      mload\n        /* \"#utility.yul\":6546:6568   */\n      swap1\n      pop\n        /* \"#utility.yul\":6476:6575   */\n      swap2\n      swap1\n      pop\n      jump\t// out\n        /* \"#utility.yul\":6581:6750   */\n    tag_246:\n        /* \"#utility.yul\":6665:6676   */\n      0x00\n        /* \"#utility.yul\":6699:6705   */\n      dup3\n        /* \"#utility.yul\":6694:6697   */\n      dup3\n        /* \"#utility.yul\":6687:6706   */\n      mstore\n        /* \"#utility.yul\":6739:6743   */\n      0x20\n        /* \"#utility.yul\":6734:6737   */\n      dup3\n        /* \"#utility.yul\":6730:6744   */\n      add\n        /* \"#utility.yul\":6715:6744   */\n      swap1\n      pop\n        /* \"#utility.yul\":6581:6750   */\n      swap3\n      swap2\n      pop\n      pop\n      jump\t// out\n        /* \"#utility.yul\":6756:7061   */\n    tag_126:\n        /* \"#utility.yul\":6796:6799   */\n      0x00\n        /* \"#utility.yul\":6815:6835   */\n      tag_287\n        /* \"#utility.yul\":6833:6834   */\n      dup3\n        /* \"#utility.yul\":6815:6835   */\n      tag_254\n      jump\t// in\n    tag_287:\n        /* \"#utility.yul\":6810:6835   */\n      swap2\n      pop\n        /* \"#utility.yul\":6849:6869   */\n      tag_288\n        /* \"#utility.yul\":6867:6868   */\n      dup4\n        /* \"#utility.yul\":6849:6869   */\n      tag_254\n      jump\t// in\n    tag_288:\n        /* \"#utility.yul\":6844:6869   */\n      swap3\n      pop\n        /* \"#utility.yul\":7003:7004   */\n      dup3\n        /* \"#utility.yul\":6935:7001   */\n      0xffffffffffffffffffffffffffffffffffffffffffffffffffffffffffffffff\n        /* \"#utility.yul\":6931:7005   */\n      sub\n        /* \"#utility.yul\":6928:6929   */\n      dup3\n        /* \"#utility.yul\":6925:7006   */\n      gt\n        /* \"#utility.yul\":6922:7029   */\n      iszero\n      tag_289\n      jumpi\n        /* \"#utility.yul\":7009:7027   */\n      tag_290\n      tag_291\n      jump\t// in\n    tag_290:\n        /* \"#utility.yul\":6922:7029   */\n    tag_289:\n        /* \"#utility.yul\":7053:7054   */\n      dup3\n        /* \"#utility.yul\":7050:7051   */\n      dup3\n        /* \"#utility.yul\":7046:7055   */\n      add\n        /* \"#utility.yul\":7039:7055   */\n      swap1\n      pop\n        /* \"#utility.yul\":6756:7061   */\n      swap3\n      swap2\n      pop\n      pop\n      jump\t// out\n        /* \"#utility.yul\":7067:7252   */\n    tag_132:\n        /* \"#utility.yul\":7107:7108   */\n      0x00\n        /* \"#utility.yul\":7124:7144   */\n      tag_293\n        /* \"#utility.yul\":7142:7143   */\n      dup3\n        /* \"#utility.yul\":7124:7144   */\n      tag_254\n      jump\t// in\n    tag_293:\n        /* \"#utility.yul\":7119:7144   */\n      swap2\n      pop\n        /* \"#utility.yul\":7158:7178   */\n      tag_294\n        /* \"#utility.yul\":7176:7177   */\n      dup4\n        /* \"#utility.yul\":7158:7178   */\n      tag_254\n      jump\t// in\n    tag_294:\n        /* \"#utility.yul\":7153:7178   */\n      swap3\n      pop\n        /* \"#utility.yul\":7197:7198   */\n      dup3\n        /* \"#utility.yul\":7187:7222   */\n      tag_295\n      jumpi\n        /* \"#utility.yul\":7202:7220   */\n      tag_296\n      tag_297\n      jump\t// in\n    tag_296:\n        /* \"#utility.yul\":7187:7222   */\n    tag_295:\n        /* \"#utility.yul\":7244:7245   */\n      dup3\n        /* \"#utility.yul\":7241:7242   */\n      dup3\n        /* \"#utility.yul\":7237:7246   */\n      div\n        /* \"#utility.yul\":7232:7246   */\n      swap1\n      pop\n        /* \"#utility.yul\":7067:7252   */\n      swap3\n      swap2\n      pop\n      pop\n      jump\t// out\n        /* \"#utility.yul\":7258:8106   */\n    tag_298:\n        /* \"#utility.yul\":7319:7324   */\n      0x00\n        /* \"#utility.yul\":7326:7330   */\n      dup1\n        /* \"#utility.yul\":7350:7356   */\n      dup3\n        /* \"#utility.yul\":7341:7356   */\n      swap2\n      pop\n        /* \"#utility.yul\":7374:7379   */\n      dup4\n        /* \"#utility.yul\":7365:7379   */\n      swap1\n      pop\n        /* \"#utility.yul\":7388:8100   */\n    tag_300:\n        /* \"#utility.yul\":7409:7410   */\n      0x01\n        /* \"#utility.yul\":7399:7407   */\n      dup6\n        /* \"#utility.yul\":7396:7411   */\n      gt\n        /* \"#utility.yul\":7388:8100   */\n      iszero\n      tag_302\n      jumpi\n        /* \"#utility.yul\":7504:7508   */\n      dup1\n        /* \"#utility.yul\":7499:7502   */\n      dup7\n        /* \"#utility.yul\":7495:7509   */\n      div\n        /* \"#utility.yul\":7489:7493   */\n      dup2\n        /* \"#utility.yul\":7486:7510   */\n      gt\n        /* \"#utility.yul\":7483:7533   */\n      iszero\n      tag_303\n      jumpi\n        /* \"#utility.yul\":7513:7531   */\n      tag_304\n      tag_291\n      jump\t// in\n    tag_304:\n        /* \"#utility.yul\":7483:7533   */\n    tag_303:\n        /* \"#utility.yul\":7563:7564   */\n      0x01\n        /* \"#utility.yul\":7553:7561   */\n      dup6\n        /* \"#utility.yul\":7549:7565   */\n      and\n        /* \"#utility.yul\":7546:7997   */\n      iszero\n      tag_305\n      jumpi\n        /* \"#utility.yul\":7978:7982   */\n      dup1\n        /* \"#utility.yul\":7971:7976   */\n      dup3\n        /* \"#utility.yul\":7967:7983   */\n      mul\n        /* \"#utility.yul\":7958:7983   */\n      swap2\n      pop\n        /* \"#utility.yul\":7546:7997   */\n    tag_305:\n        /* \"#utility.yul\":8028:8032   */\n      dup1\n        /* \"#utility.yul\":8022:8026   */\n      dup2\n        /* \"#utility.yul\":8018:8033   */\n      mul\n        /* \"#utility.yul\":8010:8033   */\n      swap1\n      pop\n        /* \"#utility.yul\":8058:8090   */\n      tag_306\n        /* \"#utility.yul\":8081:8089   */\n      dup6\n        /* \"#utility.yul\":8058:8090   */\n      tag_307\n      jump\t// in\n    tag_306:\n        /* \"#utility.yul\":8046:8090   */\n      swap5\n      pop\n        /* \"#utility.yul\":7388:8100   */\n      jump(tag_300)\n    tag_302:\n        /* \"#utility.yul\":7258:8106   */\n      swap5\n      pop\n      swap5\n      swap3\n      pop\n      pop\n      pop\n      jump\t// out\n        /* \"#utility.yul\":8112:8393   */\n    tag_134:\n        /* \"#utility.yul\":8170:8175   */\n      0x00\n        /* \"#utility.yul\":8194:8217   */\n      tag_309\n        /* \"#utility.yul\":8212:8216   */\n      dup3\n        /* \"#utility.yul\":8194:8217   */\n      tag_254\n      jump\t// in\n    tag_309:\n        /* \"#utility.yul\":8186:8217   */\n      swap2\n      pop\n        /* \"#utility.yul\":8238:8263   */\n      tag_310\n        /* \"#utility.yul\":8254:8262   */\n      dup4\n        /* \"#utility.yul\":8238:8263   */\n      tag_258\n      jump\t// in\n    tag_310:\n        /* \"#utility.yul\":8226:8263   */\n      swap3\n      pop\n        /* \"#utility.yul\":8282:8386   */\n      tag_311\n        /* \"#utility.yul\":8319:8385   */\n      0xffffffffffffffffffffffffffffffffffffffffffffffffffffffffffffffff\n        /* \"#utility.yul\":8309:8317   */\n      dup5\n        /* \"#utility.yul\":8303:8307   */\n      dup5\n        /* \"#utility.yul\":8282:8386   */\n      tag_312\n      jump\t// in\n    tag_311:\n        /* \"#utility.yul\":8273:8386   */\n      swap1\n      pop\n        /* \"#utility.yul\":8112:8393   */\n      swap3\n      swap2\n      pop\n      pop\n      jump\t// out\n        /* \"#utility.yul\":8399:9472   */\n    tag_312:\n        /* \"#utility.yul\":8453:8458   */\n      0x00\n        /* \"#utility.yul\":8644:8652   */\n      dup3\n        /* \"#utility.yul\":8634:8674   */\n      tag_314\n      jumpi\n        /* \"#utility.yul\":8665:8666   */\n      0x01\n        /* \"#utility.yul\":8656:8666   */\n      swap1\n      pop\n        /* \"#utility.yul\":8667:8672   */\n      jump(tag_313)\n        /* \"#utility.yul\":8634:8674   */\n    tag_314:\n        /* \"#utility.yul\":8693:8697   */\n      dup2\n        /* \"#utility.yul\":8683:8719   */\n      tag_315\n      jumpi\n        /* \"#utility.yul\":8710:8711   */\n      0x00\n        /* \"#utility.yul\":8701:8711   */\n      swap1\n      pop\n        /* \"#utility.yul\":8712:8717   */\n      jump(tag_313)\n        /* \"#utility.yul\":8683:8719   */\n    tag_315:\n        /* \"#utility.yul\":8779:8783   */\n      dup2\n        /* \"#utility.yul\":8827:8828   */\n      0x01\n        /* \"#utility.yul\":8822:8849   */\n      dup2\n      eq\n      tag_317\n      jumpi\n        /* \"#utility.yul\":8863:8864   */\n      0x02\n        /* \"#utility.yul\":8858:9049   */\n      dup2\n      eq\n      tag_318\n      jumpi\n        /* \"#utility.yul\":8772:9049   */\n      jump(tag_316)\n        /* \"#utility.yul\":8822:8849   */\n    tag_317:\n        /* \"#utility.yul\":8840:8841   */\n      0x01\n        /* \"#utility.yul\":8831:8841   */\n      swap2\n      pop\n        /* \"#utility.yul\":8842:8847   */\n      pop\n      jump(tag_313)\n        /* \"#utility.yul\":8858:9049   */\n    tag_318:\n        /* \"#utility.yul\":8903:8906   */\n      0xff\n        /* \"#utility.yul\":8893:8901   */\n      dup5\n        /* \"#utility.yul\":8890:8907   */\n      gt\n        /* \"#utility.yul\":8887:8930   */\n      iszero\n      tag_319\n      jumpi\n        /* \"#utility.yul\":8910:8928   */\n      tag_320\n      tag_291\n      jump\t// in\n    tag_320:\n        /* \"#utility.yul\":8887:8930   */\n    tag_319:\n        /* \"#utility.yul\":8959:8967   */\n      dup4\n        /* \"#utility.yul\":8956:8957   */\n      0x02\n        /* \"#utility.yul\":8952:8968   */\n      exp\n        /* \"#utility.yul\":8943:8968   */\n      swap2\n      pop\n        /* \"#utility.yul\":8994:8997   */\n      dup5\n        /* \"#utility.yul\":8987:8992   */\n      dup3\n        /* \"#utility.yul\":8984:8998   */\n      gt\n        /* \"#utility.yul\":8981:9021   */\n      iszero\n      tag_321\n      jumpi\n        /* \"#utility.yul\":9001:9019   */\n      tag_322\n      tag_291\n      jump\t// in\n    tag_322:\n        /* \"#utility.yul\":8981:9021   */\n    tag_321:\n        /* \"#utility.yul\":9034:9039   */\n      pop\n      jump(tag_313)\n        /* \"#utility.yul\":8772:9049   */\n    tag_316:\n      pop\n        /* \"#utility.yul\":9158:9160   */\n      0x20\n        /* \"#utility.yul\":9148:9156   */\n      dup4\n        /* \"#utility.yul\":9145:9161   */\n      lt\n        /* \"#utility.yul\":9139:9142   */\n      0x0133\n        /* \"#utility.yul\":9133:9137   */\n      dup4\n        /* \"#utility.yul\":9130:9143   */\n      lt\n        /* \"#utility.yul\":9126:9162   */\n      and\n        /* \"#utility.yul\":9108:9110   */\n      0x4e\n        /* \"#utility.yul\":9098:9106   */\n      dup5\n        /* \"#utility.yul\":9095:9111   */\n      lt\n        /* \"#utility.yul\":9090:9092   */\n      0x0b\n        /* \"#utility.yul\":9084:9088   */\n      dup5\n        /* \"#utility.yul\":9081:9093   */\n      lt\n        /* \"#utility.yul\":9077:9112   */\n      and\n        /* \"#utility.yul\":9061:9172   */\n      or\n        /* \"#utility.yul\":9058:9304   */\n      iszero\n      tag_323\n      jumpi\n        /* \"#utility.yul\":9214:9222   */\n      dup3\n        /* \"#utility.yul\":9208:9212   */\n      dup3\n        /* \"#utility.yul\":9204:9223   */\n      exp\n        /* \"#utility.yul\":9195:9223   */\n      swap1\n      pop\n        /* \"#utility.yul\":9249:9252   */\n      dup4\n        /* \"#utility.yul\":9242:9247   */\n      dup2\n        /* \"#utility.yul\":9239:9253   */\n      gt\n        /* \"#utility.yul\":9236:9276   */\n      iszero\n      tag_324\n      jumpi\n        /* \"#utility.yul\":9256:9274   */\n      tag_325\n      tag_291\n      jump\t// in\n    tag_325:\n        /* \"#utility.yul\":9236:9276   */\n    tag_324:\n        /* \"#utility.yul\":9289:9294   */\n      jump(tag_313)\n        /* \"#utility.yul\":9058:9304   */\n    tag_323:\n        /* \"#utility.yul\":9329:9371   */\n      tag_326\n        /* \"#utility.yul\":9367:9370   */\n      dup5\n        /* \"#utility.yul\":9357:9365   */\n      dup5\n        /* \"#utility.yul\":9351:9355   */\n      dup5\n        /* \"#utility.yul\":9348:9349   */\n      0x01\n        /* \"#utility.yul\":9329:9371   */\n      tag_298\n      jump\t// in\n    tag_326:\n        /* \"#utility.yul\":9314:9371   */\n      swap3\n      pop\n      swap1\n      pop\n        /* \"#utility.yul\":9403:9407   */\n      dup2\n        /* \"#utility.yul\":9398:9401   */\n      dup5\n        /* \"#utility.yul\":9394:9408   */\n      div\n        /* \"#utility.yul\":9387:9392   */\n      dup2\n        /* \"#utility.yul\":9384:9409   */\n      gt\n        /* \"#utility.yul\":9381:9432   */\n      iszero\n      tag_327\n      jumpi\n        /* \"#utility.yul\":9412:9430   */\n      tag_328\n      tag_291\n      jump\t// in\n    tag_328:\n        /* \"#utility.yul\":9381:9432   */\n    tag_327:\n        /* \"#utility.yul\":9461:9465   */\n      dup2\n        /* \"#utility.yul\":9454:9459   */\n      dup2\n        /* \"#utility.yul\":9450:9466   */\n      mul\n        /* \"#utility.yul\":9441:9466   */\n      swap1\n      pop\n        /* \"#utility.yul\":8399:9472   */\n    tag_313:\n      swap4\n      swap3\n      pop\n      pop\n      pop\n      jump\t// out\n        /* \"#utility.yul\":9478:9826   */\n    tag_130:\n        /* \"#utility.yul\":9518:9525   */\n      0x00\n        /* \"#utility.yul\":9541:9561   */\n      tag_330\n        /* \"#utility.yul\":9559:9560   */\n      dup3\n        /* \"#utility.yul\":9541:9561   */\n      tag_254\n      jump\t// in\n    tag_330:\n        /* \"#utility.yul\":9536:9561   */\n      swap2\n      pop\n        /* \"#utility.yul\":9575:9595   */\n      tag_331\n        /* \"#utility.yul\":9593:9594   */\n      dup4\n        /* \"#utility.yul\":9575:9595   */\n      tag_254\n      jump\t// in\n    tag_331:\n        /* \"#utility.yul\":9570:9595   */\n      swap3\n      pop\n        /* \"#utility.yul\":9763:9764   */\n      dup2\n        /* \"#utility.yul\":9695:9761   */\n      0xffffffffffffffffffffffffffffffffffffffffffffffffffffffffffffffff\n        /* \"#utility.yul\":9691:9765   */\n      div\n        /* \"#utility.yul\":9688:9689   */\n      dup4\n        /* \"#utility.yul\":9685:9766   */\n      gt\n        /* \"#utility.yul\":9680:9681   */\n      dup3\n        /* \"#utility.yul\":9673:9682   */\n      iszero\n        /* \"#utility.yul\":9666:9683   */\n      iszero\n        /* \"#utility.yul\":9662:9767   */\n      and\n        /* \"#utility.yul\":9659:9790   */\n      iszero\n      tag_332\n      jumpi\n        /* \"#utility.yul\":9770:9788   */\n      tag_333\n      tag_291\n      jump\t// in\n    tag_333:\n        /* \"#utility.yul\":9659:9790   */\n    tag_332:\n        /* \"#utility.yul\":9818:9819   */\n      dup3\n        /* \"#utility.yul\":9815:9816   */\n      dup3\n        /* \"#utility.yul\":9811:9820   */\n      mul\n        /* \"#utility.yul\":9800:9820   */\n      swap1\n      pop\n        /* \"#utility.yul\":9478:9826   */\n      swap3\n      swap2\n      pop\n      pop\n      jump\t// out\n        /* \"#utility.yul\":9832:10023   */\n    tag_128:\n        /* \"#utility.yul\":9872:9876   */\n      0x00\n        /* \"#utility.yul\":9892:9912   */\n      tag_335\n        /* \"#utility.yul\":9910:9911   */\n      dup3\n        /* \"#utility.yul\":9892:9912   */\n      tag_254\n      jump\t// in\n    tag_335:\n        /* \"#utility.yul\":9887:9912   */\n      swap2\n      pop\n        /* \"#utility.yul\":9926:9946   */\n      tag_336\n        /* \"#utility.yul\":9944:9945   */\n      dup4\n        /* \"#utility.yul\":9926:9946   */\n      tag_254\n      jump\t// in\n    tag_336:\n        /* \"#utility.yul\":9921:9946   */\n      swap3\n      pop\n        /* \"#utility.yul\":9965:9966   */\n      dup3\n        /* \"#utility.yul\":9962:9963   */\n      dup3\n        /* \"#utility.yul\":9959:9967   */\n      lt\n        /* \"#utility.yul\":9956:9990   */\n      iszero\n      tag_337\n      jumpi\n        /* \"#utility.yul\":9970:9988   */\n      tag_338\n      tag_291\n      jump\t// in\n    tag_338:\n        /* \"#utility.yul\":9956:9990   */\n    tag_337:\n        /* \"#utility.yul\":10015:10016   */\n      dup3\n        /* \"#utility.yul\":10012:10013   */\n      dup3\n        /* \"#utility.yul\":10008:10017   */\n      sub\n        /* \"#utility.yul\":10000:10017   */\n      swap1\n      pop\n        /* \"#utility.yul\":9832:10023   */\n      swap3\n      swap2\n      pop\n      pop\n      jump\t// out\n        /* \"#utility.yul\":10029:10125   */\n    tag_228:\n        /* \"#utility.yul\":10066:10073   */\n      0x00\n        /* \"#utility.yul\":10095:10119   */\n      tag_340\n        /* \"#utility.yul\":10113:10118   */\n      dup3\n        /* \"#utility.yul\":10095:10119   */\n      tag_341\n      jump\t// in\n    tag_340:\n        /* \"#utility.yul\":10084:10119   */\n      swap1\n      pop\n        /* \"#utility.yul\":10029:10125   */\n      swap2\n      swap1\n      pop\n      jump\t// out\n        /* \"#utility.yul\":10131:10221   */\n    tag_232:\n        /* \"#utility.yul\":10165:10172   */\n      0x00\n        /* \"#utility.yul\":10208:10213   */\n      dup2\n        /* \"#utility.yul\":10201:10214   */\n      iszero\n        /* \"#utility.yul\":10194:10215   */\n      iszero\n        /* \"#utility.yul\":10183:10215   */\n      swap1\n      pop\n        /* \"#utility.yul\":10131:10221   */\n      swap2\n      swap1\n      pop\n      jump\t// out\n        /* \"#utility.yul\":10227:10303   */\n    tag_236:\n        /* \"#utility.yul\":10263:10270   */\n      0x00\n        /* \"#utility.yul\":10292:10297   */\n      dup2\n        /* \"#utility.yul\":10281:10297   */\n      swap1\n      pop\n        /* \"#utility.yul\":10227:10303   */\n      swap2\n      swap1\n      pop\n      jump\t// out\n        /* \"#utility.yul\":10309:10398   */\n    tag_240:\n        /* \"#utility.yul\":10343:10350   */\n      0x00\n        /* \"#utility.yul\":10386:10391   */\n      dup2\n        /* \"#utility.yul\":10383:10384   */\n      0x00\n        /* \"#utility.yul\":10372:10392   */\n      signextend\n        /* \"#utility.yul\":10361:10392   */\n      swap1\n      pop\n        /* \"#utility.yul\":10309:10398   */\n      swap2\n      swap1\n      pop\n      jump\t// out\n        /* \"#utility.yul\":10404:10530   */\n    tag_341:\n        /* \"#utility.yul\":10441:10448   */\n      0x00\n        /* \"#utility.yul\":10481:10523   */\n      0xffffffffffffffffffffffffffffffffffffffff\n        /* \"#utility.yul\":10474:10479   */\n      dup3\n        /* \"#utility.yul\":10470:10524   */\n      and\n        /* \"#utility.yul\":10459:10524   */\n      swap1\n      pop\n        /* \"#utility.yul\":10404:10530   */\n      swap2\n      swap1\n      pop\n      jump\t// out\n        /* \"#utility.yul\":10536:10613   */\n    tag_254:\n        /* \"#utility.yul\":10573:10580   */\n      0x00\n        /* \"#utility.yul\":10602:10607   */\n      dup2\n        /* \"#utility.yul\":10591:10607   */\n      swap1\n      pop\n        /* \"#utility.yul\":10536:10613   */\n      swap2\n      swap1\n      pop\n      jump\t// out\n        /* \"#utility.yul\":10619:10705   */\n    tag_258:\n        /* \"#utility.yul\":10654:10661   */\n      0x00\n        /* \"#utility.yul\":10694:10698   */\n      0xff\n        /* \"#utility.yul\":10687:10692   */\n      dup3\n        /* \"#utility.yul\":10683:10699   */\n      and\n        /* \"#utility.yul\":10672:10699   */\n      swap1\n      pop\n        /* \"#utility.yul\":10619:10705   */\n      swap2\n      swap1\n      pop\n      jump\t// out\n        /* \"#utility.yul\":10711:10865   */\n    tag_181:\n        /* \"#utility.yul\":10795:10801   */\n      dup3\n        /* \"#utility.yul\":10790:10793   */\n      dup2\n        /* \"#utility.yul\":10785:10788   */\n      dup4\n        /* \"#utility.yul\":10772:10802   */\n      calldatacopy\n        /* \"#utility.yul\":10857:10858   */\n      0x00\n        /* \"#utility.yul\":10848:10854   */\n      dup4\n        /* \"#utility.yul\":10843:10846   */\n      dup4\n        /* \"#utility.yul\":10839:10855   */\n      add\n        /* \"#utility.yul\":10832:10859   */\n      mstore\n        /* \"#utility.yul\":10711:10865   */\n      pop\n      pop\n      pop\n      jump\t// out\n        /* \"#utility.yul\":10871:11178   */\n    tag_248:\n        /* \"#utility.yul\":10939:10940   */\n      0x00\n        /* \"#utility.yul\":10949:11062   */\n    tag_350:\n        /* \"#utility.yul\":10963:10969   */\n      dup4\n        /* \"#utility.yul\":10960:10961   */\n      dup2\n        /* \"#utility.yul\":10957:10970   */\n      lt\n        /* \"#utility.yul\":10949:11062   */\n      iszero\n      tag_352\n      jumpi\n        /* \"#utility.yul\":11048:11049   */\n      dup1\n        /* \"#utility.yul\":11043:11046   */\n      dup3\n        /* \"#utility.yul\":11039:11050   */\n      add\n        /* \"#utility.yul\":11033:11051   */\n      mload\n        /* \"#utility.yul\":11029:11030   */\n      dup2\n        /* \"#utility.yul\":11024:11027   */\n      dup5\n        /* \"#utility.yul\":11020:11031   */\n      add\n        /* \"#utility.yul\":11013:11052   */\n      mstore\n        /* \"#utility.yul\":10985:10987   */\n      0x20\n        /* \"#utility.yul\":10982:10983   */\n      dup2\n        /* \"#utility.yul\":10978:10988   */\n      add\n        /* \"#utility.yul\":10973:10988   */\n      swap1\n      pop\n        /* \"#utility.yul\":10949:11062   */\n      jump(tag_350)\n    tag_352:\n        /* \"#utility.yul\":11080:11086   */\n      dup4\n        /* \"#utility.yul\":11077:11078   */\n      dup2\n        /* \"#utility.yul\":11074:11087   */\n      gt\n        /* \"#utility.yul\":11071:11172   */\n      iszero\n      tag_353\n      jumpi\n        /* \"#utility.yul\":11160:11161   */\n      0x00\n        /* \"#utility.yul\":11151:11157   */\n      dup5\n        /* \"#utility.yul\":11146:11149   */\n      dup5\n        /* \"#utility.yul\":11142:11158   */\n      add\n        /* \"#utility.yul\":11135:11162   */\n      mstore\n        /* \"#utility.yul\":11071:11172   */\n    tag_353:\n        /* \"#utility.yul\":10920:11178   */\n      pop\n        /* \"#utility.yul\":10871:11178   */\n      pop\n      pop\n      pop\n      jump\t// out\n        /* \"#utility.yul\":11184:11504   */\n    tag_145:\n        /* \"#utility.yul\":11228:11234   */\n      0x00\n        /* \"#utility.yul\":11265:11266   */\n      0x02\n        /* \"#utility.yul\":11259:11263   */\n      dup3\n        /* \"#utility.yul\":11255:11267   */\n      div\n        /* \"#utility.yul\":11245:11267   */\n      swap1\n      pop\n        /* \"#utility.yul\":11312:11313   */\n      0x01\n        /* \"#utility.yul\":11306:11310   */\n      dup3\n        /* \"#utility.yul\":11302:11314   */\n      and\n        /* \"#utility.yul\":11333:11351   */\n      dup1\n        /* \"#utility.yul\":11323:11404   */\n      tag_355\n      jumpi\n        /* \"#utility.yul\":11389:11393   */\n      0x7f\n        /* \"#utility.yul\":11381:11387   */\n      dup3\n        /* \"#utility.yul\":11377:11394   */\n      and\n        /* \"#utility.yul\":11367:11394   */\n      swap2\n      pop\n        /* \"#utility.yul\":11323:11404   */\n    tag_355:\n        /* \"#utility.yul\":11451:11453   */\n      0x20\n        /* \"#utility.yul\":11443:11449   */\n      dup3\n        /* \"#utility.yul\":11440:11454   */\n      lt\n        /* \"#utility.yul\":11420:11438   */\n      dup2\n        /* \"#utility.yul\":11417:11455   */\n      eq\n        /* \"#utility.yul\":11414:11498   */\n      iszero\n      tag_356\n      jumpi\n        /* \"#utility.yul\":11470:11488   */\n      tag_357\n      tag_358\n      jump\t// in\n    tag_357:\n        /* \"#utility.yul\":11414:11498   */\n    tag_356:\n        /* \"#utility.yul\":11235:11504   */\n      pop\n        /* \"#utility.yul\":11184:11504   */\n      swap2\n      swap1\n      pop\n      jump\t// out\n        /* \"#utility.yul\":11510:11791   */\n    tag_277:\n        /* \"#utility.yul\":11593:11620   */\n      tag_360\n        /* \"#utility.yul\":11615:11619   */\n      dup3\n        /* \"#utility.yul\":11593:11620   */\n      tag_250\n      jump\t// in\n    tag_360:\n        /* \"#utility.yul\":11585:11591   */\n      dup2\n        /* \"#utility.yul\":11581:11621   */\n      add\n        /* \"#utility.yul\":11723:11729   */\n      dup2\n        /* \"#utility.yul\":11711:11721   */\n      dup2\n        /* \"#utility.yul\":11708:11730   */\n      lt\n        /* \"#utility.yul\":11687:11705   */\n      0xffffffffffffffff\n        /* \"#utility.yul\":11675:11685   */\n      dup3\n        /* \"#utility.yul\":11672:11706   */\n      gt\n        /* \"#utility.yul\":11669:11731   */\n      or\n        /* \"#utility.yul\":11666:11754   */\n      iszero\n      tag_361\n      jumpi\n        /* \"#utility.yul\":11734:11752   */\n      tag_362\n      tag_282\n      jump\t// in\n    tag_362:\n        /* \"#utility.yul\":11666:11754   */\n    tag_361:\n        /* \"#utility.yul\":11774:11784   */\n      dup1\n        /* \"#utility.yul\":11770:11772   */\n      0x40\n        /* \"#utility.yul\":11763:11785   */\n      mstore\n        /* \"#utility.yul\":11553:11791   */\n      pop\n        /* \"#utility.yul\":11510:11791   */\n      pop\n      pop\n      jump\t// out\n        /* \"#utility.yul\":11797:11973   */\n    tag_136:\n        /* \"#utility.yul\":11829:11830   */\n      0x00\n        /* \"#utility.yul\":11846:11866   */\n      tag_364\n        /* \"#utility.yul\":11864:11865   */\n      dup3\n        /* \"#utility.yul\":11846:11866   */\n      tag_254\n      jump\t// in\n    tag_364:\n        /* \"#utility.yul\":11841:11866   */\n      swap2\n      pop\n        /* \"#utility.yul\":11880:11900   */\n      tag_365\n        /* \"#utility.yul\":11898:11899   */\n      dup4\n        /* \"#utility.yul\":11880:11900   */\n      tag_254\n      jump\t// in\n    tag_365:\n        /* \"#utility.yul\":11875:11900   */\n      swap3\n      pop\n        /* \"#utility.yul\":11919:11920   */\n      dup3\n        /* \"#utility.yul\":11909:11944   */\n      tag_366\n      jumpi\n        /* \"#utility.yul\":11924:11942   */\n      tag_367\n      tag_297\n      jump\t// in\n    tag_367:\n        /* \"#utility.yul\":11909:11944   */\n    tag_366:\n        /* \"#utility.yul\":11965:11966   */\n      dup3\n        /* \"#utility.yul\":11962:11963   */\n      dup3\n        /* \"#utility.yul\":11958:11967   */\n      mod\n        /* \"#utility.yul\":11953:11967   */\n      swap1\n      pop\n        /* \"#utility.yul\":11797:11973   */\n      swap3\n      swap2\n      pop\n      pop\n      jump\t// out\n        /* \"#utility.yul\":11979:12207   */\n    tag_138:\n        /* \"#utility.yul\":12014:12017   */\n      0x00\n        /* \"#utility.yul\":12037:12060   */\n      tag_369\n        /* \"#utility.yul\":12054:12059   */\n      dup3\n        /* \"#utility.yul\":12037:12060   */\n      tag_236\n      jump\t// in\n    tag_369:\n        /* \"#utility.yul\":12028:12060   */\n      swap2\n      pop\n        /* \"#utility.yul\":12082:12148   */\n      0x8000000000000000000000000000000000000000000000000000000000000000\n        /* \"#utility.yul\":12075:12080   */\n      dup3\n        /* \"#utility.yul\":12072:12149   */\n      eq\n        /* \"#utility.yul\":12069:12172   */\n      iszero\n      tag_370\n      jumpi\n        /* \"#utility.yul\":12152:12170   */\n      tag_371\n      tag_291\n      jump\t// in\n    tag_371:\n        /* \"#utility.yul\":12069:12172   */\n    tag_370:\n        /* \"#utility.yul\":12195:12200   */\n      dup2\n        /* \"#utility.yul\":12192:12193   */\n      0x00\n        /* \"#utility.yul\":12188:12201   */\n      sub\n        /* \"#utility.yul\":12181:12201   */\n      swap1\n      pop\n        /* \"#utility.yul\":11979:12207   */\n      swap2\n      swap1\n      pop\n      jump\t// out\n        /* \"#utility.yul\":12213:12393   */\n    tag_291:\n        /* \"#utility.yul\":12261:12338   */\n      0x4e487b7100000000000000000000000000000000000000000000000000000000\n        /* \"#utility.yul\":12258:12259   */\n      0x00\n        /* \"#utility.yul\":12251:12339   */\n      mstore\n        /* \"#utility.yul\":12358:12362   */\n      0x11\n        /* \"#utility.yul\":12355:12356   */\n      0x04\n        /* \"#utility.yul\":12348:12363   */\n      mstore\n        /* \"#utility.yul\":12382:12386   */\n      0x24\n        /* \"#utility.yul\":12379:12380   */\n      0x00\n        /* \"#utility.yul\":12372:12387   */\n      revert\n        /* \"#utility.yul\":12399:12579   */\n    tag_297:\n        /* \"#utility.yul\":12447:12524   */\n      0x4e487b7100000000000000000000000000000000000000000000000000000000\n        /* \"#utility.yul\":12444:12445   */\n      0x00\n        /* \"#utility.yul\":12437:12525   */\n      mstore\n        /* \"#utility.yul\":12544:12548   */\n      0x12\n        /* \"#utility.yul\":12541:12542   */\n      0x04\n        /* \"#utility.yul\":12534:12549   */\n      mstore\n        /* \"#utility.yul\":12568:12572   */\n      0x24\n        /* \"#utility.yul\":12565:12566   */\n      0x00\n        /* \"#utility.yul\":12558:12573   */\n      revert\n        /* \"#utility.yul\":12585:12765   */\n    tag_358:\n        /* \"#utility.yul\":12633:12710   */\n      0x4e487b7100000000000000000000000000000000000000000000000000000000\n        /* \"#utility.yul\":12630:12631   */\n      0x00\n        /* \"#utility.yul\":12623:12711   */\n      mstore\n        /* \"#utility.yul\":12730:12734   */\n      0x22\n        /* \"#utility.yul\":12727:12728   */\n      0x04\n        /* \"#utility.yul\":12720:12735   */\n      mstore\n        /* \"#utility.yul\":12754:12758   */\n      0x24\n        /* \"#utility.yul\":12751:12752   */\n      0x00\n        /* \"#utility.yul\":12744:12759   */\n      revert\n        /* \"#utility.yul\":12771:12951   */\n    tag_282:\n        /* \"#utility.yul\":12819:12896   */\n      0x4e487b7100000000000000000000000000000000000000000000000000000000\n        /* \"#utility.yul\":12816:12817   */\n      0x00\n        /* \"#utility.yul\":12809:12897   */\n      mstore\n        /* \"#utility.yul\":12916:12920   */\n      0x41\n        /* \"#utility.yul\":12913:12914   */\n      0x04\n        /* \"#utility.yul\":12906:12921   */\n      mstore\n        /* \"#utility.yul\":12940:12944   */\n      0x24\n        /* \"#utility.yul\":12937:12938   */\n      0x00\n        /* \"#utility.yul\":12930:12945   */\n      revert\n        /* \"#utility.yul\":12957:13074   */\n    tag_194:\n        /* \"#utility.yul\":13066:13067   */\n      0x00\n        /* \"#utility.yul\":13063:13064   */\n      dup1\n        /* \"#utility.yul\":13056:13068   */\n      revert\n        /* \"#utility.yul\":13080:13197   */\n    tag_179:\n        /* \"#utility.yul\":13189:13190   */\n      0x00\n        /* \"#utility.yul\":13186:13187   */\n      dup1\n        /* \"#utility.yul\":13179:13191   */\n      revert\n        /* \"#utility.yul\":13203:13320   */\n    tag_219:\n        /* \"#utility.yul\":13312:13313   */\n      0x00\n        /* \"#utility.yul\":13309:13310   */\n      dup1\n        /* \"#utility.yul\":13302:13314   */\n      revert\n        /* \"#utility.yul\":13326:13443   */\n    tag_203:\n        /* \"#utility.yul\":13435:13436   */\n      0x00\n        /* \"#utility.yul\":13432:13433   */\n      dup1\n        /* \"#utility.yul\":13425:13437   */\n      revert\n        /* \"#utility.yul\":13449:13551   */\n    tag_250:\n        /* \"#utility.yul\":13490:13496   */\n      0x00\n        /* \"#utility.yul\":13541:13543   */\n      0x1f\n        /* \"#utility.yul\":13537:13544   */\n      not\n        /* \"#utility.yul\":13532:13534   */\n      0x1f\n        /* \"#utility.yul\":13525:13530   */\n      dup4\n        /* \"#utility.yul\":13521:13535   */\n      add\n        /* \"#utility.yul\":13517:13545   */\n      and\n        /* \"#utility.yul\":13507:13545   */\n      swap1\n      pop\n        /* \"#utility.yul\":13449:13551   */\n      swap2\n      swap1\n      pop\n      jump\t// out\n        /* \"#utility.yul\":13557:13659   */\n    tag_307:\n        /* \"#utility.yul\":13599:13607   */\n      0x00\n        /* \"#utility.yul\":13646:13651   */\n      dup2\n        /* \"#utility.yul\":13643:13644   */\n      0x01\n        /* \"#utility.yul\":13639:13652   */\n      shr\n        /* \"#utility.yul\":13618:13652   */\n      swap1\n      pop\n        /* \"#utility.yul\":13557:13659   */\n      swap2\n      swap1\n      pop\n      jump\t// out\n        /* \"#utility.yul\":13665:13787   */\n    tag_185:\n        /* \"#utility.yul\":13738:13762   */\n      tag_383\n        /* \"#utility.yul\":13756:13761   */\n      dup2\n        /* \"#utility.yul\":13738:13762   */\n      tag_228\n      jump\t// in\n    tag_383:\n        /* \"#utility.yul\":13731:13736   */\n      dup2\n        /* \"#utility.yul\":13728:13763   */\n      eq\n        /* \"#utility.yul\":13718:13781   */\n      tag_384\n      jumpi\n        /* \"#utility.yul\":13777:13778   */\n      0x00\n        /* \"#utility.yul\":13774:13775   */\n      dup1\n        /* \"#utility.yul\":13767:13779   */\n      revert\n        /* \"#utility.yul\":13718:13781   */\n    tag_384:\n        /* \"#utility.yul\":13665:13787   */\n      pop\n      jump\t// out\n        /* \"#utility.yul\":13793:13909   */\n    tag_189:\n        /* \"#utility.yul\":13863:13884   */\n      tag_386\n        /* \"#utility.yul\":13878:13883   */\n      dup2\n        /* \"#utility.yul\":13863:13884   */\n      tag_232\n      jump\t// in\n    tag_386:\n        /* \"#utility.yul\":13856:13861   */\n      dup2\n        /* \"#utility.yul\":13853:13885   */\n      eq\n        /* \"#utility.yul\":13843:13903   */\n      tag_387\n      jumpi\n        /* \"#utility.yul\":13899:13900   */\n      0x00\n        /* \"#utility.yul\":13896:13897   */\n      dup1\n        /* \"#utility.yul\":13889:13901   */\n      revert\n        /* \"#utility.yul\":13843:13903   */\n    tag_387:\n        /* \"#utility.yul\":13793:13909   */\n      pop\n      jump\t// out\n        /* \"#utility.yul\":13915:14037   */\n    tag_199:\n        /* \"#utility.yul\":13988:14012   */\n      tag_389\n        /* \"#utility.yul\":14006:14011   */\n      dup2\n        /* \"#utility.yul\":13988:14012   */\n      tag_254\n      jump\t// in\n    tag_389:\n        /* \"#utility.yul\":13981:13986   */\n      dup2\n        /* \"#utility.yul\":13978:14013   */\n      eq\n        /* \"#utility.yul\":13968:14031   */\n      tag_390\n      jumpi\n        /* \"#utility.yul\":14027:14028   */\n      0x00\n        /* \"#utility.yul\":14024:14025   */\n      dup1\n        /* \"#utility.yul\":14017:14029   */\n      revert\n        /* \"#utility.yul\":13968:14031   */\n    tag_390:\n        /* \"#utility.yul\":13915:14037   */\n      pop\n      jump\t// out\n\n    auxdata: 0xa26469706673582212203a8877609155e2f3f5af266a8350b5d5107484154f4e5b522792d3295b3c041964736f6c63430008070033\n}\n",
				"bytecode": {
					"linkReferences": {},
					"object": "6080604052735b38da6a701c568545dcfcb03fcb875f56beddc4600160006101000a81548173ffffffffffffffffffffffffffffffffffffffff021916908373ffffffffffffffffffffffffffffffffffffffff1602179055506040518060400160405280600481526020017f746573740000000000000000000000000000000000000000000000000000000081525060029080519060200190620000a6929190620001b6565b5060fe600360006101000a81548160ff021916908360ff160217905550602a6006556002600760006101000a81548160ff021916908360ff1602179055507fffffffffffffffffffffffffffffffffffffffffffffffffffffffffffffffd66008557fffffffffffffffffffffffffffffffffffffffffffffffffffffffffffffffff600960006101000a81548160ff021916908360000b60ff1602179055506001600960016101000a81548160ff0219169083151502179055503480156200016e57600080fd5b5033600960026101000a81548173ffffffffffffffffffffffffffffffffffffffff021916908373ffffffffffffffffffffffffffffffffffffffff160217905550620002cb565b828054620001c49062000266565b90600052602060002090601f016020900481019282620001e8576000855562000234565b82601f106200020357805160ff191683800117855562000234565b8280016001018555821562000234579182015b828111156200023357825182559160200191906001019062000216565b5b50905062000243919062000247565b5090565b5b808211156200026257600081600090555060010162000248565b5090565b600060028204905060018216806200027f57607f821691505b602082108114156200029657620002956200029c565b5b50919050565b7f4e487b7100000000000000000000000000000000000000000000000000000000600052602260045260246000fd5b6111e680620002db6000396000f3fe6080604052600436106101345760003560e01c80635a455c1c116100ab5780638da5cb5b1161006f5780638da5cb5b14610365578063939a79ac14610390578063e2982c21146103b9578063e665b266146103f6578063ed32ca3214610421578063f8b2cb4f1461044c57610134565b80635a455c1c146102a45780636deecdbe146102cf5780637a28a513146102fa578063853828b6146103255780638b36687e1461033c57610134565b80632cb777a6116100fd5780632cb777a6146101b85780632ccb1b30146101e3578063371303c01461020c5780633891e8991461022357806352342f131461024e57806352d6804d1461027957610134565b80625c33e11461013957806301725a0b1461014357806306540f7e1461015a578063071bd0791461018557806313bea460146101ae575b600080fd5b610141610489565b005b34801561014f57600080fd5b5061015861048b565b005b34801561016657600080fd5b5061016f6104a2565b60405161017c9190610bc4565b60405180910390f35b34801561019157600080fd5b506101ac60048036038101906101a79190610a76565b6104a8565b005b6101b6610513565b005b3480156101c457600080fd5b506101cd610558565b6040516101da9190610b6c565b60405180910390f35b3480156101ef57600080fd5b5061020a600480360381019061020591906109c0565b61055e565b005b34801561021857600080fd5b506102216105af565b005b34801561022f57600080fd5b506102386105e3565b6040516102459190610bdf565b60405180910390f35b34801561025a57600080fd5b506102636105f6565b6040516102709190610bc4565b60405180910390f35b34801561028557600080fd5b5061028e6105fc565b60405161029b9190610bc4565b60405180910390f35b3480156102b057600080fd5b506102b9610602565b6040516102c69190610ba2565b60405180910390f35b3480156102db57600080fd5b506102e4610690565b6040516102f19190610b51565b60405180910390f35b34801561030657600080fd5b5061030f6106a3565b60405161031c9190610b87565b60405180910390f35b34801561033157600080fd5b5061033a6106b6565b005b34801561034857600080fd5b50610363600480360381019061035e9190610a00565b610744565b005b34801561037157600080fd5b5061037a610754565b6040516103879190610b36565b60405180910390f35b34801561039c57600080fd5b506103b760048036038101906103b29190610a2d565b61077a565b005b3480156103c557600080fd5b506103e060048036038101906103db9190610993565b6107cf565b6040516103ed9190610bc4565b60405180910390f35b34801561040257600080fd5b5061040b6107e7565b6040516104189190610b36565b60405180910390f35b34801561042d57600080fd5b5061043661080d565b6040516104439190610bdf565b60405180910390f35b34801561045857600080fd5b50610473600480360381019061046e9190610993565b610820565b6040516104809190610bc4565b60405180910390f35b565b600060ff1660048190555060ff8016600581905550565b60065481565b6000602a90506001816104bb9190610c6c565b506001816104c99190610ebe565b506002816104d79190610e64565b506002816104e59190610cc2565b506003816104f39190610d46565b506003816105019190611003565b5060085461050e90611034565b505050565b346000803373ffffffffffffffffffffffffffffffffffffffff1673ffffffffffffffffffffffffffffffffffffffff16815260200190815260200160002081905550565b60085481565b60008290508073ffffffffffffffffffffffffffffffffffffffff166108fc839081150290604051600060405180830381858888f193505050501580156105a9573d6000803e3d6000fd5b50505050565b6003600081819054906101000a900460ff168092919060010191906101000a81548160ff021916908360ff16021790555050565b600760009054906101000a900460ff1681565b60055481565b60045481565b6002805461060f90610fa0565b80601f016020809104026020016040519081016040528092919081815260200182805461063b90610fa0565b80156106885780601f1061065d57610100808354040283529160200191610688565b820191906000526020600020905b81548152906001019060200180831161066b57829003601f168201915b505050505081565b600960019054906101000a900460ff1681565b600960009054906101000a900460000b81565b6000600960029054906101000a900473ffffffffffffffffffffffffffffffffffffffff16905060003090508173ffffffffffffffffffffffffffffffffffffffff166108fc8273ffffffffffffffffffffffffffffffffffffffff16319081150290604051600060405180830381858888f1935050505015801561073f573d6000803e3d6000fd5b505050565b6000818061074f5750805b505050565b600960029054906101000a900473ffffffffffffffffffffffffffffffffffffffff1681565b60006040518060400160405280600481526020017f74656d7000000000000000000000000000000000000000000000000000000000815250905081600290805190602001906107ca929190610841565b505050565b60006020528060005260406000206000915090505481565b600160009054906101000a900473ffffffffffffffffffffffffffffffffffffffff1681565b600360009054906101000a900460ff1681565b60008173ffffffffffffffffffffffffffffffffffffffff16319050919050565b82805461084d90610fa0565b90600052602060002090601f01602090048101928261086f57600085556108b6565b82601f1061088857805160ff19168380011785556108b6565b828001600101855582156108b6579182015b828111156108b557825182559160200191906001019061089a565b5b5090506108c391906108c7565b5090565b5b808211156108e05760008160009055506001016108c8565b5090565b60006108f76108f284610c1f565b610bfa565b9050828152602081018484840111156109135761091261113e565b5b61091e848285610f5e565b509392505050565b6000813590506109358161116b565b92915050565b60008135905061094a81611182565b92915050565b600082601f83011261096557610964611139565b5b81356109758482602086016108e4565b91505092915050565b60008135905061098d81611199565b92915050565b6000602082840312156109a9576109a8611148565b5b60006109b784828501610926565b91505092915050565b600080604083850312156109d7576109d6611148565b5b60006109e585828601610926565b92505060206109f68582860161097e565b9150509250929050565b600060208284031215610a1657610a15611148565b5b6000610a248482850161093b565b91505092915050565b600060208284031215610a4357610a42611148565b5b600082013567ffffffffffffffff811115610a6157610a60611143565b5b610a6d84828501610950565b91505092915050565b600060208284031215610a8c57610a8b611148565b5b6000610a9a8482850161097e565b91505092915050565b610aac81610ef2565b82525050565b610abb81610f04565b82525050565b610aca81610f10565b82525050565b610ad981610f1a565b82525050565b6000610aea82610c50565b610af48185610c5b565b9350610b04818560208601610f6d565b610b0d8161114d565b840191505092915050565b610b2181610f47565b82525050565b610b3081610f51565b82525050565b6000602082019050610b4b6000830184610aa3565b92915050565b6000602082019050610b666000830184610ab2565b92915050565b6000602082019050610b816000830184610ac1565b92915050565b6000602082019050610b9c6000830184610ad0565b92915050565b60006020820190508181036000830152610bbc8184610adf565b905092915050565b6000602082019050610bd96000830184610b18565b92915050565b6000602082019050610bf46000830184610b27565b92915050565b6000610c04610c15565b9050610c108282610fd2565b919050565b6000604051905090565b600067ffffffffffffffff821115610c3a57610c3961110a565b5b610c438261114d565b9050602081019050919050565b600081519050919050565b600082825260208201905092915050565b6000610c7782610f47565b9150610c8283610f47565b9250827fffffffffffffffffffffffffffffffffffffffffffffffffffffffffffffffff03821115610cb757610cb661107d565b5b828201905092915050565b6000610ccd82610f47565b9150610cd883610f47565b925082610ce857610ce76110ac565b5b828204905092915050565b6000808291508390505b6001851115610d3d57808604811115610d1957610d1861107d565b5b6001851615610d285780820291505b8081029050610d368561115e565b9450610cfd565b94509492505050565b6000610d5182610f47565b9150610d5c83610f51565b9250610d897fffffffffffffffffffffffffffffffffffffffffffffffffffffffffffffffff8484610d91565b905092915050565b600082610da15760019050610e5d565b81610daf5760009050610e5d565b8160018114610dc55760028114610dcf57610dfe565b6001915050610e5d565b60ff841115610de157610de061107d565b5b8360020a915084821115610df857610df761107d565b5b50610e5d565b5060208310610133831016604e8410600b8410161715610e335782820a905083811115610e2e57610e2d61107d565b5b610e5d565b610e408484846001610cf3565b92509050818404811115610e5757610e5661107d565b5b81810290505b9392505050565b6000610e6f82610f47565b9150610e7a83610f47565b9250817fffffffffffffffffffffffffffffffffffffffffffffffffffffffffffffffff0483118215151615610eb357610eb261107d565b5b828202905092915050565b6000610ec982610f47565b9150610ed483610f47565b925082821015610ee757610ee661107d565b5b828203905092915050565b6000610efd82610f27565b9050919050565b60008115159050919050565b6000819050919050565b60008160000b9050919050565b600073ffffffffffffffffffffffffffffffffffffffff82169050919050565b6000819050919050565b600060ff82169050919050565b82818337600083830152505050565b60005b83811015610f8b578082015181840152602081019050610f70565b83811115610f9a576000848401525b50505050565b60006002820490506001821680610fb857607f821691505b60208210811415610fcc57610fcb6110db565b5b50919050565b610fdb8261114d565b810181811067ffffffffffffffff82111715610ffa57610ff961110a565b5b80604052505050565b600061100e82610f47565b915061101983610f47565b925082611029576110286110ac565b5b828206905092915050565b600061103f82610f10565b91507f80000000000000000000000000000000000000000000000000000000000000008214156110725761107161107d565b5b816000039050919050565b7f4e487b7100000000000000000000000000000000000000000000000000000000600052601160045260246000fd5b7f4e487b7100000000000000000000000000000000000000000000000000000000600052601260045260246000fd5b7f4e487b7100000000000000000000000000000000000000000000000000000000600052602260045260246000fd5b7f4e487b7100000000000000000000000000000000000000000000000000000000600052604160045260246000fd5b600080fd5b600080fd5b600080fd5b600080fd5b6000601f19601f8301169050919050565b60008160011c9050919050565b61117481610ef2565b811461117f57600080fd5b50565b61118b81610f04565b811461119657600080fd5b50565b6111a281610f47565b81146111ad57600080fd5b5056fea26469706673582212203a8877609155e2f3f5af266a8350b5d5107484154f4e5b522792d3295b3c041964736f6c63430008070033",
					"opcodes": "PUSH1 0x80 PUSH1 0x40 MSTORE PUSH20 0x5B38DA6A701C568545DCFCB03FCB875F56BEDDC4 PUSH1 0x1 PUSH1 0x0 PUSH2 0x100 EXP DUP2 SLOAD DUP2 PUSH20 0xFFFFFFFFFFFFFFFFFFFFFFFFFFFFFFFFFFFFFFFF MUL NOT AND SWAP1 DUP4 PUSH20 0xFFFFFFFFFFFFFFFFFFFFFFFFFFFFFFFFFFFFFFFF AND MUL OR SWAP1 SSTORE POP PUSH1 0x40 MLOAD DUP1 PUSH1 0x40 ADD PUSH1 0x40 MSTORE DUP1 PUSH1 0x4 DUP2 MSTORE PUSH1 0x20 ADD PUSH32 0x7465737400000000000000000000000000000000000000000000000000000000 DUP2 MSTORE POP PUSH1 0x2 SWAP1 DUP1 MLOAD SWAP1 PUSH1 0x20 ADD SWAP1 PUSH3 0xA6 SWAP3 SWAP2 SWAP1 PUSH3 0x1B6 JUMP JUMPDEST POP PUSH1 0xFE PUSH1 0x3 PUSH1 0x0 PUSH2 0x100 EXP DUP2 SLOAD DUP2 PUSH1 0xFF MUL NOT AND SWAP1 DUP4 PUSH1 0xFF AND MUL OR SWAP1 SSTORE POP PUSH1 0x2A PUSH1 0x6 SSTORE PUSH1 0x2 PUSH1 0x7 PUSH1 0x0 PUSH2 0x100 EXP DUP2 SLOAD DUP2 PUSH1 0xFF MUL NOT AND SWAP1 DUP4 PUSH1 0xFF AND MUL OR SWAP1 SSTORE POP PUSH32 0xFFFFFFFFFFFFFFFFFFFFFFFFFFFFFFFFFFFFFFFFFFFFFFFFFFFFFFFFFFFFFFD6 PUSH1 0x8 SSTORE PUSH32 0xFFFFFFFFFFFFFFFFFFFFFFFFFFFFFFFFFFFFFFFFFFFFFFFFFFFFFFFFFFFFFFFF PUSH1 0x9 PUSH1 0x0 PUSH2 0x100 EXP DUP2 SLOAD DUP2 PUSH1 0xFF MUL NOT AND SWAP1 DUP4 PUSH1 0x0 SIGNEXTEND PUSH1 0xFF AND MUL OR SWAP1 SSTORE POP PUSH1 0x1 PUSH1 0x9 PUSH1 0x1 PUSH2 0x100 EXP DUP2 SLOAD DUP2 PUSH1 0xFF MUL NOT AND SWAP1 DUP4 ISZERO ISZERO MUL OR SWAP1 SSTORE POP CALLVALUE DUP1 ISZERO PUSH3 0x16E JUMPI PUSH1 0x0 DUP1 REVERT JUMPDEST POP CALLER PUSH1 0x9 PUSH1 0x2 PUSH2 0x100 EXP DUP2 SLOAD DUP2 PUSH20 0xFFFFFFFFFFFFFFFFFFFFFFFFFFFFFFFFFFFFFFFF MUL NOT AND SWAP1 DUP4 PUSH20 0xFFFFFFFFFFFFFFFFFFFFFFFFFFFFFFFFFFFFFFFF AND MUL OR SWAP1 SSTORE POP PUSH3 0x2CB JUMP JUMPDEST DUP3 DUP1 SLOAD PUSH3 0x1C4 SWAP1 PUSH3 0x266 JUMP JUMPDEST SWAP1 PUSH1 0x0 MSTORE PUSH1 0x20 PUSH1 0x0 KECCAK256 SWAP1 PUSH1 0x1F ADD PUSH1 0x20 SWAP1 DIV DUP2 ADD SWAP3 DUP3 PUSH3 0x1E8 JUMPI PUSH1 0x0 DUP6 SSTORE PUSH3 0x234 JUMP JUMPDEST DUP3 PUSH1 0x1F LT PUSH3 0x203 JUMPI DUP1 MLOAD PUSH1 0xFF NOT AND DUP4 DUP1 ADD OR DUP6 SSTORE PUSH3 0x234 JUMP JUMPDEST DUP3 DUP1 ADD PUSH1 0x1 ADD DUP6 SSTORE DUP3 ISZERO PUSH3 0x234 JUMPI SWAP2 DUP3 ADD JUMPDEST DUP3 DUP2 GT ISZERO PUSH3 0x233 JUMPI DUP3 MLOAD DUP3 SSTORE SWAP2 PUSH1 0x20 ADD SWAP2 SWAP1 PUSH1 0x1 ADD SWAP1 PUSH3 0x216 JUMP JUMPDEST JUMPDEST POP SWAP1 POP PUSH3 0x243 SWAP2 SWAP1 PUSH3 0x247 JUMP JUMPDEST POP SWAP1 JUMP JUMPDEST JUMPDEST DUP1 DUP3 GT ISZERO PUSH3 0x262 JUMPI PUSH1 0x0 DUP2 PUSH1 0x0 SWAP1 SSTORE POP PUSH1 0x1 ADD PUSH3 0x248 JUMP JUMPDEST POP SWAP1 JUMP JUMPDEST PUSH1 0x0 PUSH1 0x2 DUP3 DIV SWAP1 POP PUSH1 0x1 DUP3 AND DUP1 PUSH3 0x27F JUMPI PUSH1 0x7F DUP3 AND SWAP2 POP JUMPDEST PUSH1 0x20 DUP3 LT DUP2 EQ ISZERO PUSH3 0x296 JUMPI PUSH3 0x295 PUSH3 0x29C JUMP JUMPDEST JUMPDEST POP SWAP2 SWAP1 POP JUMP JUMPDEST PUSH32 0x4E487B7100000000000000000000000000000000000000000000000000000000 PUSH1 0x0 MSTORE PUSH1 0x22 PUSH1 0x4 MSTORE PUSH1 0x24 PUSH1 0x0 REVERT JUMPDEST PUSH2 0x11E6 DUP1 PUSH3 0x2DB PUSH1 0x0 CODECOPY PUSH1 0x0 RETURN INVALID PUSH1 0x80 PUSH1 0x40 MSTORE PUSH1 0x4 CALLDATASIZE LT PUSH2 0x134 JUMPI PUSH1 0x0 CALLDATALOAD PUSH1 0xE0 SHR DUP1 PUSH4 0x5A455C1C GT PUSH2 0xAB JUMPI DUP1 PUSH4 0x8DA5CB5B GT PUSH2 0x6F JUMPI DUP1 PUSH4 0x8DA5CB5B EQ PUSH2 0x365 JUMPI DUP1 PUSH4 0x939A79AC EQ PUSH2 0x390 JUMPI DUP1 PUSH4 0xE2982C21 EQ PUSH2 0x3B9 JUMPI DUP1 PUSH4 0xE665B266 EQ PUSH2 0x3F6 JUMPI DUP1 PUSH4 0xED32CA32 EQ PUSH2 0x421 JUMPI DUP1 PUSH4 0xF8B2CB4F EQ PUSH2 0x44C JUMPI PUSH2 0x134 JUMP JUMPDEST DUP1 PUSH4 0x5A455C1C EQ PUSH2 0x2A4 JUMPI DUP1 PUSH4 0x6DEECDBE EQ PUSH2 0x2CF JUMPI DUP1 PUSH4 0x7A28A513 EQ PUSH2 0x2FA JUMPI DUP1 PUSH4 0x853828B6 EQ PUSH2 0x325 JUMPI DUP1 PUSH4 0x8B36687E EQ PUSH2 0x33C JUMPI PUSH2 0x134 JUMP JUMPDEST DUP1 PUSH4 0x2CB777A6 GT PUSH2 0xFD JUMPI DUP1 PUSH4 0x2CB777A6 EQ PUSH2 0x1B8 JUMPI DUP1 PUSH4 0x2CCB1B30 EQ PUSH2 0x1E3 JUMPI DUP1 PUSH4 0x371303C0 EQ PUSH2 0x20C JUMPI DUP1 PUSH4 0x3891E899 EQ PUSH2 0x223 JUMPI DUP1 PUSH4 0x52342F13 EQ PUSH2 0x24E JUMPI DUP1 PUSH4 0x52D6804D EQ PUSH2 0x279 JUMPI PUSH2 0x134 JUMP JUMPDEST DUP1 PUSH3 0x5C33E1 EQ PUSH2 0x139 JUMPI DUP1 PUSH4 0x1725A0B EQ PUSH2 0x143 JUMPI DUP1 PUSH4 0x6540F7E EQ PUSH2 0x15A JUMPI DUP1 PUSH4 0x71BD079 EQ PUSH2 0x185 JUMPI DUP1 PUSH4 0x13BEA460 EQ PUSH2 0x1AE JUMPI JUMPDEST PUSH1 0x0 DUP1 REVERT JUMPDEST PUSH2 0x141 PUSH2 0x489 JUMP JUMPDEST STOP JUMPDEST CALLVALUE DUP1 ISZERO PUSH2 0x14F JUMPI PUSH1 0x0 DUP1 REVERT JUMPDEST POP PUSH2 0x158 PUSH2 0x48B JUMP JUMPDEST STOP JUMPDEST CALLVALUE DUP1 ISZERO PUSH2 0x166 JUMPI PUSH1 0x0 DUP1 REVERT JUMPDEST POP PUSH2 0x16F PUSH2 0x4A2 JUMP JUMPDEST PUSH1 0x40 MLOAD PUSH2 0x17C SWAP2 SWAP1 PUSH2 0xBC4 JUMP JUMPDEST PUSH1 0x40 MLOAD DUP1 SWAP2 SUB SWAP1 RETURN JUMPDEST CALLVALUE DUP1 ISZERO PUSH2 0x191 JUMPI PUSH1 0x0 DUP1 REVERT JUMPDEST POP PUSH2 0x1AC PUSH1 0x4 DUP1 CALLDATASIZE SUB DUP2 ADD SWAP1 PUSH2 0x1A7 SWAP2 SWAP1 PUSH2 0xA76 JUMP JUMPDEST PUSH2 0x4A8 JUMP JUMPDEST STOP JUMPDEST PUSH2 0x1B6 PUSH2 0x513 JUMP JUMPDEST STOP JUMPDEST CALLVALUE DUP1 ISZERO PUSH2 0x1C4 JUMPI PUSH1 0x0 DUP1 REVERT JUMPDEST POP PUSH2 0x1CD PUSH2 0x558 JUMP JUMPDEST PUSH1 0x40 MLOAD PUSH2 0x1DA SWAP2 SWAP1 PUSH2 0xB6C JUMP JUMPDEST PUSH1 0x40 MLOAD DUP1 SWAP2 SUB SWAP1 RETURN JUMPDEST CALLVALUE DUP1 ISZERO PUSH2 0x1EF JUMPI PUSH1 0x0 DUP1 REVERT JUMPDEST POP PUSH2 0x20A PUSH1 0x4 DUP1 CALLDATASIZE SUB DUP2 ADD SWAP1 PUSH2 0x205 SWAP2 SWAP1 PUSH2 0x9C0 JUMP JUMPDEST PUSH2 0x55E JUMP JUMPDEST STOP JUMPDEST CALLVALUE DUP1 ISZERO PUSH2 0x218 JUMPI PUSH1 0x0 DUP1 REVERT JUMPDEST POP PUSH2 0x221 PUSH2 0x5AF JUMP JUMPDEST STOP JUMPDEST CALLVALUE DUP1 ISZERO PUSH2 0x22F JUMPI PUSH1 0x0 DUP1 REVERT JUMPDEST POP PUSH2 0x238 PUSH2 0x5E3 JUMP JUMPDEST PUSH1 0x40 MLOAD PUSH2 0x245 SWAP2 SWAP1 PUSH2 0xBDF JUMP JUMPDEST PUSH1 0x40 MLOAD DUP1 SWAP2 SUB SWAP1 RETURN JUMPDEST CALLVALUE DUP1 ISZERO PUSH2 0x25A JUMPI PUSH1 0x0 DUP1 REVERT JUMPDEST POP PUSH2 0x263 PUSH2 0x5F6 JUMP JUMPDEST PUSH1 0x40 MLOAD PUSH2 0x270 SWAP2 SWAP1 PUSH2 0xBC4 JUMP JUMPDEST PUSH1 0x40 MLOAD DUP1 SWAP2 SUB SWAP1 RETURN JUMPDEST CALLVALUE DUP1 ISZERO PUSH2 0x285 JUMPI PUSH1 0x0 DUP1 REVERT JUMPDEST POP PUSH2 0x28E PUSH2 0x5FC JUMP JUMPDEST PUSH1 0x40 MLOAD PUSH2 0x29B SWAP2 SWAP1 PUSH2 0xBC4 JUMP JUMPDEST PUSH1 0x40 MLOAD DUP1 SWAP2 SUB SWAP1 RETURN JUMPDEST CALLVALUE DUP1 ISZERO PUSH2 0x2B0 JUMPI PUSH1 0x0 DUP1 REVERT JUMPDEST POP PUSH2 0x2B9 PUSH2 0x602 JUMP JUMPDEST PUSH1 0x40 MLOAD PUSH2 0x2C6 SWAP2 SWAP1 PUSH2 0xBA2 JUMP JUMPDEST PUSH1 0x40 MLOAD DUP1 SWAP2 SUB SWAP1 RETURN JUMPDEST CALLVALUE DUP1 ISZERO PUSH2 0x2DB JUMPI PUSH1 0x0 DUP1 REVERT JUMPDEST POP PUSH2 0x2E4 PUSH2 0x690 JUMP JUMPDEST PUSH1 0x40 MLOAD PUSH2 0x2F1 SWAP2 SWAP1 PUSH2 0xB51 JUMP JUMPDEST PUSH1 0x40 MLOAD DUP1 SWAP2 SUB SWAP1 RETURN JUMPDEST CALLVALUE DUP1 ISZERO PUSH2 0x306 JUMPI PUSH1 0x0 DUP1 REVERT JUMPDEST POP PUSH2 0x30F PUSH2 0x6A3 JUMP JUMPDEST PUSH1 0x40 MLOAD PUSH2 0x31C SWAP2 SWAP1 PUSH2 0xB87 JUMP JUMPDEST PUSH1 0x40 MLOAD DUP1 SWAP2 SUB SWAP1 RETURN JUMPDEST CALLVALUE DUP1 ISZERO PUSH2 0x331 JUMPI PUSH1 0x0 DUP1 REVERT JUMPDEST POP PUSH2 0x33A PUSH2 0x6B6 JUMP JUMPDEST STOP JUMPDEST CALLVALUE DUP1 ISZERO PUSH2 0x348 JUMPI PUSH1 0x0 DUP1 REVERT JUMPDEST POP PUSH2 0x363 PUSH1 0x4 DUP1 CALLDATASIZE SUB DUP2 ADD SWAP1 PUSH2 0x35E SWAP2 SWAP1 PUSH2 0xA00 JUMP JUMPDEST PUSH2 0x744 JUMP JUMPDEST STOP JUMPDEST CALLVALUE DUP1 ISZERO PUSH2 0x371 JUMPI PUSH1 0x0 DUP1 REVERT JUMPDEST POP PUSH2 0x37A PUSH2 0x754 JUMP JUMPDEST PUSH1 0x40 MLOAD PUSH2 0x387 SWAP2 SWAP1 PUSH2 0xB36 JUMP JUMPDEST PUSH1 0x40 MLOAD DUP1 SWAP2 SUB SWAP1 RETURN JUMPDEST CALLVALUE DUP1 ISZERO PUSH2 0x39C JUMPI PUSH1 0x0 DUP1 REVERT JUMPDEST POP PUSH2 0x3B7 PUSH1 0x4 DUP1 CALLDATASIZE SUB DUP2 ADD SWAP1 PUSH2 0x3B2 SWAP2 SWAP1 PUSH2 0xA2D JUMP JUMPDEST PUSH2 0x77A JUMP JUMPDEST STOP JUMPDEST CALLVALUE DUP1 ISZERO PUSH2 0x3C5 JUMPI PUSH1 0x0 DUP1 REVERT JUMPDEST POP PUSH2 0x3E0 PUSH1 0x4 DUP1 CALLDATASIZE SUB DUP2 ADD SWAP1 PUSH2 0x3DB SWAP2 SWAP1 PUSH2 0x993 JUMP JUMPDEST PUSH2 0x7CF JUMP JUMPDEST PUSH1 0x40 MLOAD PUSH2 0x3ED SWAP2 SWAP1 PUSH2 0xBC4 JUMP JUMPDEST PUSH1 0x40 MLOAD DUP1 SWAP2 SUB SWAP1 RETURN JUMPDEST CALLVALUE DUP1 ISZERO PUSH2 0x402 JUMPI PUSH1 0x0 DUP1 REVERT JUMPDEST POP PUSH2 0x40B PUSH2 0x7E7 JUMP JUMPDEST PUSH1 0x40 MLOAD PUSH2 0x418 SWAP2 SWAP1 PUSH2 0xB36 JUMP JUMPDEST PUSH1 0x40 MLOAD DUP1 SWAP2 SUB SWAP1 RETURN JUMPDEST CALLVALUE DUP1 ISZERO PUSH2 0x42D JUMPI PUSH1 0x0 DUP1 REVERT JUMPDEST POP PUSH2 0x436 PUSH2 0x80D JUMP JUMPDEST PUSH1 0x40 MLOAD PUSH2 0x443 SWAP2 SWAP1 PUSH2 0xBDF JUMP JUMPDEST PUSH1 0x40 MLOAD DUP1 SWAP2 SUB SWAP1 RETURN JUMPDEST CALLVALUE DUP1 ISZERO PUSH2 0x458 JUMPI PUSH1 0x0 DUP1 REVERT JUMPDEST POP PUSH2 0x473 PUSH1 0x4 DUP1 CALLDATASIZE SUB DUP2 ADD SWAP1 PUSH2 0x46E SWAP2 SWAP1 PUSH2 0x993 JUMP JUMPDEST PUSH2 0x820 JUMP JUMPDEST PUSH1 0x40 MLOAD PUSH2 0x480 SWAP2 SWAP1 PUSH2 0xBC4 JUMP JUMPDEST PUSH1 0x40 MLOAD DUP1 SWAP2 SUB SWAP1 RETURN JUMPDEST JUMP JUMPDEST PUSH1 0x0 PUSH1 0xFF AND PUSH1 0x4 DUP2 SWAP1 SSTORE POP PUSH1 0xFF DUP1 AND PUSH1 0x5 DUP2 SWAP1 SSTORE POP JUMP JUMPDEST PUSH1 0x6 SLOAD DUP2 JUMP JUMPDEST PUSH1 0x0 PUSH1 0x2A SWAP1 POP PUSH1 0x1 DUP2 PUSH2 0x4BB SWAP2 SWAP1 PUSH2 0xC6C JUMP JUMPDEST POP PUSH1 0x1 DUP2 PUSH2 0x4C9 SWAP2 SWAP1 PUSH2 0xEBE JUMP JUMPDEST POP PUSH1 0x2 DUP2 PUSH2 0x4D7 SWAP2 SWAP1 PUSH2 0xE64 JUMP JUMPDEST POP PUSH1 0x2 DUP2 PUSH2 0x4E5 SWAP2 SWAP1 PUSH2 0xCC2 JUMP JUMPDEST POP PUSH1 0x3 DUP2 PUSH2 0x4F3 SWAP2 SWAP1 PUSH2 0xD46 JUMP JUMPDEST POP PUSH1 0x3 DUP2 PUSH2 0x501 SWAP2 SWAP1 PUSH2 0x1003 JUMP JUMPDEST POP PUSH1 0x8 SLOAD PUSH2 0x50E SWAP1 PUSH2 0x1034 JUMP JUMPDEST POP POP POP JUMP JUMPDEST CALLVALUE PUSH1 0x0 DUP1 CALLER PUSH20 0xFFFFFFFFFFFFFFFFFFFFFFFFFFFFFFFFFFFFFFFF AND PUSH20 0xFFFFFFFFFFFFFFFFFFFFFFFFFFFFFFFFFFFFFFFF AND DUP2 MSTORE PUSH1 0x20 ADD SWAP1 DUP2 MSTORE PUSH1 0x20 ADD PUSH1 0x0 KECCAK256 DUP2 SWAP1 SSTORE POP JUMP JUMPDEST PUSH1 0x8 SLOAD DUP2 JUMP JUMPDEST PUSH1 0x0 DUP3 SWAP1 POP DUP1 PUSH20 0xFFFFFFFFFFFFFFFFFFFFFFFFFFFFFFFFFFFFFFFF AND PUSH2 0x8FC DUP4 SWAP1 DUP2 ISZERO MUL SWAP1 PUSH1 0x40 MLOAD PUSH1 0x0 PUSH1 0x40 MLOAD DUP1 DUP4 SUB DUP2 DUP6 DUP9 DUP9 CALL SWAP4 POP POP POP POP ISZERO DUP1 ISZERO PUSH2 0x5A9 JUMPI RETURNDATASIZE PUSH1 0x0 DUP1 RETURNDATACOPY RETURNDATASIZE PUSH1 0x0 REVERT JUMPDEST POP POP POP POP JUMP JUMPDEST PUSH1 0x3 PUSH1 0x0 DUP2 DUP2 SWAP1 SLOAD SWAP1 PUSH2 0x100 EXP SWAP1 DIV PUSH1 0xFF AND DUP1 SWAP3 SWAP2 SWAP1 PUSH1 0x1 ADD SWAP2 SWAP1 PUSH2 0x100 EXP DUP2 SLOAD DUP2 PUSH1 0xFF MUL NOT AND SWAP1 DUP4 PUSH1 0xFF AND MUL OR SWAP1 SSTORE POP POP JUMP JUMPDEST PUSH1 0x7 PUSH1 0x0 SWAP1 SLOAD SWAP1 PUSH2 0x100 EXP SWAP1 DIV PUSH1 0xFF AND DUP2 JUMP JUMPDEST PUSH1 0x5 SLOAD DUP2 JUMP JUMPDEST PUSH1 0x4 SLOAD DUP2 JUMP JUMPDEST PUSH1 0x2 DUP1 SLOAD PUSH2 0x60F SWAP1 PUSH2 0xFA0 JUMP JUMPDEST DUP1 PUSH1 0x1F ADD PUSH1 0x20 DUP1 SWAP2 DIV MUL PUSH1 0x20 ADD PUSH1 0x40 MLOAD SWAP1 DUP2 ADD PUSH1 0x40 MSTORE DUP1 SWAP3 SWAP2 SWAP1 DUP2 DUP2 MSTORE PUSH1 0x20 ADD DUP3 DUP1 SLOAD PUSH2 0x63B SWAP1 PUSH2 0xFA0 JUMP JUMPDEST DUP1 ISZERO PUSH2 0x688 JUMPI DUP1 PUSH1 0x1F LT PUSH2 0x65D JUMPI PUSH2 0x100 DUP1 DUP4 SLOAD DIV MUL DUP4 MSTORE SWAP2 PUSH1 0x20 ADD SWAP2 PUSH2 0x688 JUMP JUMPDEST DUP3 ADD SWAP2 SWAP1 PUSH1 0x0 MSTORE PUSH1 0x20 PUSH1 0x0 KECCAK256 SWAP1 JUMPDEST DUP2 SLOAD DUP2 MSTORE SWAP1 PUSH1 0x1 ADD SWAP1 PUSH1 0x20 ADD DUP1 DUP4 GT PUSH2 0x66B JUMPI DUP3 SWAP1 SUB PUSH1 0x1F AND DUP3 ADD SWAP2 JUMPDEST POP POP POP POP POP DUP2 JUMP JUMPDEST PUSH1 0x9 PUSH1 0x1 SWAP1 SLOAD SWAP1 PUSH2 0x100 EXP SWAP1 DIV PUSH1 0xFF AND DUP2 JUMP JUMPDEST PUSH1 0x9 PUSH1 0x0 SWAP1 SLOAD SWAP1 PUSH2 0x100 EXP SWAP1 DIV PUSH1 0x0 SIGNEXTEND DUP2 JUMP JUMPDEST PUSH1 0x0 PUSH1 0x9 PUSH1 0x2 SWAP1 SLOAD SWAP1 PUSH2 0x100 EXP SWAP1 DIV PUSH20 0xFFFFFFFFFFFFFFFFFFFFFFFFFFFFFFFFFFFFFFFF AND SWAP1 POP PUSH1 0x0 ADDRESS SWAP1 POP DUP2 PUSH20 0xFFFFFFFFFFFFFFFFFFFFFFFFFFFFFFFFFFFFFFFF AND PUSH2 0x8FC DUP3 PUSH20 0xFFFFFFFFFFFFFFFFFFFFFFFFFFFFFFFFFFFFFFFF AND BALANCE SWAP1 DUP2 ISZERO MUL SWAP1 PUSH1 0x40 MLOAD PUSH1 0x0 PUSH1 0x40 MLOAD DUP1 DUP4 SUB DUP2 DUP6 DUP9 DUP9 CALL SWAP4 POP POP POP POP ISZERO DUP1 ISZERO PUSH2 0x73F JUMPI RETURNDATASIZE PUSH1 0x0 DUP1 RETURNDATACOPY RETURNDATASIZE PUSH1 0x0 REVERT JUMPDEST POP POP POP JUMP JUMPDEST PUSH1 0x0 DUP2 DUP1 PUSH2 0x74F JUMPI POP DUP1 JUMPDEST POP POP POP JUMP JUMPDEST PUSH1 0x9 PUSH1 0x2 SWAP1 SLOAD SWAP1 PUSH2 0x100 EXP SWAP1 DIV PUSH20 0xFFFFFFFFFFFFFFFFFFFFFFFFFFFFFFFFFFFFFFFF AND DUP2 JUMP JUMPDEST PUSH1 0x0 PUSH1 0x40 MLOAD DUP1 PUSH1 0x40 ADD PUSH1 0x40 MSTORE DUP1 PUSH1 0x4 DUP2 MSTORE PUSH1 0x20 ADD PUSH32 0x74656D7000000000000000000000000000000000000000000000000000000000 DUP2 MSTORE POP SWAP1 POP DUP2 PUSH1 0x2 SWAP1 DUP1 MLOAD SWAP1 PUSH1 0x20 ADD SWAP1 PUSH2 0x7CA SWAP3 SWAP2 SWAP1 PUSH2 0x841 JUMP JUMPDEST POP POP POP JUMP JUMPDEST PUSH1 0x0 PUSH1 0x20 MSTORE DUP1 PUSH1 0x0 MSTORE PUSH1 0x40 PUSH1 0x0 KECCAK256 PUSH1 0x0 SWAP2 POP SWAP1 POP SLOAD DUP2 JUMP JUMPDEST PUSH1 0x1 PUSH1 0x0 SWAP1 SLOAD SWAP1 PUSH2 0x100 EXP SWAP1 DIV PUSH20 0xFFFFFFFFFFFFFFFFFFFFFFFFFFFFFFFFFFFFFFFF AND DUP2 JUMP JUMPDEST PUSH1 0x3 PUSH1 0x0 SWAP1 SLOAD SWAP1 PUSH2 0x100 EXP SWAP1 DIV PUSH1 0xFF AND DUP2 JUMP JUMPDEST PUSH1 0x0 DUP2 PUSH20 0xFFFFFFFFFFFFFFFFFFFFFFFFFFFFFFFFFFFFFFFF AND BALANCE SWAP1 POP SWAP2 SWAP1 POP JUMP JUMPDEST DUP3 DUP1 SLOAD PUSH2 0x84D SWAP1 PUSH2 0xFA0 JUMP JUMPDEST SWAP1 PUSH1 0x0 MSTORE PUSH1 0x20 PUSH1 0x0 KECCAK256 SWAP1 PUSH1 0x1F ADD PUSH1 0x20 SWAP1 DIV DUP2 ADD SWAP3 DUP3 PUSH2 0x86F JUMPI PUSH1 0x0 DUP6 SSTORE PUSH2 0x8B6 JUMP JUMPDEST DUP3 PUSH1 0x1F LT PUSH2 0x888 JUMPI DUP1 MLOAD PUSH1 0xFF NOT AND DUP4 DUP1 ADD OR DUP6 SSTORE PUSH2 0x8B6 JUMP JUMPDEST DUP3 DUP1 ADD PUSH1 0x1 ADD DUP6 SSTORE DUP3 ISZERO PUSH2 0x8B6 JUMPI SWAP2 DUP3 ADD JUMPDEST DUP3 DUP2 GT ISZERO PUSH2 0x8B5 JUMPI DUP3 MLOAD DUP3 SSTORE SWAP2 PUSH1 0x20 ADD SWAP2 SWAP1 PUSH1 0x1 ADD SWAP1 PUSH2 0x89A JUMP JUMPDEST JUMPDEST POP SWAP1 POP PUSH2 0x8C3 SWAP2 SWAP1 PUSH2 0x8C7 JUMP JUMPDEST POP SWAP1 JUMP JUMPDEST JUMPDEST DUP1 DUP3 GT ISZERO PUSH2 0x8E0 JUMPI PUSH1 0x0 DUP2 PUSH1 0x0 SWAP1 SSTORE POP PUSH1 0x1 ADD PUSH2 0x8C8 JUMP JUMPDEST POP SWAP1 JUMP JUMPDEST PUSH1 0x0 PUSH2 0x8F7 PUSH2 0x8F2 DUP5 PUSH2 0xC1F JUMP JUMPDEST PUSH2 0xBFA JUMP JUMPDEST SWAP1 POP DUP3 DUP2 MSTORE PUSH1 0x20 DUP2 ADD DUP5 DUP5 DUP5 ADD GT ISZERO PUSH2 0x913 JUMPI PUSH2 0x912 PUSH2 0x113E JUMP JUMPDEST JUMPDEST PUSH2 0x91E DUP5 DUP3 DUP6 PUSH2 0xF5E JUMP JUMPDEST POP SWAP4 SWAP3 POP POP POP JUMP JUMPDEST PUSH1 0x0 DUP2 CALLDATALOAD SWAP1 POP PUSH2 0x935 DUP2 PUSH2 0x116B JUMP JUMPDEST SWAP3 SWAP2 POP POP JUMP JUMPDEST PUSH1 0x0 DUP2 CALLDATALOAD SWAP1 POP PUSH2 0x94A DUP2 PUSH2 0x1182 JUMP JUMPDEST SWAP3 SWAP2 POP POP JUMP JUMPDEST PUSH1 0x0 DUP3 PUSH1 0x1F DUP4 ADD SLT PUSH2 0x965 JUMPI PUSH2 0x964 PUSH2 0x1139 JUMP JUMPDEST JUMPDEST DUP2 CALLDATALOAD PUSH2 0x975 DUP5 DUP3 PUSH1 0x20 DUP7 ADD PUSH2 0x8E4 JUMP JUMPDEST SWAP2 POP POP SWAP3 SWAP2 POP POP JUMP JUMPDEST PUSH1 0x0 DUP2 CALLDATALOAD SWAP1 POP PUSH2 0x98D DUP2 PUSH2 0x1199 JUMP JUMPDEST SWAP3 SWAP2 POP POP JUMP JUMPDEST PUSH1 0x0 PUSH1 0x20 DUP3 DUP5 SUB SLT ISZERO PUSH2 0x9A9 JUMPI PUSH2 0x9A8 PUSH2 0x1148 JUMP JUMPDEST JUMPDEST PUSH1 0x0 PUSH2 0x9B7 DUP5 DUP3 DUP6 ADD PUSH2 0x926 JUMP JUMPDEST SWAP2 POP POP SWAP3 SWAP2 POP POP JUMP JUMPDEST PUSH1 0x0 DUP1 PUSH1 0x40 DUP4 DUP6 SUB SLT ISZERO PUSH2 0x9D7 JUMPI PUSH2 0x9D6 PUSH2 0x1148 JUMP JUMPDEST JUMPDEST PUSH1 0x0 PUSH2 0x9E5 DUP6 DUP3 DUP7 ADD PUSH2 0x926 JUMP JUMPDEST SWAP3 POP POP PUSH1 0x20 PUSH2 0x9F6 DUP6 DUP3 DUP7 ADD PUSH2 0x97E JUMP JUMPDEST SWAP2 POP POP SWAP3 POP SWAP3 SWAP1 POP JUMP JUMPDEST PUSH1 0x0 PUSH1 0x20 DUP3 DUP5 SUB SLT ISZERO PUSH2 0xA16 JUMPI PUSH2 0xA15 PUSH2 0x1148 JUMP JUMPDEST JUMPDEST PUSH1 0x0 PUSH2 0xA24 DUP5 DUP3 DUP6 ADD PUSH2 0x93B JUMP JUMPDEST SWAP2 POP POP SWAP3 SWAP2 POP POP JUMP JUMPDEST PUSH1 0x0 PUSH1 0x20 DUP3 DUP5 SUB SLT ISZERO PUSH2 0xA43 JUMPI PUSH2 0xA42 PUSH2 0x1148 JUMP JUMPDEST JUMPDEST PUSH1 0x0 DUP3 ADD CALLDATALOAD PUSH8 0xFFFFFFFFFFFFFFFF DUP2 GT ISZERO PUSH2 0xA61 JUMPI PUSH2 0xA60 PUSH2 0x1143 JUMP JUMPDEST JUMPDEST PUSH2 0xA6D DUP5 DUP3 DUP6 ADD PUSH2 0x950 JUMP JUMPDEST SWAP2 POP POP SWAP3 SWAP2 POP POP JUMP JUMPDEST PUSH1 0x0 PUSH1 0x20 DUP3 DUP5 SUB SLT ISZERO PUSH2 0xA8C JUMPI PUSH2 0xA8B PUSH2 0x1148 JUMP JUMPDEST JUMPDEST PUSH1 0x0 PUSH2 0xA9A DUP5 DUP3 DUP6 ADD PUSH2 0x97E JUMP JUMPDEST SWAP2 POP POP SWAP3 SWAP2 POP POP JUMP JUMPDEST PUSH2 0xAAC DUP2 PUSH2 0xEF2 JUMP JUMPDEST DUP3 MSTORE POP POP JUMP JUMPDEST PUSH2 0xABB DUP2 PUSH2 0xF04 JUMP JUMPDEST DUP3 MSTORE POP POP JUMP JUMPDEST PUSH2 0xACA DUP2 PUSH2 0xF10 JUMP JUMPDEST DUP3 MSTORE POP POP JUMP JUMPDEST PUSH2 0xAD9 DUP2 PUSH2 0xF1A JUMP JUMPDEST DUP3 MSTORE POP POP JUMP JUMPDEST PUSH1 0x0 PUSH2 0xAEA DUP3 PUSH2 0xC50 JUMP JUMPDEST PUSH2 0xAF4 DUP2 DUP6 PUSH2 0xC5B JUMP JUMPDEST SWAP4 POP PUSH2 0xB04 DUP2 DUP6 PUSH1 0x20 DUP7 ADD PUSH2 0xF6D JUMP JUMPDEST PUSH2 0xB0D DUP2 PUSH2 0x114D JUMP JUMPDEST DUP5 ADD SWAP2 POP POP SWAP3 SWAP2 POP POP JUMP JUMPDEST PUSH2 0xB21 DUP2 PUSH2 0xF47 JUMP JUMPDEST DUP3 MSTORE POP POP JUMP JUMPDEST PUSH2 0xB30 DUP2 PUSH2 0xF51 JUMP JUMPDEST DUP3 MSTORE POP POP JUMP JUMPDEST PUSH1 0x0 PUSH1 0x20 DUP3 ADD SWAP1 POP PUSH2 0xB4B PUSH1 0x0 DUP4 ADD DUP5 PUSH2 0xAA3 JUMP JUMPDEST SWAP3 SWAP2 POP POP JUMP JUMPDEST PUSH1 0x0 PUSH1 0x20 DUP3 ADD SWAP1 POP PUSH2 0xB66 PUSH1 0x0 DUP4 ADD DUP5 PUSH2 0xAB2 JUMP JUMPDEST SWAP3 SWAP2 POP POP JUMP JUMPDEST PUSH1 0x0 PUSH1 0x20 DUP3 ADD SWAP1 POP PUSH2 0xB81 PUSH1 0x0 DUP4 ADD DUP5 PUSH2 0xAC1 JUMP JUMPDEST SWAP3 SWAP2 POP POP JUMP JUMPDEST PUSH1 0x0 PUSH1 0x20 DUP3 ADD SWAP1 POP PUSH2 0xB9C PUSH1 0x0 DUP4 ADD DUP5 PUSH2 0xAD0 JUMP JUMPDEST SWAP3 SWAP2 POP POP JUMP JUMPDEST PUSH1 0x0 PUSH1 0x20 DUP3 ADD SWAP1 POP DUP2 DUP2 SUB PUSH1 0x0 DUP4 ADD MSTORE PUSH2 0xBBC DUP2 DUP5 PUSH2 0xADF JUMP JUMPDEST SWAP1 POP SWAP3 SWAP2 POP POP JUMP JUMPDEST PUSH1 0x0 PUSH1 0x20 DUP3 ADD SWAP1 POP PUSH2 0xBD9 PUSH1 0x0 DUP4 ADD DUP5 PUSH2 0xB18 JUMP JUMPDEST SWAP3 SWAP2 POP POP JUMP JUMPDEST PUSH1 0x0 PUSH1 0x20 DUP3 ADD SWAP1 POP PUSH2 0xBF4 PUSH1 0x0 DUP4 ADD DUP5 PUSH2 0xB27 JUMP JUMPDEST SWAP3 SWAP2 POP POP JUMP JUMPDEST PUSH1 0x0 PUSH2 0xC04 PUSH2 0xC15 JUMP JUMPDEST SWAP1 POP PUSH2 0xC10 DUP3 DUP3 PUSH2 0xFD2 JUMP JUMPDEST SWAP2 SWAP1 POP JUMP JUMPDEST PUSH1 0x0 PUSH1 0x40 MLOAD SWAP1 POP SWAP1 JUMP JUMPDEST PUSH1 0x0 PUSH8 0xFFFFFFFFFFFFFFFF DUP3 GT ISZERO PUSH2 0xC3A JUMPI PUSH2 0xC39 PUSH2 0x110A JUMP JUMPDEST JUMPDEST PUSH2 0xC43 DUP3 PUSH2 0x114D JUMP JUMPDEST SWAP1 POP PUSH1 0x20 DUP2 ADD SWAP1 POP SWAP2 SWAP1 POP JUMP JUMPDEST PUSH1 0x0 DUP2 MLOAD SWAP1 POP SWAP2 SWAP1 POP JUMP JUMPDEST PUSH1 0x0 DUP3 DUP3 MSTORE PUSH1 0x20 DUP3 ADD SWAP1 POP SWAP3 SWAP2 POP POP JUMP JUMPDEST PUSH1 0x0 PUSH2 0xC77 DUP3 PUSH2 0xF47 JUMP JUMPDEST SWAP2 POP PUSH2 0xC82 DUP4 PUSH2 0xF47 JUMP JUMPDEST SWAP3 POP DUP3 PUSH32 0xFFFFFFFFFFFFFFFFFFFFFFFFFFFFFFFFFFFFFFFFFFFFFFFFFFFFFFFFFFFFFFFF SUB DUP3 GT ISZERO PUSH2 0xCB7 JUMPI PUSH2 0xCB6 PUSH2 0x107D JUMP JUMPDEST JUMPDEST DUP3 DUP3 ADD SWAP1 POP SWAP3 SWAP2 POP POP JUMP JUMPDEST PUSH1 0x0 PUSH2 0xCCD DUP3 PUSH2 0xF47 JUMP JUMPDEST SWAP2 POP PUSH2 0xCD8 DUP4 PUSH2 0xF47 JUMP JUMPDEST SWAP3 POP DUP3 PUSH2 0xCE8 JUMPI PUSH2 0xCE7 PUSH2 0x10AC JUMP JUMPDEST JUMPDEST DUP3 DUP3 DIV SWAP1 POP SWAP3 SWAP2 POP POP JUMP JUMPDEST PUSH1 0x0 DUP1 DUP3 SWAP2 POP DUP4 SWAP1 POP JUMPDEST PUSH1 0x1 DUP6 GT ISZERO PUSH2 0xD3D JUMPI DUP1 DUP7 DIV DUP2 GT ISZERO PUSH2 0xD19 JUMPI PUSH2 0xD18 PUSH2 0x107D JUMP JUMPDEST JUMPDEST PUSH1 0x1 DUP6 AND ISZERO PUSH2 0xD28 JUMPI DUP1 DUP3 MUL SWAP2 POP JUMPDEST DUP1 DUP2 MUL SWAP1 POP PUSH2 0xD36 DUP6 PUSH2 0x115E JUMP JUMPDEST SWAP5 POP PUSH2 0xCFD JUMP JUMPDEST SWAP5 POP SWAP5 SWAP3 POP POP POP JUMP JUMPDEST PUSH1 0x0 PUSH2 0xD51 DUP3 PUSH2 0xF47 JUMP JUMPDEST SWAP2 POP PUSH2 0xD5C DUP4 PUSH2 0xF51 JUMP JUMPDEST SWAP3 POP PUSH2 0xD89 PUSH32 0xFFFFFFFFFFFFFFFFFFFFFFFFFFFFFFFFFFFFFFFFFFFFFFFFFFFFFFFFFFFFFFFF DUP5 DUP5 PUSH2 0xD91 JUMP JUMPDEST SWAP1 POP SWAP3 SWAP2 POP POP JUMP JUMPDEST PUSH1 0x0 DUP3 PUSH2 0xDA1 JUMPI PUSH1 0x1 SWAP1 POP PUSH2 0xE5D JUMP JUMPDEST DUP2 PUSH2 0xDAF JUMPI PUSH1 0x0 SWAP1 POP PUSH2 0xE5D JUMP JUMPDEST DUP2 PUSH1 0x1 DUP2 EQ PUSH2 0xDC5 JUMPI PUSH1 0x2 DUP2 EQ PUSH2 0xDCF JUMPI PUSH2 0xDFE JUMP JUMPDEST PUSH1 0x1 SWAP2 POP POP PUSH2 0xE5D JUMP JUMPDEST PUSH1 0xFF DUP5 GT ISZERO PUSH2 0xDE1 JUMPI PUSH2 0xDE0 PUSH2 0x107D JUMP JUMPDEST JUMPDEST DUP4 PUSH1 0x2 EXP SWAP2 POP DUP5 DUP3 GT ISZERO PUSH2 0xDF8 JUMPI PUSH2 0xDF7 PUSH2 0x107D JUMP JUMPDEST JUMPDEST POP PUSH2 0xE5D JUMP JUMPDEST POP PUSH1 0x20 DUP4 LT PUSH2 0x133 DUP4 LT AND PUSH1 0x4E DUP5 LT PUSH1 0xB DUP5 LT AND OR ISZERO PUSH2 0xE33 JUMPI DUP3 DUP3 EXP SWAP1 POP DUP4 DUP2 GT ISZERO PUSH2 0xE2E JUMPI PUSH2 0xE2D PUSH2 0x107D JUMP JUMPDEST JUMPDEST PUSH2 0xE5D JUMP JUMPDEST PUSH2 0xE40 DUP5 DUP5 DUP5 PUSH1 0x1 PUSH2 0xCF3 JUMP JUMPDEST SWAP3 POP SWAP1 POP DUP2 DUP5 DIV DUP2 GT ISZERO PUSH2 0xE57 JUMPI PUSH2 0xE56 PUSH2 0x107D JUMP JUMPDEST JUMPDEST DUP2 DUP2 MUL SWAP1 POP JUMPDEST SWAP4 SWAP3 POP POP POP JUMP JUMPDEST PUSH1 0x0 PUSH2 0xE6F DUP3 PUSH2 0xF47 JUMP JUMPDEST SWAP2 POP PUSH2 0xE7A DUP4 PUSH2 0xF47 JUMP JUMPDEST SWAP3 POP DUP2 PUSH32 0xFFFFFFFFFFFFFFFFFFFFFFFFFFFFFFFFFFFFFFFFFFFFFFFFFFFFFFFFFFFFFFFF DIV DUP4 GT DUP3 ISZERO ISZERO AND ISZERO PUSH2 0xEB3 JUMPI PUSH2 0xEB2 PUSH2 0x107D JUMP JUMPDEST JUMPDEST DUP3 DUP3 MUL SWAP1 POP SWAP3 SWAP2 POP POP JUMP JUMPDEST PUSH1 0x0 PUSH2 0xEC9 DUP3 PUSH2 0xF47 JUMP JUMPDEST SWAP2 POP PUSH2 0xED4 DUP4 PUSH2 0xF47 JUMP JUMPDEST SWAP3 POP DUP3 DUP3 LT ISZERO PUSH2 0xEE7 JUMPI PUSH2 0xEE6 PUSH2 0x107D JUMP JUMPDEST JUMPDEST DUP3 DUP3 SUB SWAP1 POP SWAP3 SWAP2 POP POP JUMP JUMPDEST PUSH1 0x0 PUSH2 0xEFD DUP3 PUSH2 0xF27 JUMP JUMPDEST SWAP1 POP SWAP2 SWAP1 POP JUMP JUMPDEST PUSH1 0x0 DUP2 ISZERO ISZERO SWAP1 POP SWAP2 SWAP1 POP JUMP JUMPDEST PUSH1 0x0 DUP2 SWAP1 POP SWAP2 SWAP1 POP JUMP JUMPDEST PUSH1 0x0 DUP2 PUSH1 0x0 SIGNEXTEND SWAP1 POP SWAP2 SWAP1 POP JUMP JUMPDEST PUSH1 0x0 PUSH20 0xFFFFFFFFFFFFFFFFFFFFFFFFFFFFFFFFFFFFFFFF DUP3 AND SWAP1 POP SWAP2 SWAP1 POP JUMP JUMPDEST PUSH1 0x0 DUP2 SWAP1 POP SWAP2 SWAP1 POP JUMP JUMPDEST PUSH1 0x0 PUSH1 0xFF DUP3 AND SWAP1 POP SWAP2 SWAP1 POP JUMP JUMPDEST DUP3 DUP2 DUP4 CALLDATACOPY PUSH1 0x0 DUP4 DUP4 ADD MSTORE POP POP POP JUMP JUMPDEST PUSH1 0x0 JUMPDEST DUP4 DUP2 LT ISZERO PUSH2 0xF8B JUMPI DUP1 DUP3 ADD MLOAD DUP2 DUP5 ADD MSTORE PUSH1 0x20 DUP2 ADD SWAP1 POP PUSH2 0xF70 JUMP JUMPDEST DUP4 DUP2 GT ISZERO PUSH2 0xF9A JUMPI PUSH1 0x0 DUP5 DUP5 ADD MSTORE JUMPDEST POP POP POP POP JUMP JUMPDEST PUSH1 0x0 PUSH1 0x2 DUP3 DIV SWAP1 POP PUSH1 0x1 DUP3 AND DUP1 PUSH2 0xFB8 JUMPI PUSH1 0x7F DUP3 AND SWAP2 POP JUMPDEST PUSH1 0x20 DUP3 LT DUP2 EQ ISZERO PUSH2 0xFCC JUMPI PUSH2 0xFCB PUSH2 0x10DB JUMP JUMPDEST JUMPDEST POP SWAP2 SWAP1 POP JUMP JUMPDEST PUSH2 0xFDB DUP3 PUSH2 0x114D JUMP JUMPDEST DUP2 ADD DUP2 DUP2 LT PUSH8 0xFFFFFFFFFFFFFFFF DUP3 GT OR ISZERO PUSH2 0xFFA JUMPI PUSH2 0xFF9 PUSH2 0x110A JUMP JUMPDEST JUMPDEST DUP1 PUSH1 0x40 MSTORE POP POP POP JUMP JUMPDEST PUSH1 0x0 PUSH2 0x100E DUP3 PUSH2 0xF47 JUMP JUMPDEST SWAP2 POP PUSH2 0x1019 DUP4 PUSH2 0xF47 JUMP JUMPDEST SWAP3 POP DUP3 PUSH2 0x1029 JUMPI PUSH2 0x1028 PUSH2 0x10AC JUMP JUMPDEST JUMPDEST DUP3 DUP3 MOD SWAP1 POP SWAP3 SWAP2 POP POP JUMP JUMPDEST PUSH1 0x0 PUSH2 0x103F DUP3 PUSH2 0xF10 JUMP JUMPDEST SWAP2 POP PUSH32 0x8000000000000000000000000000000000000000000000000000000000000000 DUP3 EQ ISZERO PUSH2 0x1072 JUMPI PUSH2 0x1071 PUSH2 0x107D JUMP JUMPDEST JUMPDEST DUP2 PUSH1 0x0 SUB SWAP1 POP SWAP2 SWAP1 POP JUMP JUMPDEST PUSH32 0x4E487B7100000000000000000000000000000000000000000000000000000000 PUSH1 0x0 MSTORE PUSH1 0x11 PUSH1 0x4 MSTORE PUSH1 0x24 PUSH1 0x0 REVERT JUMPDEST PUSH32 0x4E487B7100000000000000000000000000000000000000000000000000000000 PUSH1 0x0 MSTORE PUSH1 0x12 PUSH1 0x4 MSTORE PUSH1 0x24 PUSH1 0x0 REVERT JUMPDEST PUSH32 0x4E487B7100000000000000000000000000000000000000000000000000000000 PUSH1 0x0 MSTORE PUSH1 0x22 PUSH1 0x4 MSTORE PUSH1 0x24 PUSH1 0x0 REVERT JUMPDEST PUSH32 0x4E487B7100000000000000000000000000000000000000000000000000000000 PUSH1 0x0 MSTORE PUSH1 0x41 PUSH1 0x4 MSTORE PUSH1 0x24 PUSH1 0x0 REVERT JUMPDEST PUSH1 0x0 DUP1 REVERT JUMPDEST PUSH1 0x0 DUP1 REVERT JUMPDEST PUSH1 0x0 DUP1 REVERT JUMPDEST PUSH1 0x0 DUP1 REVERT JUMPDEST PUSH1 0x0 PUSH1 0x1F NOT PUSH1 0x1F DUP4 ADD AND SWAP1 POP SWAP2 SWAP1 POP JUMP JUMPDEST PUSH1 0x0 DUP2 PUSH1 0x1 SHR SWAP1 POP SWAP2 SWAP1 POP JUMP JUMPDEST PUSH2 0x1174 DUP2 PUSH2 0xEF2 JUMP JUMPDEST DUP2 EQ PUSH2 0x117F JUMPI PUSH1 0x0 DUP1 REVERT JUMPDEST POP JUMP JUMPDEST PUSH2 0x118B DUP2 PUSH2 0xF04 JUMP JUMPDEST DUP2 EQ PUSH2 0x1196 JUMPI PUSH1 0x0 DUP1 REVERT JUMPDEST POP JUMP JUMPDEST PUSH2 0x11A2 DUP2 PUSH2 0xF47 JUMP JUMPDEST DUP2 EQ PUSH2 0x11AD JUMPI PUSH1 0x0 DUP1 REVERT JUMPDEST POP JUMP INVALID LOG2 PUSH5 0x6970667358 0x22 SLT KECCAK256 GASPRICE DUP9 PUSH24 0x609155E2F3F5AF266A8350B5D5107484154F4E5B522792D3 0x29 JUMPDEST EXTCODECOPY DIV NOT PUSH5 0x736F6C6343 STOP ADDMOD SMOD STOP CALLER "
				},
				"gasEstimates": {
					"creation": {
						"codeDepositCost": "916400",
						"executionCost": "infinite",
						"totalCost": "infinite"
					},
					"external": {
						"demo()": "27330",
						"demo(string)": "infinite",
						"demo(uint256)": "infinite",
						"getBalance(address)": "3389",
						"inc()": "26640",
						"maximum()": "2540",
						"minimum()": "2562",
						"myAddr()": "2602",
						"myBool()": "2566",
						"myFunc(bool)": "555",
						"myInt()": "2452",
						"mySmaillUint()": "2560",
						"mySmallInt()": "2542",
						"myStr()": "infinite",
						"myUint()": "2497",
						"myVal()": "2581",
						"owner()": "2586",
						"payForItem()": "22434",
						"payments(address)": "2880",
						"receiveFunds()": "144",
						"transferTo(address,uint256)": "infinite",
						"withdrawAll()": "infinite"
					}
				},
				"methodIdentifiers": {
					"demo()": "01725a0b",
					"demo(string)": "939a79ac",
					"demo(uint256)": "071bd079",
					"getBalance(address)": "f8b2cb4f",
					"inc()": "371303c0",
					"maximum()": "52342f13",
					"minimum()": "52d6804d",
					"myAddr()": "e665b266",
					"myBool()": "6deecdbe",
					"myFunc(bool)": "8b36687e",
					"myInt()": "2cb777a6",
					"mySmaillUint()": "3891e899",
					"mySmallInt()": "7a28a513",
					"myStr()": "5a455c1c",
					"myUint()": "06540f7e",
					"myVal()": "ed32ca32",
					"owner()": "8da5cb5b",
					"payForItem()": "13bea460",
					"payments(address)": "e2982c21",
					"receiveFunds()": "005c33e1",
					"transferTo(address,uint256)": "2ccb1b30",
					"withdrawAll()": "853828b6"
				}
			},
			"storageLayout": {
				"storage": [
					{
						"astId": 5,
						"contract": "contracts/Demo.sol:MyShop",
						"label": "payments",
						"offset": 0,
						"slot": "0",
						"type": "t_mapping(t_address,t_uint256)"
					},
					{
						"astId": 8,
						"contract": "contracts/Demo.sol:MyShop",
						"label": "myAddr",
						"offset": 0,
						"slot": "1",
						"type": "t_address"
					},
					{
						"astId": 47,
						"contract": "contracts/Demo.sol:MyShop",
						"label": "myStr",
						"offset": 0,
						"slot": "2",
						"type": "t_string_storage"
					},
					{
						"astId": 64,
						"contract": "contracts/Demo.sol:MyShop",
						"label": "myVal",
						"offset": 0,
						"slot": "3",
						"type": "t_uint8"
					},
					{
						"astId": 74,
						"contract": "contracts/Demo.sol:MyShop",
						"label": "minimum",
						"offset": 0,
						"slot": "4",
						"type": "t_uint256"
					},
					{
						"astId": 76,
						"contract": "contracts/Demo.sol:MyShop",
						"label": "maximum",
						"offset": 0,
						"slot": "5",
						"type": "t_uint256"
					},
					{
						"astId": 99,
						"contract": "contracts/Demo.sol:MyShop",
						"label": "myUint",
						"offset": 0,
						"slot": "6",
						"type": "t_uint256"
					},
					{
						"astId": 102,
						"contract": "contracts/Demo.sol:MyShop",
						"label": "mySmaillUint",
						"offset": 0,
						"slot": "7",
						"type": "t_uint8"
					},
					{
						"astId": 159,
						"contract": "contracts/Demo.sol:MyShop",
						"label": "myInt",
						"offset": 0,
						"slot": "8",
						"type": "t_int256"
					},
					{
						"astId": 163,
						"contract": "contracts/Demo.sol:MyShop",
						"label": "mySmallInt",
						"offset": 0,
						"slot": "9",
						"type": "t_int8"
					},
					{
						"astId": 166,
						"contract": "contracts/Demo.sol:MyShop",
						"label": "myBool",
						"offset": 1,
						"slot": "9",
						"type": "t_bool"
					},
					{
						"astId": 168,
						"contract": "contracts/Demo.sol:MyShop",
						"label": "owner",
						"offset": 2,
						"slot": "9",
						"type": "t_address"
					}
				],
				"types": {
					"t_address": {
						"encoding": "inplace",
						"label": "address",
						"numberOfBytes": "20"
					},
					"t_bool": {
						"encoding": "inplace",
						"label": "bool",
						"numberOfBytes": "1"
					},
					"t_int256": {
						"encoding": "inplace",
						"label": "int256",
						"numberOfBytes": "32"
					},
					"t_int8": {
						"encoding": "inplace",
						"label": "int8",
						"numberOfBytes": "1"
					},
					"t_mapping(t_address,t_uint256)": {
						"encoding": "mapping",
						"key": "t_address",
						"label": "mapping(address => uint256)",
						"numberOfBytes": "32",
						"value": "t_uint256"
					},
					"t_string_storage": {
						"encoding": "bytes",
						"label": "string",
						"numberOfBytes": "32"
					},
					"t_uint256": {
						"encoding": "inplace",
						"label": "uint256",
						"numberOfBytes": "32"
					},
					"t_uint8": {
						"encoding": "inplace",
						"label": "uint8",
						"numberOfBytes": "1"
					}
				}
			},
			"userdoc": {
				"kind": "user",
				"methods": {},
				"version": 1
			}
		}
	}
}