{
	"data": {
		"bytecode": {
			"linkReferences": {},
			"object": "6080604052735b38da6a701c568545dcfcb03fcb875f56beddc4600160006101000a81548173ffffffffffffffffffffffffffffffffffffffff021916908373ffffffffffffffffffffffffffffffffffffffff1602179055506040518060400160405280600481526020017f746573740000000000000000000000000000000000000000000000000000000081525060029080519060200190620000a6929190620001b6565b5060fe600360006101000a81548160ff021916908360ff160217905550602a6006556002600760006101000a81548160ff021916908360ff1602179055507fffffffffffffffffffffffffffffffffffffffffffffffffffffffffffffffd66008557fffffffffffffffffffffffffffffffffffffffffffffffffffffffffffffffff600960006101000a81548160ff021916908360000b60ff1602179055506001600960016101000a81548160ff0219169083151502179055503480156200016e57600080fd5b5033600960026101000a81548173ffffffffffffffffffffffffffffffffffffffff021916908373ffffffffffffffffffffffffffffffffffffffff160217905550620002cb565b828054620001c49062000266565b90600052602060002090601f016020900481019282620001e8576000855562000234565b82601f106200020357805160ff191683800117855562000234565b8280016001018555821562000234579182015b828111156200023357825182559160200191906001019062000216565b5b50905062000243919062000247565b5090565b5b808211156200026257600081600090555060010162000248565b5090565b600060028204905060018216806200027f57607f821691505b602082108114156200029657620002956200029c565b5b50919050565b7f4e487b7100000000000000000000000000000000000000000000000000000000600052602260045260246000fd5b61122980620002db6000396000f3fe6080604052600436106101345760003560e01c80635a455c1c116100ab5780638da5cb5b1161006f5780638da5cb5b14610365578063939a79ac14610390578063e2982c21146103b9578063e665b266146103f6578063ed32ca3214610421578063f8b2cb4f1461044c57610134565b80635a455c1c146102a45780636deecdbe146102cf5780637a28a513146102fa578063853828b6146103255780638b36687e1461033c57610134565b80632cb777a6116100fd5780632cb777a6146101b85780632ccb1b30146101e3578063371303c01461020c5780633891e8991461022357806352342f131461024e57806352d6804d1461027957610134565b80625c33e11461013957806301725a0b1461014357806306540f7e1461015a578063071bd0791461018557806313bea460146101ae575b600080fd5b610141610489565b005b34801561014f57600080fd5b506101586104ce565b005b34801561016657600080fd5b5061016f6104e5565b60405161017c9190610c07565b60405180910390f35b34801561019157600080fd5b506101ac60048036038101906101a79190610ab9565b6104eb565b005b6101b6610556565b005b3480156101c457600080fd5b506101cd61059b565b6040516101da9190610baf565b60405180910390f35b3480156101ef57600080fd5b5061020a60048036038101906102059190610a03565b6105a1565b005b34801561021857600080fd5b506102216105f2565b005b34801561022f57600080fd5b50610238610626565b6040516102459190610c22565b60405180910390f35b34801561025a57600080fd5b50610263610639565b6040516102709190610c07565b60405180910390f35b34801561028557600080fd5b5061028e61063f565b60405161029b9190610c07565b60405180910390f35b3480156102b057600080fd5b506102b9610645565b6040516102c69190610be5565b60405180910390f35b3480156102db57600080fd5b506102e46106d3565b6040516102f19190610b94565b60405180910390f35b34801561030657600080fd5b5061030f6106e6565b60405161031c9190610bca565b60405180910390f35b34801561033157600080fd5b5061033a6106f9565b005b34801561034857600080fd5b50610363600480360381019061035e9190610a43565b610787565b005b34801561037157600080fd5b5061037a610797565b6040516103879190610b79565b60405180910390f35b34801561039c57600080fd5b506103b760048036038101906103b29190610a70565b6107bd565b005b3480156103c557600080fd5b506103e060048036038101906103db91906109d6565b610812565b6040516103ed9190610c07565b60405180910390f35b34801561040257600080fd5b5061040b61082a565b6040516104189190610b79565b60405180910390f35b34801561042d57600080fd5b50610436610850565b6040516104439190610c22565b60405180910390f35b34801561045857600080fd5b50610473600480360381019061046e91906109d6565b610863565b6040516104809190610c07565b60405180910390f35b346000803373ffffffffffffffffffffffffffffffffffffffff1673ffffffffffffffffffffffffffffffffffffffff16815260200190815260200160002081905550565b600060ff1660048190555060ff8016600581905550565b60065481565b6000602a90506001816104fe9190610caf565b5060018161050c9190610f01565b5060028161051a9190610ea7565b506002816105289190610d05565b506003816105369190610d89565b506003816105449190611046565b5060085461055190611077565b505050565b346000803373ffffffffffffffffffffffffffffffffffffffff1673ffffffffffffffffffffffffffffffffffffffff16815260200190815260200160002081905550565b60085481565b60008290508073ffffffffffffffffffffffffffffffffffffffff166108fc839081150290604051600060405180830381858888f193505050501580156105ec573d6000803e3d6000fd5b50505050565b6003600081819054906101000a900460ff168092919060010191906101000a81548160ff021916908360ff16021790555050565b600760009054906101000a900460ff1681565b60055481565b60045481565b6002805461065290610fe3565b80601f016020809104026020016040519081016040528092919081815260200182805461067e90610fe3565b80156106cb5780601f106106a0576101008083540402835291602001916106cb565b820191906000526020600020905b8154815290600101906020018083116106ae57829003601f168201915b505050505081565b600960019054906101000a900460ff1681565b600960009054906101000a900460000b81565b6000600960029054906101000a900473ffffffffffffffffffffffffffffffffffffffff16905060003090508173ffffffffffffffffffffffffffffffffffffffff166108fc8273ffffffffffffffffffffffffffffffffffffffff16319081150290604051600060405180830381858888f19350505050158015610782573d6000803e3d6000fd5b505050565b600081806107925750805b505050565b600960029054906101000a900473ffffffffffffffffffffffffffffffffffffffff1681565b60006040518060400160405280600481526020017f74656d70000000000000000000000000000000000000000000000000000000008152509050816002908051906020019061080d929190610884565b505050565b60006020528060005260406000206000915090505481565b600160009054906101000a900473ffffffffffffffffffffffffffffffffffffffff1681565b600360009054906101000a900460ff1681565b60008173ffffffffffffffffffffffffffffffffffffffff16319050919050565b82805461089090610fe3565b90600052602060002090601f0160209004810192826108b257600085556108f9565b82601f106108cb57805160ff19168380011785556108f9565b828001600101855582156108f9579182015b828111156108f85782518255916020019190600101906108dd565b5b509050610906919061090a565b5090565b5b8082111561092357600081600090555060010161090b565b5090565b600061093a61093584610c62565b610c3d565b90508281526020810184848401111561095657610955611181565b5b610961848285610fa1565b509392505050565b600081359050610978816111ae565b92915050565b60008135905061098d816111c5565b92915050565b600082601f8301126109a8576109a761117c565b5b81356109b8848260208601610927565b91505092915050565b6000813590506109d0816111dc565b92915050565b6000602082840312156109ec576109eb61118b565b5b60006109fa84828501610969565b91505092915050565b60008060408385031215610a1a57610a1961118b565b5b6000610a2885828601610969565b9250506020610a39858286016109c1565b9150509250929050565b600060208284031215610a5957610a5861118b565b5b6000610a678482850161097e565b91505092915050565b600060208284031215610a8657610a8561118b565b5b600082013567ffffffffffffffff811115610aa457610aa3611186565b5b610ab084828501610993565b91505092915050565b600060208284031215610acf57610ace61118b565b5b6000610add848285016109c1565b91505092915050565b610aef81610f35565b82525050565b610afe81610f47565b82525050565b610b0d81610f53565b82525050565b610b1c81610f5d565b82525050565b6000610b2d82610c93565b610b378185610c9e565b9350610b47818560208601610fb0565b610b5081611190565b840191505092915050565b610b6481610f8a565b82525050565b610b7381610f94565b82525050565b6000602082019050610b8e6000830184610ae6565b92915050565b6000602082019050610ba96000830184610af5565b92915050565b6000602082019050610bc46000830184610b04565b92915050565b6000602082019050610bdf6000830184610b13565b92915050565b60006020820190508181036000830152610bff8184610b22565b905092915050565b6000602082019050610c1c6000830184610b5b565b92915050565b6000602082019050610c376000830184610b6a565b92915050565b6000610c47610c58565b9050610c538282611015565b919050565b6000604051905090565b600067ffffffffffffffff821115610c7d57610c7c61114d565b5b610c8682611190565b9050602081019050919050565b600081519050919050565b600082825260208201905092915050565b6000610cba82610f8a565b9150610cc583610f8a565b9250827fffffffffffffffffffffffffffffffffffffffffffffffffffffffffffffffff03821115610cfa57610cf96110c0565b5b828201905092915050565b6000610d1082610f8a565b9150610d1b83610f8a565b925082610d2b57610d2a6110ef565b5b828204905092915050565b6000808291508390505b6001851115610d8057808604811115610d5c57610d5b6110c0565b5b6001851615610d6b5780820291505b8081029050610d79856111a1565b9450610d40565b94509492505050565b6000610d9482610f8a565b9150610d9f83610f94565b9250610dcc7fffffffffffffffffffffffffffffffffffffffffffffffffffffffffffffffff8484610dd4565b905092915050565b600082610de45760019050610ea0565b81610df25760009050610ea0565b8160018114610e085760028114610e1257610e41565b6001915050610ea0565b60ff841115610e2457610e236110c0565b5b8360020a915084821115610e3b57610e3a6110c0565b5b50610ea0565b5060208310610133831016604e8410600b8410161715610e765782820a905083811115610e7157610e706110c0565b5b610ea0565b610e838484846001610d36565b92509050818404811115610e9a57610e996110c0565b5b81810290505b9392505050565b6000610eb282610f8a565b9150610ebd83610f8a565b9250817fffffffffffffffffffffffffffffffffffffffffffffffffffffffffffffffff0483118215151615610ef657610ef56110c0565b5b828202905092915050565b6000610f0c82610f8a565b9150610f1783610f8a565b925082821015610f2a57610f296110c0565b5b828203905092915050565b6000610f4082610f6a565b9050919050565b60008115159050919050565b6000819050919050565b60008160000b9050919050565b600073ffffffffffffffffffffffffffffffffffffffff82169050919050565b6000819050919050565b600060ff82169050919050565b82818337600083830152505050565b60005b83811015610fce578082015181840152602081019050610fb3565b83811115610fdd576000848401525b50505050565b60006002820490506001821680610ffb57607f821691505b6020821081141561100f5761100e61111e565b5b50919050565b61101e82611190565b810181811067ffffffffffffffff8211171561103d5761103c61114d565b5b80604052505050565b600061105182610f8a565b915061105c83610f8a565b92508261106c5761106b6110ef565b5b828206905092915050565b600061108282610f53565b91507f80000000000000000000000000000000000000000000000000000000000000008214156110b5576110b46110c0565b5b816000039050919050565b7f4e487b7100000000000000000000000000000000000000000000000000000000600052601160045260246000fd5b7f4e487b7100000000000000000000000000000000000000000000000000000000600052601260045260246000fd5b7f4e487b7100000000000000000000000000000000000000000000000000000000600052602260045260246000fd5b7f4e487b7100000000000000000000000000000000000000000000000000000000600052604160045260246000fd5b600080fd5b600080fd5b600080fd5b600080fd5b6000601f19601f8301169050919050565b60008160011c9050919050565b6111b781610f35565b81146111c257600080fd5b50565b6111ce81610f47565b81146111d957600080fd5b50565b6111e581610f8a565b81146111f057600080fd5b5056fea2646970667358221220047f86bd2599a866f765414a242190736c2bbec87072ebd34107bfd44a2b798664736f6c63430008070033",
			"opcodes": "PUSH1 0x80 PUSH1 0x40 MSTORE PUSH20 0x5B38DA6A701C568545DCFCB03FCB875F56BEDDC4 PUSH1 0x1 PUSH1 0x0 PUSH2 0x100 EXP DUP2 SLOAD DUP2 PUSH20 0xFFFFFFFFFFFFFFFFFFFFFFFFFFFFFFFFFFFFFFFF MUL NOT AND SWAP1 DUP4 PUSH20 0xFFFFFFFFFFFFFFFFFFFFFFFFFFFFFFFFFFFFFFFF AND MUL OR SWAP1 SSTORE POP PUSH1 0x40 MLOAD DUP1 PUSH1 0x40 ADD PUSH1 0x40 MSTORE DUP1 PUSH1 0x4 DUP2 MSTORE PUSH1 0x20 ADD PUSH32 0x7465737400000000000000000000000000000000000000000000000000000000 DUP2 MSTORE POP PUSH1 0x2 SWAP1 DUP1 MLOAD SWAP1 PUSH1 0x20 ADD SWAP1 PUSH3 0xA6 SWAP3 SWAP2 SWAP1 PUSH3 0x1B6 JUMP JUMPDEST POP PUSH1 0xFE PUSH1 0x3 PUSH1 0x0 PUSH2 0x100 EXP DUP2 SLOAD DUP2 PUSH1 0xFF MUL NOT AND SWAP1 DUP4 PUSH1 0xFF AND MUL OR SWAP1 SSTORE POP PUSH1 0x2A PUSH1 0x6 SSTORE PUSH1 0x2 PUSH1 0x7 PUSH1 0x0 PUSH2 0x100 EXP DUP2 SLOAD DUP2 PUSH1 0xFF MUL NOT AND SWAP1 DUP4 PUSH1 0xFF AND MUL OR SWAP1 SSTORE POP PUSH32 0xFFFFFFFFFFFFFFFFFFFFFFFFFFFFFFFFFFFFFFFFFFFFFFFFFFFFFFFFFFFFFFD6 PUSH1 0x8 SSTORE PUSH32 0xFFFFFFFFFFFFFFFFFFFFFFFFFFFFFFFFFFFFFFFFFFFFFFFFFFFFFFFFFFFFFFFF PUSH1 0x9 PUSH1 0x0 PUSH2 0x100 EXP DUP2 SLOAD DUP2 PUSH1 0xFF MUL NOT AND SWAP1 DUP4 PUSH1 0x0 SIGNEXTEND PUSH1 0xFF AND MUL OR SWAP1 SSTORE POP PUSH1 0x1 PUSH1 0x9 PUSH1 0x1 PUSH2 0x100 EXP DUP2 SLOAD DUP2 PUSH1 0xFF MUL NOT AND SWAP1 DUP4 ISZERO ISZERO MUL OR SWAP1 SSTORE POP CALLVALUE DUP1 ISZERO PUSH3 0x16E JUMPI PUSH1 0x0 DUP1 REVERT JUMPDEST POP CALLER PUSH1 0x9 PUSH1 0x2 PUSH2 0x100 EXP DUP2 SLOAD DUP2 PUSH20 0xFFFFFFFFFFFFFFFFFFFFFFFFFFFFFFFFFFFFFFFF MUL NOT AND SWAP1 DUP4 PUSH20 0xFFFFFFFFFFFFFFFFFFFFFFFFFFFFFFFFFFFFFFFF AND MUL OR SWAP1 SSTORE POP PUSH3 0x2CB JUMP JUMPDEST DUP3 DUP1 SLOAD PUSH3 0x1C4 SWAP1 PUSH3 0x266 JUMP JUMPDEST SWAP1 PUSH1 0x0 MSTORE PUSH1 0x20 PUSH1 0x0 KECCAK256 SWAP1 PUSH1 0x1F ADD PUSH1 0x20 SWAP1 DIV DUP2 ADD SWAP3 DUP3 PUSH3 0x1E8 JUMPI PUSH1 0x0 DUP6 SSTORE PUSH3 0x234 JUMP JUMPDEST DUP3 PUSH1 0x1F LT PUSH3 0x203 JUMPI DUP1 MLOAD PUSH1 0xFF NOT AND DUP4 DUP1 ADD OR DUP6 SSTORE PUSH3 0x234 JUMP JUMPDEST DUP3 DUP1 ADD PUSH1 0x1 ADD DUP6 SSTORE DUP3 ISZERO PUSH3 0x234 JUMPI SWAP2 DUP3 ADD JUMPDEST DUP3 DUP2 GT ISZERO PUSH3 0x233 JUMPI DUP3 MLOAD DUP3 SSTORE SWAP2 PUSH1 0x20 ADD SWAP2 SWAP1 PUSH1 0x1 ADD SWAP1 PUSH3 0x216 JUMP JUMPDEST JUMPDEST POP SWAP1 POP PUSH3 0x243 SWAP2 SWAP1 PUSH3 0x247 JUMP JUMPDEST POP SWAP1 JUMP JUMPDEST JUMPDEST DUP1 DUP3 GT ISZERO PUSH3 0x262 JUMPI PUSH1 0x0 DUP2 PUSH1 0x0 SWAP1 SSTORE POP PUSH1 0x1 ADD PUSH3 0x248 JUMP JUMPDEST POP SWAP1 JUMP JUMPDEST PUSH1 0x0 PUSH1 0x2 DUP3 DIV SWAP1 POP PUSH1 0x1 DUP3 AND DUP1 PUSH3 0x27F JUMPI PUSH1 0x7F DUP3 AND SWAP2 POP JUMPDEST PUSH1 0x20 DUP3 LT DUP2 EQ ISZERO PUSH3 0x296 JUMPI PUSH3 0x295 PUSH3 0x29C JUMP JUMPDEST JUMPDEST POP SWAP2 SWAP1 POP JUMP JUMPDEST PUSH32 0x4E487B7100000000000000000000000000000000000000000000000000000000 PUSH1 0x0 MSTORE PUSH1 0x22 PUSH1 0x4 MSTORE PUSH1 0x24 PUSH1 0x0 REVERT JUMPDEST PUSH2 0x1229 DUP1 PUSH3 0x2DB PUSH1 0x0 CODECOPY PUSH1 0x0 RETURN INVALID PUSH1 0x80 PUSH1 0x40 MSTORE PUSH1 0x4 CALLDATASIZE LT PUSH2 0x134 JUMPI PUSH1 0x0 CALLDATALOAD PUSH1 0xE0 SHR DUP1 PUSH4 0x5A455C1C GT PUSH2 0xAB JUMPI DUP1 PUSH4 0x8DA5CB5B GT PUSH2 0x6F JUMPI DUP1 PUSH4 0x8DA5CB5B EQ PUSH2 0x365 JUMPI DUP1 PUSH4 0x939A79AC EQ PUSH2 0x390 JUMPI DUP1 PUSH4 0xE2982C21 EQ PUSH2 0x3B9 JUMPI DUP1 PUSH4 0xE665B266 EQ PUSH2 0x3F6 JUMPI DUP1 PUSH4 0xED32CA32 EQ PUSH2 0x421 JUMPI DUP1 PUSH4 0xF8B2CB4F EQ PUSH2 0x44C JUMPI PUSH2 0x134 JUMP JUMPDEST DUP1 PUSH4 0x5A455C1C EQ PUSH2 0x2A4 JUMPI DUP1 PUSH4 0x6DEECDBE EQ PUSH2 0x2CF JUMPI DUP1 PUSH4 0x7A28A513 EQ PUSH2 0x2FA JUMPI DUP1 PUSH4 0x853828B6 EQ PUSH2 0x325 JUMPI DUP1 PUSH4 0x8B36687E EQ PUSH2 0x33C JUMPI PUSH2 0x134 JUMP JUMPDEST DUP1 PUSH4 0x2CB777A6 GT PUSH2 0xFD JUMPI DUP1 PUSH4 0x2CB777A6 EQ PUSH2 0x1B8 JUMPI DUP1 PUSH4 0x2CCB1B30 EQ PUSH2 0x1E3 JUMPI DUP1 PUSH4 0x371303C0 EQ PUSH2 0x20C JUMPI DUP1 PUSH4 0x3891E899 EQ PUSH2 0x223 JUMPI DUP1 PUSH4 0x52342F13 EQ PUSH2 0x24E JUMPI DUP1 PUSH4 0x52D6804D EQ PUSH2 0x279 JUMPI PUSH2 0x134 JUMP JUMPDEST DUP1 PUSH3 0x5C33E1 EQ PUSH2 0x139 JUMPI DUP1 PUSH4 0x1725A0B EQ PUSH2 0x143 JUMPI DUP1 PUSH4 0x6540F7E EQ PUSH2 0x15A JUMPI DUP1 PUSH4 0x71BD079 EQ PUSH2 0x185 JUMPI DUP1 PUSH4 0x13BEA460 EQ PUSH2 0x1AE JUMPI JUMPDEST PUSH1 0x0 DUP1 REVERT JUMPDEST PUSH2 0x141 PUSH2 0x489 JUMP JUMPDEST STOP JUMPDEST CALLVALUE DUP1 ISZERO PUSH2 0x14F JUMPI PUSH1 0x0 DUP1 REVERT JUMPDEST POP PUSH2 0x158 PUSH2 0x4CE JUMP JUMPDEST STOP JUMPDEST CALLVALUE DUP1 ISZERO PUSH2 0x166 JUMPI PUSH1 0x0 DUP1 REVERT JUMPDEST POP PUSH2 0x16F PUSH2 0x4E5 JUMP JUMPDEST PUSH1 0x40 MLOAD PUSH2 0x17C SWAP2 SWAP1 PUSH2 0xC07 JUMP JUMPDEST PUSH1 0x40 MLOAD DUP1 SWAP2 SUB SWAP1 RETURN JUMPDEST CALLVALUE DUP1 ISZERO PUSH2 0x191 JUMPI PUSH1 0x0 DUP1 REVERT JUMPDEST POP PUSH2 0x1AC PUSH1 0x4 DUP1 CALLDATASIZE SUB DUP2 ADD SWAP1 PUSH2 0x1A7 SWAP2 SWAP1 PUSH2 0xAB9 JUMP JUMPDEST PUSH2 0x4EB JUMP JUMPDEST STOP JUMPDEST PUSH2 0x1B6 PUSH2 0x556 JUMP JUMPDEST STOP JUMPDEST CALLVALUE DUP1 ISZERO PUSH2 0x1C4 JUMPI PUSH1 0x0 DUP1 REVERT JUMPDEST POP PUSH2 0x1CD PUSH2 0x59B JUMP JUMPDEST PUSH1 0x40 MLOAD PUSH2 0x1DA SWAP2 SWAP1 PUSH2 0xBAF JUMP JUMPDEST PUSH1 0x40 MLOAD DUP1 SWAP2 SUB SWAP1 RETURN JUMPDEST CALLVALUE DUP1 ISZERO PUSH2 0x1EF JUMPI PUSH1 0x0 DUP1 REVERT JUMPDEST POP PUSH2 0x20A PUSH1 0x4 DUP1 CALLDATASIZE SUB DUP2 ADD SWAP1 PUSH2 0x205 SWAP2 SWAP1 PUSH2 0xA03 JUMP JUMPDEST PUSH2 0x5A1 JUMP JUMPDEST STOP JUMPDEST CALLVALUE DUP1 ISZERO PUSH2 0x218 JUMPI PUSH1 0x0 DUP1 REVERT JUMPDEST POP PUSH2 0x221 PUSH2 0x5F2 JUMP JUMPDEST STOP JUMPDEST CALLVALUE DUP1 ISZERO PUSH2 0x22F JUMPI PUSH1 0x0 DUP1 REVERT JUMPDEST POP PUSH2 0x238 PUSH2 0x626 JUMP JUMPDEST PUSH1 0x40 MLOAD PUSH2 0x245 SWAP2 SWAP1 PUSH2 0xC22 JUMP JUMPDEST PUSH1 0x40 MLOAD DUP1 SWAP2 SUB SWAP1 RETURN JUMPDEST CALLVALUE DUP1 ISZERO PUSH2 0x25A JUMPI PUSH1 0x0 DUP1 REVERT JUMPDEST POP PUSH2 0x263 PUSH2 0x639 JUMP JUMPDEST PUSH1 0x40 MLOAD PUSH2 0x270 SWAP2 SWAP1 PUSH2 0xC07 JUMP JUMPDEST PUSH1 0x40 MLOAD DUP1 SWAP2 SUB SWAP1 RETURN JUMPDEST CALLVALUE DUP1 ISZERO PUSH2 0x285 JUMPI PUSH1 0x0 DUP1 REVERT JUMPDEST POP PUSH2 0x28E PUSH2 0x63F JUMP JUMPDEST PUSH1 0x40 MLOAD PUSH2 0x29B SWAP2 SWAP1 PUSH2 0xC07 JUMP JUMPDEST PUSH1 0x40 MLOAD DUP1 SWAP2 SUB SWAP1 RETURN JUMPDEST CALLVALUE DUP1 ISZERO PUSH2 0x2B0 JUMPI PUSH1 0x0 DUP1 REVERT JUMPDEST POP PUSH2 0x2B9 PUSH2 0x645 JUMP JUMPDEST PUSH1 0x40 MLOAD PUSH2 0x2C6 SWAP2 SWAP1 PUSH2 0xBE5 JUMP JUMPDEST PUSH1 0x40 MLOAD DUP1 SWAP2 SUB SWAP1 RETURN JUMPDEST CALLVALUE DUP1 ISZERO PUSH2 0x2DB JUMPI PUSH1 0x0 DUP1 REVERT JUMPDEST POP PUSH2 0x2E4 PUSH2 0x6D3 JUMP JUMPDEST PUSH1 0x40 MLOAD PUSH2 0x2F1 SWAP2 SWAP1 PUSH2 0xB94 JUMP JUMPDEST PUSH1 0x40 MLOAD DUP1 SWAP2 SUB SWAP1 RETURN JUMPDEST CALLVALUE DUP1 ISZERO PUSH2 0x306 JUMPI PUSH1 0x0 DUP1 REVERT JUMPDEST POP PUSH2 0x30F PUSH2 0x6E6 JUMP JUMPDEST PUSH1 0x40 MLOAD PUSH2 0x31C SWAP2 SWAP1 PUSH2 0xBCA JUMP JUMPDEST PUSH1 0x40 MLOAD DUP1 SWAP2 SUB SWAP1 RETURN JUMPDEST CALLVALUE DUP1 ISZERO PUSH2 0x331 JUMPI PUSH1 0x0 DUP1 REVERT JUMPDEST POP PUSH2 0x33A PUSH2 0x6F9 JUMP JUMPDEST STOP JUMPDEST CALLVALUE DUP1 ISZERO PUSH2 0x348 JUMPI PUSH1 0x0 DUP1 REVERT JUMPDEST POP PUSH2 0x363 PUSH1 0x4 DUP1 CALLDATASIZE SUB DUP2 ADD SWAP1 PUSH2 0x35E SWAP2 SWAP1 PUSH2 0xA43 JUMP JUMPDEST PUSH2 0x787 JUMP JUMPDEST STOP JUMPDEST CALLVALUE DUP1 ISZERO PUSH2 0x371 JUMPI PUSH1 0x0 DUP1 REVERT JUMPDEST POP PUSH2 0x37A PUSH2 0x797 JUMP JUMPDEST PUSH1 0x40 MLOAD PUSH2 0x387 SWAP2 SWAP1 PUSH2 0xB79 JUMP JUMPDEST PUSH1 0x40 MLOAD DUP1 SWAP2 SUB SWAP1 RETURN JUMPDEST CALLVALUE DUP1 ISZERO PUSH2 0x39C JUMPI PUSH1 0x0 DUP1 REVERT JUMPDEST POP PUSH2 0x3B7 PUSH1 0x4 DUP1 CALLDATASIZE SUB DUP2 ADD SWAP1 PUSH2 0x3B2 SWAP2 SWAP1 PUSH2 0xA70 JUMP JUMPDEST PUSH2 0x7BD JUMP JUMPDEST STOP JUMPDEST CALLVALUE DUP1 ISZERO PUSH2 0x3C5 JUMPI PUSH1 0x0 DUP1 REVERT JUMPDEST POP PUSH2 0x3E0 PUSH1 0x4 DUP1 CALLDATASIZE SUB DUP2 ADD SWAP1 PUSH2 0x3DB SWAP2 SWAP1 PUSH2 0x9D6 JUMP JUMPDEST PUSH2 0x812 JUMP JUMPDEST PUSH1 0x40 MLOAD PUSH2 0x3ED SWAP2 SWAP1 PUSH2 0xC07 JUMP JUMPDEST PUSH1 0x40 MLOAD DUP1 SWAP2 SUB SWAP1 RETURN JUMPDEST CALLVALUE DUP1 ISZERO PUSH2 0x402 JUMPI PUSH1 0x0 DUP1 REVERT JUMPDEST POP PUSH2 0x40B PUSH2 0x82A JUMP JUMPDEST PUSH1 0x40 MLOAD PUSH2 0x418 SWAP2 SWAP1 PUSH2 0xB79 JUMP JUMPDEST PUSH1 0x40 MLOAD DUP1 SWAP2 SUB SWAP1 RETURN JUMPDEST CALLVALUE DUP1 ISZERO PUSH2 0x42D JUMPI PUSH1 0x0 DUP1 REVERT JUMPDEST POP PUSH2 0x436 PUSH2 0x850 JUMP JUMPDEST PUSH1 0x40 MLOAD PUSH2 0x443 SWAP2 SWAP1 PUSH2 0xC22 JUMP JUMPDEST PUSH1 0x40 MLOAD DUP1 SWAP2 SUB SWAP1 RETURN JUMPDEST CALLVALUE DUP1 ISZERO PUSH2 0x458 JUMPI PUSH1 0x0 DUP1 REVERT JUMPDEST POP PUSH2 0x473 PUSH1 0x4 DUP1 CALLDATASIZE SUB DUP2 ADD SWAP1 PUSH2 0x46E SWAP2 SWAP1 PUSH2 0x9D6 JUMP JUMPDEST PUSH2 0x863 JUMP JUMPDEST PUSH1 0x40 MLOAD PUSH2 0x480 SWAP2 SWAP1 PUSH2 0xC07 JUMP JUMPDEST PUSH1 0x40 MLOAD DUP1 SWAP2 SUB SWAP1 RETURN JUMPDEST CALLVALUE PUSH1 0x0 DUP1 CALLER PUSH20 0xFFFFFFFFFFFFFFFFFFFFFFFFFFFFFFFFFFFFFFFF AND PUSH20 0xFFFFFFFFFFFFFFFFFFFFFFFFFFFFFFFFFFFFFFFF AND DUP2 MSTORE PUSH1 0x20 ADD SWAP1 DUP2 MSTORE PUSH1 0x20 ADD PUSH1 0x0 KECCAK256 DUP2 SWAP1 SSTORE POP JUMP JUMPDEST PUSH1 0x0 PUSH1 0xFF AND PUSH1 0x4 DUP2 SWAP1 SSTORE POP PUSH1 0xFF DUP1 AND PUSH1 0x5 DUP2 SWAP1 SSTORE POP JUMP JUMPDEST PUSH1 0x6 SLOAD DUP2 JUMP JUMPDEST PUSH1 0x0 PUSH1 0x2A SWAP1 POP PUSH1 0x1 DUP2 PUSH2 0x4FE SWAP2 SWAP1 PUSH2 0xCAF JUMP JUMPDEST POP PUSH1 0x1 DUP2 PUSH2 0x50C SWAP2 SWAP1 PUSH2 0xF01 JUMP JUMPDEST POP PUSH1 0x2 DUP2 PUSH2 0x51A SWAP2 SWAP1 PUSH2 0xEA7 JUMP JUMPDEST POP PUSH1 0x2 DUP2 PUSH2 0x528 SWAP2 SWAP1 PUSH2 0xD05 JUMP JUMPDEST POP PUSH1 0x3 DUP2 PUSH2 0x536 SWAP2 SWAP1 PUSH2 0xD89 JUMP JUMPDEST POP PUSH1 0x3 DUP2 PUSH2 0x544 SWAP2 SWAP1 PUSH2 0x1046 JUMP JUMPDEST POP PUSH1 0x8 SLOAD PUSH2 0x551 SWAP1 PUSH2 0x1077 JUMP JUMPDEST POP POP POP JUMP JUMPDEST CALLVALUE PUSH1 0x0 DUP1 CALLER PUSH20 0xFFFFFFFFFFFFFFFFFFFFFFFFFFFFFFFFFFFFFFFF AND PUSH20 0xFFFFFFFFFFFFFFFFFFFFFFFFFFFFFFFFFFFFFFFF AND DUP2 MSTORE PUSH1 0x20 ADD SWAP1 DUP2 MSTORE PUSH1 0x20 ADD PUSH1 0x0 KECCAK256 DUP2 SWAP1 SSTORE POP JUMP JUMPDEST PUSH1 0x8 SLOAD DUP2 JUMP JUMPDEST PUSH1 0x0 DUP3 SWAP1 POP DUP1 PUSH20 0xFFFFFFFFFFFFFFFFFFFFFFFFFFFFFFFFFFFFFFFF AND PUSH2 0x8FC DUP4 SWAP1 DUP2 ISZERO MUL SWAP1 PUSH1 0x40 MLOAD PUSH1 0x0 PUSH1 0x40 MLOAD DUP1 DUP4 SUB DUP2 DUP6 DUP9 DUP9 CALL SWAP4 POP POP POP POP ISZERO DUP1 ISZERO PUSH2 0x5EC JUMPI RETURNDATASIZE PUSH1 0x0 DUP1 RETURNDATACOPY RETURNDATASIZE PUSH1 0x0 REVERT JUMPDEST POP POP POP POP JUMP JUMPDEST PUSH1 0x3 PUSH1 0x0 DUP2 DUP2 SWAP1 SLOAD SWAP1 PUSH2 0x100 EXP SWAP1 DIV PUSH1 0xFF AND DUP1 SWAP3 SWAP2 SWAP1 PUSH1 0x1 ADD SWAP2 SWAP1 PUSH2 0x100 EXP DUP2 SLOAD DUP2 PUSH1 0xFF MUL NOT AND SWAP1 DUP4 PUSH1 0xFF AND MUL OR SWAP1 SSTORE POP POP JUMP JUMPDEST PUSH1 0x7 PUSH1 0x0 SWAP1 SLOAD SWAP1 PUSH2 0x100 EXP SWAP1 DIV PUSH1 0xFF AND DUP2 JUMP JUMPDEST PUSH1 0x5 SLOAD DUP2 JUMP JUMPDEST PUSH1 0x4 SLOAD DUP2 JUMP JUMPDEST PUSH1 0x2 DUP1 SLOAD PUSH2 0x652 SWAP1 PUSH2 0xFE3 JUMP JUMPDEST DUP1 PUSH1 0x1F ADD PUSH1 0x20 DUP1 SWAP2 DIV MUL PUSH1 0x20 ADD PUSH1 0x40 MLOAD SWAP1 DUP2 ADD PUSH1 0x40 MSTORE DUP1 SWAP3 SWAP2 SWAP1 DUP2 DUP2 MSTORE PUSH1 0x20 ADD DUP3 DUP1 SLOAD PUSH2 0x67E SWAP1 PUSH2 0xFE3 JUMP JUMPDEST DUP1 ISZERO PUSH2 0x6CB JUMPI DUP1 PUSH1 0x1F LT PUSH2 0x6A0 JUMPI PUSH2 0x100 DUP1 DUP4 SLOAD DIV MUL DUP4 MSTORE SWAP2 PUSH1 0x20 ADD SWAP2 PUSH2 0x6CB JUMP JUMPDEST DUP3 ADD SWAP2 SWAP1 PUSH1 0x0 MSTORE PUSH1 0x20 PUSH1 0x0 KECCAK256 SWAP1 JUMPDEST DUP2 SLOAD DUP2 MSTORE SWAP1 PUSH1 0x1 ADD SWAP1 PUSH1 0x20 ADD DUP1 DUP4 GT PUSH2 0x6AE JUMPI DUP3 SWAP1 SUB PUSH1 0x1F AND DUP3 ADD SWAP2 JUMPDEST POP POP POP POP POP DUP2 JUMP JUMPDEST PUSH1 0x9 PUSH1 0x1 SWAP1 SLOAD SWAP1 PUSH2 0x100 EXP SWAP1 DIV PUSH1 0xFF AND DUP2 JUMP JUMPDEST PUSH1 0x9 PUSH1 0x0 SWAP1 SLOAD SWAP1 PUSH2 0x100 EXP SWAP1 DIV PUSH1 0x0 SIGNEXTEND DUP2 JUMP JUMPDEST PUSH1 0x0 PUSH1 0x9 PUSH1 0x2 SWAP1 SLOAD SWAP1 PUSH2 0x100 EXP SWAP1 DIV PUSH20 0xFFFFFFFFFFFFFFFFFFFFFFFFFFFFFFFFFFFFFFFF AND SWAP1 POP PUSH1 0x0 ADDRESS SWAP1 POP DUP2 PUSH20 0xFFFFFFFFFFFFFFFFFFFFFFFFFFFFFFFFFFFFFFFF AND PUSH2 0x8FC DUP3 PUSH20 0xFFFFFFFFFFFFFFFFFFFFFFFFFFFFFFFFFFFFFFFF AND BALANCE SWAP1 DUP2 ISZERO MUL SWAP1 PUSH1 0x40 MLOAD PUSH1 0x0 PUSH1 0x40 MLOAD DUP1 DUP4 SUB DUP2 DUP6 DUP9 DUP9 CALL SWAP4 POP POP POP POP ISZERO DUP1 ISZERO PUSH2 0x782 JUMPI RETURNDATASIZE PUSH1 0x0 DUP1 RETURNDATACOPY RETURNDATASIZE PUSH1 0x0 REVERT JUMPDEST POP POP POP JUMP JUMPDEST PUSH1 0x0 DUP2 DUP1 PUSH2 0x792 JUMPI POP DUP1 JUMPDEST POP POP POP JUMP JUMPDEST PUSH1 0x9 PUSH1 0x2 SWAP1 SLOAD SWAP1 PUSH2 0x100 EXP SWAP1 DIV PUSH20 0xFFFFFFFFFFFFFFFFFFFFFFFFFFFFFFFFFFFFFFFF AND DUP2 JUMP JUMPDEST PUSH1 0x0 PUSH1 0x40 MLOAD DUP1 PUSH1 0x40 ADD PUSH1 0x40 MSTORE DUP1 PUSH1 0x4 DUP2 MSTORE PUSH1 0x20 ADD PUSH32 0x74656D7000000000000000000000000000000000000000000000000000000000 DUP2 MSTORE POP SWAP1 POP DUP2 PUSH1 0x2 SWAP1 DUP1 MLOAD SWAP1 PUSH1 0x20 ADD SWAP1 PUSH2 0x80D SWAP3 SWAP2 SWAP1 PUSH2 0x884 JUMP JUMPDEST POP POP POP JUMP JUMPDEST PUSH1 0x0 PUSH1 0x20 MSTORE DUP1 PUSH1 0x0 MSTORE PUSH1 0x40 PUSH1 0x0 KECCAK256 PUSH1 0x0 SWAP2 POP SWAP1 POP SLOAD DUP2 JUMP JUMPDEST PUSH1 0x1 PUSH1 0x0 SWAP1 SLOAD SWAP1 PUSH2 0x100 EXP SWAP1 DIV PUSH20 0xFFFFFFFFFFFFFFFFFFFFFFFFFFFFFFFFFFFFFFFF AND DUP2 JUMP JUMPDEST PUSH1 0x3 PUSH1 0x0 SWAP1 SLOAD SWAP1 PUSH2 0x100 EXP SWAP1 DIV PUSH1 0xFF AND DUP2 JUMP JUMPDEST PUSH1 0x0 DUP2 PUSH20 0xFFFFFFFFFFFFFFFFFFFFFFFFFFFFFFFFFFFFFFFF AND BALANCE SWAP1 POP SWAP2 SWAP1 POP JUMP JUMPDEST DUP3 DUP1 SLOAD PUSH2 0x890 SWAP1 PUSH2 0xFE3 JUMP JUMPDEST SWAP1 PUSH1 0x0 MSTORE PUSH1 0x20 PUSH1 0x0 KECCAK256 SWAP1 PUSH1 0x1F ADD PUSH1 0x20 SWAP1 DIV DUP2 ADD SWAP3 DUP3 PUSH2 0x8B2 JUMPI PUSH1 0x0 DUP6 SSTORE PUSH2 0x8F9 JUMP JUMPDEST DUP3 PUSH1 0x1F LT PUSH2 0x8CB JUMPI DUP1 MLOAD PUSH1 0xFF NOT AND DUP4 DUP1 ADD OR DUP6 SSTORE PUSH2 0x8F9 JUMP JUMPDEST DUP3 DUP1 ADD PUSH1 0x1 ADD DUP6 SSTORE DUP3 ISZERO PUSH2 0x8F9 JUMPI SWAP2 DUP3 ADD JUMPDEST DUP3 DUP2 GT ISZERO PUSH2 0x8F8 JUMPI DUP3 MLOAD DUP3 SSTORE SWAP2 PUSH1 0x20 ADD SWAP2 SWAP1 PUSH1 0x1 ADD SWAP1 PUSH2 0x8DD JUMP JUMPDEST JUMPDEST POP SWAP1 POP PUSH2 0x906 SWAP2 SWAP1 PUSH2 0x90A JUMP JUMPDEST POP SWAP1 JUMP JUMPDEST JUMPDEST DUP1 DUP3 GT ISZERO PUSH2 0x923 JUMPI PUSH1 0x0 DUP2 PUSH1 0x0 SWAP1 SSTORE POP PUSH1 0x1 ADD PUSH2 0x90B JUMP JUMPDEST POP SWAP1 JUMP JUMPDEST PUSH1 0x0 PUSH2 0x93A PUSH2 0x935 DUP5 PUSH2 0xC62 JUMP JUMPDEST PUSH2 0xC3D JUMP JUMPDEST SWAP1 POP DUP3 DUP2 MSTORE PUSH1 0x20 DUP2 ADD DUP5 DUP5 DUP5 ADD GT ISZERO PUSH2 0x956 JUMPI PUSH2 0x955 PUSH2 0x1181 JUMP JUMPDEST JUMPDEST PUSH2 0x961 DUP5 DUP3 DUP6 PUSH2 0xFA1 JUMP JUMPDEST POP SWAP4 SWAP3 POP POP POP JUMP JUMPDEST PUSH1 0x0 DUP2 CALLDATALOAD SWAP1 POP PUSH2 0x978 DUP2 PUSH2 0x11AE JUMP JUMPDEST SWAP3 SWAP2 POP POP JUMP JUMPDEST PUSH1 0x0 DUP2 CALLDATALOAD SWAP1 POP PUSH2 0x98D DUP2 PUSH2 0x11C5 JUMP JUMPDEST SWAP3 SWAP2 POP POP JUMP JUMPDEST PUSH1 0x0 DUP3 PUSH1 0x1F DUP4 ADD SLT PUSH2 0x9A8 JUMPI PUSH2 0x9A7 PUSH2 0x117C JUMP JUMPDEST JUMPDEST DUP2 CALLDATALOAD PUSH2 0x9B8 DUP5 DUP3 PUSH1 0x20 DUP7 ADD PUSH2 0x927 JUMP JUMPDEST SWAP2 POP POP SWAP3 SWAP2 POP POP JUMP JUMPDEST PUSH1 0x0 DUP2 CALLDATALOAD SWAP1 POP PUSH2 0x9D0 DUP2 PUSH2 0x11DC JUMP JUMPDEST SWAP3 SWAP2 POP POP JUMP JUMPDEST PUSH1 0x0 PUSH1 0x20 DUP3 DUP5 SUB SLT ISZERO PUSH2 0x9EC JUMPI PUSH2 0x9EB PUSH2 0x118B JUMP JUMPDEST JUMPDEST PUSH1 0x0 PUSH2 0x9FA DUP5 DUP3 DUP6 ADD PUSH2 0x969 JUMP JUMPDEST SWAP2 POP POP SWAP3 SWAP2 POP POP JUMP JUMPDEST PUSH1 0x0 DUP1 PUSH1 0x40 DUP4 DUP6 SUB SLT ISZERO PUSH2 0xA1A JUMPI PUSH2 0xA19 PUSH2 0x118B JUMP JUMPDEST JUMPDEST PUSH1 0x0 PUSH2 0xA28 DUP6 DUP3 DUP7 ADD PUSH2 0x969 JUMP JUMPDEST SWAP3 POP POP PUSH1 0x20 PUSH2 0xA39 DUP6 DUP3 DUP7 ADD PUSH2 0x9C1 JUMP JUMPDEST SWAP2 POP POP SWAP3 POP SWAP3 SWAP1 POP JUMP JUMPDEST PUSH1 0x0 PUSH1 0x20 DUP3 DUP5 SUB SLT ISZERO PUSH2 0xA59 JUMPI PUSH2 0xA58 PUSH2 0x118B JUMP JUMPDEST JUMPDEST PUSH1 0x0 PUSH2 0xA67 DUP5 DUP3 DUP6 ADD PUSH2 0x97E JUMP JUMPDEST SWAP2 POP POP SWAP3 SWAP2 POP POP JUMP JUMPDEST PUSH1 0x0 PUSH1 0x20 DUP3 DUP5 SUB SLT ISZERO PUSH2 0xA86 JUMPI PUSH2 0xA85 PUSH2 0x118B JUMP JUMPDEST JUMPDEST PUSH1 0x0 DUP3 ADD CALLDATALOAD PUSH8 0xFFFFFFFFFFFFFFFF DUP2 GT ISZERO PUSH2 0xAA4 JUMPI PUSH2 0xAA3 PUSH2 0x1186 JUMP JUMPDEST JUMPDEST PUSH2 0xAB0 DUP5 DUP3 DUP6 ADD PUSH2 0x993 JUMP JUMPDEST SWAP2 POP POP SWAP3 SWAP2 POP POP JUMP JUMPDEST PUSH1 0x0 PUSH1 0x20 DUP3 DUP5 SUB SLT ISZERO PUSH2 0xACF JUMPI PUSH2 0xACE PUSH2 0x118B JUMP JUMPDEST JUMPDEST PUSH1 0x0 PUSH2 0xADD DUP5 DUP3 DUP6 ADD PUSH2 0x9C1 JUMP JUMPDEST SWAP2 POP POP SWAP3 SWAP2 POP POP JUMP JUMPDEST PUSH2 0xAEF DUP2 PUSH2 0xF35 JUMP JUMPDEST DUP3 MSTORE POP POP JUMP JUMPDEST PUSH2 0xAFE DUP2 PUSH2 0xF47 JUMP JUMPDEST DUP3 MSTORE POP POP JUMP JUMPDEST PUSH2 0xB0D DUP2 PUSH2 0xF53 JUMP JUMPDEST DUP3 MSTORE POP POP JUMP JUMPDEST PUSH2 0xB1C DUP2 PUSH2 0xF5D JUMP JUMPDEST DUP3 MSTORE POP POP JUMP JUMPDEST PUSH1 0x0 PUSH2 0xB2D DUP3 PUSH2 0xC93 JUMP JUMPDEST PUSH2 0xB37 DUP2 DUP6 PUSH2 0xC9E JUMP JUMPDEST SWAP4 POP PUSH2 0xB47 DUP2 DUP6 PUSH1 0x20 DUP7 ADD PUSH2 0xFB0 JUMP JUMPDEST PUSH2 0xB50 DUP2 PUSH2 0x1190 JUMP JUMPDEST DUP5 ADD SWAP2 POP POP SWAP3 SWAP2 POP POP JUMP JUMPDEST PUSH2 0xB64 DUP2 PUSH2 0xF8A JUMP JUMPDEST DUP3 MSTORE POP POP JUMP JUMPDEST PUSH2 0xB73 DUP2 PUSH2 0xF94 JUMP JUMPDEST DUP3 MSTORE POP POP JUMP JUMPDEST PUSH1 0x0 PUSH1 0x20 DUP3 ADD SWAP1 POP PUSH2 0xB8E PUSH1 0x0 DUP4 ADD DUP5 PUSH2 0xAE6 JUMP JUMPDEST SWAP3 SWAP2 POP POP JUMP JUMPDEST PUSH1 0x0 PUSH1 0x20 DUP3 ADD SWAP1 POP PUSH2 0xBA9 PUSH1 0x0 DUP4 ADD DUP5 PUSH2 0xAF5 JUMP JUMPDEST SWAP3 SWAP2 POP POP JUMP JUMPDEST PUSH1 0x0 PUSH1 0x20 DUP3 ADD SWAP1 POP PUSH2 0xBC4 PUSH1 0x0 DUP4 ADD DUP5 PUSH2 0xB04 JUMP JUMPDEST SWAP3 SWAP2 POP POP JUMP JUMPDEST PUSH1 0x0 PUSH1 0x20 DUP3 ADD SWAP1 POP PUSH2 0xBDF PUSH1 0x0 DUP4 ADD DUP5 PUSH2 0xB13 JUMP JUMPDEST SWAP3 SWAP2 POP POP JUMP JUMPDEST PUSH1 0x0 PUSH1 0x20 DUP3 ADD SWAP1 POP DUP2 DUP2 SUB PUSH1 0x0 DUP4 ADD MSTORE PUSH2 0xBFF DUP2 DUP5 PUSH2 0xB22 JUMP JUMPDEST SWAP1 POP SWAP3 SWAP2 POP POP JUMP JUMPDEST PUSH1 0x0 PUSH1 0x20 DUP3 ADD SWAP1 POP PUSH2 0xC1C PUSH1 0x0 DUP4 ADD DUP5 PUSH2 0xB5B JUMP JUMPDEST SWAP3 SWAP2 POP POP JUMP JUMPDEST PUSH1 0x0 PUSH1 0x20 DUP3 ADD SWAP1 POP PUSH2 0xC37 PUSH1 0x0 DUP4 ADD DUP5 PUSH2 0xB6A JUMP JUMPDEST SWAP3 SWAP2 POP POP JUMP JUMPDEST PUSH1 0x0 PUSH2 0xC47 PUSH2 0xC58 JUMP JUMPDEST SWAP1 POP PUSH2 0xC53 DUP3 DUP3 PUSH2 0x1015 JUMP JUMPDEST SWAP2 SWAP1 POP JUMP JUMPDEST PUSH1 0x0 PUSH1 0x40 MLOAD SWAP1 POP SWAP1 JUMP JUMPDEST PUSH1 0x0 PUSH8 0xFFFFFFFFFFFFFFFF DUP3 GT ISZERO PUSH2 0xC7D JUMPI PUSH2 0xC7C PUSH2 0x114D JUMP JUMPDEST JUMPDEST PUSH2 0xC86 DUP3 PUSH2 0x1190 JUMP JUMPDEST SWAP1 POP PUSH1 0x20 DUP2 ADD SWAP1 POP SWAP2 SWAP1 POP JUMP JUMPDEST PUSH1 0x0 DUP2 MLOAD SWAP1 POP SWAP2 SWAP1 POP JUMP JUMPDEST PUSH1 0x0 DUP3 DUP3 MSTORE PUSH1 0x20 DUP3 ADD SWAP1 POP SWAP3 SWAP2 POP POP JUMP JUMPDEST PUSH1 0x0 PUSH2 0xCBA DUP3 PUSH2 0xF8A JUMP JUMPDEST SWAP2 POP PUSH2 0xCC5 DUP4 PUSH2 0xF8A JUMP JUMPDEST SWAP3 POP DUP3 PUSH32 0xFFFFFFFFFFFFFFFFFFFFFFFFFFFFFFFFFFFFFFFFFFFFFFFFFFFFFFFFFFFFFFFF SUB DUP3 GT ISZERO PUSH2 0xCFA JUMPI PUSH2 0xCF9 PUSH2 0x10C0 JUMP JUMPDEST JUMPDEST DUP3 DUP3 ADD SWAP1 POP SWAP3 SWAP2 POP POP JUMP JUMPDEST PUSH1 0x0 PUSH2 0xD10 DUP3 PUSH2 0xF8A JUMP JUMPDEST SWAP2 POP PUSH2 0xD1B DUP4 PUSH2 0xF8A JUMP JUMPDEST SWAP3 POP DUP3 PUSH2 0xD2B JUMPI PUSH2 0xD2A PUSH2 0x10EF JUMP JUMPDEST JUMPDEST DUP3 DUP3 DIV SWAP1 POP SWAP3 SWAP2 POP POP JUMP JUMPDEST PUSH1 0x0 DUP1 DUP3 SWAP2 POP DUP4 SWAP1 POP JUMPDEST PUSH1 0x1 DUP6 GT ISZERO PUSH2 0xD80 JUMPI DUP1 DUP7 DIV DUP2 GT ISZERO PUSH2 0xD5C JUMPI PUSH2 0xD5B PUSH2 0x10C0 JUMP JUMPDEST JUMPDEST PUSH1 0x1 DUP6 AND ISZERO PUSH2 0xD6B JUMPI DUP1 DUP3 MUL SWAP2 POP JUMPDEST DUP1 DUP2 MUL SWAP1 POP PUSH2 0xD79 DUP6 PUSH2 0x11A1 JUMP JUMPDEST SWAP5 POP PUSH2 0xD40 JUMP JUMPDEST SWAP5 POP SWAP5 SWAP3 POP POP POP JUMP JUMPDEST PUSH1 0x0 PUSH2 0xD94 DUP3 PUSH2 0xF8A JUMP JUMPDEST SWAP2 POP PUSH2 0xD9F DUP4 PUSH2 0xF94 JUMP JUMPDEST SWAP3 POP PUSH2 0xDCC PUSH32 0xFFFFFFFFFFFFFFFFFFFFFFFFFFFFFFFFFFFFFFFFFFFFFFFFFFFFFFFFFFFFFFFF DUP5 DUP5 PUSH2 0xDD4 JUMP JUMPDEST SWAP1 POP SWAP3 SWAP2 POP POP JUMP JUMPDEST PUSH1 0x0 DUP3 PUSH2 0xDE4 JUMPI PUSH1 0x1 SWAP1 POP PUSH2 0xEA0 JUMP JUMPDEST DUP2 PUSH2 0xDF2 JUMPI PUSH1 0x0 SWAP1 POP PUSH2 0xEA0 JUMP JUMPDEST DUP2 PUSH1 0x1 DUP2 EQ PUSH2 0xE08 JUMPI PUSH1 0x2 DUP2 EQ PUSH2 0xE12 JUMPI PUSH2 0xE41 JUMP JUMPDEST PUSH1 0x1 SWAP2 POP POP PUSH2 0xEA0 JUMP JUMPDEST PUSH1 0xFF DUP5 GT ISZERO PUSH2 0xE24 JUMPI PUSH2 0xE23 PUSH2 0x10C0 JUMP JUMPDEST JUMPDEST DUP4 PUSH1 0x2 EXP SWAP2 POP DUP5 DUP3 GT ISZERO PUSH2 0xE3B JUMPI PUSH2 0xE3A PUSH2 0x10C0 JUMP JUMPDEST JUMPDEST POP PUSH2 0xEA0 JUMP JUMPDEST POP PUSH1 0x20 DUP4 LT PUSH2 0x133 DUP4 LT AND PUSH1 0x4E DUP5 LT PUSH1 0xB DUP5 LT AND OR ISZERO PUSH2 0xE76 JUMPI DUP3 DUP3 EXP SWAP1 POP DUP4 DUP2 GT ISZERO PUSH2 0xE71 JUMPI PUSH2 0xE70 PUSH2 0x10C0 JUMP JUMPDEST JUMPDEST PUSH2 0xEA0 JUMP JUMPDEST PUSH2 0xE83 DUP5 DUP5 DUP5 PUSH1 0x1 PUSH2 0xD36 JUMP JUMPDEST SWAP3 POP SWAP1 POP DUP2 DUP5 DIV DUP2 GT ISZERO PUSH2 0xE9A JUMPI PUSH2 0xE99 PUSH2 0x10C0 JUMP JUMPDEST JUMPDEST DUP2 DUP2 MUL SWAP1 POP JUMPDEST SWAP4 SWAP3 POP POP POP JUMP JUMPDEST PUSH1 0x0 PUSH2 0xEB2 DUP3 PUSH2 0xF8A JUMP JUMPDEST SWAP2 POP PUSH2 0xEBD DUP4 PUSH2 0xF8A JUMP JUMPDEST SWAP3 POP DUP2 PUSH32 0xFFFFFFFFFFFFFFFFFFFFFFFFFFFFFFFFFFFFFFFFFFFFFFFFFFFFFFFFFFFFFFFF DIV DUP4 GT DUP3 ISZERO ISZERO AND ISZERO PUSH2 0xEF6 JUMPI PUSH2 0xEF5 PUSH2 0x10C0 JUMP JUMPDEST JUMPDEST DUP3 DUP3 MUL SWAP1 POP SWAP3 SWAP2 POP POP JUMP JUMPDEST PUSH1 0x0 PUSH2 0xF0C DUP3 PUSH2 0xF8A JUMP JUMPDEST SWAP2 POP PUSH2 0xF17 DUP4 PUSH2 0xF8A JUMP JUMPDEST SWAP3 POP DUP3 DUP3 LT ISZERO PUSH2 0xF2A JUMPI PUSH2 0xF29 PUSH2 0x10C0 JUMP JUMPDEST JUMPDEST DUP3 DUP3 SUB SWAP1 POP SWAP3 SWAP2 POP POP JUMP JUMPDEST PUSH1 0x0 PUSH2 0xF40 DUP3 PUSH2 0xF6A JUMP JUMPDEST SWAP1 POP SWAP2 SWAP1 POP JUMP JUMPDEST PUSH1 0x0 DUP2 ISZERO ISZERO SWAP1 POP SWAP2 SWAP1 POP JUMP JUMPDEST PUSH1 0x0 DUP2 SWAP1 POP SWAP2 SWAP1 POP JUMP JUMPDEST PUSH1 0x0 DUP2 PUSH1 0x0 SIGNEXTEND SWAP1 POP SWAP2 SWAP1 POP JUMP JUMPDEST PUSH1 0x0 PUSH20 0xFFFFFFFFFFFFFFFFFFFFFFFFFFFFFFFFFFFFFFFF DUP3 AND SWAP1 POP SWAP2 SWAP1 POP JUMP JUMPDEST PUSH1 0x0 DUP2 SWAP1 POP SWAP2 SWAP1 POP JUMP JUMPDEST PUSH1 0x0 PUSH1 0xFF DUP3 AND SWAP1 POP SWAP2 SWAP1 POP JUMP JUMPDEST DUP3 DUP2 DUP4 CALLDATACOPY PUSH1 0x0 DUP4 DUP4 ADD MSTORE POP POP POP JUMP JUMPDEST PUSH1 0x0 JUMPDEST DUP4 DUP2 LT ISZERO PUSH2 0xFCE JUMPI DUP1 DUP3 ADD MLOAD DUP2 DUP5 ADD MSTORE PUSH1 0x20 DUP2 ADD SWAP1 POP PUSH2 0xFB3 JUMP JUMPDEST DUP4 DUP2 GT ISZERO PUSH2 0xFDD JUMPI PUSH1 0x0 DUP5 DUP5 ADD MSTORE JUMPDEST POP POP POP POP JUMP JUMPDEST PUSH1 0x0 PUSH1 0x2 DUP3 DIV SWAP1 POP PUSH1 0x1 DUP3 AND DUP1 PUSH2 0xFFB JUMPI PUSH1 0x7F DUP3 AND SWAP2 POP JUMPDEST PUSH1 0x20 DUP3 LT DUP2 EQ ISZERO PUSH2 0x100F JUMPI PUSH2 0x100E PUSH2 0x111E JUMP JUMPDEST JUMPDEST POP SWAP2 SWAP1 POP JUMP JUMPDEST PUSH2 0x101E DUP3 PUSH2 0x1190 JUMP JUMPDEST DUP2 ADD DUP2 DUP2 LT PUSH8 0xFFFFFFFFFFFFFFFF DUP3 GT OR ISZERO PUSH2 0x103D JUMPI PUSH2 0x103C PUSH2 0x114D JUMP JUMPDEST JUMPDEST DUP1 PUSH1 0x40 MSTORE POP POP POP JUMP JUMPDEST PUSH1 0x0 PUSH2 0x1051 DUP3 PUSH2 0xF8A JUMP JUMPDEST SWAP2 POP PUSH2 0x105C DUP4 PUSH2 0xF8A JUMP JUMPDEST SWAP3 POP DUP3 PUSH2 0x106C JUMPI PUSH2 0x106B PUSH2 0x10EF JUMP JUMPDEST JUMPDEST DUP3 DUP3 MOD SWAP1 POP SWAP3 SWAP2 POP POP JUMP JUMPDEST PUSH1 0x0 PUSH2 0x1082 DUP3 PUSH2 0xF53 JUMP JUMPDEST SWAP2 POP PUSH32 0x8000000000000000000000000000000000000000000000000000000000000000 DUP3 EQ ISZERO PUSH2 0x10B5 JUMPI PUSH2 0x10B4 PUSH2 0x10C0 JUMP JUMPDEST JUMPDEST DUP2 PUSH1 0x0 SUB SWAP1 POP SWAP2 SWAP1 POP JUMP JUMPDEST PUSH32 0x4E487B7100000000000000000000000000000000000000000000000000000000 PUSH1 0x0 MSTORE PUSH1 0x11 PUSH1 0x4 MSTORE PUSH1 0x24 PUSH1 0x0 REVERT JUMPDEST PUSH32 0x4E487B7100000000000000000000000000000000000000000000000000000000 PUSH1 0x0 MSTORE PUSH1 0x12 PUSH1 0x4 MSTORE PUSH1 0x24 PUSH1 0x0 REVERT JUMPDEST PUSH32 0x4E487B7100000000000000000000000000000000000000000000000000000000 PUSH1 0x0 MSTORE PUSH1 0x22 PUSH1 0x4 MSTORE PUSH1 0x24 PUSH1 0x0 REVERT JUMPDEST PUSH32 0x4E487B7100000000000000000000000000000000000000000000000000000000 PUSH1 0x0 MSTORE PUSH1 0x41 PUSH1 0x4 MSTORE PUSH1 0x24 PUSH1 0x0 REVERT JUMPDEST PUSH1 0x0 DUP1 REVERT JUMPDEST PUSH1 0x0 DUP1 REVERT JUMPDEST PUSH1 0x0 DUP1 REVERT JUMPDEST PUSH1 0x0 DUP1 REVERT JUMPDEST PUSH1 0x0 PUSH1 0x1F NOT PUSH1 0x1F DUP4 ADD AND SWAP1 POP SWAP2 SWAP1 POP JUMP JUMPDEST PUSH1 0x0 DUP2 PUSH1 0x1 SHR SWAP1 POP SWAP2 SWAP1 POP JUMP JUMPDEST PUSH2 0x11B7 DUP2 PUSH2 0xF35 JUMP JUMPDEST DUP2 EQ PUSH2 0x11C2 JUMPI PUSH1 0x0 DUP1 REVERT JUMPDEST POP JUMP JUMPDEST PUSH2 0x11CE DUP2 PUSH2 0xF47 JUMP JUMPDEST DUP2 EQ PUSH2 0x11D9 JUMPI PUSH1 0x0 DUP1 REVERT JUMPDEST POP JUMP JUMPDEST PUSH2 0x11E5 DUP2 PUSH2 0xF8A JUMP JUMPDEST DUP2 EQ PUSH2 0x11F0 JUMPI PUSH1 0x0 DUP1 REVERT JUMPDEST POP JUMP INVALID LOG2 PUSH5 0x6970667358 0x22 SLT KECCAK256 DIV PUSH32 0x86BD2599A866F765414A242190736C2BBEC87072EBD34107BFD44A2B79866473 PUSH16 0x6C634300080700330000000000000000 "
		},
		"gasEstimates": {
			"creation": {
				"codeDepositCost": "929800",
				"executionCost": "infinite",
				"totalCost": "infinite"
			},
			"external": {
				"demo()": "27330",
				"demo(string)": "infinite",
				"demo(uint256)": "infinite",
				"getBalance(address)": "3389",
				"inc()": "26640",
				"maximum()": "2540",
				"minimum()": "2562",
				"myAddr()": "2602",
				"myBool()": "2566",
				"myFunc(bool)": "555",
				"myInt()": "2452",
				"mySmaillUint()": "2560",
				"mySmallInt()": "2542",
				"myStr()": "infinite",
				"myUint()": "2497",
				"myVal()": "2581",
				"owner()": "2586",
				"payForItem()": "22434",
				"payments(address)": "2880",
				"receiveFunds()": "22346",
				"transferTo(address,uint256)": "infinite",
				"withdrawAll()": "infinite"
			}
		},
		"methodIdentifiers": {
			"demo()": "01725a0b",
			"demo(string)": "939a79ac",
			"demo(uint256)": "071bd079",
			"getBalance(address)": "f8b2cb4f",
			"inc()": "371303c0",
			"maximum()": "52342f13",
			"minimum()": "52d6804d",
			"myAddr()": "e665b266",
			"myBool()": "6deecdbe",
			"myFunc(bool)": "8b36687e",
			"myInt()": "2cb777a6",
			"mySmaillUint()": "3891e899",
			"mySmallInt()": "7a28a513",
			"myStr()": "5a455c1c",
			"myUint()": "06540f7e",
			"myVal()": "ed32ca32",
			"owner()": "8da5cb5b",
			"payForItem()": "13bea460",
			"payments(address)": "e2982c21",
			"receiveFunds()": "005c33e1",
			"transferTo(address,uint256)": "2ccb1b30",
			"withdrawAll()": "853828b6"
		}
	},
	"abi": [
		{
			"inputs": [],
			"stateMutability": "nonpayable",
			"type": "constructor"
		},
		{
			"inputs": [],
			"name": "demo",
			"outputs": [],
			"stateMutability": "nonpayable",
			"type": "function"
		},
		{
			"inputs": [
				{
					"internalType": "uint256",
					"name": "_inputUint",
					"type": "uint256"
				}
			],
			"name": "demo",
			"outputs": [],
			"stateMutability": "nonpayable",
			"type": "function"
		},
		{
			"inputs": [
				{
					"internalType": "string",
					"name": "newValueStr",
					"type": "string"
				}
			],
			"name": "demo",
			"outputs": [],
			"stateMutability": "nonpayable",
			"type": "function"
		},
		{
			"inputs": [
				{
					"internalType": "address",
					"name": "targetAddr",
					"type": "address"
				}
			],
			"name": "getBalance",
			"outputs": [
				{
					"internalType": "uint256",
					"name": "",
					"type": "uint256"
				}
			],
			"stateMutability": "view",
			"type": "function"
		},
		{
			"inputs": [],
			"name": "inc",
			"outputs": [],
			"stateMutability": "nonpayable",
			"type": "function"
		},
		{
			"inputs": [],
			"name": "maximum",
			"outputs": [
				{
					"internalType": "uint256",
					"name": "",
					"type": "uint256"
				}
			],
			"stateMutability": "view",
			"type": "function"
		},
		{
			"inputs": [],
			"name": "minimum",
			"outputs": [
				{
					"internalType": "uint256",
					"name": "",
					"type": "uint256"
				}
			],
			"stateMutability": "view",
			"type": "function"
		},
		{
			"inputs": [],
			"name": "myAddr",
			"outputs": [
				{
					"internalType": "address",
					"name": "",
					"type": "address"
				}
			],
			"stateMutability": "view",
			"type": "function"
		},
		{
			"inputs": [],
			"name": "myBool",
			"outputs": [
				{
					"internalType": "bool",
					"name": "",
					"type": "bool"
				}
			],
			"stateMutability": "view",
			"type": "function"
		},
		{
			"inputs": [
				{
					"internalType": "bool",
					"name": "_inputBool",
					"type": "bool"
				}
			],
			"name": "myFunc",
			"outputs": [],
			"stateMutability": "nonpayable",
			"type": "function"
		},
		{
			"inputs": [],
			"name": "myInt",
			"outputs": [
				{
					"internalType": "int256",
					"name": "",
					"type": "int256"
				}
			],
			"stateMutability": "view",
			"type": "function"
		},
		{
			"inputs": [],
			"name": "mySmaillUint",
			"outputs": [
				{
					"internalType": "uint8",
					"name": "",
					"type": "uint8"
				}
			],
			"stateMutability": "view",
			"type": "function"
		},
		{
			"inputs": [],
			"name": "mySmallInt",
			"outputs": [
				{
					"internalType": "int8",
					"name": "",
					"type": "int8"
				}
			],
			"stateMutability": "view",
			"type": "function"
		},
		{
			"inputs": [],
			"name": "myStr",
			"outputs": [
				{
					"internalType": "string",
					"name": "",
					"type": "string"
				}
			],
			"stateMutability": "view",
			"type": "function"
		},
		{
			"inputs": [],
			"name": "myUint",
			"outputs": [
				{
					"internalType": "uint256",
					"name": "",
					"type": "uint256"
				}
			],
			"stateMutability": "view",
			"type": "function"
		},
		{
			"inputs": [],
			"name": "myVal",
			"outputs": [
				{
					"internalType": "uint8",
					"name": "",
					"type": "uint8"
				}
			],
			"stateMutability": "view",
			"type": "function"
		},
		{
			"inputs": [],
			"name": "owner",
			"outputs": [
				{
					"internalType": "address",
					"name": "",
					"type": "address"
				}
			],
			"stateMutability": "view",
			"type": "function"
		},
		{
			"inputs": [],
			"name": "payForItem",
			"outputs": [],
			"stateMutability": "payable",
			"type": "function"
		},
		{
			"inputs": [
				{
					"internalType": "address",
					"name": "",
					"type": "address"
				}
			],
			"name": "payments",
			"outputs": [
				{
					"internalType": "uint256",
					"name": "",
					"type": "uint256"
				}
			],
			"stateMutability": "view",
			"type": "function"
		},
		{
			"inputs": [],
			"name": "receiveFunds",
			"outputs": [],
			"stateMutability": "payable",
			"type": "function"
		},
		{
			"inputs": [
				{
					"internalType": "address",
					"name": "targetAddr",
					"type": "address"
				},
				{
					"internalType": "uint256",
					"name": "amount",
					"type": "uint256"
				}
			],
			"name": "transferTo",
			"outputs": [],
			"stateMutability": "nonpayable",
			"type": "function"
		},
		{
			"inputs": [],
			"name": "withdrawAll",
			"outputs": [],
			"stateMutability": "nonpayable",
			"type": "function"
		}
	]
}